:020000041100E9
:103000007FB50023284C294D03932800217C284AB2
:1030100001F0E5FA002812D103232800217C03AA3D
:1030200001F084FA00280AD1224B039A9A4206D171
:10303000214B2248E360224B636104B070BD02263D
:10304000217CFE2228001F4B009601F041FA002847
:1030500001D00020F1E71C4BA2899A42F9D1217CD2
:10306000FF222800194B009601F032FA0028F0D117
:10307000E389174A934203D1164B17486361DCE793
:10308000164A9342E5D1164B164A1B68934206D95D
:10309000C02304222800217C9B0001F082FA124BFD
:1030A00012486361C9E7C046D861FF1F2C42FF1F69
:1030B00081370000595953005959832004C1001128
:1030C00015420011E461FF1F59590000E661FF1F1E
:1030D00083050000CD410011E4C0001182150000FD
:1030E000FC61FF1F87130000CD420011F4C00011E6
:1030F00070B5134D2B7C002B0DD0124C200001F02D
:1031000095F9297C382907D1BA22200001F038FA34
:10311000200001F0C9F970BDEB890B4A934206D13A
:103120009023022220001B0201F03BFAF0E7074A3D
:103130009342EDD12000064A01F051FAE8E7C0467B
:10314000D861FF1F2C42FF1F830500008320000071
:10315000A2300000002370B51A4E1B4C3000636192
:10316000637401F063F9402323744B2B0CD9CC23F7
:103170003821AC2230009B01217401F012FA0028A2
:103180000AD0002525740CE0FFF73AFF051E08D190
:10319000237C0433DBB2E7E70C4B0D4D63610D4B31
:1031A000E3812368002B08D1002D06D00C222900D2
:1031B000200008F0EDFE2B7B6374300001F074F901
:1031C00070BDC0462C42FF1FD861FF1F694200112D
:1031D000D4C00011AAAAFFFFF7B5164B0192C3187D
:1031E000021D0020009388235B05D3181B685C1C1C
:1031F0001AD09CB2402C18D88D781E0CAC4667466D
:10320000CD782D023D43AE4206D1019800280ED163
:1032100010000C70240A4C7003249BB20733A343A4
:10322000D218009B9A42DED3FEBD4432F9E710006B
:10323000FAE7C046FC0F0000802213B50300032408
:10324000019189B2520107319B18A14304305A1AE7
:1032500088235B05C3181B68591C03D19042924117
:10326000104016BD99B2402907D80B000733A3437D
:10327000C0189042ECD30020F3E74430F9E7134B39
:10328000134A1B68126810B5FA24934201D81A0039
:10329000F824104BE4021B689A4210D813000E4A1F
:1032A00012689A420ED3013307D1F823DB029C4205
:1032B00003D10A49054808F09BFB200010BDFC24FF
:1032C000E402ECE7FE24E402F7E7C04600C0071181
:1032D00000D0071100E0071100F00711FFFFFF7F8A
:1032E000F0B59BB0150003900491402A5CD806AC61
:1032F00061802280FFF7C3FF002221000600FFF754
:103300006BFF05280FD92388AB420CD1002D07D0C5
:10331000504B2A000399C01808F0F2FB002802D194
:1033200001201BB0F0BD258030000699FFF784FF17
:10333000041E79D1069B0793FFF7A1FF80235B0151
:10334000C618802307001B039E4201D1F826F6020F
:1033500088235B05F31801931B68013302D00198A1
:1033600008F076FD3C49019808F042FB3B1D0293B2
:10337000331D05938822029B52059B181B680893F6
:103380005A1C13D188235B05FF183968019801394D
:1033900008F02EFB380008F05BFD30000799FFF7BE
:1033A0004BFF0400002C41D10020BAE744219AB21F
:1033B0000091402A04D80320D11D814389B2009195
:1033C00004991B0C8B4224D0402A22D801223000C1
:1033D00008A9FFF701FF021E1BD1380008A9FFF75B
:1033E000FBFE04000428DDD9009A059B9B1880226F
:1033F0005201B21893422AD288235B05C118009A61
:1034000009A808F0C5FD134B009A09A9F01808F0A7
:10341000EFFD009A029B9446634402930F4B029A7D
:10342000FB189A42A6D3ADE70428BDD088235B05DC
:10343000E018069908F0DCFA0323EA1C9A4300D14D
:103440006EE7044B0399E01808F0D2FD68E7042406
:10345000ECE7C04604000011FFFFFF7FF80F0000FB
:1034600073B504001600402A1ED801AD6980FFF72D
:1034700006FF002229002A80FFF7AEFE042810D99B
:103480002D88002E0BD0002C09D0321CAE4200D962
:103490002A1C074B92B2C118200008F079FD28B20F
:1034A00076BDC04300B2FBE703204042F8E7C046C8
:1034B0000400001137B5042204000D0001A81649CC
:1034C000FFF7CEFF020004280BD1019BA34208D3D3
:1034D000AB4204D0104901A80195FFF701FF01207C
:1034E0003EBD0E4C23682000019308F0B1FC019909
:1034F00020000139019108F07BFA80235B01E41878
:10350000074B9C42EED10422034901A80195FFF725
:10351000E7FE0020E4E7C0465555000000C0071153
:1035200000000811F0B589B008F0FAFA10226946D7
:10353000264808F0F5FC264B009A6C469A4211D1B9
:10354000019B0F2B35D80699029A8C461800110062
:10355000002604AD013808D2002E01D00A00A16077
:1035600001322FD10023A36023E04F1CF2D161462A
:103570000126EFE7103610222900300008F0D0FCB9
:10358000A368A868013300D1A060882329685B057F
:10359000C9186B6829601A03120B6A60814203D054
:1035A0003B4201D108F0F4FC6368013B6360002BEF
:1035B000E0D1A368002B03D0049304984168084726
:1035C00009B0F0BDE027014E3F03F0E70000011114
:1035D000504859368022F8B5964C974BD2000021BE
:1035E00020001C6008F00CFB2300944A88331A600A
:1035F000934B1A786A23002A00D01133E3620A231E
:103600002365904B37221B780820A3638E4B21182B
:10361000E361102323628D4B3B256361C823DB00EC
:10362000A36123008C331A602823013AE2632064EB
:103630006364CA67043A211DCA672100BC310D606A
:103640002100C03108602100C4310B602100063523
:10365000CC310D602100083DC8310D602100D03112
:103660000A602200D43210602200D8321360220097
:103670000227E032210017604222DC310A6021007B
:103680001B3DE4310D602100E83108602100EC3180
:103690000B6023000521F43319602300F0331A6016
:1036A0002300183290331A602300943318602300EB
:1036B0001E3A98331A60AF23DB002360644BFA266E
:1036C0002363644B644DE360644BF031A3642300D7
:1036D000FF31FC33B600A16021611E60A562732535
:1036E000E5656D3D6565A56596255D4AAD00E264BD
:1036F000666258606766A56600270925A767E566C4
:10370000584F594D606720002567E2673A601527DA
:103710009C30676007001A2038602000A030070046
:10372000212038602000A83007004C483860200075
:10373000F830066026006427A436376026005F3F15
:10374000AC3637602600033FB03637602600C637F8
:10375000B436376026000027B836376038269E60BA
:10376000424E96205E64424E5A66DE61414E9A6435
:103770005E62F53EFF3E9E621E269A67354A8000D5
:10378000DE661F675F67DD651D661862DA67BE2348
:10379000394A5B00E250394BD8382350043022506C
:1037A000C4225200A350C623E4205B00E15004333E
:1037B000334AE1503349344BD160344980001950C9
:1037C0003349E938FF381950324904301950324929
:1037D0003248D16132491163324951631900F431E1
:1037E0000860CE203049400011603049195019005E
:1037F0002F48F83108602F49D16582212E4A89006F
:103800005A501A002D490832D1671A002C49B43297
:10381000116088212B4A89005A501A002A4988329F
:1038200011602A4ADA6408F03BFB012008F0B0F985
:10383000F8BDC0460004FF1F8864FF1F506FFF1FC4
:103840006444FF1F4A0AFF1F3A07000080C3C901F2
:103850009A020000DC0500006A18000050C3000056
:1038600088130000F009FF1F204E00006509FF1FAC
:1038700068100000C409000040420F00102700003B
:10388000FC00FF1FA91CFF1F0000FF1F012DFF1FD1
:103890008930FF1F212FFF1F6920FF1F6127FF1F96
:1038A0008520FF1F3522FF1FF51FFF1F8529FF1FE2
:1038B0006D2AFF1F8D19FF1F9128FF1FBD25FF1FB8
:1038C000C925FF1FF51EFF1FAD1FFF1F6D1EFF1F28
:1038D0000223F0B50124634D8FB02B70624B634E11
:1038E0001C70634F0393336821000F20FB7006F0B8
:1038F00087FE00210F2006F069FF0F2006F060FE12
:103900000023984205D0FA78552A02D0332A00D0F5
:103910009BE03360042007F0BFF808F061FBFFF77D
:1039200059FE08F045FB1F2201240021514B2E2691
:103930001A70514B1C70514B1970514B19689143BF
:10394000163A0A431A60602219689143403A0A43C2
:103950001A6008F05DFA08F093FA4A4B9847C120C4
:10396000FF21494B80001A588A431A50C522920001
:1039700098588843BF3901439950985843490840A3
:103980008021C9010143802099509958C00509023E
:10399000090A0143995080213D48490108F0D8F8AF
:1039A0000323220000933B4901943B4808F080F92F
:1039B00026223A4904A808F0EBFA02AB04ACF61848
:1039C00061782078023406F01BFEA642F8D1344C10
:1039D000344B226803201A40A023DB0213432360E8
:1039E000802322689B041343236022682E4B1A40D5
:1039F00080239B03134323602C4A2D4B934200D812
:103A0000012008F0FDF908F0ABFA80232268DB04FE
:103A100013432360287808F06BFA039B1878C0B230
:103A200007F0DEFF08F044FA2249042008F020FAEB
:103A300006F0FEFF00F040F800F006FE00F0ACFEDD
:103A400000F0F6F900200FB0F0BD00932100194AF4
:103A5000042007F0B5FF8023DB059C62FFF762FDC1
:103A600058E7C0464A0AFF1F6444FF1F34F0004075
:103A70000862FF1F480AFF1F490AFF1F680AFF1F4D
:103A8000BCF00040E1A2000000E100E0FF00FFFF09
:103A90006844FF1FEC56FF1F6854FF1F00C0001151
:103AA00014F00040FF7FF8FFFFFF9FFF0080FF1F23
:103AB000506FFF1F3B000108002210B511001120BC
:103AC00008F0EEF810BD0000F8B500230926374FC6
:103AD000374C3B62E3681120B343E36008F068F9B8
:103AE000112008F075F8112008F0FAF94023226837
:103AF00080251343236080236268DB0213436360E5
:103B0000A3682C4A2B43A360A36802211340A3603F
:103B10008023A2689B0113431022A360236C07201B
:103B200093432364236C0F3A1343236480235B0085
:103B30003B62226B204B1A402263626B1A40626325
:103B4000A26B1A40A263E26B1340E363E3681B4A73
:103B50001340E36006F054FD0121072006F064FEE7
:103B6000174B11205A6C15435D6407F059FFFD2176
:103B7000144B154A89005A508023C720626B5B039F
:103B800013436363E36880003343E3600F4B104AE1
:103B900019581140802212020A431A5080229205BD
:103BA0001A6008220B4B5A63F8BDC04600F0004073
:103BB0003CF00040FFFFDFFFEFFFEFFFFFFF7FFF65
:103BC000003800400000FF1F5118FF1F00E100E017
:103BD000FF00FFFF0000054010B502F0F9F8FFF705
:103BE00087FAE120C00407F093FF10BD70B51A4CAE
:103BF000E388002B2AD0FA22D200934201D2FFF7A9
:103C0000EBFF2368E088A688C0188023711C89B266
:103C1000124D2060A1809B00994218D3420A93B2B2
:103C2000C21AEB802260A6800D4A642093420AD813
:103C3000FA220020D200934205D90A21180008F088
:103C4000BFF9C838C0B200232872E38070BD07F006
:103C50006FFF83B2EB80E7E76461FF1FF061FF1F36
:103C6000B70B000030B503A804880B20002C0ED140
:103C70004968074D08784978090201430A20A9429A
:103C800005D1012120001980024B1B7A137030BD31
:103C9000192A0000F061FF1FF7B5150008AA168861
:103CA0004A680F4F14785278120222430A24BA420B
:103CB00014D10122DBB2019200962A0007F004FE23
:103CC000041E0BD1074B1B68002B07D068782A789D
:103CD0000002104342425041013098472000FEBD8F
:103CE000022900007461FF1F30B50125037904002B
:103CF000BFB02B4211D00A49408807F055F928423D
:103D00000BD0084B01A95B8D4D800B80064B002228
:103D10001B7A60880B7104F037FA3FB030BDC046A3
:103D20006C61FF1FA040FF1FF061FF1F10B5054928
:103D3000054807F0EFF80421044A054807F0ACF8FD
:103D400010BDC0466C61FF1FFFFF000028C00011BE
:103D5000A040FF1F10B5024805F09AF810BDC046FC
:103D6000E93C0011012303700B4B1A7A42700222C6
:103D700082709A78C270DA780271032242711A79DD
:103D800082715A79C2710C2202729A794272DB797D
:103D900083720B207047C046F061FF1F022310B5ED
:103DA0000370013B43700533837010330371443B50
:103DB00043712A3383714433C37100230372054B6B
:103DC00004001B8843720A30FFF7CCFF1123152033
:103DD000E37010BDF061FF1F10B5142007F0C8FE9E
:103DE000124B14220021186007F00AFF002007F090
:103DF0001FFE012007F04CFF022008F019F80320F5
:103E000004F0E8FA042006F001FB052003F020FD91
:103E1000062004F0F3F9072001F074FB082007F0F6
:103E20001BF8092001F0A8F810BDC0467861FF1FFB
:103E300007F0F6FE012007F013FE07F051FF000027
:103E4000094B10B50400984205D0012904D1200087
:103E5000064907F05FF810BD0229FCD1013904F0D2
:103E6000D1FF0028F3D0F6E7FEFF00009E61FF1FA0
:103E700070B50D7A100004AA2C0016881022144088
:103E8000154220D1002E20D10A78022A18D14A6882
:103E9000517815780E4A09022943914205D00D4AFE
:103EA000914209D01C800A2404E014220A491A8095
:103EB00008F06EF8200070BD0C2208491A80F7E760
:103EC0001C800124F6E70824F4E70B24F2E7C0463F
:103ED000F3FF0000F4FF0000F042FF1F20C10011BB
:103EE00010B504000749084807F014F8074804F023
:103EF0000BFF0020E40704D50721054A054806F01A
:103F0000CBFF10BD9E61FF1FFFFF0000413E00116F
:103F10006CC00011E440FF1F10B50B4BBEB01A7807
:103F20000A4902A800F0FEFC01AC80B260800028C3
:103F300008D0074B00221B8821002380054B1888DE
:103F400004F022F93EB010BD7C61FF1F7D61FF1FB0
:103F50003E41FF1F4842FF1F10B50B4BBEB01A7801
:103F60000A4902A802F054F801AC80B2608000282F
:103F700008D0074B00225B8D21002380054B188859
:103F800004F002F93EB010BDA661FF1FA761FF1F3C
:103F9000E440FF1F4842FF1FF7B50E00377A1C00B0
:103FA00008AB11003D001A8820231D401F423CD160
:103FB0003378022B3BD173681F785B781B023B433D
:103FC0001E4FBB4208D01E4FBB4214D01D4DAB420A
:103FD00021D00A252800FEBD002A2AD1142C2AD877
:103FE0002200F06807F0D4FF174B1C70012CF1D9A8
:103FF000FFF7B2FFEEE7002A1BD1202C1BD82200CE
:10400000F06807F0C5FF114B04211C70104B1878A5
:1040100007F0A6FDDEE7E3B20124009201940A0056
:10402000310007F051FC0500D4E70825D2E701254F
:10403000D0E70B25CEE70D25CCE7C046F3FF000007
:10404000F4FF000002290000A661FF1F7C61FF1F32
:104050002862FF1F332310B5040003700A220749AA
:10406000013007F095FF064B0F201B681A0AE37218
:1040700022731A0C1B0E6273A37310BDF061FF1F35
:104080001862FF1F30B5012503790400BFB02B4231
:1040900013D00B49408806F087FF28420DD0094B0A
:1040A00001AD1B8802A82B80FFF7D4FF0F236B8084
:1040B00000222900608804F067F83FB030BDC04698
:1040C0009E61FF1F3E41FF1F10B5024804F0E0FE55
:1040D00010BDC0468540001170B5160004AA1488B2
:1040E00005AA15784A685078117800022A4A0843D0
:1040F000801805284BD807F04BFE03131E29343FC8
:104100000720032C0BD80422121BAA4200D92A0034
:1041100022491A803000091907F03AFF002070BDCB
:104120000720112CFBD81222121BAA4200D92A0008
:104130001B491A80EEE707200E2CF0D80F22121B25
:10414000AA4200D92A0017491A80E3E70720032C66
:10415000E5D80422121BAA4200D92A0012491A806B
:10416000D8E70720032CDAD80422121BAA4200D970
:104170002A000E491A80CDE70720032CCFD804224D
:10418000121BAA4200D92A0009491A80C2E700225C
:104190000A201A80C3E7C046DCD5FFFFB7C0001174
:1041A000C461FF1FA7C00011A2C000119DC0001173
:1041B00098C0001110B50D21024A034806F06CFEAC
:1041C00010BDC0468CC000115441FF1F37B50F4CC5
:1041D00001AD04232A00217C00F0A8F9002813D1A6
:1041E0002988236849BA89B24B4321891B0C5B1883
:1041F000074A6988538049BA636889B24B43618929
:104200001B0C5B1893803EBD0120FCE7D861FF1FAB
:10421000F061FF1F37B5124C06236A46217C6D46BC
:1042200000F084F9002818D12988236849BA89B296
:104230004B4321890B4A1B0C5B1853806B4603339D
:104240005B78E9781B020B435BBA61689BB24B4316
:1042500061891B0C5B1893803EBD0120FCE7C046C2
:10426000D861FF1FF061FF1F73B5164C07236A4624
:10427000217C6D4600F05AF9002820D12B787F2B45
:104280001DD8F023EE781B0332041A40AB880E4988
:104290005BBA9BB21A4323683609534322891B0C2D
:1042A0009B184B806A78AB7812031B011A43636832
:1042B0003243534362891B0C9B188B8076BD0120CF
:1042C000FCE7C046D861FF1FF061FF1FF0B5022771
:1042D00085B0154C03AD217C2B0000220097060011
:1042E00000F0F6F8002802D0012005B0F0BD0E2342
:1042F000217C0122300000976B4400F0E9F800288F
:10430000F2D129882368C9BA4B4321891B145B1851
:10431000064A6988538049BA636889B24B43618908
:104320001B0C5B189380E0E7D861FF1FF061FF1F53
:1043300070B5184C237C002B0FD0382B0ED1164DA6
:10434000280000F073F8CC23AC222800217C9B01CC
:1043500000F027F9280000F0A7F870BDE3890F4AA4
:10436000934209D10C4D280000F060F8002228008B
:10437000217C00F005F9EDE7094A9342EDD1064DA5
:10438000280000F053F890222800217C920100F0D0
:1043900026F9DFE7D861FF1F2C42FF1F83050000CD
:1043A0008320000070B5144C237C002B1FD0636960
:1043B000002B1CD0114D280000F038F8636928004C
:1043C00098470400280000F06FF8002C10D10C4B27
:1043D0000422995E002905DA9C801A8801321A802D
:1043E000200070BD074A9142F7DD9A80F5E701246D
:1043F000FEF7B0FEF4E7C046D861FF1F2C42FF1F56
:10440000F061FF1F0F27000010B58024064AA400AA
:104410001168436B234205D113685B1A032BF8D94B
:10442000012010BD0020FCE76008FF1F70B5C179B6
:1044300005000C00631E9C411A4BE402E41849007D
:104440000460C9B2007906F025FAE9796879490073
:104450000131C9B206F01EFAE8790930C0B207F09E
:104460003FFD0023E36661332360AA795B3B002AAA
:104470000ED022689A43023B134323600A23E36170
:104480000733236200232363A3630133E36370BD17
:1044900022689A4302231343236046236361063351
:1044A000A361EFE70050004070B5002504000368E9
:1044B000DD66C0790930C0B207F07AFC29002079A6
:1044C00006F084F92900607906F080F970BD0000DB
:1044D000F8B51E0006AB1D78002304681700E366DC
:1044E000616007F01DFB01238022E3662B0027613A
:1044F0005200013B08D207F093FC08200A4A1168D9
:10450000002D03D12800F8BD2261F2E7236F03429A
:1045100003D02369013D3370013613685B1A032B06
:10452000EED90125EEE7C0466008FF1F70B51C00FC
:10453000002305681600EB66696007F0F1FA0123B5
:104540008022EB6623005200013B08D207F068FC92
:1045500008200A4A1168002C03D1200070BD2A618E
:10456000F2E72B6F034203D02B69013C3370013615
:1045700013685B1A032BEED90124EEE76008FF1FD6
:10458000002370B504681500E366616007F0C8FA9F
:104590000123E366256107F043FC2000FFF734FFA9
:1045A00070BD70B51D00002304681600E3666160ED
:1045B00007F0B6FA0123E36626610F33626B1A42F5
:1045C000FCD02B0A23611023626B1A42FCD0EDB29F
:1045D000256107F025FC2000FFF716FF70BD0023C2
:1045E00070B504681500E366616007F099FA01236D
:1045F000E3662B0A23611023626B1A42FCD0EDB2F2
:10460000256107F00DFC2000FFF7FEFE70BD70B5C0
:104610001E00002305681400EB66696007F080FA4D
:104620000123A619EB660F33B44205D107F0F8FB5E
:104630002800FFF7E9FE70BD21782961696B1942F6
:10464000FCD00134F0E7000010B5084CE368002B03
:1046500008D18022064B52021B689B186360054BF1
:104660001B68236007F09CFCA06010BD1862FF1F50
:10467000C8F00040CCF00040F0B5184A936A916A47
:104680009942FBD116498A689A421FD39A1A8B60C5
:10469000144B4C68186893B2D2024343D20E424383
:1046A0001B0A08681B1912029B180024020001272C
:1046B0000D4D4B60561CAB420BD8002C01D01000A6
:1046C0000CC10A4A13600A4B1860F0BD581E821ACA
:1046D000DDE7084A3C009B183200EBE700F00040A1
:1046E0001862FF1F140AFF1F40420F00C8F000406D
:1046F000CCF00040C0BDF0FF70B51E4C23793F2BBD
:1047000001D93F2323711C4A13701078C0B207F0FF
:104710007FFA1823194A1A4913801A4A0B8013800A
:104720004B80A0790C3B421C5343802212019342E0
:104730001ED81A00144D888028801448CB8002802F
:104740006279002A01D101326271237A012B01D8EA
:104750000223237253430E480A21584307F030FCCA
:104760000C4D2860E379052B01D81023E37170BD4F
:104770001300DFE70C62FF1F480AFF1F4642FF1FBE
:104780001044FF1F4442FF1F4242FF1F4042FF1FD1
:1047900071020000FC61FF1FF8B521210020FEF727
:1047A00089FE114C011E114D09D10C22104BC1CBB9
:1047B000C1C4280007F024FAFFF79EFFF8BD0C22C1
:1047C00020000C49FEF74CFE0C2802D0084B43CBCE
:1047D00043C40C2228000849FEF742FE0C28EBD007
:1047E0000C220021E5E7C0460C62FF1FD861FF1FC5
:1047F00014C10011FC0C0000F50C000010B50C22D7
:1048000002480349FEF76CFD10BDC0460C62FF1F55
:10481000FC0C0000F0B51D4C8022A544040088204B
:1048200069465201400507F0ABFA902212016A4432
:104830001300200032C832C316C816C38023144C9C
:10484000144FA6689B033343A3603B6007F040FB13
:104850008823A0685B05C01807F0FAFA00258823B2
:1048600029008022A0685B05C018401969445200E5
:1048700007F0BEFB80230135FF355B019D42EED181
:10488000A6603E60044B9D44F0BDC046FCEFFFFFB8
:104890008043FF1F9808FF1F04100000F0B587B089
:1048A000051E6C4627D0684607F062FB1B4D0228A8
:1048B00006D106226946280007F022F9002818D000
:1048C0000F2221000023012094460600EA5C0133F8
:1048D00017091037BE403700664632400600964042
:1048E00032003A434A610439062BEED12000FFF72B
:1048F00091FF07B0F0BD18226946094807F040FA59
:10490000AB00E358013305D01822FF21200007F047
:1049100077F9EBE70135062DF2D1EAE76509FF1FCC
:1049200000090011F0B5002704000E00150085B045
:10493000BA4200D187E08A784B1C01934B7812026F
:104940001A43CB7808781B0413430A7920701206A7
:104950001A43009203926770252800D193E033D860
:10496000112813D807F0D4F9690035013501350154
:104970003501A700B500AE0035013501350135011F
:10498000350135013501350112012F01232800D1F0
:10499000EAE0DB2800D042E1042D00D8AEE0052D8E
:1049A00000D139E16F1F3A000098711D07F0F0FA4D
:1049B00005223100200007F0EBFA3A000099601D53
:1049C00007F0E6FA2F003EE0562856D00FD83328DD
:1049D00000D1A4E0552839D02628DAD1A74D1322DA
:1049E0003900280007F00CF9FEF7B4FB5AE07128F3
:1049F00000D175E0722800D187E0602800D193E0F3
:104A0000DC28C6D1022D00D878E04B7863708B7813
:104A1000A3706B461F88032D05D0033DC81CAAB2A6
:104A20003900FEF75DFC39001022E01CFEF718FD8E
:104A3000C71C002807DA60706DE00C222000904946
:104A400007F0A6FA0C27380005B0F0BD6A1E8D4DA0
:104A50000C2A10D8002A07D02800019907F098FAEC
:104A6000FFF74AFEFFF7CAFE0C222900601C07F080
:104A70008FFA0D27E7E70C22EEE7824D824B2A00E2
:104A800043CB43C2ECE76A1E7C4D0C2A11D8002AA6
:104A900008D00199280007F07BFA0C2228007B49F6
:104AA000FEF71EFC13222900601C07F071FA142780
:104AB000C9E70C22EDE706227549601C07F068FA89
:104AC0000627C0E712227349601C07F061FA13271A
:104AD000B9E708227049601C07F05AFA0927B2E7C3
:104AE000012D0ED04978F02908D86C4D288801F0A6
:104AF000E9FE6B4B2A885200D35A00E0FF23637013
:104B000009E0664A664B1288F5E7664B012D04D032
:104B10004A789A706270022795E79B78EFE7200049
:104B2000FFF798FA07008EE76A1E5F4E062A07D83D
:104B3000002A06D100230120336001F0A5F90CE022
:104B400006229621594B89001B6859485B18019928
:104B5000336007F01DFA01F051F90622601C711D47
:104B600007F016FA07276EE7042D05D94F4D009B75
:104B70002B6007F015FAA860FFF77EFD0422039072
:104B800003A9601C07F004FA05275CE7494E062DCF
:104B900015D906223000019906F0B2FF00280ED088
:104BA00006220199300007F0F3F90622424930004D
:104BB000FEF796FB01233B4A91780B439370062244
:104BC0003100601CCCE7012D98D04878FFF766FED5
:104BD000A1E7012800D0DCE6384AAB1E0092132B77
:104BE00006D84B78002B0BD100F034F900F06AF9AD
:104BF000334B00991F78601C7A1E07F0C9F922E731
:104C0000013D2A000199009807F0C2F92D4900984A
:104C1000AAB2FEF765FBE9E715251027C8E6DA28F2
:104C20001FD1042D00D869E7082D17D9B3797279FF
:104C30001B021343F27912041A43337A1B061343FF
:104C4000009A1360009B05221B683100200003932B
:104C500007F09EF90422601D03A93DE7FE2363705F
:104C6000F0E7DE2800D049E7691E012D01D10027B9
:104C7000E9E6019801F092F8F9E7C046D861FF1F14
:104C800020C100110C62FF1F14C10011F50C0000BF
:104C9000E461FF1FC461FF1F8443FF1F4842FF1FE1
:104CA0008C64FF1F0862FF1F6864FF1F1862FF1FEC
:104CB0006D64FF1F6509FF1FADAC00000964FF1F95
:104CC0000764FF1FAEDE000070470000020010B551
:104CD000094B0A32094C92B2DA815A8298811882C1
:104CE000207802F053FC0422054B012120781A7031
:104CF00006F036FF10BDC0460E43FF1F5264FF1F73
:104D00005164FF1F013870B5042809D807F040F836
:104D1000030928081200234B0221187806F020FF0F
:104D200070BD204B0821187806F062FF00221E4B50
:104D30001A72F5E7802200241B4B1A4D52001A818B
:104D400008211A682878DC7207F042F821002878D8
:104D500006F076FE012000F055FF01F04FF8DFE786
:104D6000104B0821187806F043FF1048FFF716F89B
:104D70000F4B104A9B79002093800F4A13808022AA
:104D8000094B5200D8721A8100F03CFF01F036F84E
:104D90000A4B9B78002BC3D0094A136007F078F8C0
:104DA000BEE7C0462862FF1FFC61FF1F5142FF1F84
:104DB0000C62FF1F1044FF1F4242FF1F0862FF1FCB
:104DC00034F0004010B5012907D10F2805D180210A
:104DD000024B8900187806F0C3FE10BD2862FF1F41
:104DE00010B5054B1B78002B05D02622034B044839
:104DF0005A72FFF76BFF10BD2A64FF1FFC61FF1F93
:104E0000C409000010B5002907D10F2805D1802161
:104E1000024B8900187806F0A3FE10BD2862FF1F20
:104E20000300F0B50A4D8E18B14202D1520080182D
:104E3000F0BD0C782F6824093C5D0F271C700C789E
:104E400001313C402F683C5D5C700233ECE7C046AA
:104E50003C42FF1F0D22124B10B51A700C23114C4F
:104E600011492370093A033B1048637007F090F82A
:104E70002D2301220E490F48A371FFF7D1FF012214
:104E80000D49FFF7CDFF01220C49FFF7C9FF0300D1
:104E900000200B4902001870FEF722FA10BDC04630
:104EA0002664FF1F0764FF1FB7C000110964FF1FBE
:104EB0006709FF1F0E64FF1F6609FF1F6509FF1FBB
:104EC000AEDE000070B5134C142220001249FEF72C
:104ED000C7FA431E114D132B19D8AB78002B16D0EF
:104EE000431C2B7009236B70002300190370287872
:104EF0000B4B01302900C0B2187006F059FE29781A
:104F000022000139C9B2002005F0E4FE70BDFFF7B0
:104F1000A1FFECE70964FF1FAEDE00000764FF1F7E
:104F20002664FF1F10B5114B1A781870002A0ED096
:104F300000280BD10E4B1A78062A07D85423D340E9
:104F4000DB0703D50B4B187802F020FB10BD0028BF
:104F5000FCD0074B1B78012B02D0033B022BF5D86A
:104F6000044B0121187806F0FBFDEFE72A64FF1FD0
:104F70005164FF1F5264FF1F70B54A4E4A4A4B49A5
:104F800030700F2005F032FD00F0D6FFFEF7E2F89A
:104F900006F09EFD032246494648FFF741FF2D24B7
:104FA000030004221C7044490130FFF739FF30230D
:104FB0000470424D424C437083702E3B0622200009
:104FC0004049EB87FEF74CFA062813D0200006F084
:104FD000CFFF022809D00321200006F071FE8D23A7
:104FE000E3706E3B2371193363710622200035494B
:104FF000FEF776F9344B1B68FC335C64FFF762FF05
:105000000020FFF78FFF314C314A0121314B1278DC
:10501000207802F07DFA304A304B12780021207857
:1050200002F076FA01222E4B1A702E4BDB78552BAC
:1050300031D12D4B3B325A722C4B2D4AAB81EA8138
:105040002B826A822021307806F0CAFE012040427D
:1050500005F08CFE0120404205F028FFFFF7AAF87A
:10506000FEF764FE00F058FD01204042FEF738FFD5
:10507000012006F0EDFDF02001F008FC0121307860
:1050800006F06EFD307802F0DDFB1A4806F0D0FD28
:10509000FEF71AFD70BD6422174B5B7953431A006B
:1050A0000A32CBE72862FF1F054E0011C54D0011E3
:1050B0008443FF1FC461FF1FE461FF1F0E43FF1FF6
:1050C0006509FF1FADAC00008864FF1F5264FF1F1D
:1050D0007042FF1F5142FF1F2664FF1F0764FF1F1E
:1050E000F863FF1F0862FF1FFC61FF1FC409000077
:1050F000CE0900002A62FF1F0C62FF1F8822084BA6
:1051000052001B6810B51340103A934206D180211B
:10511000044B054A1878C90006F0DAFD10BDC046F8
:105120000C62FF1F2862FF1F60EA0000F8B50A004A
:1051300020230D001A40194263D0A14B1B78002B8D
:105140005CD0FFF799FA9F4B9F4CA04E996862681C
:10515000737A8A1ADB039A4202D36160FEF7B4FCC9
:10516000327A217A531EDBB2994205D1FFF7E0F87B
:10517000002000F089FE15E09142F9D30027277244
:10518000FFF710F9A37ABB4202D0A772FEF72EFDFB
:10519000012000F079FE8E4F3800FEF7FFFD390048
:1051A00006F026FE637A002B25D0013BDBB263724A
:1051B000002B20D1874BDB78552B01D106F068FE00
:1051C000E37A002B12D00023A27AE3729A4202D033
:1051D000A372FEF70BFD804A7D4F13883800013320
:1051E0001380FEF7DBFD390006F002FE64237079C0
:1051F0005843FFF76BFD237A013323722020684068
:10520000F8BD0BB2002B0ADA744B187806F0B8FC24
:10521000002801D006F0C4FD80200002EFE7022440
:10522000214206D0684B01201A72FFF77BFE200056
:10523000E5E70B071ED5FFF71FFA624B6249634C87
:1052400098684A68637A821ADB039A4202D34860FC
:10525000FEF73AFCFFF7A6F8FFF76AF8012000F026
:1052600013FE00F073FC2368DB0701D5FEF72CFF6B
:105270000820C4E71026314209D0FEF7B7FC504B96
:105280001B78002B01D1FEF765FD1020B7E7012444
:10529000214209D0524800F0F9F806F0A1FC00F0D4
:1052A000C7FDFFF72BFFC2E74B0533D547490A6817
:1052B00032420BD1474C6378002B0AD1D20505D579
:1052C000227802331343237000F082FD8020C00057
:1052D00095E7012B15D13F3353400B609B0703D556
:1052E0000123227813432370012000F0CDFD022317
:1052F00080216370394B3B4A1878C90006F0E8FCFE
:10530000E4E7032301226370374B52421A6000F036
:10531000A5FDDBE78B054AD50F2005F051F92B4C95
:1053200023681E4000281CD1002E0DD1294ADB0520
:105330000DD5022113780B4209D08B43137000F076
:10534000FBFD012000F0A0FD8020800057E7012335
:105350005370224B254A18788021C90006F0B8FC0A
:10536000F2E7002E20D180211C4EC900307806F0D3
:105370003FFC184F7B78012B09D1FFF731FD00234B
:105380007B702368DB05DFD53078194AE4E7022B10
:1053900002D1FFF733FAF2E7032BF0D10122154BCC
:1053A0001A6006F075FDEAE7FFF71AFDCCE7042462
:1053B00008002040214200D122E7FEF7ADFD36E78C
:1053C0002A64FF1F1862FF1FFC61FF1F0C62FF1F92
:1053D0005142FF1F0862FF1FF061FF1F2862FF1F7D
:1053E0003442FF1F102700006864FF1FB80B000045
:1053F00060EA000034F00040F0B51A4B1A4F1B88E9
:105400003A880400194E1A4D85B09A420DD8328858
:105410009A420AD3174B1A882B889A4205D1164A0A
:10542000164B12881B889A421AD0052001F084FA84
:105430003B8802A90B80338801904B802B88104D4C
:105440008B800E4B2A781B88CB800E4B188802F07D
:10545000A5FF0D4B08212878019A1C7006F038FC36
:1054600005B0F0BDF663FF1F4642FF1F4442FF1F19
:105470004242FF1FF463FF1FF263FF1F4042FF1F02
:105480005264FF1F4842FF1FF063FF1F13B50C4B10
:105490001C78002C11D1002801D00A4B18600A4A50
:1054A0000A4B11780A4A10780A4A01920A4A009275
:1054B000002205F007FB200016BD1124FBE7C046C3
:1054C0005164FF1FEC63FF1F5064FF1F4064FF1F08
:1054D0005264FF1F2C64FF1F3064FF1F10B5064B82
:1054E00012201B78052B06D1044B13221988044B7C
:1054F000187801F0FDFB10BD5164FF1F4842FF1FEB
:105500005264FF1F10B500240122114B5242187043
:10551000104B1C70104B1A8002F094F904220F4BB0
:1055200021001A700E480C3206F0EAFC102221000D
:105530000C4806F0E5FC07220B4B1C600B4B1C7063
:105540000B4B1C700B4B1A700B4B1C7010BDC046E4
:105550005264FF1F5164FF1F4842FF1F5064FF1F2A
:105560004064FF1F3064FF1F2C64FF1F0664FF1F91
:105570000564FF1F4A42FF1F0464FF1FF8B5174C64
:105580000600257806A814240078052D23D1B41F21
:10559000134FA5B21824BD421DD88D1FADB2BD4218
:1055A00019D8FA256D00AA4215D21D000D4F0A3DEB
:1055B000ADB2BD420FD80C4C26800C4C21800C495A
:1055C00000240A800B4A1380FFF716FF0A4B0421C0
:1055D000187806F00DFB2000F8BDC0465164FF1F8F
:1055E000790C0000750C00004642FF1F4442FF1F6B
:1055F0004242FF1F4042FF1F5264FF1FF0B50BB233
:105600000D0089B0002B00DB70E1A44E307806F06D
:10561000B7FA041E50D00378A22B00D122E1D02B80
:105620001AD0912B45D143780E2B42D19C4B8288C6
:105630009A423ED19B4B1B78052B3AD183680320BD
:1056400018567F2835D0984B1B68002B31D05B68EB
:10565000002B2ED098472CE08078072829D806F018
:1056600097FB0428183F3F74A8D86378002B0CD10F
:1056700001218C4B19708D4B1A78002A5BD08C4B12
:10568000307801F045FF002855D00722854B1A706D
:1056900051E061780029F8D1E378002B11D0854AD8
:1056A000854B1278307801F033FF60706378002BFF
:1056B000EBD1200006F074FB80200002684009B0A6
:1056C000F0BD784B1B78022BF3D00121307806F027
:1056D00057FC0028EAD10121307806F041FAE5E7CD
:1056E0006378002BD1D16F4F032807D13B78052B6E
:1056F00002D101333B701EE00223FBE76F4B1A8897
:105700006F4B0293002A0BD01B78002B03D0012192
:10571000307806F0DDFA3B78062B04D1013BE9E74F
:10572000029B1A70F7E7042B41D10121029B3078CC
:10573000197006F015FA5C4B1B68002BB9D01B687A
:10574000002BB6D0574A107884E76378554F002B6A
:1057500027D10622211D5B4806F01AFC62895A4BAC
:105760005A491A80A2895A4B1A80E3890B80052175
:10577000397058490A80584A1380228A574B1A8038
:10578000574B1B78012B09D11F2001F0D5F8FA22C5
:10579000920042430421307806F09AFA0022484BE6
:1057A00075E7312B00D070E70022454B1A700323B8
:1057B000A0E706220021434806F0A2FB0023454A49
:1057C00004211380444A30781380444A138006F041
:1057D0000FFA0821307806F00BFAA379083B5A42F9
:1057E0005341304A03331370304B1B78002B06D0E3
:1057F000334B30781A78002A06D001F0C7FE012218
:10580000314B52421A8096E70121197006F0A8F92F
:10581000F5E70821307806F0EBF96378002B00D02B
:1058200047E72C4B2D4F0293E388029A0421138003
:10583000294B307803932389039A138063893B8033
:1058400006F09EFB002800D033E7264B1B68002B98
:1058500000D12EE7039902983A88098800881B68CE
:10586000984726E74379132B00D022E70389012BC1
:105870000AD11D4B1B78022B06D10821307806F087
:10588000B7F9FFF72BFE14E7052001F055F80821C2
:105890000200307806F01CFA0BE7C0465264FF1F86
:1058A000051400005164FF1FEC63FF1F7042FF1FCF
:1058B0005142FF1F2664FF1F0764FF1F2864FF1F5C
:1058C0002A64FF1FF963FF1F4842FF1F0064FF1F88
:1058D0000264FF1FF663FF1FF463FF1FF263FF1FE5
:1058E000F863FF1FE863FF1FF063FF1F8020C00104
:1058F000014200D0E2E6CB0731D5324B1B78002BBA
:105900001DD0314E05AC3378052B1AD1023B2370E4
:105910002E4B21001B7823722D4B1B7863722D4B6D
:10592000187801F099FD002809D007202A4B307023
:105930001B68002B03D01B68002B00D09847012068
:10594000BCE60E20254B06221B7825492370254BEB
:105950001B78637002ABC01806F01AFBD8E702236D
:1059600008001840194209D0174B1B78052B03D1AA
:105970001D4B188806F014F902209FE604242142EA
:1059800003D0FFF739FD200098E6082308001840EF
:10599000194200D193E6154B1C78012C03D0022C40
:1059A0000DD008208AE6124B124A134913481B886F
:1059B0001288098800880094FFF7E0FDF1E7FFF7FF
:1059C0008DFDEEE72A64FF1F5164FF1F4A42FF1F4F
:1059D0000464FF1F5264FF1FEC63FF1F0664FF1F78
:1059E0004B42FF1F0564FF1F4842FF1FF063FF1F6C
:1059F0004042FF1F4242FF1F4442FF1F4642FF1F1B
:105A000010B502A804880B20002C10D14968087832
:105A10004978090201430C48814209D102211980C9
:105A20000A4B59881170DB7800205BB2537010BDAF
:105A3000074C0A20A142FAD102211980034B998810
:105A400011705B79F0E7C0466E2A0000F061FF1F1D
:105A50006F2A0000F7B5150008AA16884A680F4F8C
:105A600014785278120222430A24BA4214D1012235
:105A7000DBB2019200962A0005F026FF041E0BD12E
:105A8000074B1B68002B07D068782A780002104368
:105A900042425041013098472000FEBD02290000DB
:105AA0006464FF1F30B5012503790400BFB02B42A9
:105AB00025D01449408805F077FA28420CD0124BC3
:105AC00001A95B8D60880B8002234B800F4B002265
:105AD0005B888B8002F058FB0D49608805F064FA02
:105AE000C0070CD50B4B01A91B8800220B80022399
:105AF0004B80064B9B888B80608802F045FB3FB053
:105B000030BDC0465C64FF1F7442FF1FF061FF1F81
:105B10005464FF1FCE42FF1F10B50749074805F028
:105B2000F9F90749054805F0F5F90721054A06483E
:105B300005F0B2F910BDC0465C64FF1FFFFF000016
:105B40005464FF1F40C100117442FF1F10B502488A
:105B500003F09EF910BDC046A55A00110E21054B59
:105B600001405A7A0A435A720F2290439A7A0243AA
:105B70009A7270476864FF1F0E21054B01409A7AA4
:105B80000A439A720F2290435A7A02435A7270471C
:105B90006864FF1F30B50C4B0122DD7930242900E9
:105BA0009143D971197AA14304001440640121433F
:105BB0001972810701D52A43DA71400703D51022F3
:105BC000197A0A431A7230BD6864FF1F30B50C4C55
:105BD0000822237A19009143C50701D51A43110001
:105BE00004220B009343850701D50B001343104299
:105BF00003D080221343237230BD7F221340FAE783
:105C00006864FF1F10B5054B0124997A0A00A2436E
:105C1000002801D022000A439A7210BD6864FF1F59
:105C200010B5054B4024197A0A00A243002801D080
:105C300022000A431A7210BD6864FF1FF8B50123E1
:105C4000364C0500E279217A1A40E2710A009A4343
:105C500000202272FA226071A071D200954204DB0A
:105C60006D3363714E3BA371F8BD2D4A954203DA43
:105C7000702363713A3BF6E7AAB22A4E1700B44686
:105C80005F37BFB2284E67451CD9002D03DA524258
:105C90000B4315B22372681D0A2100B206F090F979
:105CA000224B07B29D4227DC3D000A21280006F066
:105CB00087F90A2100B206F033F809B2735CA279C1
:105CC000134309E0A371002D0FDA52420B4315B2C2
:105CD00023720023092DE8DCA3710A21280006F0B5
:105CE0001FF809B2735CE371BEE7FA2220729200DA
:105CF00095420FDB63712F006421380006F060F9D4
:105D00000A2100B206F00CF809B26279735C134301
:105D10006371C9E7632DDCDDEDE7C0466864FF1FF2
:105D200031F8FFFF2A08000067C10011E2030000FC
:105D3000184B70B5597201219A7A04000A409A7280
:105D4000632806DD6E20FFF717FF2020FFF706FF10
:105D500070BD0100093104DA7020FFF70DFF362015
:105D6000F4E70D4D00280BDA042144420A4324B223
:105D70009A720A21200005F0D3FF09B2685CE5E7BA
:105D80000928F6DD0A2106F01BF900B2285CFFF7AE
:105D9000F3FEEEE76864FF1F67C10011F8B50A4F14
:105DA00005003B790E00002B0CD0084C2000FEF7BC
:105DB0003DFB33002A0020003979FEF728FC200043
:105DC000FEF772FBF8BDC0466864FF1FE842FF1F84
:105DD00010B5084B1B79002B0BD0074C2000FEF7A9
:105DE00025FBD0223E212000FEF7CAFB2000FEF753
:105DF0005BFB10BD6864FF1FE842FF1F70B5094DD3
:105E0000094C06222900200005F07AFE002808D05F
:105E100029000622200006F0BBF807210348FFF7FF
:105E2000BDFF70BD6D64FF1F7464FF1F7364FF1FAF
:105E30007622084B10B55A71074ABC20DA8000223E
:105E40001A819A72FFF798FE0A20FFF787FEFFF784
:105E5000D5FF10BD6864FF1F367400002422084B74
:105E600010B55A71074AF420DA8000221A72FFF73F
:105E700083FE7420FFF772FEFFF7C0FF10BDC0461F
:105E80006864FF1FF4D6FFFF254A264B12681B6883
:105E900010B59A4239D3002837D0234C0223E05E54
:105EA000224B1B685B0631D509233221584306F08B
:105EB00087F84130FF3000B2FFF7C0FE0520FFF742
:105EC00069FE0422A35E1A4A6320934205DC323342
:105ED0001800642106F074F800B20121FFF728FFD2
:105EE00013220020237A9A424041C0B2FFF798FE65
:105EF0000020FFF76BFE0F4B1878053843425841DE
:105F0000C0B2FFF77FFEFFF779FF10BD0A21053011
:105F100006F056F800B2FFF791FE0320CFE7C04627
:105F20001862FF1F6864FF1FF061FF1F0C62FF1FF4
:105F3000DD2600005164FF1F70B500240D4D2800C0
:105F4000AC71FEF773FA0D233E2128000A4AFEF7D2
:105F50005EFBA04200D13E34084E28003471FEF7AB
:105F6000A3FA0B23062200210548F37205F048FE30
:105F700070BDC046E842FF1F5AC100116864FF1F90
:105F80007464FF1F0200F0B501270A480A4E511839
:105F90008B1A002B00DCF0BD0824157843086840FC
:105FA00038404000805B013C58406D08002CF5D122
:105FB0000132EDE7FFFF000078C10011F0B50025C8
:105FC0000F269D4200DBF0BD4C5D07094440344084
:105FD000A400A05801357840F3E7000070B50C002C
:105FE00088B06B460F2610340A780131150012096B
:105FF00035401D705A700233A142F5D12023694605
:10600000024AFFF7DBFF08B070BDC0467CC100113B
:10601000F0B54E780B7889B036020C00170001906D
:106020001E43012A61D9954B9E4200D877E0013387
:106030009E421CD1062A17D1CA788B7812021A43C5
:106040000B791B0413434A7912061A438C4B5A618D
:1060500000221A705A808B4A5A608B4A9A608B4A87
:10606000DA60002009B0F0BD88225205EEE7884BC7
:106070009E423CD182498B78002B00D0F6E00C2A5E
:1060800031D10F22A3789343E2781202134322798D
:10609000120413436279120613434B60E279A0792C
:1060A00012020243207A00041043627A120602436D
:1060B000CA60E27AA07A1202024376484A81834299
:1060C00008D804236E49142201980B7005F060FF74
:1060D0001420C7E71201D21889235B059A42F0D831
:1060E00001238B70BDE7022AFAD00523EAE76A4A4A
:1060F00001239642E6D1FFF7F1F9052F0CD9E37899
:10610000A2781B021343227912041A4363791B06F7
:106110001343624A0393136005F0BAFEA1E7584D9A
:106120002B78002B9DD1AB78002B00D1A0E02B89E0
:1061300001339BB20093B34200D091E0132AD4D92B
:10614000CF7C8B7C3F02122120001F43FFF71AFFF8
:10615000874200D08EE0002E3DD1E378A2781B026A
:1061600013432279E96812041A4363791B06134327
:1061700003930A228B4212D1FF23A370E370237191
:1061800063716B89002B09D1E37B227C1B02120413
:106190001343A27B13431B0901336B8100226B89DC
:1061A000002B8ED0002A67D1686837013818000BA1
:1061B0006B6900030390984205D9686105F048FEB9
:1061C000EB780133EB7068681022A11C381805F0D9
:1061D0000FFF2E8145E76F89009A7B1E9BB2934289
:1061E0003AD1E278A37812021A43237905A81B0456
:1061F000134362796C6812061A43EB6800920392AB
:10620000211D0C22049305F0C3FE0120260004A9E1
:1062100040421036FFF7E2FE013F012F17D1009AEE
:106220000B232861824200D04CE704221C49200045
:1062300005F0DEFE042203A9686805F0A1FDE96807
:10624000039AFF23914200D13CE7F73B3AE7310044
:10625000FFF7C4FE1036DFE70923B742A4D831E7C1
:10626000009BB34200D9FCE607232BE7022329E772
:10627000032327E7062325E70A2323E7FFFE000081
:10628000F042FF1F00000111FFFF00005048593687
:1062900001FF0000FFFF001102FF000034F000408A
:1062A000FC42FF1F10B5034C0B000122210000F03F
:1062B0006BFA10BD656400110B8870B506000D0007
:1062C0000224162B11D92B000322094900F05CFA95
:1062D000041E0AD1074B2A881B88191C934200D937
:1062E000111C300089B200F0EDFA200070BDC046EC
:1062F000916400118E64FF1F10B54A780400013AC2
:106300000B000220012A07D80A78002A04D00522AF
:106310002000024900F038FA10BDC046BF640011E9
:106320000A7810B50B0004000220002A04D00722CE
:106330002000024900F028FA10BDC0466B6500112C
:106340000A7810B50B0004000220002A04D00922AC
:106350002000024900F018FA10BDC046D1650011B6
:1063600010B5034C0B000B22210000F00DFA10BDFC
:106370000166001110B5034C0B000D22210000F046
:1063800003FA10BD7366001110B5034C0B000F2209
:10639000210000F0F9F910BDCD6600110A7810B5A2
:1063A0000B0004000220002A04D011222000024920
:1063B00000F0EAF910BDC046DD660011002310B5FB
:1063C0001322190000F0E0F910BD000010B5034CD5
:1063D0000B001722210000F0D7F910BD2F67001124
:1063E000002310B51922190000F0CEF910BD0000ED
:1063F00010B5034C0B001B22210000F0C5F910BDA5
:1064000069670011F7B584890D0006000121002C91
:1064100022D000238268D3561778002B1EDA0C2C6A
:106420001AD90C3CA4B2131940880093230002F03F
:1064300090FE431E984101307B06DB0F6B703F23BB
:10644000013C1F40A4B22870AF70AC80002C07D074
:10645000B3680133AB6000210800FEBD0020EBE70C
:10646000AC60F8E70B7803704B8843704B881B0ACD
:1064700083700B79C370042070470420022B06D16F
:106480000020537811781B02009A0B431380704749
:106490000B8803700B881B0A43700220704704208E
:1064A000009983420AD1537810781B0203430B8072
:1064B000D37890781B02034300204B807047F8B5D7
:1064C0000D004B7801240021461C03702B788B4271
:1064D00001D82000F8BD6B78B01C4F1C012B10D1E7
:1064E000890069184B88022233704B88B9001B0A57
:1064F0007370691805F054FA04360434A4B2F9B282
:10650000E4E7122359436B185A88043132705B88D0
:1065100010221B0A7370691805F042FA1236123401
:10652000ECE770B5049D14001E00052B01D8042073
:1065300070BD637812781B0213432B80E378A27836
:106540001B02134302226B802A71211D681D063E27
:1065500005F026FAB2B22A81E92AE8D82800A11D5E
:106560000A3005F01DFA0020E2E7002310B50A7892
:106570009A4201D8900010BD9A008A1854880133BD
:1065800004705488DBB2240A447094888470928822
:10659000120AC2700430EAE710B51100029C062B03
:1065A00004D004201022142B01D010BD022222712D
:1065B0004B7808781B0203432380CB7888781B0232
:1065C000034363800431601D05F0EAF90020ECE725
:1065D00010B50C788B7804315C43E4B20370220070
:1065E000013005F0DDF9601C10BD0420022B06D13E
:1065F0000020537811781B02009A0B4313807047D8
:1066000010B50C000A88023105F0CAF9208810BDC7
:1066100070B504000D0004981100012B01D804206E
:1066200070BD167852781202324302800200F132B5
:1066300055701470E125002C00D10C35023B9AB244
:106640004280AA42EBD80231043005F0A9F90020BB
:10665000E6E70420009983420AD1537810781B02A0
:1066600003430B80D37890781B02034300204B80B8
:10667000704710B50C000A88023105F091F92088A6
:1066800010BD000070B501211E000420049C0E40C6
:106690000B4218D1CB40DDB28D4214D90A49DBB28E
:1066A000098899420FD32300EE331D703300580040
:1066B00011184978165C0902314301332152D9B2CD
:1066C0008D42F4D8002070BD0843FF1F10B50C00A8
:1066D0000A88023105F064F9208810BD10B50C78E5
:1066E0008B7804315C43E4B203702200013005F082
:1066F00057F9601C10BD10B511000298032B01D88A
:10670000042010BD14785278043B12022243028008
:10671000CA788C781202224342809AB28280EB2A95
:10672000EED80431063005F03BF90020E9E710B55A
:106730000C000B8803700B881B0A43704B88837016
:106740004B881B0AC3708A880430063105F028F98B
:10675000A088043080B210BD0420012B03D100209A
:106760001378009A1370704710B50C000B880370F3
:106770000B881B0A43704A880230043105F010F977
:106780006088023080B210BDF0B589B003931D4B14
:10679000029242000700D05A019102F022F813251C
:1067A000061E2CD0029B01240370019B002B04D0F9
:1067B000001903999847001984B26B461B7A5BB2A3
:1067C000002B0FDA1021380002F01CFB19250028DD
:1067D00012D130003219E1B202F070FC051E0BD16B
:1067E0000C34A4B2042305A938000B800C814E6040
:1067F00001F0B2FD051E02D0300005F041FA28007C
:1068000009B0F0BD8C64FF1F70B505000C000028B6
:106810000CD00020814209D010222000044905F04C
:10682000BFF801202B7823736B78637370BDC0466B
:10683000BCC10011F0B506000D0017001C0085B0AA
:1068400002291BD00020102907D1022B07D0102BC2
:1068500003D115E00020102C08D005B0F0BD69462A
:106860003800FFF7D1FF2A0069460BE06946300087
:10687000FFF7CAFF22006946380004E0022BE9D185
:106880002A003900300005F0EBFAE6E7031CF02897
:1068900000D9F023032008499AB2013A0B80D3179C
:1068A000034006499B189B100B80D30F04499B188B
:1068B0005B100B807047C0460C43FF1F0A43FF1F4D
:1068C0000843FF1F034B1B888B4202D3024B40003F
:1068D000C15270470C43FF1F8C64FF1F014B4000E7
:1068E000185A70478C64FF1F1722014B1A8070479B
:1068F0008C64FF1F70B505000E2005F009FB041E17
:1069000013D0D023037000230622837007494570FB
:10691000033005F045F8064B2100DA8A62811B7EC0
:106920002373044B187805F0A3F970BDA864FF1F0A
:106930009864FF1F5C43FF1F262803D8024B4000CA
:10694000C05A70470148FCE70E43FF1FFFFF0000DD
:1069500070B506000C00094D1C220021280005F02E
:10696000CFFA074B1E70074B1C7005F031FB01235B
:10697000002801D0002312202B7070BD9864FF1FE7
:106980005C43FF1FB964FF1F70B505000D4C080084
:10699000E260A16010220021656005F0D9FA0128AB
:1069A00003D11021A06802F061FD1022002128000F
:1069B00005F0CEFA012803D11021606802F056FDDF
:1069C00070BDC0469864FF1F70B5041E05D1002934
:1069D00003D006220D4804F0E3FF0D4B1D78012D76
:1069E00011D1002C05D102221A7005F051F82800AF
:1069F00070BD00221A70074B1B78FF2BF7D02000C8
:106A0000FFF778FFF3E70025F1E7C046A864FF1F12
:106A10009864FF1F5C43FF1F030010B5002801D1DD
:106A2000002010BD00780B4A002803D15988D1827C
:106A30001B7913761378022BF2D10023984200D1F0
:106A400003331370044B1B78FF2B01D0FFF752FF69
:106A50000120E6E79864FF1F5C43FF1F002911D067
:106A600000280CD04B79012803D140225242134315
:106A700003E03F221340032802D001204B717047EE
:106A80004022F4E70800FAE770B5094D01002878C4
:106A900000280BD0074C0622200004F081FF2100C3
:106AA0002878FFF7DBFF200005F08AF870BDC046AC
:106AB000B864FF1F9264FF1F00290AD0012808D183
:106AC0003F224B799343C02B03D0403B5A42534162
:106AD000981C704770B5174D06002B78FF2B15D00A
:106AE0000A2005F015FA041E10D0D0230370C83B0D
:106AF0008370114B11491B784670C3700622043015
:106B000004F04EFF2100287805F0B2F80C4B1B78FA
:106B1000012B0DD10B4B1B68002B03D09B68002B66
:106B200000D09847084B04211878084A05F050F91E
:106B300070BDC0465C43FF1FB864FF1F9264FF1F17
:106B4000B464FF1FE064FF1FE464FF1F60EA0000FD
:106B5000014B98687047C0469864FF1F014BDB6883
:106B6000186870479864FF1F074B10B5DA68136800
:106B700001331360054B1878FF2803D08021C90129
:106B800004F0EEFF10BDC0469864FF1F5C43FF1F7A
:106B9000F7B50E0002F0CAF8051E1CD00E4B0662B7
:106BA0001F78002F00D10778AB791020019305F0F2
:106BB000AFF9041E0FD0D0230380C73B8370019B25
:106BC000E91DC3700622043004F0EAFE21003800FB
:106BD000E66005F04DF8F7BD5A43FF1F014B1878EA
:106BE0007047C046B864FF1F054B002805D1054B10
:106BF0001A78054B002A00D1014B18007047C04697
:106C0000A864FF1FB864FF1F9264FF1F014B586800
:106C10007047C0469864FF1F024B1868431E984196
:106C2000C0B27047BC64FF1F421E03000120152A3A
:106C300003D9FF3B5A425341D8B27047F0B51C000C
:106C400000230E0085B0039002920B70029A9342CB
:106C500001D3002019E0E55C5A1CD2B2002DF8D017
:106C6000029851198142F4DC0233DFB2A35C1800B0
:106C70000193FFF7D9FF002807D0013D019A03993E
:106C8000EBB233708A4202D1E01905B0F0BDDB19D6
:106C9000DBB2DBE710B50C0002F0A0F80300122015
:106CA000002B03D02100588804F002FF10BD000023
:106CB00070B50E4D84006359002B15D0186A00285A
:106CC00001D004F085FE2B59586A002801D004F049
:106CD0007FFE2B59986A002801D004F079FE2859CC
:106CE00004F076FE00232B5170BDC046C864FF1F20
:106CF0001C4B70B504000E00150099420AD11A4BC6
:106D00001B68002B01D1122070BD1B68002BFAD02C
:106D10009847F9E7154B994215D1134B1B68002B87
:106D20000AD01B68002B07D09847002804D1104BCD
:106D30001C70104B1D70E7E729002000FFF7AAFF29
:106D40000028E1D1F3E7080001F0F0FF0028DAD0D5
:106D500003780320A342D7D12900300004F0A8FE15
:106D6000D2E7C046FEFF0000C464FF1FFFFF000023
:106D7000C164FF1FC064FF1FF7B50400808801F0E5
:106D8000D5FF0025A84203D00578A08802F00AF8B4
:106D90001C4E3378002B1FD0AB421DD11A4B28005C
:106DA0001978FFF777FF002818D000233370A379F4
:106DB0000820A778A688019305F0AAF8011E0DD037
:106DC000D0230370CA3B8370019B47708680837118
:106DD000280004F04DFF01E0002DE8D1A0880B4B06
:106DE0008200D358002B01D0FFF762FF1721A08843
:106DF000FFF768FDA08801F02BFDA08801F002FEDE
:106E0000F7BDC046C164FF1FC064FF1FC864FF1FF9
:106E1000F0B587B01D000CAB1B88070001930DABCC
:106E20001B88142002930EAB1B88160003930FAB34
:106E30001B880091049310AB1B88059305F068F83C
:106E4000041E1AD0D0230370CB3B47708370C670EA
:106E5000062229000430002D11D004F0A1FD019B71
:106E600021006381029B0098A381039BE381049B23
:106E70002382059BA37404F0FBFE07B0F0BD05F070
:106E80003FF8ECE7F7B5009308AB1B8807000C2030
:106E90000D001600019305F03BF8041E13D02800E6
:106EA00001F044FF00280FD00078D0232370C93BA5
:106EB000A370009B21002381019B6770A580E68061
:106EC000638104F0D5FEF7BD014B1878EDE7C046AD
:106ED0005C43FF1F13B5040064890389C28881885D
:106EE000C0780094FFF7CEFF13BD000010B5044C2E
:106EF0002068002803D004F06BFD0023236010BD40
:106F0000CC64FF1FA122F0B5818892004A43384B20
:106F1000384F1B6889B09B189D2292009B1882797C
:106F200004001A603B68002B5FD01D78324B1B6851
:106F3000002B04D05B68002B01D00020984726006E
:106F400008363100E079FFF7B7FD237DE0710200DC
:106F5000E0780493638A29000393238A0293E389E8
:106F60000193A38800933300FFF752FFE378002BCF
:106F70000BD1E289A379A18802920196E2792800D7
:106F80000092012201F0DCFEE0703B68002B20D073
:106F9000FFF7ACFF194D287800281AD0184B197844
:106FA000FFF778FE002814D02B780820A788E67811
:106FB000079304F0ADFF011E09D0D0230370CA3B34
:106FC0004670837087808671079804F051FE002315
:106FD0002B701721A088FFF775FCA08801F038FC02
:106FE000A08801F00FFD09B0F0BD064B9DE7C0463B
:106FF0003409FF1FCC64FF1FE064FF1FC164FF1F43
:10700000C064FF1F5C43FF1FF8B5070008000E00B7
:1070100001F08CFE041E18D02620FFF78DFC051E03
:1070200000D12578062004F073FF041E0DD0002146
:10703000062204F065FFD0232370C23B2100677055
:10704000A370A680E8B204F013FEF8BDF0B585B0D9
:1070500001930AAB1B78070002930BAB1B78080067
:107060000D000092039301F061FE061E22D0102055
:1070700004F04EFF041E1DD01022002104F040FF3A
:107080002620FFF759FC002800D13078D023237048
:10709000C13BA370009B21002372019B6770637248
:1070A000029BA580A372039BC0B2E3720C9BE360BA
:1070B00004F0DEFD05B0F0BDF7B50D00019001F064
:1070C00035FE071E1FD00E2004F022FF041E1AD02A
:1070D0002620FFF731FC061E00D13E78D023238006
:1070E000C53BA370F91D0622E01C04F059FC019B6E
:1070F0002100638101232B40AD07ED0F23736573DE
:10710000F0B204F0B5FDF7BDF0B585B00290100007
:107110000D0017000A9E039301F008FE041E31D0F3
:10712000029B002B2ED1039B02795B0724D51223EF
:1071300013430422002E08D10B99002905D10C9984
:10714000002902D10D9900291AD01A430D9B2271F2
:10715000002B00D0C9E0002E00D1CFE0002D00D0E0
:10716000CCE0606A002801D004F032FC1C21300021
:1071700004F046FC606205E002239A430E33D7E731
:1071800093432371654BBA00D458002C00D1AAE078
:10719000002E10D0236A002B03D11C2004F0E8FC41
:1071A00020625E4BBA00D358186A002803D01C2214
:1071B000310004F0F5FB0C9B002B12D0574CBB00A8
:1071C0001D596B6A002B03D1162004F0D1FC6862B4
:1071D000BB00E358586A002803D016220C9904F02B
:1071E000DFFB0D9B002B11D04C4DBC006659B36AE0
:1071F000002B03D1142004F0BBFCB0622B59986A19
:10720000002803D014220D9904F0CAFB380001F0C5
:107210008DFD051E67D0414BBA00D358002B62D0BC
:107220001A6A3420002A00D11C389A6A002A01D038
:10723000143080B20B9A002A01D01C3080B25B6AF5
:10724000002B01D0163080B204F062FE041E4AD03A
:107250001822002104F054FE2620FFF76DFB019058
:10726000002801D12B780193D0232370029B2000AA
:1072700063700A23294EA370039BBD00A371AB5911
:10728000A780196A1830002905D01C22A06004F0DC
:1072900087FB200034307359996A002907D0030016
:1072A00014221433E060029304F07AFB02980B9BE3
:1072B000002B08D003001C221C330B992061029381
:1072C00004F06EFB02987359596A002903D0162204
:1072D000606104F065FB6B462100187904F0C8FC7E
:1072E0003800FFF7E5FC05B0F0BD10220D9B0D99AD
:1072F0001B69A018236204F053FB2CE70B9B002BA7
:1073000000D13FE7012D00D03CE7606A002801D0A2
:1073100004F05EFB1C210B982AE7C046C864FF1FDF
:1073200010B5044C2068002803D004F051FB002362
:10733000236010BDBC64FF1F0B4B07B51A68002A01
:1073400001D100200EBD6946531C0120127807317F
:10735000FFF774FC0028F4D00278012310001840D5
:107360001A42EED0EEE7C046D864FF1FF0B51F4FBB
:1073700001203B6887B0002B25D09B78059300F057
:10738000B3FB002821D00A20FFF7D6FA04000B2017
:10739000FFF7D2FA164B05001E78731E9E413B681C
:1073A000F6B2191DD878FFF759FB3B682900DA7A45
:1073B000043303929A7901930292009033002000E3
:1073C000059A04F04DFC07B0F0BDFFF7B5FF0028AB
:1073D00005D00620FFF7B0FA04000720D8E7082000
:1073E000FFF7AAFA04000920D2E7C046BC64FF1FD9
:1073F000B864FF1F70B50A4E040033780D00FF2BF0
:107400000DD0042004F084FD011E08D0D0230370A9
:10741000CE3B45708370C470307804F029FC70BD99
:107420006C43FF1F70B5040006200D0004F070FDD2
:10743000011E0AD0D0230370CD3B8370054B4470EE
:107440001B688580187804F013FC002C01D0FFF72E
:1074500067FF70BDBC64FF1FF8B5264F06003B6890
:107460000D001124002B05D10522234B1B7813425C
:1074700002D112242000F8BD204A10241268002AEC
:10748000F8D01278002AF5D0DB0719D52B789A1E90
:10749000012A1AD80C2004F06BFB13243860002852
:1074A000E8D000230A22437029000670023004F05D
:1074B00077FAFFF75BFF041E0AD0FFF731FFD9E729
:1074C00000F012FB0028E1D1E4E7002BE2D0D0E786
:1074D0000B4B1B78032BCDD11D20FFF72DFA094B49
:1074E00018800028C6D0084B04211878074A04F0F9
:1074F0006FFCBFE7BC64FF1FB964FF1FD864FF1FA8
:10750000B864FF1FB664FF1FE464FF1F60EA000059
:10751000F7B50193194B14001A78052306000F00E4
:1075200012201A4221D0012920D1154B1D68002DAF
:107530001BD002201F2C18D8002C02D0019B002B3E
:1075400013D0104B1F221E706E1C0021300004F05F
:10755000D7FC01992200300004F022FA310020000B
:107560002C70002F06D004F053FAFEBD064B1220FB
:107570001D68DCE704F01CFBF7E7C046B964FF1F99
:10758000D864FF1F6C43FF1FD464FF1FF8B50F4E74
:1075900012243368002B17D01B780F3C834213D181
:1075A00000250B4F0221387804F022FB094B0421FF
:1075B00038781D8004F01CFB074B28001D803368C1
:1075C0005C7004F07DFC04002000F8BDBC64FF1F6B
:1075D000E464FF1FD064FF1FB664FF1F70B501286D
:1075E00023D11B4C2388002B03D01A4A1578002D79
:1075F00007D0194B1B68002B02D01878FFF7C6FF85
:1076000070BD3B2B02D93C3B2380F9E7134E02218E
:10761000307804F0EDFAFA222388920002215A43CE
:10762000307804F055FB2580EAE70B4B1B68002BF4
:10763000E6D00B4B1B785B07E2D5084B022118788C
:1076400004F0D6FA0022024B1A80FFF769FED7E752
:10765000D064FF1FB464FF1FBC64FF1FE464FF1FFE
:10766000B964FF1FF8B51E4D2868002803D004F048
:10767000AFF900232B601B4E3068002803D004F0C4
:10768000A7F900233360184F05243B7818002040E9
:10769000234221D0154800F02BFA3B78234213D027
:1076A000202004F065FA2860002813D02022002151
:1076B00004F026FC202004F05BFA041E306005D0A4
:1076C0002022002104F01CFC002004E0286804F0C3
:1076D0007FF92C601320F8BD00F00AFAF4E7C046E9
:1076E000D864FF1FD464FF1FB964FF1F6043FF1FEE
:1076F00010B50A4C23681A1E0ED0002808D101309C
:10770000587004F0DDFB002805D02368002B02D060
:107710000021FFF787FE0122100010BDBC64FF1F8F
:10772000F7B5274E050033680191181E21D05C780B
:10773000244F012C30D1FFF7FFFD002825D0200079
:10774000FFF7FAF80400412814D91F4B02211878DA
:107750001E4A04F03DFB1E4B3C3C1C800222336859
:107760005A703B78002B14D128000199FFF75AFE7C
:107770000120FEBDFA2292004243002AEED0124BB5
:107780000221187804F0A4FAE8E7FFF7D5F8020020
:10779000F3E700233B70EBE73B78002BE8D10320B5
:1077A00004F0B6FB011E08D0D0230370CC3B45701B
:1077B00083703368187804F05BFAFFF7B1FDD7E700
:1077C000BC64FF1FB464FF1FE464FF1F60EA000095
:1077D000D064FF1F10B51749838802008B4220D068
:1077E00011D815498B4217D0144900205B1899B263
:1077F000012907D8926811785A425341D8B2FFF74D
:10780000F9FD012010BD0E4A00209B1807229BB2F3
:107810009A424041C0B2F5E783681878FFF768FFE5
:10782000F0E7836899785A78090218781143FFF7CE
:1078300077FFE7E70A20000006200000F8DFFFFFDF
:10784000AFDFFFFF014B18707047C0466D43FF1F4D
:1078500010B5064C207001F045FA207804F088FA43
:107860000521207800F068FD10BDC046E464FF1FCC
:107870000BB273B50D00002B00DBC4E0884B187809
:1078800004F07EF9041E0ED00378912B0FD0A22BAA
:1078900000D1A1E0834B1878FF2852D0210004F0DA
:1078A000E7F900284DD180200002684076BD43787A
:1078B0000F2B76D013D8052B70D00E2BEAD18088F1
:1078C000794B98422BD8794B98421BD8784B9842E9
:1078D000E0D1A3681878591CFFF776F838E03E2B02
:1078E000D8D18378032B74D06CD8012B6ED0022BA7
:1078F000D0D1704B1B68002B23D05B68002B20D0AD
:1079000098471EE06C4BC0180C28C3D804F010FA3E
:107910001DC2C2150BC20B0B0B3223C23C00674BBE
:10792000C0180728B6D8664B1B68002B09D01B6807
:10793000002B06D0200098470AE0A3681878FFF7CC
:10794000C9F8200004F02CFAADE7A068FFF764F84E
:1079500000289FD0F5E7A3681B78002BF1D0554B8A
:107960001B68002BEDD01B68002BEAD02100554886
:107970009847EDE74F4B1B68002BE2D01B68002BAC
:10798000DFD021005048F3E7504B1B68002BD8D0C4
:107990005B68002BD5D021004348E9E7FFF7ECF9FD
:1079A000CFE780884A4B984203D04A4B984200D098
:1079B00070E7464B1B68002BC3D05B68002BC0D020
:1079C0002100D5E7153B012BBBD963E7FFF79AFAF6
:1079D000B7E7FFF77FFAB4E73F4B1B78042B07D1DB
:1079E00000236A4613800179408800F0CBFCA8E7A9
:1079F000364B1B68002BA4D05B68002BA1D0010084
:107A0000364898479DE7012421420AD0294B1B683C
:107A1000002B04D05B68002B01D000209847012088
:107A200043E78B070AD5264B1B68002B04D05B6805
:107A3000002B01D020009847022036E704212800BF
:107A400008400D4200D131E7254E3388002B21D06C
:107A5000013B9BB23380002B1AD1FFF7DDF80028E1
:107A60000AD0204B1C70164B1B68002B04D05B689F
:107A7000002B01D020009847FFF7C8F8694601F0B5
:107A80000CFD6846FFF700F81D20FEF755FF30801B
:107A900004200AE7024B187804F0AAF8F8E7C04679
:107AA000E464FF1F6D43FF1F0E2000000120000053
:107AB00009100000DC64FF1FFEDFFFFFAFDFFFFFE8
:107AC000E064FF1F0C2000000B200000C464FF1FB7
:107AD0000D20000013200000B964FF1FFFFF00000D
:107AE000B664FF1FB464FF1F10B501F09FF910BD0D
:107AF000014B18607047C046E064FF1F0B880020F0
:107B0000162B01D817230420014A13807047C04662
:107B10008E64FF1F00207047074A030011888142CE
:107B200007D091880020994202D1013080001018BE
:107B300070470020FAE7C046EC64FF1FF0B58F786D
:107B400006000D00C5B01E2F15D1FFF7E5FF051E7D
:107B500003D10024200045B0F0BD00223B003100DD
:107B6000C078009200F0B8FB0400A81C00F0D8FB1D
:107B7000FF23EB70EEE7264B062403931B78FF2BC5
:107B8000E8D0182FE6D87B08224A013BDB0002929E
:107B90009A589446002ADDD0029AD3185B68002BCD
:107BA000D8D00878002802D14B78012B02D10624C6
:107BB000122FCFD107AFAB88697800976446AA68C7
:107BC000A047041EC6D1AB78029A5B08013BDB00DC
:107BD000D318390030005B689847041E0BD1AB788E
:107BE000042BB6D0039A310010782200009700F0E1
:107BF00073FB0400AEE76A78002AABD1AA7805A926
:107C00003B88087130000A704B80FEF74BFBA0E701
:107C10007043FF1FCCC100111D4B37B505009842C2
:107C20000BD000290AD1FFF777FF002805D11948AA
:107C3000FFF772FF002800D0058037BD01291AD157
:107C4000FFF76AFF041EF8D001235B420380A3788C
:107C5000FF2BF2D0FE2B07D00023E07814220093F4
:107C600029001E3300F038FBA01C00F059FB012353
:107C70005B426380E1E70229DFD1013901F0C2F8FC
:107C80000028DAD12800FFF747FF041EDFD1D4E730
:107C9000FEFF0000FFFF0000022210B5074B52421A
:107CA0001A80074801325A809A80DA8000F084FAFC
:107CB000044801F029F8002010BDC046EC64FF1F05
:107CC0003D7B0011197C00110388F7B50400002BDF
:107CD00002D102252800FEBD426802211378254802
:107CE0005268FEF7A7FD00282ED0234F01253A88C1
:107CF000002AEFD0802321885B0201259B1A99423C
:107D0000E8DC0C2003F034FF061E31D03B882288CB
:107D10009C4600231800019561469DB2491989B21D
:107D2000AA421BD8002801D062443A8000233000C8
:107D3000082208C0210003F033FE104A1368002B0C
:107D400013D100251660C5E76268022113780C483C
:107D50005268FEF76FFD0028C7D1BAE760681D01C1
:107D60004019418101330198D6E71A001B68E6E704
:107D70001325AFE73AC200116E43FF1FE864FF1FEF
:107D800038C20011014B18707047C0467043FF1F86
:107D900014230A0010B51A40194204D00122102100
:107DA00001F04CF810BD4B06F9D4C8430223400043
:107DB0001840F7E710B514008B0604D501221021F6
:107DC00001F03CF810BD08230A001A40194202D104
:107DD0004BB2002B0FDA102101F030F8002808D048
:107DE0002300F2331B78002BECD0F1342378012BE5
:107DF000E8D10020E6E703208907FAD4E2E7000093
:107E0000F0B51F00184B85B01C68019002910392D9
:107E1000002C27D1200005B0F0BDA5683301ED1876
:107E20006B89019A934211D3029A93420ED8002F84
:107E300004D10A9B002B10D12C00EBE73B002978E2
:107E4000039A6868FEF7F6FC0028F2D10136B6B254
:107E5000A388B342E1D82468DAE7A3680A9A5B8969
:107E60001380E9E70026F3E7E864FF1F37B50C004D
:107E70000A8849880123914217D3002A15D0651D2D
:107E800023792A0002210A48FEF7D4FC1023002897
:107E90000BD023796188208800242A000094FFF702
:107EA000AFFF0A23A04200D0230018003EBDC04609
:107EB0003AC2001113B50A00088849880123884294
:107EC0000BD8002809D00024137905320094FFF75D
:107ED00097FF0A23A04200D02300180016BD13B557
:107EE0000A0008884988012388420BD8002809D055
:107EF0000024137905320094FFF782FF0A23A04281
:107F000000D02300180016BDF0B58BB003904A884E
:107F100008880E000123824213D3002811D00023C9
:107F2000012704AC23700022718813000092FFF730
:107F300067FF05002078002D06D122780A23002A49
:107F400041D118000BB0F0BD002835D12B78022BA1
:107F500018D167706A8983000130E31880005A8065
:107F600069680222201803F01BFD23780133DBB27D
:107F70002370042B19D93B006889013080B2002B93
:107F8000D1D0DAE702236370122358436A89231899
:107F900004305A8069681022201803F001FD23780C
:107FA0000133DBB22370002BE5D10A4A6B899B18A1
:107FB0005A425341DBB2DFE76378012BE4D12B78DF
:107FC000022BC7D0B9E721000398FEF795F90023EB
:107FD000B7E7C0460100FFFF0F4BF0B5040018687B
:107FE000002816D083685D89A54207D88288AE181C
:107FF000B44203DA12019A18934201D10068EFE704
:108000001E005F891036A74204D1002900D00D80E0
:108010001800F0BD3300EFE7E864FF1F70B50500FE
:108020000C0008880021FFF7D7FF03000120002B78
:1080300004D022002800197AFFF7BCFE70BDF7B506
:108040000C00002501902300EE331B78AB4201D8D1
:1080500000200AE06B00E65A00213000E718FFF725
:10806000BBFF002802D126800130FEBD017A0198B5
:10807000FFF78EFE002802D03B882380F5E701350C
:10808000EDB2E0E710B5040008880021FFF7A4FF77
:1080900003000120002B03D02000197AFFF778FE9F
:1080A00010BD0000054B1B68002B01D1180004E037
:1080B0009A6852898242F6D198887047E864FF1F17
:1080C000F0B50E27002687B0039302ABFF183E8061
:1080D00005001F4B40891400984207D02B780130CF
:1080E00000976A6880B2FFF78BFE060002212B78AA
:1080F00018486A68FEF79EFB00280FD06C892000A4
:10810000FFF7D0FF002802D0013C0419A4B2039B62
:10811000002B00D01C80300007B0F0BD02212B786E
:108120000D486A68FEF786FB0028E7D102212B780C
:108130000A486A68FEF77EFB002807D0002EDED0D2
:108140003B88A342DBD17489013CDFE76C89DEE721
:10815000FFFF00003AC2001138C2001136C2001100
:1081600010B50C00FFF7D8FC03000220002B0AD04A
:10817000002C00D023609B781720FE2B03D0013801
:10818000FF2B00D1002010BD73B50D0001A9040024
:108190001600FFF7E5FF172805D0002E04D12900AF
:1081A0002000FEF725F976BD01221021200000F005
:1081B00045FE0028F3D0F6E7014B18607047C04633
:1081C000F864FF1F37B56B469D1D010004000222B5
:1081D000280003F0DDFE2B88B02B0ED12379122B63
:1081E00009D12300FA331B78012B06D101216088C5
:1081F00000F0E0F801E01B2BF8D037BD10B5054BBF
:108200000421187000F098F8FFF746FDFEF76CFBAC
:1082100010BDC046FC64FF1F0020F0B50BB20F007C
:1082200087B0834234DA274B187803F0A9FC051E87
:108230002BD00378A02B25D103AE3100FEF7E2F856
:10824000041E0BD1B378DB0724D51F4B06341B6803
:10825000002B03D03100688898470400A8680028E4
:1082600001D003F00DFD002C08D1184A039B1340E8
:10827000174A934206D0B3781B2B03D0012168889C
:1082800000F098F8280003F08BFD80200002784071
:1082900007B0F0BD0F4B1B68002B10D03100688871
:1082A0009847041EDAD07378002BD7D1B27801A991
:1082B0000A704B800C716888FDF7F4FFCEE7062446
:1082C000F1E7C046FC64FF1FF464FF1F00FFFF00DE
:1082D00000011200F864FF1FF7B50190FC200D00AB
:1082E00017001E0003F014FE04001320002C12D00F
:1082F000B02320002370089BF422677065802671EC
:108300000830002B08D0190003F04AFB2100019827
:1083100003F0AEFC0020FEBD089903F0F1FDF5E787
:1083200010B5041E06D00078FD2803D803F008FE1F
:10833000FF23237010BD00000A1F93B210B5040084
:108340000220032B05D882400020024BD1529B18FB
:108350009C7010BD1C65FF1F0B8870B5043B0400AA
:108360000D000220032B0BD80121200000F04AFD54
:1083700003001420002B03D02900200000F0DEFBB6
:1083800070BD000007B51300034A00920A000121E6
:1083900000F02CFC0EBDC046C185001107B501924E
:1083A00003220092024B0A00122100F047FC0EBD8E
:1083B0003F86001107B56B4601AA11800449D88099
:1083C00008780633012802D1190003F0F1FA07BD3D
:1083D000FD64FF1F0C4B10B518700023FF210B4AE2
:1083E0001380138193819380094A538013705172D3
:1083F00093819372D174D3821375517703F078FC13
:1084000000F0FCF910BDC0462C65FF1F1C65FF1F66
:10841000FE64FF1FF0B58DB06B46002003910C2267
:108420009B5E834200DBB1E05D4B187803F0A8FB54
:10843000051E00D1A5E00378902B00D09EE006AF8A
:1084400001004688380000F013FA7968040000291A
:1084500000D19DE03B88052B6FD13B89032B1CD9B4
:1084600005AC200000F0A2F86288172A60D839898C
:10847000131D994231D17968237804310291D907CB
:1084800038D5607800F08EF9071E06D000230371FE
:108490002378012B08D0132B23D0A868002800D103
:1084A00079E003F0EDFB76E06288029909A800F01C
:1084B000A6F80290380000F08BF909AA2378387AE0
:1084C0000192002231000092029A00F012F9380065
:1084D00000F064F9029B002BDFD0300000F080F93F
:1084E000DBE70378032BD8D16288029909A800F052
:1084F000D6F8DEE709AF122B12D13800029900F04E
:10850000B4F8021EE9D127498B88002BC5D08879A1
:108510002378019761780091310000F0EAF8BCE718
:1085200000233A003B8061783000FFF72BFFB4E76F
:108530001D4B09AA09936178F6E7042B02D09A1F14
:10854000012AAAD8174A043B9B00995A0029A4D0B3
:10855000D218907831003A0000F0ADF800289CD194
:108560003B88042B03D001213000FFF723FF012CAF
:1085700004D1A868002801D003F082FB280003F092
:108580000FFC8020039B0002434018000DB0F0BD9B
:10859000012800D181E701213000FFF70BFFEDE753
:1085A0002C65FF1F1C65FF1F010017000B7803706F
:1085B0004B784370CB788A781B0213434380704713
:1085C0000A88030002700A88120A42700A88012A87
:1085D00006D14A8882704A88120AC2700420704705
:1085E00002208242FBD14A8804309A704A88120ADB
:1085F000DA708A881A718A88120A5A71EFE710B500
:108600000400012082420CD94B780A781B021343E4
:108610002380834206D1CB788A781B021343638080
:10862000002010BD022BFBD1CB788A781B021343AC
:1086300063804B790A791B021343A380F0E70B8810
:1086400003700B881B0A43704B8883704B881B0A8E
:10865000C3708B8803718B881B0A4371CB8883712D
:10866000CB881B0AC3710820704703000120082A29
:1086700014D14A780878120202431A80CA7888789E
:10868000120202435A804A790879120202439A8000
:10869000CA798879120202430020DA80704710B547
:1086A00004000120022A05D100204B780A781B0221
:1086B0001343238010BDF8B5060010200F001500ED
:1086C00003F026FC04000120002C0ED0A0230C2275
:1086D000290023806780201D002D07D003F060F95A
:1086E0002100300003F0C4FA0020F8BD03F008FCBC
:1086F000F6E7F7B51E00009008AB142017001D78B0
:10870000019103F005FC041E12D0A2230370019B0B
:1087100047704380099B057146710C220830002B7D
:1087200007D0190003F03CF92100009803F0A0FAEB
:10873000F7BD099903F0E4FBF6E737B5041E0FD047
:108740004388002B0CD00025C1881323007A172200
:1087500001950095FFF7CDFFFF23658063722570BB
:1087600037BD000010B50C4904004A88002A09D022
:108770008B89002B05D00020CB8A0222834201D0B6
:1087800010BD012213000A20434300204032C85488
:10879000C81842800472F3E7FE64FF1F0023438081
:1087A00003707047094B00211A0010B55C88002C3B
:1087B00006D01C79844203D10A234B43D01810BD44
:1087C00001310A330329F1D10020F8E7FE64FF1FCD
:1087D00010B50400407A03F0B3FBFF23637210BDB1
:1087E0007047043010B580B203F06AF9002803D056
:1087F0000421494203F0E4FA10BD000070B50025E1
:10880000104CA0682580A581A580A84202D003F065
:1088100037FAA56000250C4C0C4B606D1D802300C1
:1088200058331D70A84202D003F02AFA656500256E
:108830006068002801D003F023FA013508340A2DBE
:10884000F6D170BDC465FF1F6865FF1FB865FF1FC7
:1088500070B5041E09D1054D2880A881A880A8689C
:10886000002802D003F00CFAAC6070BDC465FF1F95
:10887000F0B54B8885B00193002343600A79050069
:108880000F00022A00D07BE0CA88032A17D98B6820
:108890005E7819783602DC78D8790E4399781B7A9D
:1088A00024021B020C43034353495BBA0B80331D64
:1088B00093421ED1042C04D0631F022B0ED9012039
:1088C00015E0019A4D4B1201D35A002B06D00198A6
:1088D000FFF7BEFF4A4A1369013313610421B868E8
:1088E0002E812C80494203F06BFA6860002005B0AD
:1088F000F0BD434D042C06D0631F022B0FD9EB684B
:108900000133EB60DBE7019A3C4B1201D35A002B99
:1089100005D00198FFF79CFF2B6901332B61374B82
:1089200030000293019B029A1B01019300230199DD
:108930008C468B52130063449C8003939E81FFF707
:1089400050FF039B041E986016D00421B86849426A
:1089500003F036FAFA880100043A200003F020F808
:108960000199029AFB888A5A043B9B18029A8B52FF
:108970002B6801332B60A2E7AB690133AB619EE743
:108980001E4B0293019B1E01029BF35A002B2DD01C
:1089900002998C19A068002828D0012A26D1FA88CB
:1089A0009B189BB27352A189994217D39B1AC01886
:1089B000B96802F0F5FF029BA289F35A934200D0F6
:1089C0007DE700222B81A3882B80A3686B60029B2C
:1089D000F2520B4A53680133536070E7084A9368B8
:1089E000013393600198FFF733FF68E7044A536946
:1089F00001335361F6E7C0462E65FF1FC465FF1FB4
:108A00003465FF1F70B5051E15D10B4C0B4B18803C
:108A1000230058331870606D002802D003F030F93D
:108A20006565250050356068002801D003F028F9FD
:108A30000834AC42F7D170BD6865FF1FB865FF1FF1
:108A4000F0B51700A12285B0920001934243394B43
:108A500006001B680C009B18D933FF331D78FDF707
:108A60003DFF0430854204DD3000FDF737FF043060
:108A7000C5B2BD4207D33A0000213000019B03F08C
:108A80006FF905B0F0BD2900380003F051F823005C
:108A9000C6B250331E700393019B290063653800F2
:108AA00003F0CEF8CBB20293002B02D0039B013629
:108AB0001E7000262300503303931B78B34204D862
:108AC000606D002831D10020DBE7029A2800002ADF
:108AD00004D0013B1000B34200D02800F700E71992
