:020000041100E9
:103000007FB50023284C294D03932800217C284AB2
:1030100001F0E1FA002812D103232800217C03AA41
:1030200001F080FA00280AD1224B039A9A4206D175
:10303000214B2248E360224B636104B070BD02263D
:10304000217CFE2228001F4B009601F03DFA00284B
:1030500001D00020F1E71C4BA2899A42F9D1217CD2
:10306000FF222800194B009601F02EFA0028F0D11B
:10307000E389174A934203D1164B17486361DCE793
:10308000164A9342E5D1164B164A1B68934206D95D
:10309000C02304222800217C9B0001F07EFA124B01
:1030A00012486361C9E7C046E061FF1F3442FF1F59
:1030B000813700005959530059598320B0C000117D
:1030C0000D420011EC61FF1F59590000EE61FF1F16
:1030D00083050000C541001190C000118215000059
:1030E0000462FF1F87130000C5420011A0C0001139
:1030F00070B5134D2B7C002B0DD0124C200001F02D
:1031000091F9297C382907D1BA22200001F034FA3C
:10311000200001F0C5F970BDEB890B4A934206D13E
:103120009023022220001B0201F037FAF0E7074A41
:103130009342EDD12000064A01F04DFAE8E7C0467F
:10314000E061FF1F3442FF1F830500008320000061
:10315000A2300000002370B51A4E1B4C3000636192
:10316000637401F05FF9402323744B2B0CD9CC23FB
:103170003821AC2230009B01217401F00EFA0028A6
:103180000AD0002525740CE0FFF73AFF051E08D190
:10319000237C0433DBB2E7E70C4B0D4D63610D4B31
:1031A000E3812368002B08D1002D06D00C222900D2
:1031B000200008F0D1FE2B7B6374300001F070F921
:1031C00070BDC0463442FF1FE061FF1F6142001125
:1031D00080C00011AAAAFFFFF7B5164B0192C318D1
:1031E000021D0020009388235B05D3181B685C1C1C
:1031F0001AD09CB2402C18D88D781E0CAC4667466D
:10320000CD782D023D43AE4206D1019800280ED163
:1032100010000C70240A4C7003249BB20733A343A4
:10322000D218009B9A42DED3FEBD4432F9E710006B
:10323000FAE7C046FC0F0000802213B50300032408
:10324000019189B2520107319B18A14304305A1AE7
:1032500088235B05C3181B68591C03D19042924117
:10326000104016BD99B2402907D80B000733A3437D
:10327000C0189042ECD30020F3E74430F9E7134B39
:10328000134A1B68126810B5FA24934201D81A0039
:10329000F824104BE4021B689A4210D813000E4A1F
:1032A00012689A420ED3013307D1F823DB029C4205
:1032B00003D10A49054808F027FE200010BDFC2470
:1032C000E402ECE7FE24E402F7E7C04600C0071181
:1032D00000D0071100E0071100F00711FFFFFF7F8A
:1032E000F0B59BB0150003900491402A5CD806AC61
:1032F00061802280FFF7C3FF002221000600FFF754
:103300006BFF05280FD92388AB420CD1002D07D0C5
:10331000504B2A000399C01808F00EFE002802D175
:1033200001201BB0F0BD258030000699FFF784FF17
:10333000041E79D1069B0793FFF7A1FF80235B0151
:10334000C618802307001B039E4201D1F826F6020F
:1033500088235B05F31801931B68013302D00198A1
:1033600008F0E2FD3C49019808F0CEFD3B1D0293B8
:10337000331D05938822029B52059B181B680893F6
:103380005A1C13D188235B05FF183968019801394D
:1033900008F0BAFD380008F0C7FD30000799FFF7C4
:1033A0004BFF0400002C41D10020BAE744219AB21F
:1033B0000091402A04D80320D11D814389B2009195
:1033C00004991B0C8B4224D0402A22D801223000C1
:1033D00008A9FFF701FF021E1BD1380008A9FFF75B
:1033E000FBFE04000428DDD9009A059B9B1880226F
:1033F0005201B21893422AD288235B05C118009A61
:1034000009A808F0A9FD134B009A09A9F01808F0C3
:1034100073FC009A029B9446634402930F4B029AFA
:10342000FB189A42A6D3ADE70428BDD088235B05DC
:10343000E018069908F068FD0323EA1C9A4300D1BE
:103440006EE7044B0399E01808F056FC68E7042483
:10345000ECE7C04604000011FFFFFF7FF80F0000FB
:1034600073B504001600402A1ED801AD6980FFF72D
:1034700006FF002229002A80FFF7AEFE042810D99B
:103480002D88002E0BD0002C09D0321CAE4200D962
:103490002A1C074B92B2C118200008F05DFD28B22B
:1034A00076BDC04300B2FBE703204042F8E7C046C8
:1034B0000400001137B5042204000D0001A81649CC
:1034C000FFF7CEFF020004280BD1019BA34208D3D3
:1034D000AB4204D0104901A80195FFF701FF01207C
:1034E0003EBD0E4C23682000019308F01DFD01999C
:1034F00020000139019108F007FD80235B01E418E9
:10350000074B9C42EED10422034901A80195FFF725
:10351000E7FE0020E4E7C0465555000000C0071153
:1035200000000811F0B589B008F036FD1022694698
:10353000264808F031FA264B009A6C469A4211D17F
:10354000019B0F2B35D80699029A8C461800110062
:10355000002604AD013808D2002E01D00A00A16077
:1035600001322FD10023A36023E04F1CF2D161462A
:103570000126EFE7103610222900300008F00CFA7F
:10358000A368A868013300D1A060882329685B057F
:10359000C9186B6829601A03120B6A60814203D054
:1035A0003B4201D108F0D8FC6368013B6360002B0B
:1035B000E0D1A368002B03D0049304984168084726
:1035C00009B0F0BDE027014E3F03F0E70000011114
:1035D000504859368022F8B5964C974BD2000021BE
:1035E00020001C6008F0F0FB2300944A88331A6026
:1035F000934B1A786A23002A00D01133E3620A231E
:103600002365904B37221B780820A3638E4B21182B
:10361000E361102323628D4B3B256361C823DB00EC
:10362000A36123008C331A602823013AE2632064EB
:103630006364CA67043A211DCA672100BC310D606A
:103640002100C03108602100C4310B602100063523
:10365000CC310D602100083DC8310D602100D03112
:103660000A602200D43210602200D8321360220097
:103670000227E032210017604222DC310A6021007B
:103680001B3DE4310D602100E83108602100EC3180
:103690000B6023000521F43319602300F0331A6016
:1036A0002300183290331A602300943318602300EB
:1036B0001E3A98331A60AF23DB002360644BFA266E
:1036C0002363644B644DE360644BF031A3642300D7
:1036D000FF31FC33B600A16021611E60A562732535
:1036E000E5656D3D6565A56596255D4AAD00E264BD
:1036F000666258606766A56600270925A767E566C4
:10370000584F594D606720002567E2673A601527DA
:103710009C30676007001A2038602000A030070046
:10372000212038602000A83007004C483860200075
:10373000F830066026006427A436376026005F3F15
:10374000AC3637602600033FB03637602600C637F8
:10375000B436376026000027B836376038269E60BA
:10376000424E96205E64424E5A66DE61414E9A6435
:103770005E62F53EFF3E9E621E269A67354A8000D5
:10378000DE661F675F67DD651D661862DA67BE2348
:10379000394A5B00E250394BD8382350043022506C
:1037A000C4225200A350C623E4205B00E15004333E
:1037B000334AE1503349344BD160344980001950C9
:1037C0003349E938FF381950324904301950324929
:1037D0003248D16132491163324951631900F431E1
:1037E0000860CE203049400011603049195019005E
:1037F0002F48F83108602F49D16582212E4A89006F
:103800005A501A002D490832D1671A002C49B43297
:10381000116088212B4A89005A501A002A4988329F
:1038200011602A4ADA6408F0F7FA012008F0C4FAB5
:10383000F8BDC0460004FF1F9064FF1F606FFF1FAC
:103840006C44FF1F4A0AFF1F3A07000080C3C901EA
:103850009A020000DC0500006A18000050C3000056
:1038600088130000F009FF1F204E00006509FF1FAC
:1038700068100000C409000040420F00102700003B
:10388000FC00FF1FAD1CFF1F0000FF1F052DFF1FC9
:103890008D30FF1F252FFF1F6D20FF1F6527FF1F86
:1038A0008920FF1F3922FF1FF91FFF1F8929FF1FD2
:1038B000712AFF1F9119FF1F9528FF1FC125FF1FA8
:1038C000CD25FF1FF91EFF1FB11FFF1F711EFF1F18
:1038D0000223F0B50124624D91B02B70614B624E12
:1038E0001C70624F0393336821002000FB7006F0C8
:1038F0005BFE0021200006F03DFF200006F034FEB4
:103900000023984205D0FA78552A02D0332A00D0F5
:1039100099E03360042007F093F808F045F9FFF7C9
:1039200059FE08F0F9F91F2201240021504B1A70AA
:10393000504B1C70504B1970504B19689143163AFC
:103940000A431A60602219689143403A0A431A6098
:1039500008F09AFA08F0B0FA494B9847C120FF21C5
:10396000484B80001A588A431A50C5229200985832
:103970008843BF39014399509858434908408021F2
:10398000C9010143802099509958C0050902090ACC
:103990000143995080213D48490108F035F903233E
:1039A00022003B49019400933A4808F01DFA2C226A
:1039B000394905A808F0D0FA05AC6178207806F0FE
:1039C000F3FD023410ABA342F7D1344C344B2268E0
:1039D00003201A40A023DB021343236080232268C4
:1039E0009B041343236022682E4B1A4080239B03C1
:1039F000134323602C4A2D4B934200D8012007F03B
:103A0000D3FF08F0B9F880232268DB041343236056
:103A1000287808F029F9039B1878C0B208F064F9F7
:103A200008F012F82249042008F0FEF806F0D4FF4E
:103A300000F040F800F004FE00F0AAFE00F0F4F9F7
:103A4000002011B0F0BD00932100194A042008F0B5
:103A50001BF88023DB059C62FFF764FD5AE7C04634
:103A60004A0AFF1F6C44FF1F34F000401062FF1F22
:103A7000480AFF1F490AFF1F680AFF1FBCF00040E9
:103A8000E1A2000000E100E0FF00FFFF7044FF1F23
:103A9000F456FF1F7054FF1FA8BF001114F0004020
:103AA000FF7FF8FFFFFF9FFF0080FF1F606FFF1F7A
:103AB0003B000108002210B51100112008F0A4F904
:103AC00010BD0000F8B500230926364F364C3B6286
:103AD000E3681120B343E36008F07EF9112008F099
:103AE000FBF9112007F0F0FF402322681025134353
:103AF000236080236268DB02134363608023A26833
:103B000002211343A360A368284A08201340A3603E
:103B10008023A2689B0113430122A360236CAB4363
:103B20002364236C1343236480231B013B62226BB9
:103B30001F4B1A402263626B1A406263A26B1A40E9
:103B4000A263E26B1340E363E3681A4A1340E36045
:103B500006F02AFD0121082006F03AFE8023164ACD
:103B60005B00516C11200B43536407F0D5FFFD211E
:103B7000C720124B124A89005A50A36B80002B4376
:103B8000A363E3680F4A3343E3600F4B19581140B6
:103B9000802212020A431A50802292051A600B4BAF
:103BA0005D63F8BD00F000403CF00040FFFFDFFF28
:103BB000EFFFEFFFFFFF7FFF003800400000FF1F17
:103BC0005118FF1FFF00FFFF00E100E0000005406B
:103BD00010B502F0D7F8FFF78BFAE120C00407F028
:103BE000FBFE10BD70B51A4CE388002B2AD0FA22D8
:103BF000D200934201D2FFF7EBFF2368E088A6884A
:103C0000C0188023711C89B2124D2060A1809B00D6
:103C1000994218D3420A93B2C21AEB802260A6805E
:103C20000D4A642093420AD8FA220020D20093421F
:103C300005D90A21180008F0FFF8C838C0B20023DF
:103C40002872E38070BD08F02FF883B2EB80E7E7BD
:103C50006C61FF1FF861FF1FB70B000030B503A8B0
:103C600004880B20002C0ED14968074D087849784C
:103C7000090201430A20A94205D10121200019802F
:103C8000024B1B7A137030BD192A0000F861FF1F28
:103C9000F7B5150008AA16884A680F4F14785278AD
:103CA000120222430A24BA4214D10122DBB2019249
:103CB00000962A0007F0DCFD041E0BD1074B1B68A1
:103CC000002B07D068782A78000210434242504106
:103CD000013098472000FEBD022900007C61FF1FD3
:103CE00030B5012503790400BFB02B4211D00A4939
:103CF000408807F02DF928420BD0084B01A95B8DB5
:103D00004D800B80064B00221B7A60880B7104F0FB
:103D10000FFA3FB030BDC0467461FF1FA840FF1FBF
:103D2000F861FF1F10B50549054807F0C7F80421E1
:103D3000044A054807F084F810BDC0467461FF1FAF
:103D4000FFFF0000D4BF0011A840FF1F10B50248BC
:103D500005F072F810BDC046E13C0011012303706C
:103D60000B4B1A7A4270022282709A78C270DA780B
:103D70000271032242711A7982715A79C2710C223E
:103D800002729A794272DB7983720B207047C046C7
:103D9000F861FF1F022310B50370013B4370053328
:103DA000837010330371443B43712A33837144336E
:103DB000C37100230372054B04001B8843720A3051
:103DC000FFF7CCFF11231520E37010BDF861FF1F32
:103DD00010B5142007F038FF124B14220021186090
:103DE00007F0F2FF002008F097F8012008F0CCF867
:103DF000022007F0F1FE032004F0C0FA042006F0D0
:103E0000D9FA052003F0F8FC062004F0CBF90720CE
:103E100001F076FB082006F0F3FF092001F0AAF874
:103E200010BDC0468061FF1F07F0B6FE012007F0FD
:103E3000ABFF07F099FE0000094B10B50400984253
:103E400005D0012904D12000064907F037F810BD3C
:103E50000229FCD1013904F0A9FF0028F3D0F6E7CC
:103E6000FEFF0000A661FF1F70B50D7A100004AAC6
:103E70002C00168810221440154220D1002E20D18B
:103E80000A78022A18D14A68517815780E4A090230
:103E90002943914205D00D4A914209D01C800A2441
:103EA00004E014220A491A8008F056F8200070BD78
:103EB0000C2208491A80F7E71C800124F6E7082441
:103EC000F4E70B24F2E7C046F3FF0000F4FF000024
:103ED000F842FF1FCCC0001110B504000749084884
:103EE00006F0ECFF074804F0E3FE0020E40704D5E9
:103EF0000721054A054806F0A3FF10BDA661FF1F74
:103F0000FFFF0000393E001118C00011EC40FF1FF8
:103F100010B50B4BBEB01A780A4902A800F0FEFC9F
:103F200001AC80B26080002808D0074B00221B88BB
:103F300021002380054B188804F0FAF83EB010BD2C
:103F40008461FF1F8561FF1F4641FF1F5042FF1F15
:103F500010B50B4BBEB01A780A4902A802F02CF833
:103F600001AC80B26080002808D0074B00225B8D36
:103F700021002380054B188804F0DAF83EB010BD0C
:103F8000AE61FF1FAF61FF1FEC40FF1F5042FF1FDC
:103F9000F7B50E00377A1C0008AB11003D001A88F7
:103FA00020231D401F423CD13378022B3BD1736844
:103FB0001F785B781B023B431E4FBB4208D01E4F4D
:103FC000BB4214D01D4DAB4221D00A252800FEBDB6
:103FD000002A2AD1142C2AD82200F06807F0BCFF4E
:103FE000174B1C70012CF1D9FFF7B2FFEEE7002A46
:103FF0001BD1202C1BD82200F06807F0ADFF114B1D
:1040000004211C70104B187807F0AEFEDEE7E3B217
:104010000124009201940A00310007F029FC0500F8
:10402000D4E70825D2E70125D0E70B25CEE70D25FB
:10403000CCE7C046F3FF0000F4FF000002290000B7
:10404000AE61FF1F8461FF1F3062FF1F332310B575
:10405000040003700A220749013007F07DFF064B78
:104060000F201B681A0AE37222731A0C1B0E62736C
:10407000A37310BDF861FF1F2062FF1F30B501253B
:1040800003790400BFB02B4213D00B49408806F0DF
:104090005FFF28420DD0094B01AD1B8802A82B8081
:1040A000FFF7D4FF0F236B8000222900608804F003
:1040B0003FF83FB030BDC046A661FF1F4641FF1F1D
:1040C00010B5024804F0B8FE10BDC0467D40001196
:1040D00070B5160004AA148805AA15784A685078A5
:1040E000117800022A4A0843801805284BD807F0A7
:1040F00063FC03131E29343F0720032C0BD8042232
:10410000121BAA4200D92A0022491A80300009193C
:1041100007F022FF002070BD0720112CFBD81222CF
:10412000121BAA4200D92A001B491A80EEE7072079
:104130000E2CF0D80F22121BAA4200D92A001749D0
:104140001A80E3E70720032CE5D80422121BAA42B9
:1041500000D92A0012491A80D8E70720032CDAD8A0
:104160000422121BAA4200D92A000E491A80CDE768
:104170000720032CCFD80422121BAA4200D92A0000
:1041800009491A80C2E700220A201A80C3E7C04604
:10419000DCD5FFFF63C00011CC61FF1F53C00011CD
:1041A0004EC0001149C0001144C0001110B50D21CE
:1041B000024A034806F044FE10BDC04638C0001154
:1041C0005C41FF1F37B50F4C01AD04232A00217C51
:1041D00000F0A8F9002813D12988236849BA89B2C8
:1041E0004B4321891B0C5B18074A6988538049BAE5
:1041F000636889B24B4361891B0C5B1893803EBD99
:104200000120FCE7E061FF1FF861FF1F37B5124C8A
:1042100006236A46217C6D4600F084F9002818D1F7
:104220002988236849BA89B24B4321890B4A1B0C60
:104230005B1853806B4603335B78E9781B020B43B2
:104240005BBA61689BB24B4361891B0C5B1893801E
:104250003EBD0120FCE7C046E061FF1FF861FF1F83
:1042600073B5164C07236A46217C6D4600F05AF957
:10427000002820D12B787F2B1DD8F023EE781B034C
:1042800032041A40AB880E495BBA9BB21A432368CA
:104290003609534322891B0C9B184B806A78AB78F4
:1042A00012031B011A4363683243534362891B0C98
:1042B0009B188B8076BD0120FCE7C046E061FF1FA4
:1042C000F861FF1FF0B5022785B0154C03AD217CC6
:1042D0002B0000220097060000F0F6F8002802D01C
:1042E000012005B0F0BD0E23217C01223000009793
:1042F0006B4400F0E9F80028F2D129882368C9BA94
:104300004B4321891B145B18064A6988538049BABC
:10431000636889B24B4361891B0C5B189380E0E7AB
:10432000E061FF1FF861FF1F70B5184C237C002B64
:104330000FD0382B0ED1164D280000F073F8CC2387
:10434000AC222800217C9B0100F027F9280000F016
:10435000A7F870BDE3890F4A934209D10C4D28009C
:1043600000F060F800222800217C00F005F9EDE75C
:10437000094A9342EDD1064D280000F053F89022EF
:104380002800217C920100F026F9DFE7E061FF1FA1
:104390003442FF1F830500008320000070B5144CD9
:1043A000237C002B1FD06369002B1CD0114D2800EB
:1043B00000F038F86369280098470400280000F0EE
:1043C0006FF8002C10D10C4B0422995E002905DAFD
:1043D0009C801A8801321A80200070BD074A9142E1
:1043E000F7DD9A80F5E70124FEF7B4FEF4E7C04656
:1043F000E061FF1F3442FF1FF861FF1F0F2700001D
:1044000010B58024064AA4001168436B234205D1ED
:1044100013685B1A032BF8D9012010BD0020FCE7BC
:104420006008FF1F70B5C17905000C00631E9C4138
:104430001A4BE402E41849000460C9B2007906F09E
:10444000FDF9E979687949000131C9B206F0F6F958
:10445000E8790930C0B207F037FB0023E366613327
:104460002360AA795B3B002A0ED022689A43023B64
:10447000134323600A23E36107332362002323638A
:10448000A3630133E36370BD22689A43022313439D
:104490002360462363610633A361EFE700500040C9
:1044A00070B5002504000368DD66C0790930C0B22C
:1044B00007F092FC2900207906F05CF92900607968
:1044C00006F058F970BD0000F8B51E0006AB1D7867
:1044D000002304681700E366616007F05DFD0123B7
:1044E0008022E3662B0027615200013B08D207F0CF
:1044F000ABFC08200A4A1168002D03D12800F8BD42
:104500002261F2E7236F034203D02369013D337038
:10451000013613685B1A032BEED90125EEE7C0467E
:104520006008FF1F70B51C00002305681600EB66CD
:10453000696007F031FD01238022EB662300520001
:10454000013B08D207F080FC08200A4A1168002CC1
:1045500003D1200070BD2A61F2E72B6F034203D024
:104560002B69013C3370013613685B1A032BEED9BB
:104570000124EEE76008FF1F002370B504681500F2
:10458000E366616007F008FD0123E366256107F03B
:104590005BFC2000FFF734FF70BD70B51D000023E9
:1045A00004681600E366616007F0F6FC0123E36629
:1045B00026610F33626B1A42FCD02B0A2361102351
:1045C000626B1A42FCD0EDB2256107F03DFC200081
:1045D000FFF716FF70BD002370B504681500E36691
:1045E000616007F0D9FC0123E3662B0A23611023E5
:1045F000626B1A42FCD0EDB2256107F025FC200069
:10460000FFF7FEFE70BD70B51E00002305681400A4
:10461000EB66696007F0C0FC0123A619EB660F3357
:10462000B44205D107F010FC2800FFF7E9FE70BD89
:1046300021782961696B1942FCD00134F0E7000050
:1046400010B5084CE368002B08D18022064B5202BB
:104650001B689B186360054B1B68236007F04CFCCC
:10466000A06010BD2062FF1FC8F00040CCF00040E9
:10467000F0B5184A936A916A9942FBD116498A6843
:104680009A421FD39A1A8B60144B4C68186893B2E5
:10469000D2024343D20E42431B0A08681B1912027E
:1046A0009B180024020001270D4D4B60561CAB42A5
:1046B0000BD8002C01D010000CC10A4A13600A4B21
:1046C0001860F0BD581E821ADDE7084A3C009B18AE
:1046D0003200EBE700F000402062FF1F140AFF1FCA
:1046E00040420F00C8F00040CCF00040C0BDF0FFD9
:1046F00070B51E4C23793F2B01D93F2323711C4AEF
:1047000013701078C0B207F08FFB1823194A1A49AA
:1047100013801A4A0B8013804B80A0790C3B421CFB
:1047200053438022120193421ED81A00144D8880F0
:1047300028801448CB8002806279002A01D101329E
:104740006271237A012B01D80223237253430E484E
:104750000A21584307F070FB0C4D2860E379052BC4
:1047600001D81023E37170BD1300DFE71462FF1F4F
:10477000480AFF1F4E42FF1F1844FF1F4C42FF1FF5
:104780004A42FF1F4842FF1F710200000462FF1FE0
:10479000F8B521210020FEF78DFE114C011E114DB0
:1047A00009D10C22104BC1CBC1C4280007F00CFB6F
:1047B000FFF79EFFF8BD0C2220000C49FEF750FECB
:1047C0000C2802D0084B43CB43C40C2228000849D4
:1047D000FEF746FE0C28EBD00C220021E5E7C04690
:1047E0001462FF1FE061FF1FC0C00011FC0C00003D
:1047F000F50C000010B50C2202480349FEF770FDCD
:1048000010BDC0461462FF1FFC0C0000F0B51D4C2B
:104810008022A5440400882069465201400507F023
:104820008BFA902212016A441300200032C832C36E
:1048300016C816C38023144C144FA6689B03334339
:10484000A3603B6007F098FB8823A0685B05C01855
:1048500007F06AFB0025882329008022A0685B05F9
:10486000C01840196944520007F046FA8023013508
:10487000FF355B019D42EED1A6603E60044B9D4436
:10488000F0BDC046FCEFFFFF8843FF1F9808FF1FE5
:1048900004100000F0B587B0051E6C4627D06846AE
:1048A00007F052FB1B4D022806D10622694628005C
:1048B00007F042FB002818D00F222100002301201E
:1048C00094460600EA5C013317091037BE403700F2
:1048D000664632400600964032003A434A61043947
:1048E000062BEED12000FFF791FF07B0F0BD182294
:1048F0006946094807F020FAAB00E358013305D0B8
:104900001822FF21200007F05FFAEBE70135062DA2
:10491000F2D1EAE76509FF1F00090011F0B5002791
:1049200004000E00150085B0BA4200D187E08A78F5
:104930004B1C01934B7812021A43CB7808781B0466
:1049400013430A79207012061A430092039267708B
:10495000252800D193E033D8112813D807F04CF85C
:1049600069003801380138013801A700B500AE00F0
:10497000380138013801380138013801380138016F
:1049800012013201232800D1EAE0DB2800D045E102
:10499000042D00D8AEE0052D00D13CE16F1F3A0098
:1049A0000098711D07F0D8FA05223100200007F0A9
:1049B000D3FA3A000099601D07F0CEFA2F003EE0CE
:1049C000562856D00FD8332800D1A4E0552839D026
:1049D0002628DAD1A84D13223900280007F0F4F96F
:1049E000FEF7B8FB5AE0712800D175E0722800D1BB
:1049F00087E0602800D193E0DC28C6D1022D00D8E2
:104A000078E04B7863708B78A3706B461F88032D1A
:104A100005D0033DC81CAAB23900FEF761FC39007D
:104A20001022E01CFEF71CFDC71C002807DA60708E
:104A30006DE00C222000914907F08EFA0C27380017
:104A400005B0F0BD6A1E8E4D0C2A10D8002A07D082
:104A50002800019907F080FAFFF74AFEFFF7CAFE27
:104A60000C222900601C07F077FA0D27E7E70C22DB
:104A7000EEE7834D834B2A0043CB43C2ECE76A1E2B
:104A80007D4D0C2A11D8002A08D00199280007F082
:104A900063FA0C2228007C49FEF722FC132229002D
:104AA000601C07F059FA1427C9E70C22EDE706222B
:104AB0007649601C07F050FA0627C0E712227449B5
:104AC000601C07F049FA1327B9E708227149601CF6
:104AD00007F042FA0927B2E7012D0ED04978F029F4
:104AE00008D86D4D288801F0C1FE6C4B2A88520011
:104AF000D35A00E0FF23637009E0674A674B1288CE
:104B0000F5E7674B012D04D04A789A70627002274E
:104B100095E79B78EFE72000FFF798FA07008EE70C
:104B20006A1E604E072A07D8002A06D100230120FA
:104B3000336001F083F90CE0072296215A4B89007B
:104B40001B685A485B180199336007F005FA01F0B9
:104B50002FF90722601C711D07F0FEF908276EE788
:104B6000042D05D9504D009B2B6007F0C5F9A860B6
:104B7000FFF77EFD0422039003A9601C07F0ECF907
:104B800005275CE74A4E062D15D90622300001990B
:104B900007F0D2F900280ED006220199300007F064
:104BA000DBF9062243493000FEF79AFB01233C4A19
:104BB00091780B43937006223100601C07F0CCF90A
:104BC00007273CE7012D95D04878FFF763FE9EE765
:104BD000012800D0D9E6384AAB1E0092132B06D824
:104BE0004B78002B0BD100F033F900F069F9334B0F
:104BF00000991F78601C7A1E07F0AEF91FE7013D8F
:104C00002A000199009807F0A7F92D490098AAB247
:104C1000FEF766FBE9E715251027C5E6DA281FD160
:104C2000042D00D866E7082D17D9B37972791B02D5
:104C30001343F27912041A43337A1B061343009A82
:104C40001360009B05221B6831002000039307F0CE
:104C500083F90422601D03A93AE7FE236370F0E79D
:104C6000DE2800D046E7691E012D01D10027E6E6C7
:104C7000019801F06DF8F9E7E061FF1FCCC0001169
:104C80001462FF1FC0C00011F50C0000EC61FF1F93
:104C9000CC61FF1F8C43FF1F5042FF1F9464FF1F16
:104CA0001062FF1F7064FF1F2062FF1F7564FF1FEB
:104CB0006509FF1FADAC00001164FF1F0F64FF1FEB
:104CC000AEDE000070470000020010B5094B0A324A
:104CD000094C92B2DA815A8298811882207802F0C7
:104CE00029FC0422054B012120781A7007F03CF8BA
:104CF00010BDC0461643FF1F5A64FF1F5964FF1FB3
:104D0000013870B5042809D806F056FE03092808B2
:104D10001200234B0221187807F026F870BD204BB3
:104D20000821187806F0A0FE00221E4B1A72F5E743
:104D3000802200241B4B1A4D52001A8108211A6848
:104D40002878DC7206F0F8FE2100287807F094F845
:104D5000012000F021FF01F02BF8DFE7104B0821C4
:104D6000187806F081FE1048FFF714F80F4B104A30
:104D70009B79002093800F4A13808022094B5200B8
:104D8000D8721A8100F008FF01F012F80A4B9B78E4
:104D9000002BC3D0094A136007F02EF8BEE7C046C7
:104DA0003062FF1F0462FF1F5942FF1F1462FF1F82
:104DB0001844FF1F4A42FF1F1062FF1F34F00040DB
:104DC00010B5012907D1012805D18021024B8900A6
:104DD000187806F0C9FF10BD3062FF1F10B5054BF3
:104DE0001B78002B05D02622034B04485A72FFF78C
:104DF0006BFF10BD3264FF1F0462FF1FC409000077
:104E000010B5002907D1012805D18021024B890066
:104E1000187806F0A9FF10BD3062FF1F0300F0B53F
:104E20000A4D8E18B14202D152008018F0BD0C78A4
:104E30002F6824093C5D0F271C700C7801313C4021
:104E40002F683C5D5C700233ECE7C0464442FF1FB4
:104E50000D22124B10B51A700C23114C11492370FE
:104E6000093A033B1048637007F076F82D230122BE
:104E70000E490F48A371FFF7D1FF01220D49FFF73B
:104E8000CDFF01220C49FFF7C9FF030000200B49A9
:104E900002001870FEF724FA10BDC0462E64FF1FF2
:104EA0000F64FF1F63C000111164FF1F6709FF1F1C
:104EB0001664FF1F6609FF1F6509FF1FAEDE0000B5
:104EC00070B5134C142220001249FEF7C9FA431E94
:104ED000114D132B19D8AB78002B16D0431C2B7017
:104EE00009236B7000230019037028780B4B0130E5
:104EF0002900C0B2187006F047FD29782200013958
:104F0000C9B2002005F0BAFE70BDFFF7A1FFECE7C3
:104F10001164FF1FAEDE00000F64FF1F2E64FF1F31
:104F200010B5114B1A781870002A0ED000280BD13A
:104F30000E4B1A78062A07D85423D340DB0703D533
:104F40000B4B187802F0F6FA10BD0028FCD0074B86
:104F50001B78012B02D0033B022BF5D8044B012117
:104F6000187806F001FFEFE73264FF1F5964FF1F56
:104F70005A64FF1F70B54A4E4A4A4B4930700120AF
:104F800005F008FD00F0ACFFFEF7E4F806F08CFD3C
:104F9000032246494648FFF741FF2D24030004221F
:104FA0001C7044490130FFF739FF30230470424D33
:104FB000424C437083702E3B062220004049EB8711
:104FC000FEF74EFA062813D0200006F0BDFF022897
:104FD00009D00321200006F06FFD8D23E3706E3BA6
:104FE000237119336371062220003549FEF778F9E1
:104FF000344B1B68FC335C64FFF762FF0020FFF753
:105000008FFF314C314A0121314B1278207802F068
:1050100053FA304A304B12780021207802F04CFAD3
:1050200001222E4B1A702E4BDB78552B31D12D4B94
:105030003B325A722C4B2D4AAB81EA812B826A8219
:105040002021307806F030FF0120404205F062FE5A
:105050000120404205F0FEFEFFF7A8F8FEF762FED1
:1050600000F058FD01204042FEF736FF012006F017
:10507000D3FCF02001F0DEFB0121307806F074FE55
:10508000307802F0B3FB1A4806F08EFEFEF71AFDE8
:1050900070BD6422174B5B7953431A000A32CBE789
:1050A0003062FF1F014E0011C14D00118C43FF1FE4
:1050B000CC61FF1FEC61FF1F1643FF1F6509FF1F37
:1050C000ADAC00009064FF1F5A64FF1F7842FF1FC1
:1050D0005942FF1F2E64FF1F0F64FF1F0064FF1F54
:1050E0001062FF1F0462FF1FC4090000CE09000008
:1050F0003262FF1F1462FF1F8822084B52001B6898
:1051000010B51340103A934206D18021044B054A52
:105110001878C90006F028FC10BDC0461462FF1FB5
:105120003062FF1F60EA0000F8B50A0020230D007E
:105130001A40194263D0A14B1B78002B5CD0FFF7BB
:1051400097FA9F4B9F4CA04E99686268737A8A1AAF
:10515000DB039A4202D36160FEF7B4FC327A217A13
:10516000531EDBB2994205D1FFF7DEF8002000F0B4
:1051700065FE15E09142F9D300272772FFF70EF97B
:10518000A37ABB4202D0A772FEF72CFD012000F0EB
:1051900055FE8E4F3800FEF7FDFD390006F05CFE2F
:1051A000637A002B25D0013BDBB26372002B20D148
:1051B000874BDB78552B01D106F01EFEE37A002BDE
:1051C00012D00023A27AE3729A4202D0A372FEF7B1
:1051D00009FD804A7D4F1388380001331380FEF7A4
:1051E000D9FD390006F038FE642370795843FFF783
:1051F0006BFD237A0133237220206840F8BD0BB287
:10520000002B0ADA744B187806F036FD002801D01E
:1052100006F09AFC80200002EFE70224214206D02B
:10522000684B01201A72FFF77BFE2000E5E70B07B1
:105230001ED5FFF71DFA624B6249634C98684A68B5
:10524000637A821ADB039A4202D34860FEF73AFC83
:10525000FFF7A4F8FFF768F8012000F0EFFD00F079
:1052600073FC2368DB0701D5FEF72AFF0820C4E79B
:105270001026314209D0FEF7B5FC504B1B78002BAD
:1052800001D1FEF763FD1020B7E70124214209D0C8
:10529000524800F0F9F806F0A7FB00F0A3FDFFF775
:1052A0002BFFC2E74B0533D547490A6832420BD181
:1052B000474C6378002B0AD1D20505D522780233FA
:1052C0001343237000F05EFD8020C00095E7012BA2
:1052D00015D13F3353400B609B0703D50123227840
:1052E00013432370012000F0A9FD02238021637085
:1052F000394B3B4A1878C90006F036FBE4E7032334
:1053000001226370374B52421A6000F085FDDBE7E3
:105310008B054AD5200005F027F92B4C23681E4049
:1053200000281CD1002E0DD1294ADB050DD5022104
:1053300013780B4209D08B43137000F0D1FD01208C
:1053400000F07CFD8020800057E701235370224B42
:10535000254A18788021C90006F006FBF2E7002EE6
:1053600020D180211C4EC900307806F07DFB184FFB
:105370007B78012B09D1FFF731FD00237B70236877
:10538000DB05DFD53078194AE4E7022B02D1FFF7BD
:1053900031FAF2E7032BF0D10122154B1A6006F027
:1053A0002BFDEAE7FFF71AFDCCE7042408002040B4
:1053B000214200D122E7FEF7ABFD36E73264FF1F42
:1053C0002062FF1F0462FF1F1462FF1F5942FF1F6C
:1053D0001062FF1FF861FF1F3062FF1F3C42FF1F7A
:1053E000102700007064FF1FB80B000060EA000087
:1053F00034F00040F0B51A4B1A4F1B883A8804006D
:10540000194E1A4D85B09A420DD832889A420AD365
:10541000174B1A882B889A4205D1164A164B1288C8
:105420001B889A421AD0052001F05AFA3B8802A93B
:105430000B80338801904B802B88104D8B800E4B56
:105440002A781B88CB800E4B188802F07BFF0D4B0F
:1054500008212878019A1C7006F086FA05B0F0BD84
:10546000FE63FF1F4E42FF1F4C42FF1F4A42FF1FB9
:10547000FC63FF1FFA63FF1F4842FF1F5A64FF1FB0
:105480005042FF1FF863FF1F13B50C4B1C78002C14
:1054900011D1002801D00A4B18600A4A0A4B117832
:1054A0000A4A10780A4A01920A4A0092002205F03C
:1054B000DDFA200016BD1124FBE7C0465964FF1F2A
:1054C000F463FF1F5864FF1F4864FF1F5A64FF1FE7
:1054D0003464FF1F3864FF1F10B5064B12201B7881
:1054E000052B06D1044B13221988044B187801F0C0
:1054F000D3FB10BD5964FF1F5042FF1F5A64FF1FAA
:1055000010B500240122114B52421870104B1C7030
:10551000104B1A8002F06AF904220F4B21001A7016
:105520000E480C3206F070FA102221000C4806F0EA
:105530006BFA07220B4B1C600B4B1C700B4B1C7047
:105540000B4B1A700B4B1C7010BDC0465A64FF1FEA
:105550005964FF1F5042FF1F5864FF1F4864FF1F1C
:105560003864FF1F3464FF1F0E64FF1F0D64FF1FAC
:105570005242FF1F0C64FF1FF8B5174C0600257838
:1055800006A814240078052D23D1B41F134FA5B20B
:105590001824BD421DD88D1FADB2BD4219D8FA25C1
:1055A0006D00AA4215D21D000D4F0A3DADB2BD429D
:1055B0000FD80C4C26800C4C21800C4900240A800A
:1055C0000B4A1380FFF716FF0A4B0421187806F0E8
:1055D0004BFA2000F8BDC0465964FF1F790C00004B
:1055E000750C00004E42FF1F4C42FF1F4A42FF1F36
:1055F0004842FF1F5A64FF1FF0B50BB20D0089B07F
:10560000002B00DB70E1A44E307806F035FB041E61
:1056100050D00378A22B00D122E1D02B1AD0912BAD
:1056200045D143780E2B42D19C4B82889A423ED181
:105630009B4B1B78052B3AD18368032018567F2893
:1056400035D0984B1B68002B31D05B68002B2ED0D7
:1056500098472CE08078072829D806F0ADF904286F
:10566000183F3F74A8D86378002B0CD101218C4BD4
:1056700019708D4B1A78002A5BD08C4B307801F072
:105680001BFF002855D00722854B1A7051E0617826
:105690000029F8D1E378002B11D0854A854B127888
:1056A000307801F009FF60706378002BEBD12000A7
:1056B00006F04AFA80200002684009B0F0BD784B3D
:1056C0001B78022BF3D00121307806F0C5FA0028B0
:1056D000EAD10121307806F047FBE5E76378002B3B
:1056E000D1D16F4F032807D13B78052B02D101336D
:1056F0003B701EE00223FBE76F4B1A886F4B02934F
:10570000002A0BD01B78002B03D00121307806F043
:105710002BF93B78062B04D1013BE9E7029B1A7079
:10572000F7E7042B41D10121029B3078197006F074
:105730001BFB5C4B1B68002BB9D01B68002BB6D041
:10574000574A107884E76378554F002B27D10622FB
:10575000211D5B4806F000FC62895A4B5A491A80A9
:10576000A2895A4B1A80E3890B8005213970584968
:105770000A80584A1380228A574B1A80574B1B784D
:10578000012B09D11F2001F0ABF8FA22920042430D
:105790000421307806F0E8F80022484B75E7312BF9
:1057A00000D070E70022454B1A700323A0E70622C1
:1057B0000021434806F028F90023454A04211380BC
:1057C000444A30781380444A138006F04DF908218A
:1057D000307806F049F9A379083B5A425341304AE0
:1057E00003331370304B1B78002B06D0334B3078CB
:1057F0001A78002A06D001F09DFE0122314B524258
:105800001A8096E70121197006F0AEFAF5E7082133
:10581000307806F029F96378002B00D047E72C4B4D
:105820002D4F0293E388029A04211380294B30788C
:1058300003932389039A138063893B8006F00CFA53
:10584000002800D033E7264B1B68002B00D12EE741
:10585000039902983A88098800881B68984726E7C8
:105860004379132B00D022E70389012B0AD11D4B6A
:105870001B78022B06D10821307806F0F5F8FFF7E7
:105880002BFE14E7052001F02BF8082102003078E8
:1058900006F06AF80BE7C0465A64FF1F05140000C3
:1058A0005964FF1FF463FF1F7842FF1F5942FF1F17
:1058B0002E64FF1F0F64FF1F3064FF1F3264FF1F41
:1058C0000164FF1F5042FF1F0864FF1F0A64FF1F8F
:1058D000FE63FF1FFC63FF1FFA63FF1F0064FF1FCF
:1058E000F063FF1FF863FF1F8020C001014200D05A
:1058F000E2E6CB0731D5324B1B78002B1DD0314E61
:1059000005AC3378052B1AD1023B23702E4B2100B6
:105910001B7823722D4B1B7863722D4B187801F086
:105920006FFD002809D007202A4B30701B68002B20
:1059300003D01B68002B00D098470120BCE60E2046
:10594000254B06221B7825492370254B1B78637055
:1059500002ABC01806F000FBD8E70223080018408D
:10596000194209D0174B1B78052B03D11D4B188802
:1059700006F0BAFA02209FE60424214203D0FFF782
:1059800039FD200098E6082308001840194200D18C
:1059900093E6154B1C78012C03D0022C0DD0082067
:1059A0008AE6124B124A134913481B881288098849
:1059B00000880094FFF7E0FDF1E7FFF78DFDEEE7CB
:1059C0003264FF1F5964FF1F5242FF1F0C64FF1F08
:1059D0005A64FF1FF463FF1F0E64FF1F5342FF1F33
:1059E0000D64FF1F5042FF1FF863FF1F4842FF1F57
:1059F0004A42FF1F4C42FF1F4E42FF1F10B502A834
:105A000004880B20002C10D14968087849780902D5
:105A100001430C48814209D1022119800A4B59885F
:105A20001170DB7800205BB2537010BD074C0A2068
:105A3000A142FAD102211980034B998811705B7938
:105A4000F0E7C0466E2A0000F861FF1F6F2A0000D1
:105A5000F7B5150008AA16884A680F4F14785278CF
:105A6000120222430A24BA4214D10122DBB201926B
:105A700000962A0005F0FCFE041E0BD1074B1B68A4
:105A8000002B07D068782A78000210434242504128
:105A9000013098472000FEBD022900006C64FF1F02
:105AA00030B5012503790400BFB02B4225D014493D
:105AB000408805F04DFA28420CD0124B01A95B8DAD
:105AC00060880B8002234B800F4B00225B888B8009
:105AD00002F02EFB0D49608805F03AFAC0070CD59C
:105AE0000B4B01A91B8800220B8002234B80064B25
:105AF0009B888B80608802F01BFB3FB030BDC046A6
:105B00006464FF1F7C42FF1FF861FF1F5C64FF1F7E
:105B1000D642FF1F10B50749074805F0CFF90749DE
:105B2000054805F0CBF90721054A064805F088F934
:105B300010BDC0466464FF1FFFFF00005C64FF1FD0
:105B4000ECC000117C42FF1F10B5024803F074F94D
:105B500010BDC046A15A00110221430888400B40E5
:105B60000A31084003430E20024A117A81430B4355
:105B7000137270477064FF1F064A537A410705D5B8
:105B800080210B4380015372D07270477F210B40FC
:105B9000F8E7C0467064FF1F054A9379002803D0D8
:105BA00080210B43937170477F210B40FAE7C04679
:105BB0007064FF1F0E220E490B7A13400B720028EF
:105BC00015D00C4A127A502A08D9102213432022E9
:105BD0001343402213438022134305E03C2AF6D8A6
:105BE000282AF6D8142AF6D8012213430B727047DC
:105BF0007064FF1FF861FF1FF8B57F23324D04006A
:105C0000AE799E43314B984205DD76236B71363B6E
:105C10003343AB71F8BD2E4B984203DA58236B71B6
:105C20001433F5E783B21A0000215F32294892B29B
:105C3000294F697182422DD9E9718C4203DA5B42A6
:105C40001CB220236B71053420B20A2106F0F4F84F
:105C500004B2FA239B009C4233DB80236A795B42C7
:105C600013436B716421200006F0E6F80A2100B2AC
:105C700006F032F809B26A797B5C13436B710A2132
:105C8000200006F0D9F80A2100B206F025F809B282
:105C90007B5C0AE08022EA71002CDADA5B421CB2FB
:105CA00020236B715F23092CE9DC1E430A212000AD
:105CB000AE7106F011F809B2EA797B5C1343EB711F
:105CC000A8E7632CEEDDCDE77064FF1F1B4E0000DC
:105CD0001DFCFFFF2A08000016C100117F23F7B545
:105CE000194FCD017E7A04009E437E72EDB2632887
:105CF00006DD093B33437B7240231D43BD72F7BD74
:105D00000300093304DA582333437B726C23F4E72E
:105D10000E4B019300280BDA0423444224B27B7219
:105D20000A21200005F0D8FF019B09B25B5CE4E783
:105D30000928F5DD0A2106F07FF8019B00B21B5C03
:105D40001E437E72ECE7C0467064FF1F16C100114F
:105D5000F8B50A4F05003B790E00002B0CD0084C1B
:105D60002000FEF75FFB33002A0020003979FEF7A0
:105D70004AFC2000FEF794FBF8BDC0467064FF1F8C
:105D8000F042FF1F10B5084B1B79002B0BD0074CBE
:105D90002000FEF747FBD0223E212000FEF7ECFB5F
:105DA0002000FEF77DFB10BD7064FF1FF042FF1F57
:105DB00070B5094D094C07222900200006F0BCF8F7
:105DC000002808D029000722200006F0C5F8082185
:105DD0000348FFF7BDFF70BD7564FF1F7D64FF1FA3
:105DE0007C64FF1F7F2210B50A4B99799143033AD7
:105DF0005A71103A0A439A7178220E21DA711A7A8E
:105E00008A431A726B225A72653A9A72FFF7D0FF70
:105E100010BDC0467064FF1F6022054B10B55A715B
:105E2000044ADA80044A9A60FFF7C2FF10BDC046F8
:105E30007064FF1F793D000000797800224A234BEF
:105E400012681B6810B59A4234D3002832D0204C17
:105E50000223E05E1F4B1B685B062CD50923322111
:105E6000584305F0E9FF4130FF3000B2FFF7C4FEB0
:105E70000520FFF771FE0422A35E174A63209342B8
:105E800005DC32331800642105F0D6FF00B2012191
:105E9000FFF724FF0120FFF78DFE0020FFF76CFEC7
:105EA0000E4B1878053843425841C0B2FFF774FED4
:105EB000FFF77EFF10BD0A21053005F0BDFF00B2DF
:105EC000FFF79AFE0320D4E72062FF1F7064FF1FD4
:105ED000F861FF1F1462FF1FDD2600005964FF1FD9
:105EE00070B500250D4C2000A571FEF79BFA10231C
:105EF0003E2120000A4AFEF786FBA84200D13E352B
:105F0000084B20001D71FEF7CBFA01230822002167
:105F10000548A37105F058FF70BDC046F042FF1F51
:105F200006C100117064FF1F7C64FF1F0200F0B502
:105F300001270A480A4E51188B1A002B00DCF0BDCD
:105F4000082415784308684038404000805B013CD5
:105F500058406D08002CF5D10132EDE7FFFF00003D
:105F600026C10011F0B500250F269D4200DBF0BDD3
:105F70004C5D070944403440A400A05801357840E6
:105F8000F3E7000070B50C0088B06B460F261034A4
:105F90000A7801311500120935401D705A7002331C
:105FA000A142F5D120236946024AFFF7DBFF08B082
:105FB00070BDC0462CC10011F0B54E780B7889B089
:105FC00036020C00170001901E43012A61D9954B3F
:105FD0009E4200D877E001339E421CD1062A17D199
:105FE000CA788B7812021A430B791B0413434A793F
:105FF00012061A438C4B5A6100221A705A808B4A3F
:106000005A608B4A9A608B4ADA60002009B0F0BD72
:1060100088225205EEE7884B9E423CD182498B781C
:10602000002B00D0F6E00C2A31D10F22A378934345
:10603000E2781202134322791204134362791206A2
:1060400013434B60E279A07912020243207A0004E4
:106050001043627A12060243CA60E27AA07A120200
:10606000024376484A81834208D804236E491422A9
:1060700001980B7005F070FF1420C7E71201D218C9
:1060800089235B059A42F0D801238B70BDE7022A71
:10609000FAD00523EAE76A4A01239642E6D1FFF7E0
:1060A0001BFA052F0CD9E378A2781B02134322793F
:1060B00012041A4363791B061343624A0393136065
:1060C00005F09AFEA1E7584D2B78002B9DD1AB78B7
:1060D000002B00D1A0E02B8901339BB20093B34287
:1060E00000D091E0132AD4D9CF7C8B7C3F021221BF
:1060F00020001F43FFF71AFF874200D08EE0002EDA
:106100003DD1E378A2781B0213432279E968120497
:106110001A4363791B06134303930A228B4212D15D
:10612000FF23A370E370237163716B89002B09D186
:10613000E37B227C1B0212041343A27B13431B0943
:1061400001336B8100226B89002B8ED0002A67D12E
:10615000686837013818000B6B6900030390984298
:1061600005D9686105F0E0FEEB780133EB706868F3
:106170001022A11C381805F0BFFD2E8145E76F895C
:10618000009A7B1E9BB293423AD1E278A378120226
:106190001A43237905A81B04134362796C6812061D
:1061A0001A43EB6800920392211D0C22049305F020
:1061B000D3FE0120260004A940421036FFF7E2FE7C
:1061C000013F012F17D1009A0B232861824200D092
:1061D0004CE704221C49200005F08EFD042203A98F
:1061E000686805F0A9FDE968039AFF23914200D190
:1061F0003CE7F73B3AE73100FFF7C4FE1036DFE734
:106200000923B742A4D831E7009BB34200D9FCE68A
:1062100007232BE7022329E7032327E7062325E7A4
:106220000A2323E7FFFE0000F842FF1F00000111D0
:10623000FFFF00005048593601FF0000FFFF00112A
:1062400002FF000034F000400443FF1F10B5034C70
:106250000B000122210000F06BFA10BD0D6400114B
:106260000B8870B506000D000224162B11D92B00E7
:106270000322094900F05CFA041E0AD1074B2A8860
:106280001B88191C934200D9111C300089B200F000
:10629000EDFA200070BDC046396400119664FF1FFE
:1062A00010B54A780400013A0B000220012A07D8F1
:1062B0000A78002A04D005222000024900F038FAAA
:1062C00010BDC046676400110A7810B50B000400C9
:1062D0000220002A04D007222000024900F028FAF8
:1062E00010BDC046136500110A7810B50B000400FC
:1062F0000220002A04D009222000024900F018FAE6
:1063000010BDC0467965001110B5034C0B000B227F
:10631000210000F00DFA10BDA965001110B5034C65
:106320000B000D22210000F003FA10BD1B660011C6
:1063300010B5034C0B000F22210000F0F9F910BD3D
:10634000756600110A7810B50B0004000220002ABF
:1063500004D011222000024900F0EAF910BDC04625
:1063600085660011002310B51322190000F0E0F932
:1063700010BD000010B5034C0B001722210000F0E7
:10638000D7F910BDD7660011002310B519221900E6
:1063900000F0CEF910BD000010B5034C0B001B221D
:1063A000210000F0C5F910BD11670011F7B584890F
:1063B0000D0006000121002C22D000238268D35654
:1063C0001778002B1EDA0C2C1AD90C3CA4B2131926
:1063D00040880093230002F090FE431E9841013054
:1063E0007B06DB0F6B703F23013C1F40A4B228707B
:1063F000AF70AC80002C07D0B3680133AB600021D4
:106400000800FEBD0020EBE7AC60F8E70B780370F6
:106410004B8843704B881B0A83700B79C370042030
:1064200070470420022B06D10020537811781B02FC
:10643000009A0B43138070470B8803700B881B0A6C
:106440004370022070470420009983420AD1537898
:1064500010781B0203430B80D37890781B02034310
:1064600000204B807047F8B50D004B7801240021C7
:10647000461C03702B788B4201D82000F8BD6B7846
:10648000B01C4F1C012B10D1890069184B880222C7
:1064900033704B88B9001B0A7370691805F06CFCE7
:1064A00004360434A4B2F9B2E4E7122359436B185A
:1064B0005A88043132705B8810221B0A7370691885
:1064C00005F05AFC12361234ECE770B5049D140046
:1064D0001E00052B01D8042070BD637812781B02C2
:1064E00013432B80E378A2781B02134302226B80B4
:1064F0002A71211D681D063E05F03EFCB2B22A81BC
:10650000E92AE8D82800A11D0A3005F035FC002052
:10651000E2E7002310B50A789A4201D8900010BD36
:106520009A008A185488013304705488DBB2240A14
:106530004470948884709288120AC2700430EAE72A
:1065400010B51100029C062B04D004201022142B3D
:1065500001D010BD022222714B7808781B02034340
:106560002380CB7888781B02034363800431601D4D
:1065700005F002FC0020ECE710B50C788B780431B4
:106580005C43E4B203702200013005F0F5FB601CAF
:1065900010BD0420022B06D10020537811781B0275
:1065A000009A0B431380704710B50C000A88023123
:1065B00005F0E2FB208810BD70B504000D000498C2
:1065C0001100012B01D8042070BD167852781202F8
:1065D000324302800200F13255701470E125002C24
:1065E00000D10C35023B9AB24280AA42EBD802316C
:1065F000043005F0C1FB0020E6E704200099834247
:106600000AD1537810781B0203430B80D37890781B
:106610001B02034300204B80704710B50C000A8812
:10662000023105F0A9FB208810BD000070B50121E2
:106630001E000420049C0E400B4218D1CB40DDB25A
:106640008D4214D90A49DBB2098899420FD323003D
:10665000EE331D703300580011184978165C09029A
:10666000314301332152D9B28D42F4D8002070BD9C
:106670001043FF1F10B50C000A88023105F07CFBA7
:10668000208810BD10B50C788B7804315C43E4B2DF
:1066900003702200013005F06FFB601C10BD10B5C7
:1066A00011000298032B01D8042010BD14785278F1
:1066B000043B120222430280CA788C7812022243E1
:1066C00042809AB28280EB2AEED80431063005F07F
:1066D00053FB0020E9E710B50C000B8803700B8812
:1066E0001B0A43704B8883704B881B0AC3708A88CF
:1066F0000430063105F040FBA088043080B210BDA4
:106700000420012B03D100201378009A13707047E6
:1067100010B50C000B8803700B881B0A43704A8865
:106720000230043105F028FB6088023080B210BDD1
:10673000F0B589B003931D4B029242000700D05A76
:10674000019102F022F81325061E2CD0029B012491
:106750000370019B002B04D000190399984700197E
:1067600084B26B461B7A5BB2002B0FDA1021380023
:1067700002F01CFB1925002812D130003219E1B2B9
:1067800002F070FC051E0BD10C34A4B2042305A941
:1067900038000B800C814E6001F0B2FD051E02D066
:1067A000300005F011FA280009B0F0BD9464FF1F15
:1067B00070B505000C0000280CD00020814209D0E3
:1067C00010222000044905F0D7FA01202B7823730A
:1067D0006B78637370BDC0466CC10011F0B50600E4
:1067E0000D0017001C0085B002291BD000201029C5
:1067F00007D1022B07D0102B03D115E00020102C5D
:1068000008D005B0F0BD69463800FFF7D1FF2A0077
:1068100069460BE069463000FFF7CAFF220069466F
:10682000380004E0022BE9D12A003900300005F0DD
:1068300053F9E6E7031CF02800D9F02303200849A8
:106840009AB2013A0B80D317034006499B189B105C
:106850000B80D30F04499B185B100B807047C04618
:106860001443FF1F1243FF1F1043FF1F034B1B88DE
:106870008B4202D3024B4000C15270471443FF1FAA
:106880009464FF1F014B4000185A70479464FF1F27
:106890001722014B1A8070479464FF1F70B50500E2
:1068A0000E2005F059F9041E13D0D02303700023E5
:1068B0000622837007494570033005F05DFA064BE8
:1068C0002100DA8A62811B7E2373044B187805F05D
:1068D000D3F870BDB064FF1FA064FF1F6443FF1FA7
:1068E000262803D8024B4000C05A70470148FCE7F5
:1068F0001643FF1FFFFF000070B506000C00094D96
:106900001C220021280005F07FF8074B1E70074B62
:106910001C7005F019F80123002801D00023122073
:106920002B7070BDA064FF1F6443FF1FC164FF1F75
:1069300070B505000D4C0800E260A1601022002136
:10694000656005F089F8012803D11021A06802F0E4
:1069500061FD10220021280005F07EF8012803D1F6
:106960001021606802F056FD70BDC046A064FF1F94
:1069700070B5041E05D1002903D006220D4805F08C
:10698000FBF90D4B1D78012D11D1002C05D10222F0
:106990001A7004F0E1FF280070BD00221A70074B46
:1069A0001B78FF2BF7D02000FFF778FFF3E70025D7
:1069B000F1E7C046B064FF1FA064FF1F6443FF1FE0
:1069C000030010B5002801D1002010BD00780B4A4B
:1069D000002803D15988D1821B7913761378022BB2
:1069E000F2D10023984200D103331370044B1B787B
:1069F000FF2B01D0FFF752FF0120E6E7A064FF1F45
:106A00006443FF1F002911D000280CD04B790128C6
:106A100003D140225242134303E03F221340032894
:106A200002D001204B7170474022F4E70800FAE7DA
:106A300070B5094D0100287800280BD0074C0622BC
:106A4000200005F099F921002878FFF7DBFF2000EE
:106A500005F0CAF870BDC046C064FF1F9A64FF1FEE
:106A600000290AD0012808D13F224B799343C02B3B
:106A700003D0403B5A425341981C704770B5174DA4
:106A800006002B78FF2B15D00A2005F065F8041EB0
:106A900010D0D0230370C83B8370114B11491B7871
:106AA0004670C3700622043005F066F9210028788C
:106AB00004F0E2FF0C4B1B78012B0DD10B4B1B6834
:106AC000002B03D09B68002B00D09847084B042173
:106AD0001878084A05F030F870BDC0466443FF1FBF
:106AE000C064FF1F9A64FF1FBC64FF1FE864FF1FA0
:106AF000EC64FF1F60EA0000014B98687047C046D5
:106B0000A064FF1F014BDB6818687047A064FF1F7B
:106B1000074B10B5DA68136801331360054B18781A
:106B2000FF2803D08021C90105F01EF910BDC04621
:106B3000A064FF1F6443FF1FF7B50E0002F0CAF800
:106B4000051E1CD00E4B06621F78002F00D107785F
:106B5000AB791020019304F0FFFF041E0FD0D02367
:106B60000380C73B8370019BE91DC370062204307C
:106B700005F002F921003800E66004F07DFFF7BD62
:106B80006243FF1F014B18787047C046C064FF1F67
:106B9000054B002805D1054B1A78054B002A00D17A
:106BA000014B18007047C046B064FF1FC064FF1F50
:106BB0009A64FF1F014B58687047C046A064FF1FCE
:106BC000024B1868431E9841C0B27047C464FF1F4F
:106BD000421E03000120152A03D9FF3B5A425341AC
:106BE000D8B27047F0B51C0000230E0085B00390AA
:106BF00002920B70029A934201D3002019E0E55CE7
:106C00005A1CD2B2002DF8D0029851198142F4DCFE
:106C10000233DFB2A35C18000193FFF7D9FF00280D
:106C200007D0013D019A0399EBB233708A4202D139
:106C3000E01905B0F0BDDB19DBB2DBE710B50C00E5
:106C400002F0A0F803001220002B03D02100588886
:106C500004F0D2FF10BD000070B50E4D84006359E2
:106C6000002B15D0186A002801D004F085FE2B599E
:106C7000586A002801D004F07FFE2B59986A00283A
:106C800001D004F079FE285904F076FE00232B5140
:106C900070BDC046D064FF1F1C4B70B504000E00D1
:106CA000150099420AD11A4B1B68002B01D1122002
:106CB00070BD1B68002BFAD09847F9E7154B994235
:106CC00015D1134B1B68002B0AD01B68002B07D073
:106CD0009847002804D1104B1C70104B1D70E7E73B
:106CE00029002000FFF7AAFF0028E1D1F3E7080000
:106CF00001F0F0FF0028DAD003780320A342D7D1B7
:106D00002900300004F078FFD2E7C046FEFF000003
:106D1000CC64FF1FFFFF0000C964FF1FC864FF1F92
:106D2000F7B50400808801F0D5FF0025A84203D004
:106D30000578A08802F00AF81C4E3378002B1FD08B
:106D4000AB421DD11A4B28001978FFF777FF0028B6
:106D500018D000233370A3790820A778A688019360
:106D600004F0FAFE011E0DD0D0230370CA3B8370DD
:106D7000019B477086808371280004F07DFE01E04E
:106D8000002DE8D1A0880B4B8200D358002B01D0F6
:106D9000FFF762FF1721A088FFF768FDA08801F0C8
:106DA0002BFDA08801F002FEF7BDC046C964FF1F9D
:106DB000C864FF1FD064FF1FF0B587B01D000CAB87
:106DC0001B88070001930DAB1B88142002930EABA8
:106DD0001B88160003930FAB1B880091049310AB24
:106DE0001B88059304F0B8FE041E1AD0D02303704C
:106DF000CB3B47708370C670062229000430002DFB
:106E000011D004F0B9FF019B21006381029B00981F
:106E1000A381039BE381049B2382059BA37404F05D
:106E20002BFE07B0F0BD04F0EFFDECE7F7B50093E3
:106E300008AB1B8807000C200D001600019304F01E
:106E40008BFE041E13D0280001F044FF00280FD051
:106E50000078D0232370C93BA370009B21002381BD
:106E6000019B6770A580E680638104F005FEF7BD95
:106E7000014B1878EDE7C0466443FF1F13B50400CB
:106E800064890389C2888188C0780094FFF7CEFFA7
:106E900013BD000010B5044C2068002803D004F096
:106EA0006BFD0023236010BDD464FF1FA122F0B549
:106EB000818892004A43384B384F1B6889B09B1831
:106EC0009D2292009B18827904001A603B68002B77
:106ED0005FD01D78324B1B68002B04D05B68002B01
:106EE00001D000209847260008363100E079FFF7EE
:106EF000B7FD237DE0710200E0780493638A2900E6
:106F00000393238A0293E3890193A38800933300B8
:106F1000FFF752FFE378002B0BD1E289A379A18818
:106F200002920196E27928000092012201F0DCFE33
:106F3000E0703B68002B20D0FFF7ACFF194D28789C
:106F400000281AD0184B1978FFF778FE002814D0C3
:106F50002B780820A788E678079304F0FDFD011E32
:106F600009D0D0230370CA3B467083708780867136
:106F7000079804F081FD00232B701721A088FFF7EC
:106F800075FCA08801F038FCA08801F00FFD09B065
:106F9000F0BD064B9DE7C0463409FF1FD464FF1FB8
:106FA000E864FF1FC964FF1FC864FF1F6443FF1F1D
:106FB000F8B5070008000E0001F08CFE041E18D082
:106FC0002620FFF78DFC051E00D12578062004F051
:106FD000C3FD041E0DD00021062204F015FDD023B0
:106FE0002370C23B21006770A370A680E8B204F052
:106FF00043FDF8BDF0B585B001930AAB1B780700DF
:1070000002930BAB1B7808000D000092039301F074
:1070100061FE061E22D0102004F09EFD041E1DD02D
:107020001022002104F0F0FC2620FFF759FC002874
:1070300000D13078D0232370C13BA370009B210086
:107040002372019B67706372029BA580A372039BEE
:10705000C0B2E3720C9BE36004F00EFD05B0F0BD1E
:10706000F7B50D00019001F035FE071E1FD00E2070
:1070700004F072FD041E1AD02620FFF731FC061E14
:1070800000D13E78D0232380C53BA370F91D062292
:10709000E01C04F071FE019B2100638101232B4061
:1070A000AD07ED0F23736573F0B204F0E5FCF7BD97
:1070B000F0B585B0029010000D0017000A9E0393F2
:1070C00001F008FE041E31D0029B002B2ED1039B41
:1070D00002795B0724D5122313430422002E08D122
:1070E0000B99002905D10C99002902D10D9900298D
:1070F0001AD01A430D9B2271002B00D0C9E0002E3C
:1071000000D1CFE0002D00D0CCE0606A002801D093
:1071100004F032FC1C21300004F0A6FE606205E0A1
:1071200002239A430E33D7E793432371654BBA008A
:10713000D458002C00D1AAE0002E10D0236A002BD6
:1071400003D11C2004F080FD20625E4BBA00D358AE
:10715000186A002803D01C22310004F00DFE0C9B9D
:10716000002B12D0574CBB001D596B6A002B03D16A
:10717000162004F069FD6862BB00E358586A0028D5
:1071800003D016220C9904F0F7FD0D9B002B11D0B3
:107190004C4DBC006659B36A002B03D1142004F097
:1071A00053FDB0622B59986A002803D014220D9920
:1071B00004F0E2FD380001F08DFD051E67D0414B63
:1071C000BA00D358002B62D01A6A3420002A00D1AA
:1071D0001C389A6A002A01D0143080B20B9A002A17
:1071E00001D01C3080B25B6A002B01D0163080B217
:1071F00004F0B2FC041E4AD01822002104F004FC62
:107200002620FFF76DFB0190002801D12B78019318
:10721000D0232370029B200063700A23294EA370A1
:10722000039BBD00A371AB59A780196A18300029D0
:1072300005D01C22A06004F09FFD2000343073595B
:10724000996A002907D0030014221433E0600293E6
:1072500004F092FD02980B9B002B08D003001C2227
:107260001C330B992061029304F086FD0298735938
:10727000596A002903D01622606104F07DFD6B4637
:107280002100187904F0F8FB3800FFF7E5FC05B0A1
:10729000F0BD10220D9B0D991B69A018236204F00C
:1072A0006BFD2CE70B9B002B00D13FE7012D00D09D
:1072B0003CE7606A002801D004F05EFB1C210B98BB
:1072C0002AE7C046D064FF1F10B5044C2068002890
:1072D00003D004F051FB0023236010BDC464FF1FE2
:1072E0000B4B07B51A68002A01D100200EBD694674
:1072F000531C012012780731FFF774FC0028F4D0EA
:1073000002780123100018401A42EED0EEE7C04682
:10731000E064FF1FF0B51F4F01203B6887B0002BD2
:1073200025D09B78059300F0B3FB002821D00A20DC
:10733000FFF7D6FA04000B20FFF7D2FA164B050030
:107340001E78731E9E413B68F6B2191DD878FFF770
:1073500059FB3B682900DA7A043303929A79019346
:107360000292009033002000059A04F08DFC07B0D3
:10737000F0BDFFF7B5FF002805D00620FFF7B0FAF3
:1073800004000720D8E70820FFF7AAFA0400092024
:10739000D2E7C046C464FF1FC064FF1F70B50A4E29
:1073A000040033780D00FF2B0DD0042004F0D4FB33
:1073B000011E08D0D0230370CE3B45708370C4708B
:1073C000307804F059FB70BD7443FF1F70B50400A2
:1073D00006200D0004F0C0FB011E0AD0D02303706C
:1073E000CD3B8370054B44701B688580187804F092
:1073F00043FB002C01D0FFF767FF70BDC464FF1F83
:10740000F8B5264F06003B680D001124002B05D16E
:107410000522234B1B78134202D112242000F8BD11
:10742000204A10241268002AF8D01278002AF5D0D9
:10743000DB0719D52B789A1E012A1AD80C2004F0E4
:1074400003FC132438600028E8D000230A2243708C
:1074500029000670023004F08FFCFFF75BFF041E6A
:107460000AD0FFF731FFD9E700F012FB0028E1D185
:10747000E4E7002BE2D0D0E70B4B1B78032BCDD1F8
:107480001D20FFF72DFA094B18800028C6D0084BA5
:1074900004211878074A04F04FFBBFE7C464FF1FBC
:1074A000C164FF1FE064FF1FC064FF1FBE64FF1FB5
:1074B000EC64FF1F60EA0000F7B50193194B14005C
:1074C0001A78052306000F0012201A4221D0012944
:1074D00020D1154B1D68002D1BD002201F2C18D861
:1074E000002C02D0019B002B13D0104B1F221E70CA
:1074F0006E1C0021300004F087FA01992200300050
:1075000004F03AFC310020002C70002F06D004F06B
:1075100083FBFEBD064B12201D68DCE704F034FA45
:10752000F7E7C046C164FF1FE064FF1F7443FF1FFD
:10753000DC64FF1FF8B50F4E12243368002B17D000
:107540001B780F3C834213D100250B4F0221387862
:1075500004F08AFA094B042138781D8004F084FA7B
:10756000074B28001D8033685C7004F02DFA04007E
:107570002000F8BDC464FF1FEC64FF1FD864FF1F28
:10758000BE64FF1F70B5012823D11B4C2388002B3C
:1075900003D01A4A1578002D07D0194B1B68002B11
:1075A00002D01878FFF7C6FF70BD3B2B02D93C3BD9
:1075B0002380F9E7134E0221307804F055FAFA22BD
:1075C0002388920002215A43307804F0CDF92580B7
:1075D000EAE70B4B1B68002BE6D00B4B1B785B07D5
:1075E000E2D5084B0221187804F03EFA0022024B43
:1075F0001A80FFF769FED7E7D864FF1FBC64FF1F3E
:10760000C464FF1FEC64FF1FC164FF1FF8B51E4D6B
:107610002868002803D004F0AFF900232B601B4E2C
:107620003068002803D004F0A7F900233360184F16
:1076300005243B7818002040234221D0154800F053
:107640002BFA3B78234213D0202004F0FDFA286067
:10765000002813D02022002104F0D6F9202004F0C5
:10766000F3FA041E306005D02022002104F0CCF98A
:10767000002004E0286804F07FF92C601320F8BD96
:1076800000F00AFAF4E7C046E064FF1FDC64FF1F65
:10769000C164FF1F6843FF1F10B50A4C23681A1E00
:1076A0000ED0002808D10130587004F08DF9002860
:1076B00005D02368002B02D00021FFF787FE0122AE
:1076C000100010BDC464FF1FF7B5274E05003368D6
:1076D0000191181E21D05C78244F012C30D1FFF786
:1076E000FFFD002825D02000FFF7FAF8040041280C
:1076F00014D91F4B022118781E4A04F01DFA1E4BA4
:107700003C3C1C80022233685A703B78002B14D119
:1077100028000199FFF75AFE0120FEBDFA229200CF
:107720004243002AEED0124B0221187804F01CF9D3
:10773000E8E7FFF7D5F80200F3E700233B70EBE73B
:107740003B78002BE8D1032004F006FA011E08D094
:10775000D0230370CC3B457083703368187804F0F5
:107760008BF9FFF7B1FDD7E7C464FF1FBC64FF1FAF
:10777000EC64FF1F60EA0000D864FF1F10B51749D2
:10778000838802008B4220D011D815498B4217D034
:10779000144900205B1899B2012907D89268117822
:1077A0005A425341D8B2FFF7F9FD012010BD0E4AED
:1077B00000209B1807229BB29A424041C0B2F5E7D5
:1077C00083681878FFF768FFF0E7836899785A783C
:1077D000090218781143FFF777FFE7E70A20000056
:1077E00006200000F8DFFFFFAFDFFFFF014B18703E
:1077F0007047C0467543FF1F10B5064C207001F05E
:1078000045FA207804F098F80521207800F068FD0A
:1078100010BDC046EC64FF1F0BB273B50D00002B0A
:1078200000DBC4E0884B187804F026FA041E0ED062
:107830000378912B0FD0A22B00D1A1E0834B1878B5
:10784000FF2852D0210004F017F900284DD18020E4
:107850000002684076BD43780F2B76D013D8052BF5
:1078600070D00E2BEAD18088794B98422BD8794B77
:1078700098421BD8784B9842E0D1A3681878591CDD
:10788000FFF776F838E03E2BD8D18378032B74D0FD
:107890006CD8012B6ED0022BD0D1704B1B68002B03
:1078A00023D05B68002B20D098471EE06C4BC0189B
:1078B0000C28C3D804F038FA1DC2C2150BC20B0B3A
:1078C0000B3223C23C00674BC0180728B6D8664B62
:1078D0001B68002B09D01B68002B06D0200098479E
:1078E0000AE0A3681878FFF7C9F8200004F02CF923
:1078F000ADE7A068FFF764F800289FD0F5E7A3681C
:107900001B78002BF1D0554B1B68002BEDD01B686A
:10791000002BEAD0210055489847EDE74F4B1B68F4
:10792000002BE2D01B68002BDFD021005048F3E78A
:10793000504B1B68002BD8D05B68002BD5D02100A2
:107940004348E9E7FFF7ECF9CFE780884A4B9842D4
:1079500003D04A4B984200D070E7464B1B68002B7F
:10796000C3D05B68002BC0D02100D5E7153B012BAD
:10797000BBD963E7FFF79AFAB7E7FFF77FFAB4E7F7
:107980003F4B1B78042B07D100236A4613800179F3
:10799000408800F0CBFCA8E7364B1B68002BA4D036
:1079A0005B68002BA1D00100364898479DE7012471
:1079B00021420AD0294B1B68002B04D05B68002BA6
:1079C00001D000209847012043E78B070AD5264BBA
:1079D0001B68002B04D05B68002B01D02000984767
:1079E000022036E70421280008400D4200D131E78B
:1079F000254E3388002B21D0013B9BB23380002BD6
:107A00001AD1FFF7DDF800280AD0204B1C70164B66
:107A10001B68002B04D05B68002B01D02000984726
:107A2000FFF7C8F8694601F00CFD6846FFF700F85B
:107A30001D20FEF755FF308004200AE7024B18781E
:107A400004F012F8F8E7C046EC64FF1F7543FF1F0F
:107A50000E2000000120000009100000E464FF1F58
:107A6000FEDFFFFFAFDFFFFFE864FF1F0C20000019
:107A70000B200000CC64FF1F0D200000132000002D
:107A8000C164FF1FFFFF0000BE64FF1FBC64FF1F37
:107A900010B501F09FF910BD014B18607047C0464A
:107AA000E864FF1F0B880020162B01D81723042041
:107AB000014A13807047C0469664FF1F002070473C
:107AC000074A03001188814207D09188002099421B
:107AD00002D101308000101870470020FAE7C0463C
:107AE000F464FF1FF0B58F7806000D00C5B01E2F9F
:107AF00015D1FFF7E5FF051E03D10024200045B096
:107B0000F0BD00223B003100C078009200F0B8FBCD
:107B10000400A81C00F0D8FBFF23EB70EEE7264B17
:107B2000062403931B78FF2BE8D0182FE6D87B0898
:107B3000224A013BDB0002929A589446002ADDD08B
:107B4000029AD3185B68002BD8D00878002802D19D
:107B50004B78012B02D10624122FCFD107AFAB886F
:107B6000697800976446AA68A047041EC6D1AB781E
:107B7000029A5B08013BDB00D318390030005B68D8
:107B80009847041E0BD1AB78042BB6D0039A310072
:107B900010782200009700F073FB0400AEE76A78CB
:107BA000002AABD1AA7805A93B88087130000A7079
:107BB0004B80FEF74BFBA0E77843FF1F7CC1001111
:107BC0001D4B37B5050098420BD000290AD1FFF7AD
:107BD00077FF002805D11948FFF772FF002800D071
:107BE000058037BD01291AD1FFF76AFF041EF8D0BE
:107BF00001235B420380A378FF2BF2D0FE2B07D03A
:107C00000023E0781422009329001E3300F038FB93
:107C1000A01C00F059FB01235B426380E1E70229CD
:107C2000DFD1013901F0C2F80028DAD12800FFF7CE
:107C300047FF041EDFD1D4E7FEFF0000FFFF000076
:107C4000022210B5074B52421A80074801325A806F
:107C50009A80DA8000F084FA044801F029F80020C4
:107C600010BDC046F464FF1FE57A0011C17B00110E
:107C70000388F7B50400002B02D102252800FEBDC1
:107C800042680221137825485268FEF7A7FD0028B4
:107C90002ED0234F01253A88002AEFD08023218857
:107CA0005B0201259B1A9942E8DC0C2003F0CCFF13
:107CB000061E31D03B8822889C460023180001957F
:107CC00061469DB2491989B2AA421BD8002801D049
:107CD00062443A8000233000082208C0210004F0EA
:107CE0004BF8104A1368002B13D100251660C5E726
:107CF0006268022113780C485268FEF76FFD002875
:107D0000C7D1BAE760681D0140194181013301986C
:107D1000D6E71A001B68E6E71325AFE7EAC10011B2
:107D20007643FF1FF064FF1FE8C10011014B18707C
:107D30007047C0467843FF1F14230A0010B51A404D
:107D4000194204D00122102101F04CF810BD4B065D
:107D5000F9D4C843022340001840F7E710B51400D7
:107D60008B0604D50122102101F03CF810BD082338
:107D70000A001A40194202D14BB2002B0FDA10212F
:107D800001F030F8002808D02300F2331B78002BD4
:107D9000ECD0F1342378012BE8D10020E6E7032072
:107DA0008907FAD4E2E70000F0B51F00184B85B050
:107DB0001C68019002910392002C27D1200005B08D
:107DC000F0BDA5683301ED186B89019A934211D378
:107DD000029A93420ED8002F04D10A9B002B10D197
:107DE0002C00EBE73B002978039A6868FEF7F6FC65
:107DF0000028F2D10136B6B2A388B342E1D8246894
:107E0000DAE7A3680A9A5B891380E9E70026F3E7BB
:107E1000F064FF1F37B50C000A884988012391429E
:107E200017D3002A15D0651D23792A0002210A489C
:107E3000FEF7D4FC102300280BD02379618820881A
:107E400000242A000094FFF7AFFF0A23A04200D0CD
:107E5000230018003EBDC046EAC1001113B50A0058
:107E600008884988012388420BD8002809D00024BB
:107E7000137905320094FFF797FF0A23A04200D040
:107E80002300180016BD13B50A000888498801238D
:107E900088420BD8002809D00024137905320094B9
:107EA000FFF782FF0A23A04200D02300180016BD6E
:107EB000F0B58BB003904A8808880E0001238242F7
:107EC00013D3002811D00023012704AC2370002213
:107ED000718813000092FFF767FF05002078002DDE
:107EE00006D122780A23002A41D118000BB0F0BD38
:107EF000002835D12B78022B18D167706A8983004E
:107F00000130E31880005A8069680222201803F0CB
:107F100033FF23780133DBB22370042B19D93B00E4
:107F20006889013080B2002BD1D0DAE70223637078
:107F3000122358436A89231804305A806968102232
:107F4000201803F019FF23780133DBB22370002BD4
:107F5000E5D10A4A6B899B185A425341DBB2DFE7ED
:107F60006378012BE4D12B78022BC7D0B9E721002D
:107F70000398FEF795F90023B7E7C0460100FFFF1D
:107F80000F4BF0B504001868002816D083685D898F
:107F9000A54207D88288AE18B44203DA12019A18B3
:107FA000934201D10068EFE71E005F891036A742B7
:107FB00004D1002900D00D801800F0BD3300EFE798
:107FC000F064FF1F70B505000C0008880021FFF762
:107FD000D7FF03000120002B04D022002800197ACB
:107FE000FFF7BCFE70BDF7B50C0000250190230023
:107FF000EE331B78AB4201D800200AE06B00E65A52
:1080000000213000E718FFF7BBFF002802D12680CF
:108010000130FEBD017A0198FFF78EFE002802D0E4
:108020003B882380F5E70135EDB2E0E710B50400A9
:1080300008880021FFF7A4FF03000120002B03D0D4
:108040002000197AFFF778FE10BD0000054B1B6871
:10805000002B01D1180004E09A6852898242F6D1BF
:1080600098887047F064FF1FF0B50E27002687B090
:10807000039302ABFF183E8005001F4B408914009C
:10808000984207D02B78013000976A6880B2FFF7DA
:108090008BFE060002212B7818486A68FEF79EFBCB
:1080A00000280FD06C892000FFF7D0FF002802D0F5
:1080B000013C0419A4B2039B002B00D01C803000AB
:1080C00007B0F0BD02212B780D486A68FEF786FBE9
:1080D0000028E7D102212B780A486A68FEF77EFB68
:1080E000002807D0002EDED03B88A342DBD1748964
:1080F000013CDFE76C89DEE7FFFF0000EAC1001109
:10810000E8C10011E6C1001110B50C00FFF7D8FC62
:1081100003000220002B0AD0002C00D023609B78A3
:108120001720FE2B03D00138FF2B00D1002010BDFB
:1081300073B50D0001A904001600FFF7E5FF17282D
:1081400005D0002E04D129002000FEF725F976BDC8
:1081500001221021200000F045FE0028F3D0F6E7B0
:10816000014B18607047C0460065FF1F37B56B466E
:108170009D1D010004000222280003F0EDFE2B8863
:10818000B02B0ED12379122B09D12300FA331B789F
:10819000012B06D10121608800F0E0F801E01B2BE3
:1081A000F8D037BD10B5054B0421187000F098F8D1
:1081B000FFF746FDFEF76CFB10BDC0460465FF1FD0
:1081C0000020F0B50BB20F0087B0834234DA274BA2
:1081D000187803F051FD051E2BD00378A02B25D174
:1081E00003AE3100FEF7E2F8041E0BD1B378DB07D3
:1081F00024D51F4B06341B68002B03D03100688840
:1082000098470400A868002801D003F0DDFC002C8A
:1082100008D1184A039B1340174A934206D0B378FB
:108220001B2B03D00121688800F098F8280003F088
:108230008BFC80200002784007B0F0BD0F4B1B681C
:10824000002B10D0310068889847041EDAD073786C
:10825000002BD7D1B27801A90A704B800C716888C5
:10826000FDF7F4FFCEE70624F1E7C0460465FF1FE3
:10827000FC64FF1F00FFFF00000112000065FF1FEC
:10828000F7B50190FC200D0017001E0003F064FC00
:1082900004001320002C12D0B02320002370089B70
:1082A000F4226770658026710830002B08D0190011
:1082B00003F062FD2100019803F0DEFB0020FEBD0B
:1082C000089903F0A1FBF5E710B5041E06D000786D
:1082D000FD2803D803F018FCFF23237010BD000015
:1082E0000A1F93B210B504000220032B05D8824068
:1082F0000020024BD1529B189C7010BD2465FF1FBB
:108300000B8870B5043B04000D000220032B0BD832
:108310000121200000F04AFD03001420002B03D0AF
:108320002900200000F0DEFB70BD000007B513003F
:10833000034A00920A00012100F02CFC0EBDC04649
:108340006985001107B5019203220092024B0A00D1
:10835000122100F047FC0EBDE785001107B56B4602
:1083600001AA11800449D88008780633012802D177
:10837000190003F0A9FD07BD0565FF1F0C4B10B5E3
:1083800018700023FF210B4A13801381938193807F
:10839000094A53801370517293819372D174D382BE
:1083A0001375517703F0B0FC00F0FCF910BDC04626
:1083B0003465FF1F2465FF1F0665FF1FF0B58DB0F4
:1083C0006B46002003910C229B5E834200DBB1E0F0
:1083D0005D4B187803F050FC051E00D1A5E0037832
:1083E000902B00D09EE006AF01004688380000F0D8
:1083F00013FA79680400002900D19DE03B88052B21
:108400006FD13B89032B1CD905AC200000F0A2F8EA
:108410006288172A60D83989131D994231D1796849
:10842000237804310291D90738D5607800F08EF9AD
:10843000071E06D0002303712378012B08D0132BCD
:1084400023D0A868002800D179E003F0BDFB76E0D6
:108450006288029909A800F0A6F80290380000F09E
:108460008BF909AA2378387A019200223100009210
:10847000029A00F012F9380000F064F9029B002B18
:10848000DFD0300000F080F9DBE70378032BD8D190
:108490006288029909A800F0D6F8DEE709AF122B2E
:1084A00012D13800029900F0B4F8021EE9D1274930
:1084B0008B88002BC5D0887923780197617800914B
:1084C000310000F0EAF8BCE700233A003B80617815
:1084D0003000FFF72BFFB4E71D4B09AA0993617821
:1084E000F6E7042B02D09A1F012AAAD8174A043BA8
:1084F0009B00995A0029A4D0D218907831003A00F4
:1085000000F0ADF800289CD13B88042B03D001215A
:108510003000FFF723FF012C04D1A868002801D008
:1085200003F052FB280003F00FFB8020039B0002A6
:10853000434018000DB0F0BD012800D181E70121B2
:108540003000FFF70BFFEDE73465FF1F2465FF1FC9
:10855000010017000B7803704B784370CB788A7852
:108560001B021343438070470A88030002700A8885
:10857000120A42700A88012A06D14A8882704A8803
:10858000120AC2700420704702208242FBD14A883E
:1085900004309A704A88120ADA708A881A718A88B6
:1085A000120A5A71EFE710B50400012082420CD97B
:1085B0004B780A781B0213432380834206D1CB7881
:1085C0008A781B0213436380002010BD022BFBD16D
:1085D000CB788A781B02134363804B790A791B029C
:1085E0001343A380F0E70B8803700B881B0A4370CA
:1085F0004B8883704B881B0AC3708B8803718B88F0
:108600001B0A4371CB888371CB881B0AC371082076
:10861000704703000120082A14D14A780878120212
:1086200002431A80CA788878120202435A804A7933
:108630000879120202439A80CA79887912020243A9
:108640000020DA80704710B504000120022A05D10D
:1086500000204B780A781B021343238010BDF8B525
:10866000060010200F00150003F076FA0400012028
:10867000002C0ED0A0230C22290023806780201D0F
:10868000002D07D003F078FB2100300003F0F4F94F
:108690000020F8BD03F0B8F9F6E7F7B51E0000902A
:1086A00008AB142017001D78019103F055FA041E41
:1086B00012D0A2230370019B47704380099B057170
:1086C00046710C220830002B07D0190003F054FB30
:1086D0002100009803F0D0F9F7BD099903F094F94F
:1086E000F6E737B5041E0FD04388002B0CD00025C9
:1086F000C1881323007A172201950095FFF7CDFF5B
:10870000FF2365806372257037BD000010B50C49EA
:1087100004004A88002A09D08B89002B05D000204C
:10872000CB8A0222834201D010BD012213000A200D
:10873000434300204032C854C81842800472F3E713
:108740000665FF1F0023438003707047094B00211B
:108750001A0010B55C88002C06D01C79844203D125
:108760000A234B43D01810BD01310A330329F1D13C
:108770000020F8E70665FF1F10B50400407A03F0FB
:10878000C3F9FF23637210BD7047043010B580B287
:1087900003F052F9002803D00421494203F094FA6F
:1087A00010BD000070B50025104CA0682580A58183
:1087B000A580A84202D003F007FAA56000250C4C62
:1087C0000C4B606D1D80230058331D70A84202D0F1
:1087D00003F0FAF9656500256068002801D003F010
:1087E000F3F9013508340A2DF6D170BDCC65FF1FB1
:1087F0007065FF1FC065FF1F70B5041E09D1054DD0
:108800002880A881A880A868002802D003F0DCF99D
:10881000AC6070BDCC65FF1FF0B54B8885B001938F
:10882000002343600A7905000F00022A00D07BE094
:10883000CA88032A17D98B685E7819783602DC78E3
:10884000D8790E4399781B7A24021B020C43034308
:1088500053495BBA0B80331D93421ED1042C04D0C4
:10886000631F022B0ED9012015E0019A4D4B120116
:10887000D35A002B06D00198FFF7BEFF4A4A13696E
:10888000013313610421B8682E812C80494203F022
:108890001BFA6860002005B0F0BD434D042C06D0E3
:1088A000631F022B0FD9EB680133EB60DBE7019A02
:1088B0003C4B1201D35A002B05D00198FFF79CFFC7
:1088C0002B6901332B61374B30000293019B029AD5
:1088D0001B010193002301998C468B5213006344C2
:1088E0009C8003939E81FFF750FF039B041E9860BA
:1088F00016D00421B868494203F0E6F9FA8801006D
:10890000043A200003F038FA0199029AFB888A5A47
:10891000043B9B18029A8B522B6801332B60A2E711
:10892000AB690133AB619EE71E4B0293019B1E01B5
:10893000029BF35A002B2DD002998C19A0680028B5
:1089400028D0012A26D1FA889B189BB27352A1899C
:10895000994217D39B1AC018B96803F00DFA029B0D
:10896000A289F35A934200D07DE700222B81A3888D
:108970002B80A3686B60029BF2520B4A5368013351
:10898000536070E7084A9368013393600198FFF7DA
:1089900033FF68E7044A536901335361F6E7C04681
:1089A0003665FF1FCC65FF1F3C65FF1F70B5051EB8
:1089B00015D10B4C0B4B1880230058331870606D89
:1089C000002802D003F000F9656525005035606885
:1089D000002801D003F0F8F80834AC42F7D170BD9C
:1089E0007065FF1FC065FF1FF0B51700A12285B09D
:1089F000920001934243394B06001B680C009B1800
:108A0000D933FF331D78FDF73DFF0430854204DD87
:108A10003000FDF737FF0430C5B2BD4207D33A003E
:108A200000213000019B03F08FF905B0F0BD290053
:108A3000380003F039F92300C6B250331E70039397
:108A4000019B29006365380002F0EEFFCBB2029370
:108A5000002B02D0039B01361E70002623005033EA
:108A600003931B78B34204D8606D002831D10020F5
:108A7000DBE7029A2800002A04D0013B1000B34231
:108A800000D02800F700E719387003F035F8786057
:108A900000280ED03A78019903F06EF9019A3B78DC
:108AA0000136D3180E4A0193D369F6B20133D3616C
:108AB000D4E7039B18706065A74205D1084A1320CC
:108AC000D36A0133D362B0E7606803F07DF80834FD
:108AD000F2E703F079F800236365C8E73409FF1F64
