:020000041100E9
:103000007FB50023284C294D03932800217C284AB2
:1030100001F0FDFA002812D103232800217C03AA25
:1030200001F09CFA00280AD1224B039A9A4206D159
:10303000214B2248E360224B636104B070BD02263D
:10304000217CFE2228001F4B009601F059FA00282F
:1030500001D00020F1E71C4BA2899A42F9D1217CD2
:10306000FF222800194B009601F04AFA0028F0D1FF
:10307000E389174A934203D1164B17486361DCE793
:10308000164A9342E5D1164B164A1B68934206D95D
:10309000C02304222800217C9B0001F09AFA124BE5
:1030A00012486361C9E7C046D061FF1F2C42FF1F71
:1030B00081370000595953005959832054BB0011DE
:1030C00045420011DC61FF1F59590000DE61FF1FFE
:1030D00083050000FD41001134BB00118215000082
:1030E000F461FF1F87130000FD42001144BB001173
:1030F00070B5134D2B7C002B0DD0124C200001F02D
:10310000ADF9297C382907D1BA22200001F050FA04
:10311000200001F0E1F970BDEB890B4A934206D122
:103120009023022220001B0201F053FAF0E7074A25
:103130009342EDD12000064A01F069FAE8E7C04663
:10314000D061FF1F2C42FF1F830500008320000079
:10315000A2300000002370B51A4E1B4C3000636192
:10316000637401F07BF9402323744B2B0CD9CC23DF
:103170003821AC2230009B01217401F02AFA00288A
:103180000AD0002525740CE0FFF73AFF051E08D190
:10319000237C0433DBB2E7E70C4B0D4D63610D4B31
:1031A000E3812368002B08D1002D06D00C222900D2
:1031B000200008F059F92B7B6374300001F08CF982
:1031C00070BDC0462C42FF1FD061FF1F9942001105
:1031D00024BB0011AAAAFFFFF7B5164B0192C31832
:1031E000021D0020009388235B05D3181B685C1C1C
:1031F0001AD09CB2402C18D88D781E0CAC4667466D
:10320000CD782D023D43AE4206D1019800280ED163
:1032100010000C70240A4C7003249BB20733A343A4
:10322000D218009B9A42DED3FEBD4432F9E710006B
:10323000FAE7C046FC0F0000802213B50300032408
:10324000019189B2520107319B18A14304305A1AE7
:1032500088235B05C3181B68591C03D19042924117
:10326000104016BD99B2402907D80B000733A3437D
:10327000C0189042ECD30020F3E74430F9E7134B39
:10328000134A1B68126810B5FA24934201D81A0039
:10329000F824104BE4021B689A4210D813000E4A1F
:1032A00012689A420ED3013307D1F823DB029C4205
:1032B00003D10A49054808F0DFF8200010BDFC24BE
:1032C000E402ECE7FE24E402F7E7C04600C0071181
:1032D00000D0071100E0071100F00711FFFFFF7F8A
:1032E000F0B59BB0150003900491402A5CD806AC61
:1032F00061802280FFF7C3FF002221000600FFF754
:103300006BFF05280FD92388AB420CD1002D07D0C5
:10331000504B2A000399C01808F076F8002802D113
:1033200001201BB0F0BD258030000699FFF784FF17
:10333000041E79D1069B0793FFF7A1FF80235B0151
:10334000C618802307001B039E4201D1F826F6020F
:1033500088235B05F31801931B68013302D00198A1
:1033600008F0CAFA3C49019808F086F83B1D029320
:10337000331D05938822029B52059B181B680893F6
:103380005A1C13D188235B05FF183968019801394D
:1033900008F072F8380008F0AFFA30000799FFF72C
:1033A0004BFF0400002C41D10020BAE744219AB21F
:1033B0000091402A04D80320D11D814389B2009195
:1033C00004991B0C8B4224D0402A22D801223000C1
:1033D00008A9FFF701FF021E1BD1380008A9FFF75B
:1033E000FBFE04000428DDD9009A059B9B1880226F
:1033F0005201B21893422AD288235B05C118009A61
:1034000009A808F031F8134B009A09A9F01808F040
:10341000E3FA009A029B9446634402930F4B029A8C
:10342000FB189A42A6D3ADE70428BDD088235B05DC
:10343000E018069908F020F80323EA1C9A4300D10B
:103440006EE7044B0399E01808F0C6FA68E7042415
:10345000ECE7C04604000011FFFFFF7FF80F0000FB
:1034600073B504001600402A1ED801AD6980FFF72D
:1034700006FF002229002A80FFF7AEFE042810D99B
:103480002D88002E0BD0002C09D0321CAE4200D962
:103490002A1C074B92B2C118200007F0E5FF28B2A2
:1034A00076BDC04300B2FBE703204042F8E7C046C8
:1034B0000400001137B5042204000D0001A81649CC
:1034C000FFF7CEFF020004280BD1019BA34208D3D3
:1034D000AB4204D0104901A80195FFF701FF01207C
:1034E0003EBD0E4C23682000019308F005FA0199B7
:1034F00020000139019107F0BFFF80235B01E41830
:10350000074B9C42EED10422034901A80195FFF725
:10351000E7FE0020E4E7C0465555000000C0071153
:1035200000000811F0B589B008F0D6F910226946FC
:10353000264808F001F9264B009A6C469A4211D1B0
:10354000019B0F2B35D80699029A8C461800110062
:10355000002604AD013808D2002E01D00A00A16077
:1035600001322FD10023A36023E04F1CF2D161462A
:103570000126EFE7103610222900300008F0DCF8B1
:10358000A368A868013300D1A060882329685B057F
:10359000C9186B6829601A03120B6A60814203D054
:1035A0003B4201D107F060FF6368013B6360002B81
:1035B000E0D1A368002B03D0049304984168084726
:1035C00009B0F0BDE027014E3F03F0E70000011114
:1035D000504859368022F8B5964C974BD2000021BE
:1035E00020001C6008F038F82300944A88331A60E1
:1035F000934B1A786A23002A00D01133E3620A231E
:103600002365904B37221B780820A3638E4B21182B
:10361000E361102323628D4B3B256361C823DB00EC
:10362000A36123008C331A602823013AE2632064EB
:103630006364CA67043A211DCA672100BC310D606A
:103640002100C03108602100C4310B602100063523
:10365000CC310D602100083DC8310D602100D03112
:103660000A602200D43210602200D8321360220097
:103670000227E032210017604222DC310A6021007B
:103680001B3DE4310D602100E83108602100EC3180
:103690000B6023000521F43319602300F0331A6016
:1036A0002300183290331A602300943318602300EB
:1036B0001E3A98331A60AF23DB002360644BFA266E
:1036C0002363644B644DE360644BF031A3642300D7
:1036D000FF31FC33B600A16021611E60A562732535
:1036E000E5656D3D6565A56596255D4AAD00E264BD
:1036F000666258606766A56600270925A767E566C4
:10370000584F594D606720002567E2673A601527DA
:103710009C30676007001A2038602000A030070046
:10372000212038602000A83007004C483860200075
:10373000F830066026006427A436376026005F3F15
:10374000AC3637602600033FB03637602600C637F8
:10375000B436376026000027B836376038269E60BA
:10376000424E96205E64424E5A66DE61414E9A6435
:103770005E62F53EFF3E9E621E269A67354A8000D5
:10378000DE661F675F67DD651D661862DA67BE2348
:10379000394A5B00E250394BD8382350043022506C
:1037A000C4225200A350C623E4205B00E15004333E
:1037B000334AE1503349344BD160344980001950C9
:1037C0003349E938FF381950324904301950324929
:1037D0003248D16132491163324951631900F431E1
:1037E0000860CE203049400011603049195019005E
:1037F0002F48F83108602F49D16582212E4A89006F
:103800005A501A002D490832D1671A002C49B43297
:10381000116088212B4A89005A501A002A4988329F
:1038200011602A4ADA6407F00FFE012007F0E4FF76
:10383000F8BDC0460004FF1F6C64FF1F306FFF1F00
:103840005C44FF1F4A0AFF1F3A07000080C3C901FA
:103850009A020000DC0500006A18000050C3000056
:1038600088130000F009FF1F204E00006509FF1FAC
:1038700068100000C409000040420F00102700003B
:10388000FC00FF1FA91CFF1F0000FF1F012DFF1FD1
:103890008930FF1F212FFF1F6920FF1F6127FF1F96
:1038A0008520FF1F3522FF1FF51FFF1F8529FF1FE2
:1038B0006D2AFF1F8D19FF1F9128FF1FBD25FF1FB8
:1038C000C925FF1FF51EFF1FAD1FFF1F6D1EFF1F28
:1038D0000223F0B50124664D91B02B70654B664E06
:1038E0001C70664F0393336821000820BB7006F0FC
:1038F0009FFB0021082006F081FC082006F078FBE1
:103900000023984205D0BA78552A02D0332A00D035
:10391000A1E03360042006F0E9FD08F07DF8FFF730
:1039200059FE07F0D9FD1F2201240021544B1A70C3
:10393000544B1C70544B1970544B19689143163AF0
:103940000A431A60602219689143403A0A431A6098
:1039500008F012F807F078FF4D4B9847C120FF217F
:103960004C4B80001A588A431A50C522920098582E
:103970008843BF39014399509858474908408021EE
:10398000C9010143802099509958C0050902090ACC
:103990000143995080214148490107F0D5FD032397
:1039A00022003F49019400933E4807F0D5FF2C22A6
:1039B0003D4905A807F058FD05AC6178207806F070
:1039C00037FB023410ABA342F7D1384C0121002061
:1039D00006F042FC0920012106F03EFC2268344B2F
:1039E00003201A40A023DB021343236080232268B4
:1039F0009B041343236022682E4B1A4080239B03B1
:103A0000134323602C4A2D4B934200D8012007F02A
:103A10001BFE07F069FF80232268DB041343236049
:103A2000287807F001FD039B1878C0B207F0DCFE90
:103A300007F0F2FC2249042007F0FEFF06F022FD09
:103A400000F040F800F0FCFD00F0A2FE00F008FAE3
:103A5000002011B0F0BD00932100194A042007F0A6
:103A600043FD8023DB059C62FFF75CFD52E7C04607
:103A70004A0AFF1F5C44FF1F34F000400062FF1F32
:103A8000480AFF1F490AFF1F680AFF1FBCF00040D9
:103A9000E1A2000000E100E0FF00FFFF6044FF1F23
:103AA000E456FF1F6054FF1F48BA001114F0004095
:103AB000FF7FF8FFFFFF9FFF0080FF1F306FFF1F9A
:103AC0003B000108002210B51100112007F02CFD69
:103AD00010BD0000F8B500230926374F374C3B6274
:103AE000E3681120B343E36007F01EFF112007F0E5
:103AF000F3FD112007F048FD402322688025134381
:103B0000236080236268DB0213436360A3682C4A4E
:103B10002B43A360A36802211340A3608023A26803
:103B20009B0113431022A360236C0720934323645B
:103B3000236C0F3A1343236480235B003B62226BA8
:103B4000204B1A402263626B1A406263A26B1A40D8
:103B5000A263E26B1340E363E3681B4A1340E36034
:103B600006F066FA0121072006F076FB174B1120BC
:103B70005A6C15435D6407F097FEFD21144B154AFE
:103B800089005A508023C720626B5B031343636331
:103B9000E36880003343E3600F4B104A195811402B
:103BA000802212020A431A50802292051A600822CB
:103BB0000B4B5A63F8BDC04600F000403CF000409B
:103BC000FFFFDFFFEFFFEFFFFFFF7FFF0038004049
:103BD0000000FF1F5118FF1F00E100E0FF00FFFF82
:103BE0000000054010B5FFF783FA0021080006F039
:103BF0001FFA0021152006F01BFA0021162006F0FE
:103C000017FA0021080006F027FB0021092006F022
:103C100023FBE120C00407F007FE10BD70B51A4C6D
:103C2000E388002B2AD0FA22D200934201D2FFF778
:103C3000D9FF2368E088A688C0188023711C89B248
:103C4000124D2060A1809B00994218D3420A93B282
:103C5000C21AEB802260A6800D4A642093420AD8E3
:103C6000FA220020D200934205D90A21180007F059
:103C70009BFCC838C0B200232872E38070BD07F0F7
:103C800073FC83B2EB80E7E75C61FF1FE861FF1F15
:103C9000B70B000030B503A804880B20002C0ED110
:103CA0004968074D08784978090201430A20A9426A
:103CB00005D1012120001980024B1B7A137030BD01
:103CC000192A0000E861FF1FF7B5150008AA168839
:103CD0004A680F4F14785278120222430A24BA42DB
:103CE00014D10122DBB2019200962A0007F016FBE4
:103CF000041E0BD1074B1B68002B07D068782A786D
:103D00000002104342425041013098472000FEBD5E
:103D1000022900006C61FF1F30B501250379040002
:103D2000BFB02B4211D00A49408806F067FE2842F6
:103D30000BD0084B01A95B8D4D800B80064B0022F8
:103D40001B7A60880B7103F037FF3FB030BDC0466F
:103D50006461FF1FA040FF1FE861FF1F10B5054908
:103D6000054806F001FE0421044A054806F0BEFDA0
:103D700010BDC0466461FF1FFFFF000074BA001150
:103D8000A040FF1F10B5024804F09AFD10BDC046C8
:103D9000193D0011012303700B4B1A7A4270022265
:103DA00082709A78C270DA780271032242711A79AD
:103DB00082715A79C2710C2202729A794272DB794D
:103DC00083720B207047C046E861FF1F022310B5C5
:103DD0000370013B43700533837010330371443B20
:103DE00043712A3383714433C37100230372054B3B
:103DF00004001B8843720A30FFF7CCFF1123152003
:103E0000E37010BDE861FF1F10B5142007F02CFC13
:103E1000124B14220021186007F01EFC002007F04E
:103E2000F3FC012007F098FC022007F02DFC032092
:103E300003F0E8FF042006F001F8052003F020FA63
:103E4000062003F0F3FE072001F088FA082006F0B0
:103E50002DFD092001F046F810BDC0467061FF1F1E
:103E600007F0EAFC012007F0E7FB07F05DFC00002B
:103E7000094B10B50400984205D0012904D1200057
:103E8000064906F071FD10BD0229FCD1013904F08C
:103E9000D1FC0028F3D0F6E7FEFF00009661FF1F7B
:103EA00070B50D7A100004AA2C0016881022144058
:103EB000154220D1002E20D10A78022A18D14A6852
:103EC000517815780E4A09022943914205D00D4ACE
:103ED000914209D01C800A2404E014220A491A8065
:103EE00007F0C2FA200070BD0C2208491A80F7E7DB
:103EF0001C800124F6E70824F4E70B24F2E7C0460F
:103F0000F3FF0000F4FF0000E842FF1F70BB001148
:103F100010B504000749084806F026FD074804F0DC
:103F20000BFC0020E40704D50721054A054806F0EC
:103F3000DDFC10BD9661FF1FFFFF0000713E001108
:103F4000B8BA0011E440FF1F10B50B4BBEB01A7891
:103F50000A4902A800F0E2FC01AC80B260800028AF
:103F600008D0074B00221B8821002380054B1888AE
:103F700003F022FE3EB010BD7461FF1F7561FF1F8C
:103F80003E41FF1F4842FF1F10B50B4BBEB01A78D1
:103F90000A4902A801F054FD01AC80B260800028FB
:103FA00008D0074B00225B8D21002380054B188829
:103FB00003F002FE3EB010BD9E61FF1F9F61FF1F18
:103FC000E440FF1F4842FF1FF7B50E00377A1C0080
:103FD00008AB11003D001A8820231D401F423CD130
:103FE0003378022B3BD173681F785B781B023B430D
:103FF0001E4FBB4208D01E4FBB4214D01D4DAB42DA
:1040000021D00A252800FEBD002A2AD1142C2AD846
:104010002200F06807F028FA174B1C70012CF1D928
:10402000FFF7B2FFEEE7002A1BD1202C1BD822009D
:10403000F06807F019FA114B04211C70104B187826
:1040400007F0D2FCDEE7E3B20124009201940A00FB
:10405000310007F063F90500D4E70825D2E7012510
:10406000D0E70B25CEE70D25CCE7C046F3FF0000D7
:10407000F4FF0000022900009E61FF1F7461FF1F12
:104080002062FF1F332310B5040003700A22074982
:10409000013007F0E9F9064B0F201B681A0AE3729A
:1040A00022731A0C1B0E6273A37310BDE861FF1F0D
:1040B0001062FF1F30B5012503790400BFB02B4209
:1040C00013D00B49408806F099FC28420DD0094BCB
:1040D00001AD1B8802A82B80FFF7D4FF0F236B8054
:1040E00000222900608803F067FD3FB030BDC04664
:1040F0009661FF1F3E41FF1F10B5024804F0E0FB30
:1041000010BDC046B540001170B5160004AA148851
:1041100005AA15784A685078117800022A4A08439F
:10412000801805284BD807F03FFB03131E29343FA6
:104130000720042C0BD80522121BAA4200D92A0002
:1041400022491A803000091907F08EF9002070BD4D
:104150000720112CFBD81222121BAA4200D92A00D8
:104160001B491A80EEE707200E2CF0D80F22121BF5
:10417000AA4200D92A0017491A80E3E70720032C36
:10418000E5D80422121BAA4200D92A0012491A803B
:10419000D8E70720032CDAD80422121BAA4200D940
:1041A0002A000E491A80CDE70720032CCFD804221D
:1041B000121BAA4200D92A0009491A80C2E700222C
:1041C0000A201A80C3E7C046DCD5FFFF03BB0011FD
:1041D000BC61FF1FF3BA0011EEBA0011E9BA001179
:1041E000E4BA001110B50D21024A034806F07EFB27
:1041F00010BDC046D8BA00115441FF1F37B50F4C4F
:1042000001AD04232A00217C00F0A8F9002813D175
:104210002988236849BA89B24B4321891B0C5B1852
:10422000074A6988538049BA636889B24B436189F8
:104230001B0C5B1893803EBD0120FCE7D061FF1F83
:10424000E861FF1F37B5124C06236A46217C6D4694
:1042500000F084F9002818D12988236849BA89B266
:104260004B4321890B4A1B0C5B1853806B4603336D
:104270005B78E9781B020B435BBA61689BB24B43E6
:1042800061891B0C5B1893803EBD0120FCE7C04692
:10429000D061FF1FE861FF1F73B5164C07236A4604
:1042A000217C6D4600F05AF9002820D12B787F2B15
:1042B0001DD8F023EE781B0332041A40AB880E4958
:1042C0005BBA9BB21A4323683609534322891B0CFD
:1042D0009B184B806A78AB7812031B011A43636802
:1042E0003243534362891B0C9B188B8076BD01209F
:1042F000FCE7C046D061FF1FE861FF1FF0B5022751
:1043000085B0154C03AD217C2B00002200970600E0
:1043100000F0F6F8002802D0012005B0F0BD0E2311
:10432000217C0122300000976B4400F0E9F800285E
:10433000F2D129882368C9BA4B4321891B145B1821
:10434000064A6988538049BA636889B24B436189D8
:104350001B0C5B189380E0E7D061FF1FE861FF1F33
:1043600070B5184C237C002B0FD0382B0ED1164D76
:10437000280000F073F8CC23AC222800217C9B019C
:1043800000F027F9280000F0A7F870BDE3890F4A74
:10439000934209D10C4D280000F060F8002228005B
:1043A000217C00F005F9EDE7094A9342EDD1064D75
:1043B000280000F053F890222800217C920100F0A0
:1043C00026F9DFE7D061FF1F2C42FF1F83050000A5
:1043D0008320000070B5144C237C002B1FD0636930
:1043E000002B1CD0114D280000F038F8636928001C
:1043F00098470400280000F06FF8002C10D10C4BF7
:104400000422995E002905DA9C801A8801321A80FC
:10441000200070BD074A9142F7DD9A80F5E701243C
:10442000FEF798FEF4E7C046D061FF1F2C42FF1F45
:10443000E861FF1F0F27000010B58024064AA40082
:104440001168436B234205D113685B1A032BF8D91B
:10445000012010BD0020FCE76008FF1F70B5C17986
:1044600005000C00631E9C411A4BE402E41849004D
:104470000460C9B2007905F025FFE979687949003F
:104480000131C9B205F01EFFE8790930C0B207F06A
:104490007BF80023E36661332360AA795B3B002A43
:1044A0000ED022689A43023B134323600A23E36140
:1044B0000733236200232363A3630133E36370BDE7
:1044C00022689A4302231343236046236361063321
:1044D000A361EFE70050004070B5002504000368B9
:1044E000DD66C0790930C0B207F01EFA29002079D4
:1044F00005F084FE2900607905F080FE70BD0000A3
:10450000F8B51E0006AB1D78002304681700E366AB
:10451000616007F0E1F901238022E3662B00276147
:104520005200013B08D207F0A7F808200A4A116898
:10453000002D03D12800F8BD2261F2E7236F03426A
:1045400003D02369013D3370013613685B1A032BD6
:10455000EED90125EEE7C0466008FF1F70B51C00CC
:10456000002305681600EB66696007F0B5F90123C2
:104570008022EB6623005200013B08D207F07CF852
:1045800008200A4A1168002C03D1200070BD2A615E
:10459000F2E72B6F034203D02B69013C33700136E5
:1045A00013685B1A032BEED90124EEE76008FF1FA6
:1045B000002370B504681500E366616007F08CF9AC
:1045C0000123E366256107F057F82000FFF734FF69
:1045D00070BD70B51D00002304681600E3666160BD
:1045E00007F07AF90123E36626610F33626B1A4202
:1045F000FCD02B0A23611023626B1A42FCD0EDB26F
:10460000256107F039F82000FFF716FF70BD002381
:1046100070B504681500E366616007F05DF9012379
:10462000E3662B0A23611023626B1A42FCD0EDB2C1
:10463000256107F021F82000FFF7FEFE70BD0000A5
:1046400010B5084CE368002B08D18022064B5202BB
:104650001B689B186360054B1B68236006F0B4FF62
:10466000A06010BD1062FF1FC8F00040CCF00040F9
:10467000F0B5184A936A916A9942FBD116498A6843
:104680009A421FD39A1A8B60144B4C68186893B2E5
:10469000D2024343D20E42431B0A08681B1912027E
:1046A0009B180024020001270D4D4B60561CAB42A5
:1046B0000BD8002C01D010000CC10A4A13600A4B21
:1046C0001860F0BD581E821ADDE7084A3C009B18AE
:1046D0003200EBE700F000401062FF1F140AFF1FDA
:1046E00040420F00C8F00040CCF00040C0BDF0FFD9
:1046F00070B51E4C23793F2B01D93F2323711C4AEF
:1047000013701078C0B206F0D7FE1823194A1A4960
:1047100013801A4A0B8013804B80A0790C3B421CFB
:1047200053438022120193421ED81A00144D8880F0
:1047300028801448CB8002806279002A01D101329E
:104740006271237A012B01D80223237253430E484E
:104750000A21584306F028FF0C4D2860E379052B09
:1047600001D81023E37170BD1300DFE70462FF1F5F
:10477000480AFF1F4642FF1F0844FF1F4442FF1F15
:104780004242FF1F4042FF1F71020000F461FF1F01
:10479000F8B521210020FEF78DFE114C011E114DB0
:1047A00009D10C22104BC1CBC1C4280006F054FF24
:1047B000FFF79EFFF8BD0C2220000C49FEF750FECB
:1047C0000C2802D0084B43CB43C40C2228000849D4
:1047D000FEF746FE0C28EBD00C220021E5E7C04690
:1047E0000462FF1FD061FF1F64BB0011FC0C0000BE
:1047F000F50C000010B50C2202480349FEF770FDCD
:1048000010BDC0460462FF1FFC0C0000F0B51D4C3B
:104810008022A5440400882069465201400506F024
:104820007BFF902212016A441300200032C832C379
:1048300016C816C38023144C144FA6689B03334339
:10484000A3603B6007F040F88823A0685B05C018B0
:1048500007F052F80025882329008022A0685B0514
:10486000C01840196944520007F0B6F8802301359A
:10487000FF355B019D42EED1A6603E60044B9D4436
:10488000F0BDC046FCEFFFFF7843FF1F9808FF1FF5
:1048900004100000F0B587B0051E6C4627D06846AE
:1048A00007F052F81B4D022806D10622694628005F
:1048B00006F0AAFD002818D00F22210000230120B5
:1048C00094460600EA5C013317091037BE403700F2
:1048D000664632400600964032003A434A61043947
:1048E000062BEED12000FFF791FF07B0F0BD182294
:1048F0006946094806F010FFAB00E358013305D0C4
:104900001822FF21200006F0A7FEEBE70135062D57
:10491000F2D1EAE76509FF1F00090011F0B5002791
:1049200004000E00150085B0BA4200D184E08A78F8
:104930004B1C01934B7812021A43CB7808781B0466
:1049400013430A79207012061A430092039267708B
:10495000252800D190E033D8112813D806F01CFE8A
:1049600066001501150115011501A400B200AB0088
:104970001501150115011501150115011501150187
:10498000EF000F01232800D1C7E0DB2800D022E18F
:10499000042D00D8ABE0052D00D119E16F1F3A00BE
:1049A0000098711D06F060FD05223100200006F020
:1049B0005BFD3A000099601D06F056FD2F003BE0BC
:1049C000562853D00FD8332800D1A1E0552836D02F
:1049D0002628DAD1904D13223900280006F03CFE3B
:1049E000FEF7B8FB57E0712800D172E0722800D1C1
:1049F00084E0DC28C9D1022D00D878E04B786370C0
:104A00008B78A3706B461F88032D05D0033DC81C0F
:104A1000AAB23900FEF764FC39001022E01CFEF750
:104A20001FFDC71C002807DA60706DE00C22200013
:104A30007A4906F019FD0C27380005B0F0BD6A1E52
:104A4000774D0C2A10D8002A07D02800019906F0CB
:104A50000BFDFFF74DFEFFF7CDFE0C222900601C79
:104A600006F002FD0D27E7E70C22EEE76C4D6D4BDB
:104A70002A0043CB43C2ECE76A1E674D0C2A11D8CB
:104A8000002A08D00199280006F0EEFC0C2228002C
:104A90006549FEF725FC13222900601C06F0E4FCA2
:104AA0001427C9E70C22EDE706226049601C06F0D6
:104AB000DBFC0627C0E712225D49601C06F0D4FC2F
:104AC0001327B9E708225B49601C06F0CDFC0927D3
:104AD000B2E7012D0ED04978F02908D8564D288824
:104AE00001F008FC554B2A885200D35A00E0FF23FE
:104AF000637009E0504A514B1288F5E7504B012D85
:104B000004D04A785A706270022795E75B78EFE725
:104B10002000FFF7B7FA07008EE7042D05D9494DAD
:104B2000009B2B6006F050FDA860FFF7A1FD04225A
:104B3000039003A9601C06F097FC05277CE7424E12
:104B4000062D15D906223000019906F05DFC0028DB
:104B50000ED006220199300006F086FC06223B4961
:104B60003000FEF7BDFB0123354A51780B435370EB
:104B700006223100601C06F077FC07275CE7012D58
:104B8000B5D04878FFF786FEBEE7012800D0FCE6E6
:104B90002F4AAB1E0092132B06D84B78002B0BD15B
:104BA00000F00EF900F044F92A4B00991F78601CC0
:104BB0007A1E06F059FC3FE7013D2A000199009852
:104BC00006F052FC24490098AAB2FEF789FBE9E7F7
:104BD00015251027E8E6DA2889D1042D87D9082D74
:104BE00017D9B37972791B021343F27912041A436D
:104BF000337A1B061343009A1360009B05221B683F
:104C000031002000039306F02FFC0422601D03A94D
:104C10005BE7FE236370F0E7D061FF1F70BB0011FC
:104C20000462FF1F64BB0011F50C0000DC61FF1F74
:104C3000BC61FF1F7C43FF1F4842FF1F7064FF1FC2
:104C40000062FF1F1062FF1F6509FF1FADAC00006F
:104C50000164FF1FFF63FF1FAEDE0000704700000E
:104C6000020010B5094B0A32094C92B2DA815A821D
:104C700098811882207802F0A1F90422054B0121C5
:104C800020781A7006F0B0FE10BDC0460643FF1F24
:104C90004A64FF1F4964FF1F013870B5042809D812
:104CA00006F082FD0309230812001E4B022118782A
:104CB00006F09AFE70BD1B4B0821187806F024FC04
:104CC0000022194B1A72F5E780220024164B154D6D
:104CD00052001A81082128781A68DC7206F08CFECE
:104CE0002100287806F028FEE4E70E4B082118780A
:104CF00006F00AFC0D48FFF769F80D4B0D4A9B7949
:104D000093800D4A13800022074BDA720132FF3282
:104D10001A810A4B5B78002BCCD0094A136006F04D
:104D200033FEC7E72062FF1FF461FF1F5142FF1FE0
:104D30000462FF1F0844FF1F4242FF1F0062FF1F63
:104D400034F0004010B500290BD1082809D10131F9
:104D5000013005F081FA8021024B8900187806F0B5
:104D600043FE10BD2062FF1F10B501290BD108289A
:104D700009D10021013005F06FFA8021024B890032
:104D8000187806F031FE10BD2062FF1F0300F0B559
:104D90000A4D8E18B14202D152008018F0BD0C7835
:104DA0002F6824093C5D0F271C700C7801313C40B2
:104DB0002F683C5D5C700233ECE7C0463C42FF1F4D
:104DC0000E22124B10B51A700D23114C114923708D
:104DD000093A043B1048637006F046FB2D2301227C
:104DE0000E490F48E371FFF7D1FF01220D49FFF78C
:104DF000CDFF01220C49FFF7C9FF030000200B493A
:104E000002001870FEF76CFA10BDC0461E64FF1F4A
:104E1000FF63FF1F03BB00110164FF1F6709FF1F32
:104E20000764FF1F6609FF1F6509FF1FAEDE000054
:104E300070B5134C142220001249FEF711FB431EDB
:104E4000114D132B19D8AB78002B16D0431C2B70A7
:104E500009236B7000230019037028780B4B013075
:104E60002900C0B2187006F0BFFA29782200013973
:104E7000C9B2002005F058FC70BDFFF7A1FFECE7B8
:104E80000164FF1FAEDE0000FF63FF1F1E64FF1FF3
:104E900010B5114B1A781870002A0ED000280BD1CB
:104EA0000E4B1A78062A07D85423D340DB0703D5C4
:104EB0000B4B187802F082F810BD0028FCD0074B8D
:104EC0001B78012B02D0033B022BF5D8044B0121A8
:104ED000187806F089FDEFE72264FF1F4964FF1F81
:104EE0004A64FF1F70B5504E504A51493070082037
:104EF00005F0A6FA0121092005F0AEF9092005F018
:104F00008DFA0121002005F0A7F9002005F086FAAE
:104F1000FEF720F906F028FC032246494648FFF731
:104F200035FF2D24030004221C7044490130FFF793
:104F30002DFF30230470424D424C437083702E3B52
:104F4000062220004049EB87FEF78AFA062813D094
:104F5000200006F0F9FC022809D00321200006F009
:104F60002BFC8D23E3706E3B237119336371062292
:104F700020003549FEF7B4F9344B1B68FC335C6400
:104F8000FFF756FF0020FFF783FF314C314A012124
:104F9000314B1278207801F0D3FF304A304B127831
:104FA0000021207801F0CCFF01222E4B1A702E4BED
:104FB0009B78552B31D12D4B3B325A722C4B2D4ABD
:104FC000AB81EA812B826A822021307806F00CFBCB
:104FD0000120404205F0F4FB0120404205F090FC26
:104FE000FFF700F9FEF7BAFE00F0C2FC01204042D4
:104FF000FEF78EFF012006F017FDF02001F05EF9AC
:105000000121307806F0F0FC307802F033F91A48CC
:1050100006F09AFBFEF75EFD70BD6422174B5B79CC
:1050200053431A000A32CBE72062FF1F454D00119F
:10503000694D00117C43FF1FBC61FF1FDC61FF1F36
:105040000643FF1F6509FF1FADAC00006C64FF1F26
:105050004A64FF1F7042FF1F5142FF1F1E64FF1F63
:10506000FF63FF1FF063FF1F0062FF1FF461FF1F5C
:10507000C4090000CE0900002262FF1F0462FF1F66
:10508000F8B50A0020230D001A4019425DD0664B86
:105090001B78002B42D0FFF7EBFA644B644C654E53
:1050A00099686268737A8A1ADB039A4202D3616054
:1050B000FEF710FD327A217A531EDBB2994230D1CD
:1050C000FFF74EF9637A002B25D0013BDBB2637208
:1050D000002B20D1584B9B78552B01D106F054FC66
:1050E000E37A002B12D00023A27AE3729A4202D014
:1050F000A372FEF793FD514A514F138838000133D4
:105100001380FEF763FE390006F006FC6423707915
:105110005843FFF7A5FD237A01332372202068400E
:10512000F8BD9142CED300272772FFF753F9A37A37
:10513000BB4202D0A772FEF771FD414F3800FEF767
:1051400045FE390006F0E8FBBCE70BB2002B0ADA9B
:105150003C4B187806F0B0FA002801D006F05CFA53
:1051600080200002DBE70224214206D0304B0120E0
:105170001A72FFF78DFE2000D1E7082001421BD0F4
:10518000FFF776FA294B2A492A4C98684A68637ACD
:10519000821ADB039A4202D34860FEF79BFCFFF7BA
:1051A00019F9FFF7DDF800F0FDFB2368DB0701D5F7
:1051B000FEF7A2FF0820B2E710230E001E4019429E
:1051C00009D0FEF72BFD184B1B78002B01D1FEF701
:1051D000D9FD1020A3E70124214209D01A4800F08C
:1051E00081F806F089FA3100092005F035F8C2E7A8
:1051F0008024A40021420ED004F0FAFE0028BAD088
:10520000094B1B78002BB6D02622094B0F485A7247
:10521000FFF726FDAFE7042408002040214200D11B
:105220007EE7FEF791FEA6E72264FF1F1062FF1FD4
:10523000F461FF1F0462FF1F0062FF1FE861FF1F90
:105240005142FF1F2062FF1F3442FF1FC4090000AC
:10525000F0B51A4B1A4F1B883A880400194E1A4DA4
:1052600085B09A420DD832889A420AD3174B1A88D1
:105270002B889A4205D1164A164B12881B889A42EF
:105280001AD0052001F070F83B8802A90B80338802
:1052900001904B802B88104D8B800E4B2A781B88F9
:1052A000CB800E4B188802F091FD0D4B0821287819
:1052B000019A1C7006F080F905B0F0BDEE63FF1F87
:1052C0004642FF1F4442FF1F4242FF1FEC63FF1F85
:1052D000EA63FF1F4042FF1F4A64FF1F4842FF1F4F
:1052E000E863FF1F13B50C4B1C78002C11D100286C
:1052F00001D00A4B18600A4A0A4B11780A4A107802
:105300000A4A01920A4A0092002205F005F920009B
:1053100016BD1124FBE7C0464964FF1FE463FF1F6D
:105320004864FF1F3864FF1F4A64FF1F2464FF1F87
:105330002864FF1F10B5064B12201B78052B06D1E1
:10534000044B13221988044B187801F0E9F910BDB9
:105350004964FF1F4842FF1F4A64FF1F10B5002425
:105360000122114B52421870104B1C70104B1A80C6
:1053700001F080FF04220F4B21001A700E480C32FE
:1053800006F072FA102221000C4806F06DFA07228E
:105390000B4B1C600B4B1C700B4B1C700B4B1A7097
:1053A0000B4B1C7010BDC0464A64FF1F4964FF1FB1
:1053B0004842FF1F4864FF1F3864FF1F2864FF1F17
:1053C0002464FF1FFE63FF1FFD63FF1F4A42FF1F90
:1053D000FC63FF1FF8B5174C0600257806A81424B7
:1053E0000078052D23D1B41F134FA5B21824BD4258
:1053F0001DD88D1FADB2BD4219D8FA256D00AA4245
:1054000015D21D000D4F0A3DADB2BD420FD80C4C58
:1054100026800C4C21800C4900240A800B4A138002
:10542000FFF716FF0A4B0421187806F06DF82000EC
:10543000F8BDC0464964FF1F790C0000750C0000E0
:105440004642FF1F4442FF1F4242FF1F4042FF1FD0
:105450004A64FF1FF0B50BB20D0089B0002B00DBD2
:1054600070E1A44E307806F027F9041E50D003787E
:10547000A22B00D122E1D02B1AD0912B45D1437819
:105480000E2B42D19C4B82889A423ED19B4B1B787B
:10549000052B3AD18368032018567F2835D0984BC6
:1054A0001B68002B31D05B68002B2ED098472CE076
:1054B0008078072829D806F077F90428183F3F7428
:1054C000A8D86378002B0CD101218C4B19708D4B1F
:1054D0001A78002A5BD08C4B307801F031FD00281F
:1054E00055D00722854B1A7051E061780029F8D118
:1054F000E378002B11D0854A854B1278307801F083
:105500001FFD60706378002BEBD1200006F084F85B
:1055100080200002684009B0F0BD784B1B78022B58
:10552000F3D00121307806F037F90028EAD10121C3
:10553000307806F059FAE5E76378002BD1D16F4F48
:10554000032807D13B78052B02D101333B701EE0C5
:105550000223FBE76F4B1A886F4B0293002A0BD094
:105560001B78002B03D00121307806F025F83B781A
:10557000062B04D1013BE9E7029B1A70F7E7042BE5
:1055800041D10121029B3078197006F02DFA5C4B55
:105590001B68002BB9D01B68002BB6D0574A107877
:1055A00084E76378554F002B27D10622211D5B48E5
:1055B00005F05AFF62895A4B5A491A80A2895A4B00
:1055C0001A80E3890B800521397058490A80584AAE
:1055D0001380228A574B1A80574B1B78012B09D115
:1055E0001F2000F0C1FEFA229200424304213078CD
:1055F00005F0E2FF0022484B75E7312B00D070E741
:105600000022454B1A700323A0E7062200214348DD
:1056100006F02AF90023454A04211380444A3078D1
:105620001380444A138005F06FFF0821307805F09D
:105630006BFFA379083B5A425341304A033313703E
:10564000304B1B78002B06D0334B30781A78002A69
:1056500006D001F0B3FC0122314B52421A8096E78A
:105660000121197006F0C0F9F5E70821307805F03E
:105670004BFF6378002B00D047E72C4B2D4F029354
:10568000E388029A04211380294B307803932389FD
:10569000039A138063893B8006F07EF8002800D0CF
:1056A00033E7264B1B68002B00D12EE703990298A5
:1056B0003A88098800881B68984726E74379132BA6
:1056C00000D022E70389012B0AD11D4B1B78022B46
:1056D00006D10821307805F017FFFFF72BFE14E7FD
:1056E000052000F041FE08210200307805F064FF3B
:1056F0000BE7C0464A64FF1F051400004964FF1F02
:10570000E463FF1F7042FF1F5142FF1F1E64FF1F13
:10571000FF63FF1F2064FF1F2264FF1FF163FF1F51
:105720004842FF1FF863FF1FFA63FF1FEE63FF1F6E
:10573000EC63FF1FEA63FF1FF063FF1FE063FF1FBF
:10574000E863FF1F8020C001014200D0E2E6CB07E2
:1057500031D5324B1B78002B1DD0314E05AC337840
:10576000052B1AD1023B23702E4B21001B7823728C
:105770002D4B1B7863722D4B187801F085FB0028A8
:1057800009D007202A4B30701B68002B03D01B6800
:10579000002B00D098470120BCE60E20254B0622A6
:1057A0001B7825492370254B1B78637002ABC0180A
:1057B00005F05AFED8E7022308001840194209D024
:1057C000174B1B78052B03D11D4B188805F0D4FE11
:1057D00002209FE60424214203D0FFF739FD200078
:1057E00098E6082308001840194200D193E6154BAB
:1057F0001C78012C03D0022C0DD008208AE6124B15
:10580000124A134913481B8812880988008800949B
:10581000FFF7E0FDF1E7FFF78DFDEEE72264FF1FE4
:105820004964FF1F4A42FF1FFC63FF1F4A64FF1FBA
:10583000E463FF1FFE63FF1F4B42FF1FFD63FF1F5B
:105840004842FF1FE863FF1F4042FF1F4242FF1F05
:105850004442FF1F4642FF1F10B502A804880B20D8
:10586000002C10D1496808784978090201430C4896
:10587000814209D1022119800A4B59881170DB78C5
:1058800000205BB2537010BD074C0A20A142FAD130
:1058900002211980034B998811705B79F0E7C046AB
:1058A0006E2A0000E861FF1F6F2A0000F7B515009F
:1058B00008AA16884A680F4F1478527812022243B9
:1058C0000A24BA4214D10122DBB2019200962A00C6
:1058D00005F024FD041E0BD1074B1B68002B07D0DD
:1058E00068782A78000210434242504101309847BC
:1058F0002000FEBD022900005C64FF1F30B50125B9
:1059000003790400BFB02B4225D01449408805F02C
:1059100075F828420CD0124B01A95B8D60880B8072
:1059200002234B800F4B00225B888B8002F044F9EE
:105930000D49608805F062F8C0070CD50B4B01A932
:105940001B8800220B8002234B80064B9B888B8098
:10595000608802F031F93FB030BDC0465464FF1F8B
:105960007442FF1FE861FF1F4C64FF1FCE42FF1F00
:1059700010B50749074804F0F7FF0749054804F048
:10598000F3FF0721054A064804F0B0FF10BDC046EA
:105990005464FF1FFFFF00004C64FF1F90BB001109
:1059A0007442FF1F10B5024802F08AFF10BDC046C6
:1059B000FD5800110200F0B501270A480A4E51189F
:1059C0008B1A002B00DCF0BD0824157843086840D2
:1059D00038404000805B013C58406D08002CF5D1F8
:1059E0000132EDE7FFFF0000AABB0011F0B5002572
:1059F0000F269D4200DBF0BD4C5D0709444034405A
:105A0000A400A05801357840F3E7000070B50C0001
:105A100088B06B460F2610340A7801311500120940
:105A200035401D705A700233A142F5D120236946DA
:105A3000024AFFF7DBFF08B070BDC046B0BB0011E3
:105A4000F0B54E780B7889B036020C001700019043
:105A50001E43012A61D9954B9E4200D877E001335D
:105A60009E421CD1062A17D1CA788B7812021A439B
:105A70000B791B0413434A7912061A438C4B5A6163
:105A800000221A705A808B4A5A608B4A9A608B4A5D
:105A9000DA60002009B0F0BD88225205EEE7884B9D
:105AA0009E423CD182498B78002B00D0F6E00C2A34
:105AB00031D10F22A3789343E27812021343227963
:105AC000120413436279120613434B60E279A07902
:105AD00012020243207A00041043627A1206024343
:105AE000CA60E27AA07A1202024376484A8183426F
:105AF00008D804236E49142201980B7005F0B4FCF9
:105B00001420C7E71201D21889235B059A42F0D806
:105B100001238B70BDE7022AFAD00523EAE76A4A1F
:105B200001239642E6D1FFF705FC052F0CD9E37857
:105B3000A2781B021343227912041A4363791B06CD
:105B40001343624A0393136005F01EFFA1E7584D0B
:105B50002B78002B9DD1AB78002B00D1A0E02B89B6
:105B600001339BB20093B34200D091E0132AD4D901
:105B7000CF7C8B7C3F02122120001F43FFF71AFFCE
:105B8000874200D08EE0002E3DD1E378A2781B0240
:105B900013432279E96812041A4363791B061343FD
:105BA00003930A228B4212D1FF23A370E370237167
:105BB00063716B89002B09D1E37B227C1B021204E9
:105BC0001343A27B13431B0901336B8100226B89B2
:105BD000002B8ED0002A67D1686837013818000B77
:105BE0006B6900030390984205D9686105F084FE53
:105BF000EB780133EB7068681022A11C381805F0AF
:105C0000EBFE2E8145E76F89009A7B1E9BB2934283
:105C10003AD1E278A37812021A43237905A81B042B
:105C2000134362796C6812061A43EB680092039280
:105C3000211D0C22049305F017FC0120260004A965
:105C400040421036FFF7E2FE013F012F17D1009AC4
:105C50000B232861824200D04CE704221C4920001B
:105C600005F0BAFE042203A9686805F055FDE9684D
:105C7000039AFF23914200D13CE7F73B3AE731001A
:105C8000FFF7C4FE1036DFE70923B742A4D831E797
:105C9000009BB34200D9FCE607232BE7022329E748
:105CA000032327E7062325E70A2323E7FFFE000057
:105CB000E842FF1F00000111FFFF00005048593665
:105CC00001FF0000FFFF001102FF000034F0004060
:105CD000F442FF1F10B5034C0B000122210000F01D
:105CE0006BFA10BD955E00110B8870B506000D00B3
:105CF0000224162B11D92B000322094900F05CFA6B
:105D0000041E0AD1074B2A881B88191C934200D90C
:105D1000111C300089B200F0EDFA200070BDC046C1
:105D2000C15E00117264FF1F10B54A780400013A89
:105D30000B000220012A07D80A78002A04D0052285
:105D40002000024900F038FA10BDC046EF5E001195
:105D50000A7810B50B0004000220002A04D00722A4
:105D60002000024900F028FA10BDC0469B5F0011D8
:105D70000A7810B50B0004000220002A04D0092282
:105D80002000024900F018FA10BDC0460160001161
:105D900010B5034C0B000B22210000F00DFA10BDD2
:105DA0003160001110B5034C0B000D22210000F0F2
:105DB00003FA10BDA360001110B5034C0B000F22B5
:105DC000210000F0F9F910BDFD6000110A7810B54E
:105DD0000B0004000220002A04D0112220000249F6
:105DE00000F0EAF910BDC0460D610011002310B5A6
:105DF0001322190000F0E0F910BD000010B5034CAB
:105E00000B001722210000F0D7F910BD5F610011CF
:105E1000002310B51922190000F0CEF910BD0000C2
:105E200010B5034C0B001B22210000F0C5F910BD7A
:105E300099610011F7B584890D0006000121002C3D
:105E400022D000238268D3561778002B1EDA0C2C40
:105E50001AD90C3CA4B2131940880093230002F015
:105E600090FE431E984101307B06DB0F6B703F2391
:105E7000013C1F40A4B22870AF70AC80002C07D04A
:105E8000B3680133AB6000210800FEBD0020EBE7E2
:105E9000AC60F8E70B7803704B8843704B881B0AA3
:105EA00083700B79C370042070470420022B06D145
:105EB0000020537811781B02009A0B43138070471F
:105EC0000B8803700B881B0A437002207047042064
:105ED000009983420AD1537810781B0203430B8048
:105EE000D37890781B02034300204B807047F8B5AD
:105EF0000D004B7801240021461C03702B788B4247
:105F000001D82000F8BD6B78B01C4F1C012B10D1BC
:105F1000890069184B88022233704B88B9001B0A2C
:105F20007370691805F0B8FA04360434A4B2F9B2F3
:105F3000E4E7122359436B185A88043132705B88A6
:105F400010221B0A7370691805F0A6FA1236123473
:105F5000ECE770B5049D14001E00052B01D8042049
:105F600070BD637812781B0213432B80E378A2780C
:105F70001B02134302226B802A71211D681D063EFD
:105F800005F08AFAB2B22A81E92AE8D82800A11DD0
:105F90000A3005F081FA0020E2E7002310B50A7804
:105FA0009A4201D8900010BD9A008A185488013393
:105FB00004705488DBB2240A4470948884709288F8
:105FC000120AC2700430EAE710B51100029C062BD9
:105FD00004D004201022142B01D010BD0222227103
:105FE0004B7808781B0203432380CB7888781B0208
:105FF000034363800431601D05F04EFA0020ECE796
:1060000010B50C788B7804315C43E4B20370220045
:10601000013005F041FA601C10BD0420022B06D1AE
:106020000020537811781B02009A0B4313807047AD
:1060300010B50C000A88023105F02EFA208810BD38
:1060400070B504000D0004981100012B01D8042044
:1060500070BD167852781202324302800200F1328B
:1060600055701470E125002C00D10C35023B9AB21A
:106070004280AA42EBD80231043005F00DFA00202C
:10608000E6E70420009983420AD1537810781B0276
:1060900003430B80D37890781B02034300204B808E
:1060A000704710B50C000A88023105F0F5F9208818
:1060B00010BD000070B501211E000420049C0E409C
:1060C0000B4218D1CB40DDB28D4214D90A49DBB264
:1060D000098899420FD32300EE331D703300580016
:1060E00011184978165C0902314301332152D9B2A3
:1060F0008D42F4D8002070BD0043FF1F10B50C0086
:106100000A88023105F0C8F9208810BD10B50C7856
:106110008B7804315C43E4B203702200013005F057
:10612000BBF9601C10BD10B511000298032B01D8FB
:10613000042010BD14785278043B120222430280DE
:10614000CA788C781202224342809AB28280EB2A6B
:10615000EED80431063005F09FF90020E9E710B5CC
:106160000C000B8803700B881B0A43704B888370EC
:106170004B881B0AC3708A880430063105F08CF9FD
:10618000A088043080B210BD0420012B03D1002070
:106190001378009A1370704710B50C000B880370C9
:1061A0000B881B0A43704A880230043105F074F9E9
:1061B0006088023080B210BDF0B589B003931D4BEA
:1061C000029242000700D05A019102F022F81325F2
:1061D000061E2CD0029B01240370019B002B04D0CF
:1061E000001903999847001984B26B461B7A5BB279
:1061F000002B0FDA1021380002F01CFB19250028B3
:1062000012D130003219E1B202F070FC051E0BD140
:106210000C34A4B2042305A938000B800C814E6015
:1062200001F0B2FD051E02D0300005F015F928007E
:1062300009B0F0BD7064FF1F70B505000C000028A8
:106240000CD00020814209D010222000044905F022
:1062500023F901202B7823736B78637370BDC046DC
:10626000F0BB0011F0B506000D0017001C0085B052
:1062700002291BD00020102907D1022B07D0102B98
:1062800003D115E00020102C08D005B0F0BD694600
:106290003800FFF7D1FF2A0069460BE0694630005D
:1062A000FFF7CAFF22006946380004E0022BE9D15B
:1062B0002A003900300005F0B7F9E6E7031CF028A2
:1062C00000D9F023032008499AB2013A0B80D31772
:1062D000034006499B189B100B80D30F04499B1861
:1062E0005B100B807047C0460443FF1F0243FF1F33
:1062F0000043FF1F034B1B888B4202D3024B40001D
:10630000C15270470443FF1F7064FF1F014B4000E0
:10631000185A70477064FF1F1722014B1A8070478C
:106320007064FF1F70B505000E2005F0B5F9041E5E
:1063300013D0D023037000230622837007494570D1
:10634000033005F0A9F8064B2100DA8A62811B7E32
:106350002373044B187805F03FFA70BD8C64FF1F5F
:106360007C64FF1F5443FF1F262803D8024B4000C4
:10637000C05A70470148FCE70643FF1FFFFF0000BB
:1063800070B506000C00094D1C220021280005F004
:106390006BFA074B1E70074B1C7005F095F8012334
:1063A000002801D0002312202B7070BD7C64FF1FD9
:1063B0005443FF1F9D64FF1F70B505000D4C08007E
:1063C000E260A16010220021656005F0F5FA012865
:1063D00003D11021A06802F061FD102200212800E5
:1063E00005F0EAFA012803D11021606802F056FD99
:1063F00070BDC0467C64FF1F70B5041E05D1002926
:1064000003D006220D4805F047F80D4B1D78012DED
:1064100011D1002C05D102221A7005F075FA28005E
:1064200070BD00221A70074B1B78FF2BF7D020009D
:10643000FFF778FFF3E70025F1E7C0468C64FF1F04
:106440007C64FF1F5443FF1F030010B5002801D1D7
:10645000002010BD00780B4A002803D15988D18252
:106460001B7913761378022BF2D10023984200D1C6
:1064700003331370044B1B78FF2B01D0FFF752FF3F
:106480000120E6E77C64FF1F5443FF1F002911D061
:1064900000280CD04B79012803D1402252421343EB
:1064A00003E03F221340032802D001204B717047C4
:1064B0004022F4E70800FAE770B5094D010028789A
:1064C00000280BD0074C0622200004F0E5FF210035
:1064D0002878FFF7DBFF200005F0D6F970BDC04635
:1064E0009C64FF1F7664FF1F00290AD0012808D191
:1064F0003F224B799343C02B03D0403B5A42534138
:10650000981C704770B5174D06002B78FF2B15D0DF
:106510000A2005F0C1F8041E10D0D0230370C83B38
:106520008370114B11491B784670C37006220430EA
:1065300004F0B2FF2100287805F04EF90C4B1B78CF
:10654000012B0DD10B4B1B68002B03D09B68002B3C
:1065500000D09847084B04211878084A05F04CFAF7
:1065600070BDC0465443FF1F9C64FF1F7664FF1F2D
:106570009864FF1FC464FF1FC864FF1F60EA000027
:10658000014B98687047C0467C64FF1F014BDB6875
:10659000186870477C64FF1F074B10B5DA681368F2
:1065A00001331360054B1878FF2803D08021C901FF
:1065B00005F01AFA10BDC0467C64FF1F5443FF1F4C
:1065C000F7B50E0002F0CAF8051E1CD00E4B06628D
:1065D0001F78002F00D10778AB791020019305F0C8
:1065E0005BF8041E0FD0D0230380C73B8370019B50
:1065F000E91DC3700622043004F04EFF210038006C
:10660000E66005F0E9F8F7BD5243FF1F014B18782B
:106610007047C0469C64FF1F054B002805D1054B01
:106620001A78054B002A00D1014B18007047C0466C
:106630008C64FF1F9C64FF1F7664FF1F014B58682A
:106640007047C0467C64FF1F024B1868431E984188
:10665000C0B27047A064FF1F421E03000120152A2C
:1066600003D9FF3B5A425341D8B27047F0B51C00E2
:1066700000230E0085B0039002920B70029A9342A1
:1066800001D3002019E0E55C5A1CD2B2002DF8D0ED
:10669000029851198142F4DC0233DFB2A35C180086
:1066A0000193FFF7D9FF002807D0013D019A039914
:1066B000EBB233708A4202D1E01905B0F0BDDB19AC
:1066C000DBB2DBE710B50C0002F0A0F803001220EB
:1066D000002B03D02100588804F02EFF10BD0000CD
:1066E00070B50E4D84006359002B15D0186A002830
:1066F00001D005F009F82B59586A002801D005F09F
:1067000003F82B59986A002801D004F0FDFF28599E
:1067100004F0FAFF00232B5170BDC046AC64FF1F8C
:106720001C4B70B504000E00150099420AD11A4B9B
:106730001B68002B01D1122070BD1B68002BFAD002
:106740009847F9E7154B994215D1134B1B68002B5D
:106750000AD01B68002B07D09847002804D1104BA3
:106760001C70104B1D70E7E729002000FFF7AAFFFF
:106770000028E1D1F3E7080001F0F0FF0028DAD0AB
:1067800003780320A342D7D12900300004F0D4FEBF
:10679000D2E7C046FEFF0000A864FF1FFFFF000015
:1067A000A564FF1FA464FF1FF7B50400808801F0F3
:1067B000D5FF0025A84203D00578A08802F00AF88A
:1067C0001C4E3378002B1FD0AB421DD11A4B280032
:1067D0001978FFF777FF002818D000233370A379CA
:1067E0000820A778A688019304F056FF011E0DD05B
:1067F000D0230370CA3B8370019B477086808371EE
:10680000280004F0E9FF01E0002DE8D1A0880B4B3F
:106810008200D358002B01D0FFF762FF1721A08818
:10682000FFF768FDA08801F02BFDA08801F002FEB3
:10683000F7BDC046A564FF1FA464FF1FAC64FF1F23
:10684000F0B587B01D000CAB1B88070001930DABA2
:106850001B88142002930EAB1B88160003930FAB0A
:106860001B880091049310AB1B88059304F014FF60
:10687000041E1AD0D0230370CB3B47708370C670C0
:10688000062229000430002D11D004F005FE019BE2
:1068900021006381029B0098A381039BE381049BF9
:1068A0002382059BA37404F097FF07B0F0BD04F0AA
:1068B000DBFFECE7F7B5009308AB1B8807000C2063
:1068C0000D001600019304F0E7FE041E13D028000B
:1068D00001F044FF00280FD00078D0232370C93B7B
:1068E000A370009B21002381019B6770A580E68037
:1068F000638104F071FFF7BD014B1878EDE7C046E6
:106900005443FF1F13B5040064890389C28881883A
:10691000C0780094FFF7CEFF13BD000010B5044C03
:106920002068002803D004F0EFFE0023236010BD90
:10693000B064FF1FA122F0B5818892004A43384B12
:10694000384F1B6889B09B189D2292009B18827952
:1069500004001A603B68002B5FD01D78324B1B6827
:10696000002B04D05B68002B01D000209847260044
:1069700008363100E079FFF7B7FD237DE0710200B2
:10698000E0780493638A29000393238A0293E389BE
:106990000193A38800933300FFF752FFE378002BA5
:1069A0000BD1E289A379A18802920196E2792800AD
:1069B0000092012201F0DCFEE0703B68002B20D049
:1069C000FFF7ACFF194D287800281AD0184B19781A
:1069D000FFF778FE002814D02B780820A788E678E7
:1069E000079304F059FE011E09D0D0230370CA3B5F
:1069F0004670837087808671079804F0EDFE00234F
:106A00002B701721A088FFF775FCA08801F038FCD7
:106A1000A08801F00FFD09B0F0BD064B9DE7C04610
:106A20003409FF1FB064FF1FC464FF1FA564FF1F6C
:106A3000A464FF1F5443FF1FF8B5070008000E00B1
:106A400001F08CFE041E18D02620FFF78DFC051ED9
:106A500000D12578062004F01FFE041E0DD0002171
:106A6000062204F001FFD0232370C23B210067708F
:106A7000A370A680E8B204F0AFFEF8BDF0B585B013
:106A800001930AAB1B78070002930BAB1B7808003D
:106A90000D000092039301F061FE061E22D010202B
:106AA00004F0FAFD041E1DD01022002104F0DCFECB
:106AB0002620FFF759FC002800D13078D02323701E
:106AC000C13BA370009B21002372019B677063721E
:106AD000029BA580A372039BC0B2E3720C9BE36090
:106AE00004F07AFE05B0F0BDF7B50D00019001F09D
:106AF00035FE071E1FD00E2004F0CEFD041E1AD056
:106B00002620FFF731FC061E00D13E78D0232380DB
:106B1000C53BA370F91D0622E01C04F0BDFC019BDF
:106B20002100638101232B40AD07ED0F23736573B3
:106B3000F0B204F051FEF7BDF0B585B00290100040
:106B40000D0017000A9E039301F008FE041E31D0C9
:106B5000029B002B2ED1039B02795B0724D51223C5
:106B600013430422002E08D10B99002905D10C995A
:106B7000002902D10D9900291AD01A430D9B2271C8
:106B8000002B00D0C9E0002E00D1CFE0002D00D0B6
:106B9000CCE0606A002801D004F0B6FD1C21300072
:106BA00004F01AFD606205E002239A430E33D7E732
:106BB00093432371654BBA00D458002C00D1AAE04E
:106BC000002E10D0236A002B03D11C2004F04CFDB2
:106BD00020625E4BBA00D358186A002803D01C22EA
:106BE000310004F059FC0C9B002B12D0574CBB0019
:106BF0001D596B6A002B03D1162004F035FD686225
:106C0000BB00E358586A002803D016220C9904F000
:106C100043FC0D9B002B11D04C4DBC006659B36A50
:106C2000002B03D1142004F01FFDB0622B59986A89
:106C3000002803D014220D9904F02EFC380001F036
:106C40008DFD051E67D0414BBA00D358002B62D092
:106C50001A6A3420002A00D11C389A6A002A01D00E
:106C6000143080B20B9A002A01D01C3080B25B6ACB
:106C7000002B01D0163080B204F00EFD041E4AD065
:106C80001822002104F0F0FD2620FFF76DFB019093
:106C9000002801D12B780193D0232370029B200080
:106CA00063700A23294EA370039BBD00A371AB59E7
:106CB000A780196A1830002905D01C22A06004F0B2
:106CC000EBFB200034307359996A002907D0030088
:106CD00014221433E060029304F0DEFB02980B9B55
:106CE000002B08D003001C221C330B992061029357
:106CF00004F0D2FB02987359596A002903D0162276
:106D0000606104F0C9FB6B462100187904F064FD52
:106D10003800FFF7E5FC05B0F0BD10220D9B0D9982
:106D20001B69A018236204F0B7FB2CE70B9B002B18
:106D300000D13FE7012D00D03CE7606A002801D078
:106D400004F0E2FC1C210B982AE7C046AC64FF1F4C
:106D500010B5044C2068002803D004F0D5FC0023B3
:106D6000236010BDA064FF1F0B4B07B51A68002AF3
:106D700001D100200EBD6946531C01201278073155
:106D8000FFF774FC0028F4D00278012310001840AB
:106D90001A42EED0EEE7C046BC64FF1FF0B51F4FAD
:106DA00001203B6887B0002B25D09B78059300F02D
:106DB000B3FB002821D00A20FFF7D6FA04000B20ED
:106DC000FFF7D2FA164B05001E78731E9E413B68F2
:106DD000F6B2191DD878FFF759FB3B682900DA7A1B
:106DE000043303929A7901930292009033002000B9
:106DF000059A04F091FB07B0F0BDFFF7B5FF00283E
:106E000005D00620FFF7B0FA04000720D8E70820D5
:106E1000FFF7AAFA04000920D2E7C046A064FF1FCA
:106E20009C64FF1F70B50A4E040033780D00FF2BE1
:106E30000DD0042004F030FC011E08D0D0230370D4
:106E4000CE3B45708370C470307804F0C5FC70BDD3
:106E50006443FF1F70B5040006200D0004F01CFC05
:106E6000011E0AD0D0230370CD3B8370054B4470C4
:106E70001B688580187804F0AFFC002C01D0FFF768
:106E800067FF70BDA064FF1FF8B5264F06003B6882
:106E90000D001124002B05D10522234B1B78134232
:106EA00002D112242000F8BD204A10241268002AC2
:106EB000F8D01278002AF5D0DB0719D52B789A1E66
:106EC000012A1AD80C2004F0CFFB132438600028C4
:106ED000E8D000230A22437029000670023004F033
:106EE000DBFAFFF75BFF041E0AD0FFF731FFD9E79B
:106EF00000F012FB0028E1D1E4E7002BE2D0D0E75C
:106F00000B4B1B78032BCDD11D20FFF72DFA094B1E
:106F100018800028C6D0084B04211878074A04F0CE
:106F20006BFDBFE7A064FF1F9D64FF1FBC64FF1FD4
:106F30009C64FF1F9A64FF1FC864FF1F60EA000083
:106F4000F7B50193194B14001A78052306000F00BA
:106F500012201A4221D0012920D1154B1D68002D85
:106F60001BD002201F2C18D8002C02D0019B002B14
:106F700013D0104B1F221E706E1C0021300004F035
:106F800073FC01992200300004F086FA31002000E1
:106F90002C70002F06D004F0F7FBFEBD064B12202C
:106FA0001D68DCE704F020FAF7E7C0469D64FF1F88
:106FB000BC64FF1F6443FF1FB864FF1FF8B50F4E8A
:106FC00012243368002B17D01B780F3C834213D157
:106FD00000250B4F0221387804F096FA094B042162
:106FE00038781D8004F090FA074B28001D80336824
:106FF0005C7004F011FC04002000F8BDA064FF1FC9
:10700000C864FF1FB464FF1F9A64FF1F70B5012896
:1070100023D11B4C2388002B03D01A4A1578002D4E
:1070200007D0194B1B68002B02D01878FFF7C6FF5A
:1070300070BD3B2B02D93C3B2380F9E7134E022164
:10704000307804F061FAFA222388920002215A4330
:10705000307804F0B1FA2580EAE70B4B1B68002B6F
:10706000E6D00B4B1B785B07E2D5084B0221187862
:1070700004F04AFA0022024B1A80FFF769FED7E7B4
:10708000B464FF1F9864FF1FA064FF1FC864FF1F44
:107090009D64FF1FF8B51E4D2868002803D004F03A
:1070A00033FB00232B601B4E3068002803D004F014
:1070B0002BFB00233360184F05243B781800204039
:1070C000234221D0154800F02BFA3B78234213D0FD
:1070D000202004F0C9FA2860002813D020220021C3
:1070E00004F0C2FB202004F0BFFA041E306005D07B
:1070F0002022002104F0B8FB002004E0286804F0FE
:1071000003FB2C601320F8BD00F00AFAF4E7C04638
:10711000BC64FF1FB864FF1F9D64FF1F5843FF1F1F
:1071200010B50A4C23681A1E0ED0002808D1013071
:10713000587004F071FB002805D02368002B02D0A2
:107140000021FFF787FE0122100010BDA064FF1F81
:10715000F7B5274E050033680191181E21D05C78E1
:10716000244F012C30D1FFF7FFFD002825D020004F
:10717000FFF7FAF80400412814D91F4B02211878B0
:107180001E4A04F039FC1E4B3C3C1C800222336832
:107190005A703B78002B14D128000199FFF75AFE52
:1071A0000120FEBDFA2292004243002AEED0124B8B
:1071B0000221187804F000FAE8E7FFF7D5F802009A
:1071C000F3E700233B70EBE73B78002BE8D103208B
:1071D00004F062FA011E08D0D0230370CC3B457046
:1071E00083703368187804F0F7FAFFF7B1FDD7E73A
:1071F000A064FF1F9864FF1FC864FF1F60EA0000BF
:10720000B464FF1F10B51749838802008B4220D059
:1072100011D815498B4217D0144900205B1899B238
:10722000012907D8926811785A425341D8B2FFF722
:10723000F9FD012010BD0E4A00209B1807229BB2C9
:107240009A424041C0B2F5E783681878FFF768FFBB
:10725000F0E7836899785A78090218781143FFF7A4
:1072600077FFE7E70A20000006200000F8DFFFFFB5
:10727000AFDFFFFF014B18707047C0466543FF1F2B
:1072800010B5064C207001F045FA207804F02CFA75
:107290000521207800F068FD10BDC046C864FF1FBE
:1072A0000BB273B50D00002B00DBC4E0884B1878DF
:1072B00004F002FA041E0ED00378912B0FD0A22BFB
:1072C00000D1A1E0834B1878FF2852D0210004F0B0
:1072D00083FA00284DD180200002684076BD4378B3
:1072E0000F2B76D013D8052B70D00E2BEAD18088C7
:1072F000794B98422BD8794B98421BD8784B9842BF
:10730000E0D1A3681878591CFFF776F838E03E2BD7
:10731000D8D18378032B74D06CD8012B6ED0022B7C
:10732000D0D1704B1B68002B23D05B68002B20D082
:1073300098471EE06C4BC0180C28C3D804F0DCF84A
:107340001DC2C2150BC20B0B0B3223C23C00674B94
:10735000C0180728B6D8664B1B68002B09D01B68DD
:10736000002B06D0200098470AE0A3681878FFF7A2
:10737000C9F8200004F050F9ADE7A068FFF764F801
:1073800000289FD0F5E7A3681B78002BF1D0554B60
:107390001B68002BEDD01B68002BEAD0210055485C
:1073A0009847EDE74F4B1B68002BE2D01B68002B82
:1073B000DFD021005048F3E7504B1B68002BD8D09A
:1073C0005B68002BD5D021004348E9E7FFF7ECF9D3
:1073D000CFE780884A4B984203D04A4B984200D06E
:1073E00070E7464B1B68002BC3D05B68002BC0D0F6
:1073F0002100D5E7153B012BBBD963E7FFF79AFACC
:10740000B7E7FFF77FFAB4E73F4B1B78042B07D1B0
:1074100000236A4613800179408800F0CBFCA8E77E
:10742000364B1B68002BA4D05B68002BA1D0010059
:10743000364898479DE7012421420AD0294B1B6812
:10744000002B04D05B68002B01D00020984701205E
:1074500043E78B070AD5264B1B68002B04D05B68DB
:10746000002B01D020009847022036E70421280095
:1074700008400D4200D131E7254E3388002B21D042
:10748000013B9BB23380002B1AD1FFF7DDF80028B7
:107490000AD0204B1C70164B1B68002B04D05B6875
:1074A000002B01D020009847FFF7C8F8694601F08B
:1074B0000CFD6846FFF700F81D20FEF755FF3080F1
:1074C00004200AE7024B187804F01EF8F8E7C046DB
:1074D000C864FF1F6543FF1F0E200000012000004D
:1074E00009100000C064FF1FFEDFFFFFAFDFFFFFDA
:1074F000C464FF1F0C2000000B200000A864FF1FC5
:107500000D200000132000009D64FF1FFFFF0000FE
:107510009A64FF1F9864FF1F10B501F09FF910BD1A
:10752000014B18607047C046C464FF1F0B880020E1
:10753000162B01D817230420014A13807047C04638
:107540007264FF1F00207047074A030011888142C0
:1075500007D091880020994202D101308000101894
:1075600070470020FAE7C046D064FF1FF0B58F785F
:1075700006000D00C5B01E2F15D1FFF7E5FF051E53
:1075800003D10024200045B0F0BD00223B003100B3
:10759000C078009200F0B8FB0400A81C00F0D8FBF3
:1075A000FF23EB70EEE7264B062403931B78FF2B9B
:1075B000E8D0182FE6D87B08224A013BDB00029274
:1075C0009A589446002ADDD0029AD3185B68002BA3
:1075D000D8D00878002802D14B78012B02D106249C
:1075E000122FCFD107AFAB88697800976446AA689D
:1075F000A047041EC6D1AB78029A5B08013BDB00B2
:10760000D318390030005B689847041E0BD1AB7863
:10761000042BB6D0039A310010782200009700F0B6
:1076200073FB0400AEE76A78002AABD1AA7805A9FB
:107630003B88087130000A704B80FEF74BFBA0E7D7
:107640006843FF1F00BC00111D4B37B50500984271
:107650000BD000290AD1FFF777FF002805D1194880
:10766000FFF772FF002800D0058037BD01291AD12D
:10767000FFF76AFF041EF8D001235B420380A37862
:10768000FF2BF2D0FE2B07D00023E07814220093CA
:1076900029001E3300F038FBA01C00F059FB012329
:1076A0005B426380E1E70229DFD1013901F0C2F8D2
:1076B0000028DAD12800FFF747FF041EDFD1D4E706
:1076C000FEFF0000FFFF0000022210B5074B5242F0
:1076D0001A80074801325A809A80DA8000F084FAD2
:1076E000044801F029F8002010BDC046D064FF1FF7
:1076F0006D750011497600110388F7B50400002B61
:1077000002D102252800FEBD4268022113782548D7
:107710005268FEF7A7FD00282ED0234F01253A8896
:10772000002AEFD0802321885B0201259B1A994211
:10773000E8DC0C2003F098FF061E31D03B8822883D
:107740009C4600231800019561469DB2491989B2F3
:10775000AA421BD8002801D062443A80002330009E
:10776000082208C0210003F097FE104A1368002B7E
:1077700013D100251660C5E76268022113780C4812
:107780005268FEF76FFD0028C7D1BAE760681D0197
:107790004019418101330198D6E71A001B68E6E7DA
:1077A0001325AFE76EBC00116643FF1FCC64FF1FBB
:1077B0006CBC0011014B18707047C0466843FF1F36
:1077C00014230A0010B51A40194204D001221021D6
:1077D00001F04CF810BD4B06F9D4C8430223400019
:1077E0001840F7E710B514008B0604D501221021CC
:1077F00001F03CF810BD08230A001A40194202D1DA
:107800004BB2002B0FDA102101F030F8002808D01D
:107810002300F2331B78002BECD0F1342378012BBA
:10782000E8D10020E6E703208907FAD4E2E7000068
:10783000F0B51F00184B85B01C68019002910392AF
:10784000002C27D1200005B0F0BDA5683301ED184C
:107850006B89019A934211D3029A93420ED8002F5A
:1078600004D10A9B002B10D12C00EBE73B002978B8
:10787000039A6868FEF7F6FC0028F2D10136B6B22A
:10788000A388B342E1D82468DAE7A3680A9A5B893F
:107890001380E9E70026F3E7CC64FF1F37B50C003F
:1078A0000A8849880123914217D3002A15D0651D03
:1078B00023792A0002210A48FEF7D4FC102300286D
:1078C0000BD023796188208800242A000094FFF7D8
:1078D000AFFF0A23A04200D0230018003EBDC046DF
:1078E0006EBC001113B50A0008884988012388423C
:1078F0000BD8002809D00024137905320094FFF733
:1079000097FF0A23A04200D02300180016BD13B52C
:107910000A0008884988012388420BD8002809D02A
:107920000024137905320094FFF782FF0A23A04256
:1079300000D02300180016BDF0B58BB003904A8824
:1079400008880E000123824213D3002811D000239F
:10795000012704AC23700022718813000092FFF706
:1079600067FF05002078002D06D122780A23002A1F
:1079700041D118000BB0F0BD002835D12B78022B77
:1079800018D167706A8983000130E31880005A803B
:1079900069680222201803F07FFD23780133DBB2EF
:1079A0002370042B19D93B006889013080B2002B69
:1079B000D1D0DAE702236370122358436A8923186F
:1079C00004305A8069681022201803F065FD23787E
:1079D0000133DBB22370002BE5D10A4A6B899B1877
:1079E0005A425341DBB2DFE76378012BE4D12B78B5
:1079F000022BC7D0B9E721000398FEF795F90023C1
:107A0000B7E7C0460100FFFF0F4BF0B50400186850
:107A1000002816D083685D89A54207D88288AE18F1
:107A2000B44203DA12019A18934201D10068EFE7D9
:107A30001E005F891036A74204D1002900D00D80B6
:107A40001800F0BD3300EFE7CC64FF1F70B50500F0
:107A50000C0008880021FFF7D7FF03000120002B4E
:107A600004D022002800197AFFF7BCFE70BDF7B5DC
:107A70000C00002501902300EE331B78AB4201D8A7
:107A800000200AE06B00E65A00213000E718FFF7FB
:107A9000BBFF002802D126800130FEBD017A01988B
:107AA000FFF78EFE002802D03B882380F5E70135E2
:107AB000EDB2E0E710B5040008880021FFF7A4FF4D
:107AC00003000120002B03D02000197AFFF778FE75
:107AD00010BD0000054B1B68002B01D1180004E00D
:107AE0009A6852898242F6D198887047CC64FF1F09
:107AF000F0B50E27002687B0039302ABFF183E8037
:107B000005001F4B40891400984207D02B780130A4
:107B100000976A6880B2FFF78BFE060002212B787F
:107B200018486A68FEF79EFB00280FD06C89200079
:107B3000FFF7D0FF002802D0013C0419A4B2039B38
:107B4000002B00D01C80300007B0F0BD02212B7844
:107B50000D486A68FEF786FB0028E7D102212B78E2
:107B60000A486A68FEF77EFB002807D0002EDED0A8
:107B70003B88A342DBD17489013CDFE76C89DEE7F7
:107B8000FFFF00006EBC00116CBC00116ABC00114C
:107B900010B50C00FFF7D8FC03000220002B0AD020
:107BA000002C00D023609B781720FE2B03D00138D7
:107BB000FF2B00D1002010BD73B50D0001A90400FA
:107BC0001600FFF7E5FF172805D0002E04D1290085
:107BD0002000FEF725F976BD01221021200000F0DB
:107BE00045FE0028F3D0F6E7014B18607047C04609
:107BF000DC64FF1F37B56B469D1D010004000222A7
:107C0000280003F031FC2B88B02B0ED12379122BE6
:107C100009D12300FA331B78012B06D1012160889A
:107C200000F0E0F801E01B2BF8D037BD10B5054B94
:107C30000421187000F098F8FFF746FDFEF76CFB82
:107C400010BDC046E064FF1F0020F0B50BB20F006E
:107C500087B0834234DA274B187803F02DFD051ED8
:107C60002BD00378A02B25D103AE3100FEF7E2F82C
:107C7000041E0BD1B378DB0724D51F4B06341B68D9
:107C8000002B03D03100688898470400A8680028BA
:107C900001D003F0E1FB002C08D1184A039B1340EC
:107CA000174A934206D0B3781B2B03D00121688872
:107CB00000F098F8280003F0AFFC80200002784024
:107CC00007B0F0BD0F4B1B68002B10D03100688847
:107CD0009847041EDAD07378002BD7D1B27801A967
:107CE0000A704B800C716888FDF7F4FFCEE706241C
:107CF000F1E7C046E064FF1FD864FF1F00FFFF00EC
:107D000000011200DC64FF1FF7B50190FC200D009C
:107D100017001E0003F0C0FC04001320002C12D03A
:107D2000B02320002370089BF422677065802671C1
:107D30000830002B08D0190003F0AEFB2100019899
:107D400003F04AFD0020FEBD089903F08DFDF5E724
:107D500010B5041E06D00078FD2803D803F04CFCB3
:107D6000FF23237010BD00000A1F93B210B504005A
:107D70000220032B05D882400020024BD1529B18D1
:107D80009C7010BD0065FF1F0B8870B5043B04009C
:107D90000D000220032B0BD80121200000F04AFD2A
:107DA00003001420002B03D02900200000F0DEFB8C
:107DB00070BD000007B51300034A00920A000121BC
:107DC00000F02CFC0EBDC046F17F001107B50192FA
:107DD00003220092024B0A00122100F047FC0EBD64
:107DE0006F80001107B56B4601AA11800449D88045
:107DF00008780633012802D1190003F01DFB07BDE6
:107E0000E164FF1F0C4B10B518700023FF210B4AD3
:107E10001380138193819380094A538013705172A8
:107E200093819372D174D3821375517703F024FD3B
:107E300000F0FCF910BDC0461065FF1F0065FF1F74
:107E4000E264FF1FF0B58DB06B46002003910C2259
:107E50009B5E834200DBB1E05D4B187803F02CFCA5
:107E6000051E00D1A5E00378902B00D09EE006AF60
:107E700001004688380000F013FA796804000029F0
:107E800000D19DE03B88052B6FD13B89032B1CD98A
:107E900005AC200000F0A2F86288172A60D8398962
:107EA000131D994231D17968237804310291D907A1
:107EB00038D5607800F08EF9071E06D000230371D4
:107EC0002378012B08D0132B23D0A868002800D1D9
:107ED00079E003F0C1FA76E06288029909A800F01F
:107EE000A6F80290380000F08BF909AA2378387AB6
:107EF0000192002231000092029A00F012F938003B
:107F000000F064F9029B002BDFD0300000F080F914
:107F1000DBE70378032BD8D16288029909A800F027
:107F2000D6F8DEE709AF122B12D13800029900F023
:107F3000B4F8021EE9D127498B88002BC5D0887977
:107F40002378019761780091310000F0EAF8BCE7EE
:107F500000233A003B8061783000FFF72BFFB4E745
:107F60001D4B09AA09936178F6E7042B02D09A1FEA
:107F7000012AAAD8174A043B9B00995A0029A4D089
:107F8000D218907831003A0000F0ADF800289CD16A
:107F90003B88042B03D001213000FFF723FF012C85
:107FA00004D1A868002801D003F056FA280003F095
:107FB00033FB8020039B0002434018000DB0F0BD4E
:107FC000012800D181E701213000FFF70BFFEDE729
:107FD0001065FF1F0065FF1F010017000B7803707D
:107FE0004B784370CB788A781B02134343807047E9
:107FF0000A88030002700A88120A42700A88012A5D
:1080000006D14A8882704A88120AC27004207047DA
:1080100002208242FBD14A8804309A704A88120AB0
:10802000DA708A881A718A88120A5A71EFE710B5D5
:108030000400012082420CD94B780A781B021343BA
:108040002380834206D1CB788A781B021343638056
:10805000002010BD022BFBD1CB788A781B02134382
:1080600063804B790A791B021343A380F0E70B88E6
:1080700003700B881B0A43704B8883704B881B0A64
:10808000C3708B8803718B881B0A4371CB88837103
:10809000CB881B0AC3710820704703000120082AFF
:1080A00014D14A780878120202431A80CA78887874
:1080B000120202435A804A790879120202439A80D6
:1080C000CA798879120202430020DA80704710B51D
:1080D00004000120022A05D100204B780A781B02F7
:1080E0001343238010BDF8B5060010200F001500C3
:1080F00003F0D2FA04000120002C0ED0A0230C22A1
:10810000290023806780201D002D07D003F0C4F9CB
:108110002100300003F060FB0020F8BD03F0A4FB59
:10812000F6E7F7B51E00009008AB142017001D7885
:10813000019103F0B1FA041E12D0A2230370019B37
:1081400047704380099B057146710C220830002B53
:1081500007D0190003F0A0F92100009803F03CFBC0
:10816000F7BD099903F080FBF6E737B5041E0FD081
:108170004388002B0CD00025C1881323007A1722D6
:1081800001950095FFF7CDFFFF2365806372257091
:1081900037BD000010B50C4904004A88002A09D0F8
:1081A0008B89002B05D00020CB8A0222834201D08C
:1081B00010BD012213000A20434300204032C8545E
:1081C000C81842800472F3E7E264FF1F0023438073
:1081D00003707047094B00211A0010B55C88002C11
:1081E00006D01C79844203D10A234B43D01810BD1A
:1081F00001310A330329F1D10020F8E7E264FF1FBF
:1082000010B50400407A03F0F7F9FF23637210BD44
:108210007047043010B580B203F0BEFB002803D0D5
:108220000421494203F040FA10BD000070B500255A
:10823000104CA0682580A581A580A84202D003F03B
:108240000BF9A56000250C4C0C4B606D1D802300C4
:1082500058331D70A84202D003F0FEF86565002572
:108260006068002801D003F0F7F8013508340A2DC2
:10827000F6D170BDA865FF1F4C65FF1F9C65FF1FF1
:1082800070B5041E09D1054D2880A881A880A86872
:10829000002802D003F0E0F8AC6070BDA865FF1FB5
:1082A000F0B54B8885B00193002343600A7905003F
:1082B0000F00022A00D07BE0CA88032A17D98B68F6
:1082C0005E7819783602DC78D8790E4399781B7A73
:1082D00024021B020C43034353495BBA0B80331D3A
:1082E00093421ED1042C04D0631F022B0ED901200F
:1082F00015E0019A4D4B1201D35A002B06D001987C
:10830000FFF7BEFF4A4A1369013313610421B868BD
:108310002E812C80494203F0C7F96860002005B027
:10832000F0BD434D042C06D0631F022B0FD9EB6820
:108330000133EB60DBE7019A3C4B1201D35A002B6F
:1083400005D00198FFF79CFF2B6901332B61374B58
:1083500030000293019B029A1B01019300230199B3
:108360008C468B52130063449C8003939E81FFF7DD
:1083700050FF039B041E986016D00421B868494240
:1083800003F092F9FA880100043A200003F084F81F
:108390000199029AFB888A5A043B9B18029A8B52D5
:1083A0002B6801332B60A2E7AB690133AB619EE719
:1083B0001E4B0293019B1E01029BF35A002B2DD0F2
:1083C00002998C19A068002828D0012A26D1FA88A1
:1083D0009B189BB27352A189994217D39B1AC0185C
:1083E000B96803F059F8029BA289F35A934200D06E
:1083F0007DE700222B81A3882B80A3686B60029B02
:10840000F2520B4A53680133536070E7084A93688D
:10841000013393600198FFF733FF68E7044A53691B
:1084200001335361F6E7C0461265FF1FA865FF1FC1
:108430001865FF1F70B5051E15D10B4C0B4B18802E
:10844000230058331870606D002802D003F004F840
:108450006565250050356068002801D002F0FCFFFA
:108460000834AC42F7D170BD4C65FF1F9C65FF1FFF
:10847000F0B51700A12285B0920001934243394B19
:1084800006001B680C009B18D933FF331D78FDF7DD
:108490003DFF0430854204DD3000FDF737FF043036
:1084A000C5B2BD4207D33A0000213000019B03F062
:1084B0007BFA05B0F0BD2900380003F055F8230021
:1084C000C6B250331E700393019B290063653800C8
:1084D00003F0FAF8CBB20293002B02D0039B0136D3
:1084E0001E7000262300503303931B78B34204D838
:1084F000606D002831D10020DBE7029A2800002AB5
:1085000004D0013B1000B34200D02800F700E71967
:10851000387003F0A1F9786000280ED03A780199FC
:1085200002F0BAFF019A3B780136D3180E4A019344
:10853000D369F6B20133D361D4E7039B1870606549
:10854000A74205D1084A1320D36A0133D362B0E7AA
:10855000606802F081FF0834F2E702F07DFF00233B
:108560006365C8E73409FF1F1865FF1FF7B50D00E5
:1085700007000421686803F097F82B890400037052
:108580002B891B0A43702B8883702B881B0AC370AE
:108590002E8902250436F6B2F42E15D81B4B9F42C5
:1085A00014D10C2003F078F81135011E0CD0902363
:1085B00003708E3B0371043B4380154B8460C6807F
:1085C000187803F009F900252800FEBD5C237B43E1
:1085D000104AD3180093583301931B78002B0FD106
:1085E0000300320038000099FFF742FF019B0500AD
:1085F0001B78002BE8D13800009903F005FAE3E777
:10860000054A0725536A01335362DDE7FEFF000088
:108610001065FF1F4C65FF1F1865FF1FF0B587B081
:10862000009017200F0016000193FFF7F2FD1325AD
:10863000041E18D00C98031E02D00199201D9847E3
:10864000030AE370052303A9A07004300881277092
:10865000009866700B804C60FFF788FF051E02D003
:10866000200002F0F9FE280007B0F0BDF0B587B099
:108670001F000CAB1B780391059301210DAB060085
:108680001C78049200F0D6F81425002821D0200090
:10869000FFF780FD0135041E1BD01149059B0A78A8
:1086A00003700132D2B2131EC68001D101231A0019
:1086B0000B7022713000049B03990097FFF7AEFF07
:1086C000051E09D1230021000648074A093303F09B
:1086D0007BF8280007B0F0BD002363802370F8E723
:1086E0001465FF1F6B81001130750000F8B505009F
:1086F0000E00064C064F2368002B02D031002800E4
:1087000098470434BC42F6D1F8BDC046B865FF1F97
:10871000CC65FF1F0123064A5B425380002313717F
:108720005362044A136053609360D36013617047CF
:10873000CC65FF1FB865FF1F0200002310B5064976
:108740009C000859002801D1625010BD0133052B4F
:10875000F6D11320F9E7C046B865FF1F034A5388D6
:10876000181A43425841404210407047CC65FF1FE1
:10877000F0B585B002930AAB1F780CAB1B88009054
:1087800008000E0001920393FFF7E8FF0500112097
:10879000002D1BD10E48FFF7E1FF04001520002C2F
:1087A00014D006220B99A771E01D02F075FE019B03
:1087B00030002371029B29006371009B6680237047
:1087C000039B6562E381FFF791FF280005B0F0BDD0
:1087D000FFFF000010B5FFF7C1FF04000220002CCE
:1087E00012D060880121FFF781FF606A002801D064
:1087F00002F08AFF28220021200003F035F801232F
:1088000000205B426380207110BD000030B5074A34
:10881000074C5588010013780020A54204D05B1A4C
:1088200059424B415842104030BDC046CC65FF1FF5
:10883000FFFF0000084A10B501230C00904208D049
:10884000FFF78CFF031E04D0037923405A1E934187
:10885000DBB2180010BDC046FEFF0000024B1879C5
:10886000431E9841C0B27047CC65FF1F70B504002D
:108870000D001600FFF772FF002804D10F4B9C4239
:1088800000D0143070BD10230279416A13400029D2
:108890000AD10520002BF5D0897E0C20A942894100
:1088A000494249420840EDE70F20002BEAD09207E9
:1088B000F2D40A38002EEFD0E4E7C046FEFF0000F5
:1088C000030010B5002800D110BD0348034A4188B9
:1088D0009142F9D09847F7E7CC65FF1FFFFF0000F2
:1088E000002330B5C45CCD5C6C40D4540133102BF4
:1088F000F8D130BD0F23002210B5C45C64002243C0
:10890000CA54C25CD209013BF7D210BD020001007B
:1089100010B52032103102F077FE10BDF0B58DB0E9
:108920000590102007931700069102F09DFE01901C
:10893000102002F099FE019B13240290002B05D019
:1089400000280CD11324019802F0DEFE029B002BBC
:1089500002D0180002F0D8FE20000DB0F0BD1020AB
:1089600002F082FE0600102002F07EFE13240500B5
:10897000002E00D1B3E0002819D01022002102F00F
:1089800073FF32002900059802F03EFE041E0ED14E
:1089900033787F2B56D830000199FFF7ABFF019B4E
:1089A0001B787F2B58D802990198FFF7A3FF30005E
:1089B00002F0AAFE002D02D0280002F0A5FE002C35
:1089C000C1D1102002F050FE0600102002F04CFE33
:1089D0000390002E00D180E000287CD03A000121D5
:1089E0000F3223001211049106D013B204930F2307
:1089F0003B405A4253411BB2049A013A1201002BE8
:108A000034D0069BD2B298180199039AFFF768FFF9
:108A100010220021300002F027FF049D069F013D37
:108A2000ADB22D017D19AF4242D0002C33D03000C1
:108A300002F06AFE039B002B00D184E7180002F0CD
:108A400063FE80E729003000FFF754FF2800264925
:108A5000019AFFF745FFA2E729000198FFF74AFFB7
:108A600028002149029AFFF73BFFA0E70F2506994E
:108A70003D408A1808A8D9B28D4207D9D15C195453
:108A80000133102BF7D1039A0299BFE7691A4F42BD
:108A90007941C901F3E73900300008AAFFF720FF48
:108AA0003200059808A902F0AFFD10370400BAE7BC
:108AB000002CBCD13000039908AAFFF711FF320047
:108AC00008A9059802F0A0FD0822040031000798CB
:108AD00002F0E2FCABE71324A9E71324AAE700287D
