:020000041100E9
:10300000F7B5164B0192C318021D002000938823C8
:103010005B05D3181B685C1C1AD09CB2402C18D8D6
:103020008D781E0CAC466746CD782D023D43AE42EE
:1030300006D1019800280ED110000C70240A4C70A3
:1030400003249BB20733A343D218009B9A42DED3DA
:10305000FEBD4432F9E71000FAE7C046FC0F00005D
:10306000802213B503000324019189B25201073174
:103070009B18A14304305A1A88235B05C3181B68A8
:10308000591C03D190429241104016BD99B240297B
:1030900007D80B000733A343C0189042ECD300209D
:1030A000F3E74430F9E7134B134A1B68126810B575
:1030B000FA24934201D81A00F824104BE4021B684A
:1030C0009A4210D813000E4A12689A420ED3013366
:1030D00007D1F823DB029C4203D10A49054808F0D6
:1030E00023FC200010BDFC24E402ECE7FE24E402F3
:1030F000F7E7C04600C0071100D0071100E0071134
:1031000000F00711FFFFFF7FF0B59BB015000390A3
:103110000491402A5CD806AC61802280FFF7C3FF8F
:10312000002221000600FFF76BFF05280FD9238836
:10313000AB420CD1002D07D0504B2A000399C01888
:1031400008F0C2F9002802D101201BB0F0BD258093
:1031500030000699FFF784FF041E79D1069B079380
:10316000FFF7A1FF80235B01C618802307001B0324
:103170009E4201D1F826F60288235B05F3180193DD
:103180001B68013302D0019808F03EF93C490198D0
:1031900008F0CAFB3B1D0293331D05938822029B56
:1031A00052059B181B6808935A1C13D188235B0592
:1031B000FF1839680198013908F0B6FB380008F0AB
:1031C00023F930000799FFF74BFF0400002C41D191
:1031D0000020BAE744219AB20091402A04D8032083
:1031E000D11D814389B2009104991B0C8B4224D0DC
:1031F000402A22D80122300008A9FFF701FF021E51
:103200001BD1380008A9FFF7FBFE04000428DDD914
:10321000009A059B9B1880225201B21893422AD231
:1032200088235B05C118009A09A808F03DFB134BE1
:10323000009A09A9F01808F007FB009A029B94462F
:10324000634402930F4B029AFB189A42A6D3ADE750
:103250000428BDD088235B05E018069908F064FBBC
:103260000323EA1C9A4300D16EE7044B0399E0184C
:1032700008F0EAFA68E70424ECE7C046040000110D
:10328000FFFFFF7FF80F000073B504001600402A0F
:103290001ED801AD6980FFF706FF002229002A80B1
:1032A000FFF7AEFE042810D92D88002E0BD0002C7D
:1032B00009D0321CAE4200D92A1C074B92B2C11869
:1032C000200008F0F1FA28B276BDC04300B2FBE757
:1032D00003204042F8E7C0460400001137B504223D
:1032E00004000D0001A81649FFF7CEFF02000428D4
:1032F0000BD1019BA34208D3AB4204D0104901A8D3
:103300000195FFF701FF01203EBD0E4C2368200010
:10331000019308F079F8019920000139019108F032
:1033200003FB80235B01E418074B9C42EED104228F
:10333000034901A80195FFF7E7FE0020E4E7C04636
:103340005555000000C0071100000811F0B589B004
:1033500008F01AFA10226946264808F00DF9264BA3
:10336000009A6C469A4211D1019B0F2B35D80699D1
:10337000029A8C4618001100002604AD013808D2CC
:10338000002E01D00A00A16001322FD10023A360DA
:1033900023E04F1CF2D161460126EFE710361022E0
:1033A0002900300008F0E8F8A368A868013300D1CC
:1033B000A060882329685B05C9186B6829601A0317
:1033C000120B6A60814203D03B4201D108F06CFAD3
:1033D0006368013B6360002BE0D1A368002B03D03E
:1033E000049304984168084709B0F0BDE027014EF6
:1033F0003F03F0E700000111504859368022F8B52C
:10340000964C974BD200002120001C6008F02CF84D
:103410002300944A88331A60934B1A786A23002A4F
:1034200000D01133E3620A232365904B37221B78C7
:103430000820A3638E4B2118E361102323628D4B78
:103440003B256361C823DB00A36123008C331A6032
:103450002823013AE26320646364CA67043A211DA9
:10346000CA672100BC310D602100C0310860210015
:10347000C4310B6021000635CC310D602100083DC0
:10348000C8310D602100D0310A602200D4321060B2
:103490002200D832136022000227E0322100176098
:1034A0004222DC310A6021001B3DE4310D60210025
:1034B000E83108602100EC310B6023000521F43372
:1034C00019602300F0331A602300183290331A6019
:1034D00023009433186023001E3A98331A60AF23F8
:1034E000DB002360644BFA262363644B644DE36086
:1034F000644BF031A3642300FF31FC33B600A160BC
:1035000021611E60A5627325E5656D3D6565A56554
:1035100096255D4AAD00E264666258606766A566FE
:1035200000270925A767E566584F594D60672000B9
:103530002567E2673A6015279C30676007001A200C
:1035400038602000A0300700212038602000A8301B
:1035500007004C4838602000F830066026006427D9
:10356000A436376026005F3FAC3637602600033F45
:10357000B03637602600C637B436376026000027DD
:10358000B836376038269E60424E96205E64424EC2
:103590005A66DE61414E9A645E62F53EFF3E9E626F
:1035A0001E269A67354A8000DE661F675F67DD6505
:1035B0001D661862DA67BE23394A5B00E250394B58
:1035C000D838235004302250C4225200A350C623BE
:1035D000E4205B00E1500433334AE1503349344B7B
:1035E000D1603449800019503349E938FF38195007
:1035F00032490430195032493248D161324911639D
:10360000324951631900F4310860CE20304940003E
:1036100011603049195019002F48F83108602F49BE
:10362000D16582212E4A89005A501A002D4908324C
:10363000D1671A002C49B432116088212B4A8900C5
:103640005A501A002A49883211602A4ADA6407F06F
:103650006BFE012008F0C8F8F8BDC0460004FF1F4B
:103660004064FF1F106FFF1FF843FF1F4A0AFF1F30
:103670003A07000080C3C9019A020000DC0500007F
:103680006A18000050C3000088130000F009FF1FF3
:10369000204E00006509FF1F68100000C4090000EB
:1036A00040420F0010270000FC00FF1FA91CFF1F55
:1036B0000000FF1F012DFF1F8930FF1F212FFF1F5B
:1036C0006920FF1F6127FF1F8520FF1F3522FF1F75
:1036D000F51FFF1F8529FF1F6D2AFF1F8D19FF1F73
:1036E0009128FF1FBD25FF1FC925FF1FF51EFF1FC6
:1036F000AD1FFF1F6D1EFF1F0223F0B50124604D9B
:1037000091B02B705F4B604E1C70604F0393336819
:10371000002108207B7006F0FBFC082006F0F2FB7D
:103720000023984205D07A78552A02D0332A00D057
:1037300099E03360042006F051FE07F0DDFFFFF74B
:103740005DFE07F011FF1F2201240021504B1A706B
:10375000504B1C70504B1970504B19689143163ADE
:103760000A431A60602219689143403A0A431A607A
:1037700008F05AF807F0C8FE494B9847C120FF21CE
:10378000484B80001A588A431A50C5229200985814
:103790008843BF39014399509858434908408021D4
:1037A000C9010143802099509958C0050902090AAE
:1037B0000143995080213D48490107F06DFF0323E3
:1037C00022003B49019400933A4807F045FE2C2221
:1037D000394905A808F068F805AC6178207806F04A
:1037E000B1FB023410ABA342F7D1344C344B226806
:1037F00003201A40A023DB021343236080232268A6
:103800009B041343236022682E4B1A4080239B03A2
:10381000134323602C4A2D4B934200D8012007F01C
:10382000D3FF07F0E1FD80232268DB04134323600C
:10383000287807F0F1FF039B1878C0B207F0C4FEA8
:1038400007F06AFE2249042007F086FD06F092FD8B
:1038500000F040F800F062FD00F008FE00F090FB80
:10386000002011B0F0BD00932100194A042008F097
:103870006BF88023DB059C62FFF768FD5AE7C046C2
:103880004A0AFF1FF843FF1F34F00040E461FF1FA6
:10389000480AFF1F490AFF1F680AFF1FBCF00040CB
:1038A000E1A2000000E100E0FF00FFFFFC43FF1F7A
:1038B0008056FF1FFC53FF1F58B9001114F0004041
:1038C000FF7FF8FFFFFF9FFF0080FF1F106FFF1FAC
:1038D0003B000108002210B51100112007F004FE82
:1038E00010BD0000F8B500230926374F374C3B6266
:1038F000E3681120B343E36007F05EFF112007F097
:103900009BFD112007F068FF4023226880251343A8
:10391000236080236268DB0213436360A3682C4A40
:103920002B43A360A36802211340A3608023A268F5
:103930009B0113431022A360236C0720934323644D
:10394000236C0F3A1343236480235B003B62226B9A
:10395000204B1A402263626B1A406263A26B1A40CA
:10396000A263E26B1340E363E3681B4A1340E36026
:1039700006F0E8FA0121072006F0F8FB174B1120AA
:103980005A6C15435D6407F097FDFD21144B154AF1
:1039900089005A508023C720626B5B031343636323
:1039A000E36880003343E3600F4B104A195811401D
:1039B000802212020A431A50802292051A600822BD
:1039C0000B4B5A63F8BDC04600F000403CF000408D
:1039D000FFFFDFFFEFFFEFFFFFFF7FFF003800403B
:1039E0000000FF1F5118FF1F00E100E0FF00FFFF74
:1039F00000000540E12010B5C00407F02DFE10BD09
:103A000070B51A4CE388002B2AD0FA22D2009342D8
:103A100001D2FFF7EFFF2368E088A688C018802353
:103A2000711C89B2124D2060A1809B00994218D36D
:103A3000420A93B2C21AEB802260A6800D4A64202B
:103A400093420AD8FA220020D200934205D90A21D3
:103A5000180007F071FFC838C0B200232872E38055
:103A600070BD07F0C1FD83B2EB80E7E7F860FF1F90
:103A7000C461FF1FB70B000030B503A804880B20FA
:103A8000002C0ED14968074D087849780902014396
:103A90000A20A94205D1012120001980024B1B7A7E
:103AA000137030BD192A0000C461FF1FF7B515005F
:103AB00008AA16884A680F4F1478527812022243D7
:103AC0000A24BA4214D10122DBB2019200962A00E4
:103AD00007F09CFB041E0BD1074B1B68002B07D083
:103AE00068782A78000210434242504101309847DA
:103AF0002000FEBD022900000861FF1F30B501252E
:103B000003790400BFB02B4211D00A49408806F067
:103B1000EDFE28420BD0084B01A95B8D4D800B8038
:103B2000064B00221B7A60880B7103F0CFFF3FB079
:103B300030BDC0460061FF1FB840FF1FC461FF1FBA
:103B400010B50549054806F087FE0421044A0548DA
:103B500006F044FE10BDC0460061FF1FFFFF0000DD
:103B600084B90011B840FF1F10B5024804F032FEBE
:103B700010BDC046FD3A0011F0B593B005921F008C
:103B8000DAB20F239B1ADBB202930E239B1ADBB22D
:103B900004931C9B049A023B5B0806AC199DDB0056
:103BA000134303903A000191601C0599237007F0BC
:103BB0007BFE230000222C000299013B8A4250D157
:103BC000002C00D0BCE0102221000AA80AAE07F0A9
:103BD0004BFC330006A81A78215C01344A401A7065
:103BE0000133102CF7D10AAA1100019807F0BCFB91
:103BF0002022212006AB9B18049A05991A7006AB67
:103C00003A00C01807F050FE0EAB781C0021029A53
:103C1000181807F029FC2F21012306AA5218137047
:103C20000494002D22D12B0029000EAA0298013AFB
:103C3000834200D080E0019806AA0EA907F094FB09
:103C400006AA3378525D0135534033700136102D8A
:103C5000F6D11C9A1B980AA907F026FE002013B083
:103C6000F0BD01321C74D2B2240AA5E72C00102D3D
:103C700000D9049C039B002B19D106AF1900049AAC
:103C8000380007F0F1FB22003800189907F00CFE0D
:103C9000039B0AAA1178F85C01334140117001328C
:103CA000102BF7D10AAA1100019807F05DFB06AFAF
:103CB0003A0001980EA907F057FB0023189AF95C07
:103CC000D25C4A401A99CA5401339C42F6D1039BF4
:103CD000012B19D110220021380007F0C5FB22006A
:103CE00038001A9907F0E0FD00230AAA06A8117807
:103CF0001F5C0133794011700132102BF7D10AAAF1
:103D00001100019807F030FB00221A9B2D1B1B1994
:103D10001A93189B0EA91B191893029B9A4200D163
:103D20007FE7CB7B01390133DBB20B74002B00D072
:103D300077E70132D2B2F0E701331174DBB275E7F5
:103D4000012040428BE7000010B5134A134B517914
:103D5000134C1970117920005970D17899709178AD
:103D6000D9705178127819715A712E2252429A7173
:103D70002A32DA7145321A720A49313AFFF784FA67
:103D8000102808D01021200007F03EFD102220004E
:103D90000449FFF7B9F910BD6509FF1F1C61FF1F3A
:103DA0000C61FF1F0DBC0000F0B54318050000209A
:103DB000114F124A3E8889B00C0011495672079281
:103DC000320A4A70320ECA7088701E700426398812
:103DD0009870090A5970D8709B19039301940D23A8
:103DE0000849079A049602950095FFF7C5FE083426
:103DF000E0B209B0F0BDC046C461FF1F1C61FF1FE7
:103E00002561FF1F0C61FF1F012202700C4A030095
:103E1000117A41700C2098709179D970D17919710B
:103E20003A21597192789A713E22DA71054A117BD2
:103E30001972517B5972917BD27B9972DA727047F9
:103E4000C461FF1FD061FF1F70B51F4A1F4BD17C9B
:103E500004001B681E4A002906D1190604D5032355
:103E6000137000F039F870BD0021117002221900A2
:103E70002270013A62700532A27010322271443A07
:103E800062712A32A27124321140134210D02500EF
:103E900041230835E3712800FFF7B6FF0C21280005
:103EA000FFF782FF0430C0B2E0700430C0B2DAE73E
:103EB00040232000E371074B21721B880A30637294
:103EC000FFF7A2FF1220EFE7D061FF1FE861FF1F9D
:103ED000E263FF1FC461FF1F10B5040006220E49F4
:103EE00007F0E2FC16220D49E01D07F0DDFC0C4B4B
:103EF0001B789B0963770B4B1A7A0023502A06D84C
:103F000040333C2A03D84033192A00D84033A371E8
:103F100000231F20A37710BD9CB900114B61FF1F28
:103F20004561FF1FC461FF1F10B5142007F004FC9A
:103F3000124B14220021186007F096FA002007F0B7
:103F4000BBFB012007F018FC022007F02DFC03202A
:103F500003F0E2FE042005F0FBFE052003F01AF951
:103F6000062003F0EDFD072001F044F9082006F0DB
:103F700015FC092000F0C4FE10BDC0466461FF1F9F
:103F800007F09AFC012007F007FA07F0DDFB0000BC
:103F9000094B10B50400984205D0012904D1200036
:103FA000064906F059FC10BD0229FCD1013904F084
:103FB000CBFB0028F3D0F6E7FEFF00008A61FF1F6D
:103FC00070B50D7A100004AA2C0016881022144037
:103FD000154220D1002E20D10A78022A18D14A6831
:103FE000517815780E4A09022943914205D00D4AAD
:103FF000914209D01C800A2404E014220A491A8044
:1040000007F052FC200070BD0C2208491A80F7E727
:104010001C800124F6E70824F4E70B24F2E7C046ED
:10402000F3FF0000F4FF00008442FF1F48BA0011B4
:1040300010B504000749084806F00EFC074804F0D4
:1040400005FB0020E40704D50721054A054806F0D2
:10405000C5FB10BD8A61FF1FFFFF0000913F0011EB
:10406000CCB90011FC40FF1F10B50B4BBEB01A7845
:104070000A4902A800F0B6FA01AC80B260800028BC
:1040800008D0074B00221B8821002380054B18888D
:1040900003F01CFD3EB010BD6861FF1F6961FF1F8A
:1040A0005641FF1F5842FF1F10B50B4BBEB01A7888
:1040B0000A4902A801F062FB01AC80B260800028CE
:1040C00008D0074B00225B8D21002380054B188808
:1040D00003F0FCFC3EB010BD9261FF1F9361FF1F17
:1040E000FC40FF1F5842FF1FF7B50E00377A1C0037
:1040F00008AB11003D001A8820231D401F423CD10F
:104100003378022B3BD173681F785B781B023B43EB
:104110001E4FBB4208D01E4FBB4214D01D4DAB42B8
:1041200021D00A252800FEBD002A2AD1142C2AD825
:104130002200F06807F0B8FB174B1C70012CF1D976
:10414000FFF7B2FFEEE7002A1BD1202C1BD822007C
:10415000F06807F0A9FB114B04211C70104B187874
:1041600007F08AF9DEE7E3B20124009201940A0025
:10417000310007F04BF80500D4E70825D2E7012508
:10418000D0E70B25CEE70D25CCE7C046F3FF0000B6
:10419000F4FF0000022900009261FF1F6861FF1F09
:1041A0000462FF1F332310B5040003700A2207497D
:1041B000013007F079FB064B0F201B681A0AE372E7
:1041C00022731A0C1B0E6273A37310BDC461FF1F10
:1041D000F461FF1F30B5012503790400BFB02B4205
:1041E00013D00B49408806F081FB28420DD0094BC3
:1041F00001AD1B8802A82B80FFF7D4FF0F236B8033
:1042000000222900608803F061FC3FB030BDC04649
:104210008A61FF1F5641FF1F10B5024804F0DAFA09
:1042200010BDC046D541001170B5160004AA14880F
:1042300005AA15784A685078117800022A4A08437E
:10424000801805284BD807F04FFA03131E29343F76
:104250000720042C0BD80522121BAA4200D92A00E1
:1042600022491A803000091907F01EFB002070BD9A
:104270000720112CFBD81222121BAA4200D92A00B7
:104280001B491A80EEE707200E2CF0D80F22121BD4
:10429000AA4200D92A0017491A80E3E70720032C15
:1042A000E5D80422121BAA4200D92A0012491A801A
:1042B000D8E70720032CDAD80422121BAA4200D91F
:1042C0002A000E491A80CDE707200A2CCFD80B22EE
:1042D000121BAA4200D92A0009491A80C2E700220B
:1042E0000A201A80C3E7C046DCD5FFFF1EBA0011C2
:1042F000B061FF1F0EBA001109BA001104BA001113
:10430000F8B9001110B50D21024A034806F066FA0B
:1043100010BDC046ECB900116C41FF1F10B5084C30
:10432000E368002B08D18022064B52021B689B18C1
:104330006360054B1B68236007F0C6FAA06010BDE0
:10434000F461FF1FC8F00040CCF00040F0B5184AFF
:10435000936A916A9942FBD116498A689A421FD39F
:104360009A1A8B60144B4C68186893B2D20243437C
:10437000D20E42431B0A08681B1912029B18002424
:10438000020001270D4D4B60561CAB420BD8002C90
:1043900001D010000CC10A4A13600A4B1860F0BD2E
:1043A000581E821ADDE7084A3C009B183200EBE7F2
:1043B00000F00040F461FF1F140AFF1F40420F008D
:1043C000C8F00040CCF00040C0BDF0FF70B51E4CFE
:1043D00023793F2B01D93F2323711C4A1370107896
:1043E000C0B207F059F81823194A1A4913801A4A1B
:1043F0000B8013804B80A0790C3B421C53438022DE
:10440000120193421ED81A00144D88802880144847
:10441000CB8002806279002A01D101326271237A55
:10442000012B01D80223237253430E480A2158431B
:1044300007F082FA0C4D2860E379052B01D8102390
:10444000E37170BD1300DFE7E861FF1F480AFF1F3B
:104450005642FF1FA443FF1F5442FF1F5242FF1F3B
:104460005042FF1F71020000D061FF1F70B5212173
:104470000020FEF733FF0C4C002805D10B4B23CB5B
:1044800023C4FFF7A3FF70BD0C2220000849FEF7EC
:10449000FBFE0C2802D0054B23CB23C41C2205496C
:1044A0000548FEF7F1FEECE7E861FF1F3CBA00119A
:1044B000FC0C0000D1F100004561FF1F10B50C227B
:1044C00002480349FEF720FE10BDC046E861FF1F09
:1044D000FC0C0000F0B51D4C8022A544040088208F
:1044E00069465201400507F0A7F8902212016A447C
:1044F0001300200032C832C316C816C38023144CE0
:10450000144FA6689B033343A3603B6006F014FF7F
:104510008823A0685B05C01806F076FF0025882375
:1045200029008022A0685B05C01840196944520028
:1045300007F08AF980230135FF355B019D42EED1FA
:10454000A6603E60044B9D44F0BDC046FCEFFFFFFB
:104550001443FF1F9808FF1F04100000F0B587B038
:10456000051E6C4627D0684607F0AEF81B4D0228A2
:1045700006D106226946280006F0A6FF002818D0BA
:104580000F2221000023012094460600EA5C01333B
:1045900017091037BE403700664632400600964085
:1045A00032003A434A610439062BEED12000FFF76E
:1045B00091FF07B0F0BD18226946094807F03CF8A2
:1045C000AB00E358013305D01822FF21200006F08C
:1045D0004BFFEBE70135062DF2D1EAE76509FF1F36
:1045E00000090011F0B5002704000E00150085B089
:1045F000BA4200D19EE04A1C0B7801924A78897831
:1046000009021143F27812040A4331790370090652
:104610001143009103914770232B41D8172B1DD8CC
:10462000BB4200D181E0981FC2B20B2A28D9012BCE
:104630003ED1B84AAB1E0092132B07D87378002BDB
:1046400000D0D3E100F0BCFA00F0F2FAB24B0099CE
:104650001F78601C7A1E07F027F96BE018001838E5
:104660000B28E4D806F040FE8600AD002901E3FFE8
:10467000E3FFE3FFE3FFE3FFE3FFE3FFE3FF890182
:104680000B28D4D806F030FE2C012501D3FFD3FF30
:10469000D3FFD3FFD3FFD3FFD3FFD3FF8B01AB01F6
:1046A000562B61D01FD8332B00D162E1552B44D05B
:1046B000DB2B00D0A9E1042D00D87FE0052D00D12F
:1046C000A0E16F1F3A000098711D07F0EDF8052278
:1046D0003100200007F0E8F83A000099601D07F06B
:1046E000E3F82F0026E0712B00D100E1722B00D1FE
:1046F00036E1DC2BDCD1022D60D973784370B378BE
:1047000083706B461F88032D05D0033D3900AAB284
:10471000F01CFEF7F9FC39001022E01CFEF7B4FD96
:10472000C71C002806DA6070CEE00C227B4907F037
:10473000BBF80C27380005B0F0BD6A1E784D0C2A76
:1047400010D8002A07D02800019907F0ADF8FFF72C
:104750003DFEFFF7B3FE0C222900601C07F0A4F811
:104760000D27E7E70C22EEE76D4D6E4B2A0043CB99
:1047700043C2ECE76C4E112D12D11022300001998A
:1047800006F0A2FE00280BD010220199300007F09D
:104790008BF8102265493000FEF7B6FCFFF7D4FA1B
:1047A000102230006149FEF76FFD0200102805D18C
:1047B0003100601C07F078F81127BBE7FF23637016
:1047C00082E0102D53D17778032F0DD1584D0E2252
:1047D000B11C280007F068F80E222900A01C07F081
:1047E00063F867701027A5E7042FE7D1514DB11C7E
:1047F0000E22280007F058F829000E22A01C07F00E
:1048000053F84B4D4C4E1C222900300006F05CFE44
:10481000002829D01C222900300007F045F81C226E
:1048200030004649FEF770FC40232A785B42134370
:10483000290028002B7000F02BFA414E0622290097
:10484000300006F041FE00280ED00622290030007C
:1048500007F02AF806223B493000FEF755FC0123F9
:10486000394A11780B43137004236370BAE7022DA1
:10487000A4D17678012E10D12F4D1C2228002F496B
:10488000FEF702FD1C2806D10E222900A01C07F00D
:104890000BF86670A6E7FE2391E7022E8ED11C224C
:1048A00025482649FEF7F0FC1C28F4D10E222749A2
:1048B000A01C06F0F9FF657094E7022D06D173780D
:1048C000002B03D101F06CF9022733E701F056F910
:1048D000FAE712221E49601C06F0E6FF132729E7BB
:1048E00008221C49601C06F0DFFF092722E7012D82
:1048F0000CD07178F02900D960E7174D288801F0B5
:1049000083FC164B2A885200D35A58E7124A134B9D
:104910001288F8E7E563FF1FE363FF1F48BA001141
:10492000E861FF1F3CBA00110C61FF1F0DBC0000C5
:104930002961FF1F3761FF1F4561FF1FD1F1000093
:104940006509FF1FADAC0000E461FF1F5361FF1F4D
:10495000B061FF1F1843FF1F5842FF1F4464FF1F31
:104960003B4B012D03D072781A704270ACE71B7874
:1049700025E7FFF717FC0700DCE6042D05D9354DC8
:10498000009B2B6006F0A0FFA860FFF7DFFC04226D
:10499000039003A9601C06F087FF0527CAE62E4E88
:1049A000062D15D906223000019906F08DFD00284C
:1049B0000ED006220199300006F076FF0622274924
:1049C0003000FEF7A1FB0123214A11780B4313703D
:1049D00006223100601C06F067FF0727AAE6012DBA
:1049E00000D1EBE67078FFF7B9FD6DE7013D2A00D5
:1049F0000199009806F058FF19490098AAB2FEF7ED
:104A000083FB21E61525102761E6DA2B00D0D5E6D9
:104A1000042D00D8D2E6082D17D9B37972791B027C
:104A20001343F27912041A43337A1B061343009A94
:104A30001360009B05221B6831002000039306F0E1
:104A400033FF0422601D03A94DE7FE236370F0E7E6
:104A5000E461FF1FF461FF1F6509FF1FADAC00009B
:104A6000AEDE000070470000020010B5094B0A32AC
:104A7000094C92B2DA815A8298811882207802F029
:104A800027FA0422054B012120781A7006F0F4FC65
:104A900010BDC046A242FF1F2E64FF1F2D64FF1FE2
:104AA000013870B5042809D806F01EFE030927084E
:104AB0001200204B0221187806F0DEFC70BD1D4B61
:104AC0000821187806F0A8FC00221B4B1A74F5E7A1
:104AD00080220024184B52001A82FA22DC74174BF1
:104AE000144D5B7A920008215A43287806F014FE90
:104AF0002100287806F0C0FEE0E70E4B0821187868
:104B000006F08AFC0E48FFF79FF90C4B0D4A9B7983
:104B100093800D4A13800022074BDA740132FF3272
:104B20001A820A4B1B78002BC8D0094A136006F082
:104B300023FCC3E70462FF1FD061FF1FE861FF1F72
:104B40006142FF1FA443FF1F5242FF1FE461FF1F8A
:104B500034F0004010B5012906D1082804D1034BD8
:104B60007F31187806F088FC10BDC0460462FF1F34
:104B700010B5002906D1082804D1034B80311878DC
:104B800006F07AFC10BDC0460462FF1F0300F0B5BA
:104B90000A4D8E18B14202D152008018F0BD0C7837
:104BA0002F6824093C5D0F271C700C7801313C40B4
:104BB0002F683C5D5C700233ECE7C0464C42FF1F3F
:104BC0000E22124B10B51A700D23114C114923708F
:104BD000093A043B1048637006F066FE2D2301225B
:104BE0000E490F48E371FFF7D1FF01220D49FFF78E
:104BF000CDFF01220C49FFF7C9FF030000200B493C
:104C000002001870FEF780FA10BDC0460264FF1F54
:104C1000E363FF1F1EBA0011E563FF1F6709FF1F53
:104C2000EB63FF1F6609FF1F6509FF1FAEDE000073
:104C300070B5134C142220001249FEF725FB431EC9
:104C4000114D132B19D8AB78002B16D0431C2B70A9
:104C500009236B7000230019037028780B4B013077
:104C60002900C0B2187006F037FD297822000139FA
:104C7000C9B2002005F0D0FC70BDFFF7A1FFECE742
:104C8000E563FF1FAEDE0000E363FF1F0264FF1F4A
:104C9000F0B54A784F790E79CD788C780B7807701B
:104CA00046708570C47002714371F0BD10B5114B30
:104CB0001A781870002A0ED000280BD10E4B1A78E3
:104CC000062A07D85423D340DB0703D50B4B1878AB
:104CD00002F0FEF810BD0028FCD0074B1B78012B1A
:104CE00002D0033B022BF5D8044B0121187806F0C3
:104CF000C3FBEFE70664FF1F2D64FF1F2E64FF1F39
:104D0000F7B5544D544A55492870082005F010FB5A
:104D100006F002FB032252495248FFF737FF2D24C9
:104D2000030088211C70042249050130FFF72EFF83
:104D3000302304704C4E4D4C437083702E3B062242
:104D400030004B49E387FEF79FFA062813D0300066
:104D500006F0BAFC022809D00321300006F054FD09
:104D60008D23F3706E3B337119337371062230005B
:104D70003F49FEF7C9F93F4B1B68FC335E64FFF700
:104D800057FFFEF7E1FF0020FFF790FF3A4E802229
:104D900031683A4F08000197394B3A4F10401142A1
:104DA0004FD07D3A01981A70FFF796F838703A782C
:104DB000354F01213878019B02F04CF8334A344BCF
:104DC00012783878002102F045F80122314B324F39
:104DD0001A70324B5B78552B35D1193B7B74304AB6
:104DE000304BA381E281238262822021287806F061
:104DF0008BFD0120404205F05BFC0120404205F0A4
:104E0000F7FCFFF77FFAFEF79BFE01204042FFF719
:104E10000FF9012006F080FDF02001F0D9F9012101
:104E2000287806F029FB287802F0AEF91E4806F033
:104E30009BFCFEF757FD1D4B1D4A9B689B18BB60F2
:104E4000F7BD1870B3E76422737953431A000A322E
:104E5000C7E7C0460462FF1F714B0011554B00119C
:104E60001843FF1FB061FF1F6509FF1FA242FF1F0C
:104E7000ADAC00004064FF1FE861FF1F6142FF1FEF
:104E8000E263FF1F8042FF1F2E64FF1F0264FF1FAB
:104E9000E363FF1FD463FF1FD061FF1FE461FF1FA7
:104EA000CE090000C40900000662FF1FF461FF1F65
:104EB0000000B8FCF8B50A0020230D001A40194282
:104EC00000D16BE07E4B1B78002B3DD0FFF73EFA04
:104ED0007C4B7D4C7D4E99686268737A8A1ADB033D
:104EE0009A4234D36160FEF7FDFC637C002B28D02E
:104EF000013BDBB26374002B23D1754B5B78552BE0
:104F000001D106F039FAE37C724F002B32D0F379ED
:104F10006374BB78002B14D1A27C002A02D0A37446
:104F2000FEF76EFD3B886C4E013330003B80FEF790
:104F30008BFF310006F0A8FC0023C820E374FFF7C4
:104F400093FD237C0133237420206840F8BDA37CAB
:104F5000002BCAD00023A374FEF752FD5D4A5E4FBA
:104F60001388380001331380FEF76EFF390006F016
:104F70008BFCBAE7A27C002A02D0A374FEF740FDA6
:104F80003B8801333B80544F3800FEF75DFF39000A
:104F900006F07AFC642370795843D0E70BB2002BFB
:104FA0000ADA4E4B187806F0A7F9002801D006F06F
:104FB0004BFA80200002C8E70224214206D0424B6F
:104FC00001201A74FFF772FE2000BEE780246400FF
:104FD000214202D000F056FDF6E70826314205D006
:104FE000FFF7B4F9FEF77EFC3000AEE7CB060FD535
:104FF000FEF706FD324B1B78002B07D1FEF7B4FD00
:10500000324B1B68DB0701D5FFF706F910209CE740
:1050100001240F002740214205D0314800F0AEF8AE
:1050200006F06AFCD0E70B0641D5300004F06AFFB9
:10503000284E00282CD1737A234205D01A00012370
:1050400013437372802080E71F4B717ADA681F4820
:105050000132DA600122114371721949B270097884
:1050600000291CD03188DA7401313180C2791A4CA0
:105070005A74144A1B499268200052189A60FEF72D
:10508000E3FE210006F000FCC820FFF7EDFCD9E7A5
:1050900000F086FD737AB770A3437372D2E703689A
:1050A0001342CFD0FFF752F9FFF7B6F8CAE704244E
:1050B00008002040214200D148E7FEF7D5FF83E7F2
:1050C0000664FF1FF461FF1FD061FF1FE861FF1F2F
:1050D000E461FF1FC461FF1F6142FF1F0462FF1FE5
:1050E0004442FF1F000082FCF0B51A4B1A4F1B8888
:1050F0003A880400194E1A4D85B09A420DD832886C
:105100009A420AD3174B1A882B889A4205D1164A1D
:10511000164B12881B889A421AD0052001F0AEF86F
:105120003B8802A90B80338801904B802B88104D5F
:105130008B800E4B2A781B88CB800E4B188802F090
:10514000CFFD0D4B08212878019A1C7006F06CFAEF
:1051500005B0F0BDD263FF1F5642FF1F5442FF1F30
:105160005242FF1FD063FF1FCE63FF1F5042FF1F3D
:105170002E64FF1F5842FF1FCC63FF1F13B50C4B5B
:105180001C78002C11D1002801D00A4B18600A4A63
:105190000A4B11780A4A10780A4A01920A4A009288
:1051A000002205F031F9200016BD1124FBE7C046AE
:1051B0002D64FF1FC863FF1F2C64FF1F1C64FF1FAB
:1051C0002E64FF1F0864FF1F0C64FF1F10B5064B01
:1051D00012201B78052B06D1044B13221988044B8F
:1051E000187801F027FA10BD2D64FF1F5842FF1FE9
:1051F0002E64FF1F10B500240122114B524218707B
:10520000104B1C70104B1A8001F0BEFF04220F4B94
:1052100021001A700E480C3206F0BEFA102221004E
:105220000C4806F0B9FA07220B4B1C600B4B1C70A4
:105230000B4B1C700B4B1A700B4B1C7010BDC046F7
:105240002E64FF1F2D64FF1F5842FF1F2C64FF1F99
:105250001C64FF1F0C64FF1F0864FF1FE263FF1F35
:10526000E163FF1F5A42FF1FE063FF1FF8B5174CB1
:105270000600257806A814240078052D23D1B41F34
:10528000134FA5B21824BD421DD88D1FADB2BD422B
:1052900019D8FA256D00AA4215D21D000D4F0A3DFE
:1052A000ADB2BD420FD80C4C26800C4C21800C496D
:1052B00000240A800B4A1380FFF716FF0A4B0421D3
:1052C000187806F0A9F82000F8BDC0462D64FF1F2D
:1052D000790C0000750C00005642FF1F5442FF1F5E
:1052E0005242FF1F5042FF1F2E64FF1FF0B50BB24A
:1052F0000D0089B0002B00DB70E1A44E307805F082
:10530000FBFF041E50D00378A22B00D122E1D02B4A
:105310001AD0912B45D143780E2B42D19C4B8288D9
:105320009A423ED19B4B1B78052B3AD183680320D0
:1053300018567F2835D0984B1B68002B31D05B68FE
:10534000002B2ED098472CE08078072829D806F02B
:10535000CBF90428183F3F74A8D86378002B0CD1F0
:1053600001218C4B19708D4B1A78002A5BD08C4B25
:10537000307801F06FFD002855D00722854B1A7058
:1053800051E061780029F8D1E378002B11D0854AEB
:10539000854B1278307801F05DFD60706378002BEA
:1053A000EBD1200006F050F880200002684009B0E0
:1053B000F0BD784B1B78022BF3D00121307806F03A
:1053C00043F90028EAD10121307806F055F8E5E7E5
:1053D0006378002BD1D16F4F032807D13B78052B81
:1053E00002D101333B701EE00223FBE76F4B1A88AA
:1053F0006F4B0293002A0BD01B78002B03D00121A6
:10540000307806F011F93B78062B04D1013BE9E72F
:10541000029B1A70F7E7042B41D10121029B3078DF
:10542000197006F029F85C4B1B68002BB9D01B687B
:10543000002BB6D0574A107884E76378554F002B7D
:1054400027D10622211D5B4806F02EFA62895A4BAD
:105450005A491A80A2895A4B1A80E3890B80052188
:10546000397058490A80584A1380228A574B1A804B
:10547000574B1B78012B09D11F2000F0FFFEFA22A9
:10548000920042430421307806F0CEF80022484BC7
:1054900075E7312B00D070E70022454B1A700323CB
:1054A000A0E706220021434806F076F90023454A8A
:1054B00004211380444A30781380444A138005F055
:1054C000ABFF0821307805F0A7FFA379083B5A42CB
:1054D0005341304A03331370304B1B78002B06D0F6
:1054E000334B30781A78002A06D001F0F1FC012203
:1054F000314B52421A8096E70121197005F0BCFF2A
:10550000F5E70821307805F087FF6378002B00D09D
:1055100047E72C4B2D4F0293E388029A0421138016
:10552000294B307803932389039A138063893B8046
:1055300006F08AF8002800D033E7264B1B68002BC2
:1055400000D12EE7039902983A88098800881B68E1
:10555000984726E74379132B00D022E70389012BD4
:105560000AD11D4B1B78022B06D10821307805F09B
:1055700053FFFFF72BFE14E7052000F07FFE082104
:105580000200307806F050F80BE7C0462E64FF1F8B
:10559000051400002D64FF1FC863FF1F8042FF1F1A
:1055A0006142FF1F0264FF1FE363FF1F0464FF1FCC
:1055B0000664FF1FD563FF1F5842FF1FDC63FF1FF8
:1055C000DE63FF1FD263FF1FD063FF1FCE63FF1F89
:1055D000D463FF1FC463FF1FCC63FF1F8020C00183
:1055E000014200D0E2E6CB0731D5324B1B78002BCD
:1055F0001DD0314E05AC3378052B1AD1023B2370F8
:105600002E4B21001B7823722D4B1B7863722D4B80
:10561000187801F0C3FB002809D007202A4B30700E
:105620001B68002B03D01B68002B00D0984701207B
:10563000BCE60E20254B06221B7825492370254BFE
:105640001B78637002ABC01806F02EF9D8E702236E
:1056500008001840194209D0174B1B78052B03D1BD
:105660001D4B188805F0D8FF02209FE60424214234
:1056700003D0FFF739FD200098E608230800184002
:10568000194200D193E6154B1C78012C03D0022C53
:105690000DD008208AE6124B124A134913481B8882
:1056A0001288098800880094FFF7E0FDF1E7FFF712
:1056B0008DFDEEE70664FF1F2D64FF1F5A42FF1F9A
:1056C000E063FF1F2E64FF1FC863FF1FE263FF1F1D
:1056D0005B42FF1FE163FF1F5842FF1FCC63FF1FA8
:1056E0005042FF1F5242FF1F5442FF1F5642FF1FEE
:1056F0000200F0B501270A480A4E51188B1A002BF8
:1057000000DCF0BD082415784308684038404000AC
:10571000805B013C58406D08002CF5D10132EDE76B
:10572000FFFF000066BA0011F0B500250F269D426C
:1057300000DBF0BD4C5D070944403440A400A05894
:1057400001357840F3E7000070B50C0088B06B4677
:105750000F2610340A7801311500120935401D70EA
:105760005A700233A142F5D120236946024AFFF75D
:10577000DBFF08B070BDC0466CBA0011F0B54E78C2
:105780000B7889B036020C00170001901E43012AE5
:1057900061D9954B9E4200D877E001339E421CD1DF
:1057A000062A17D1CA788B7812021A430B791B0488
:1057B00013434A7912061A438C4B5A6100221A701D
:1057C0005A808B4A5A608B4A9A608B4ADA60002072
:1057D00009B0F0BD88225205EEE7884B9E423CD1CD
:1057E00082498B78002B00D0F6E00C2A31D10F22B1
:1057F000A3789343E27812021343227912041343ED
:105800006279120613434B60E279A07912020243D7
:10581000207A00041043627A12060243CA60E27AD8
:10582000A07A1202024376484A81834208D80423B0
:105830006E49142201980B7006F036F81420C7E761
:105840001201D21889235B059A42F0D801238B708C
:10585000BDE7022AFAD00523EAE76A4A0123964205
:10586000E6D1FFF7B3FC052F0CD9E378A2781B0231
:105870001343227912041A4363791B061343624AC5
:105880000393136005F078FDA1E7584D2B78002BAA
:105890009DD1AB78002B00D1A0E02B8901339BB2C6
:1058A0000093B34200D091E0132AD4D9CF7C8B7CF3
:1058B0003F02122120001F43FFF71AFF874200D04A
:1058C0008EE0002E3DD1E378A2781B0213432279AB
:1058D000E96812041A4363791B06134303930A22EF
:1058E0008B4212D1FF23A370E370237163716B8924
:1058F000002B09D1E37B227C1B0212041343A27B01
:1059000013431B0901336B8100226B89002B8ED05E
:10591000002A67D1686837013818000B6B690003EB
:105920000390984205D9686105F06EFDEB7801336C
:10593000EB7068681022A11C381805F085FF2E81D5
:1059400045E76F89009A7B1E9BB293423AD1E27879
:10595000A37812021A43237905A81B041343627922
:105960006C6812061A43EB6800920392211D0C2208
:10597000049305F099FF0120260004A94042103647
:10598000FFF7E2FE013F012F17D1009A0B23286198
:10599000824200D04CE704221C49200005F054FF4D
:1059A000042203A9686805F047FEE968039AFF230B
:1059B000914200D13CE7F73B3AE73100FFF7C4FEE4
:1059C0001036DFE70923B742A4D831E7009BB34282
:1059D00000D9FCE607232BE7022329E7032327E767
:1059E000062325E70A2323E7FFFE00008442FF1F6A
:1059F00000000111FFFF00005048593601FF000070
:105A0000FFFF001102FF000034F000409042FF1F32
:105A10000121174BF0B51A68164C8A431A601A68B0
:105A20008606B60F2240340322431A601A68124CCD
:105A3000870922401A604022BA4032410F26304086
:105A400088400E4C12042568ADB22A4322602268B9
:105A50000B4D120C405B1204024322608022186836
:105A6000520202431A601A6811431960F0BDC04621
:105A700004E00040FF8FFFFFFFFFFEFF08E0004053
:105A8000ACBA0011F7B5364B364C01932388019A16
:105A90005B009D5C344FFF2D2DD10321162004F0B7
:105AA00051FA0021162004F03DFA01212F4B12205B
:105AB0001A688A431A601A680F318A431A6005F01F
:105AC0007BFE122005F048FE00233B702388019ADC
:105AD0005B00D318372280215B7849005A43244B5E
:105AE000187805F0A1FD238801339BB2732B00D9F0
:105AF00000232380F7BD3E78002E2DD132003100E7
:105B0000122005F0F1FC122005F0D6FC122005F061
:105B100063FE28001025FFF77BFF164B16491A6815
:105B200016200A401A601A682A431A6080221968EF
:105B300012060A431A60310004F004FA0A21162002
:105B400004F04AFB0121094B1A680A431A601A68DB
:105B500015431D603970B9E72800FFF759FFB5E715
:105B6000CCBA00113064FF1F3264FF1F00E0004018
:105B70000462FF1F04E00040FFFEFFFF802110B51C
:105B8000054B4900187805F047FC0022034B1A80AA
:105B9000FFF778FF10BDC0460462FF1F3064FF1F8F
:105BA00001210E4B10B51A6812208A431A601A6838
:105BB0000F318A431A6005F0CFFD122005F0FCFD7D
:105BC0000022074B032116201A7004F0BBF9802134
:105BD000044B4900187805F01FFC10BD00E00040A0
:105BE0003264FF1F0462FF1F10B5034C0B0001223B
:105BF000210000F06BFA10BDA95D00110B8870B593
:105C000006000D000224162B11D92B00032209498E
:105C100000F05CFA041E0AD1074B2A881B88191C65
:105C2000934200D9111C300089B200F0EDFA200037
:105C300070BDC046D55D00114664FF1F10B54A789F
:105C40000400013A0B000220012A07D80A78002A32
:105C500004D005222000024900F038FA10BDC046E9
:105C6000035E00110A7810B50B0004000220002A20
:105C700004D007222000024900F028FA10BDC046D7
:105C8000AF5E00110A7810B50B0004000220002A54
:105C900004D009222000024900F018FA10BDC046C5
:105CA000155F001110B5034C0B000B22210000F012
:105CB0000DFA10BD455F001110B5034C0B000D220D
:105CC000210000F003FA10BDB75F001110B5034CBE
:105CD0000B000F22210000F0F9F910BD1160001136
:105CE0000A7810B50B0004000220002A04D011220B
:105CF0002000024900F0EAF910BDC0462160001101
:105D0000002310B51322190000F0E0F910BD0000C7
:105D100010B5034C0B001722210000F0D7F910BD7D
:105D200073600011002310B51922190000F0CEF99C
:105D300010BD000010B5034C0B001B22210000F029
:105D4000C5F910BDAD600011F7B584890D000600DE
:105D50000121002C22D000238268D3561778002B13
:105D60001EDA0C2C1AD90C3CA4B2131940880093EB
:105D7000230002F090FE431E984101307B06DB0FAA
:105D80006B703F23013C1F40A4B22870AF70AC8001
:105D9000002C07D0B3680133AB6000210800FEBDC2
:105DA0000020EBE7AC60F8E70B7803704B8843709A
:105DB0004B881B0A83700B79C37004207047042042
:105DC000022B06D10020537811781B02009A0B4356
:105DD000138070470B8803700B881B0A43700220E6
:105DE00070470420009983420AD1537810781B022F
:105DF00003430B80D37890781B02034300204B8031
:105E00007047F8B50D004B7801240021461C037043
:105E10002B788B4201D82000F8BD6B78B01C4F1C4A
:105E2000012B10D1890069184B88022233704B88EE
:105E3000B9001B0A7370691805F016FC04360434A7
:105E4000A4B2F9B2E4E7122359436B185A8804311B
:105E500032705B8810221B0A7370691805F004FC0D
:105E600012361234ECE770B5049D14001E00052BA9
:105E700001D8042070BD637812781B0213432B8075
:105E8000E378A2781B02134302226B802A71211D42
:105E9000681D063E05F0E8FBB2B22A81E92AE8D87F
:105EA0002800A11D0A3005F0DFFB0020E2E70023F7
:105EB00010B50A789A4201D8900010BD9A008A184D
:105EC0005488013304705488DBB2240A44709488E7
:105ED00084709288120AC2700430EAE710B511008B
:105EE000029C062B04D004201022142B01D010BDDC
:105EF000022222714B7808781B0203432380CB785F
:105F000088781B02034363800431601D05F0ACFBFD
:105F10000020ECE710B50C788B7804315C43E4B2D8
:105F200003702200013005F09FFB601C10BD0420AF
:105F3000022B06D10020537811781B02009A0B43E4
:105F40001380704710B50C000A88023105F08CFBF5
:105F5000208810BD70B504000D0004981100012BBD
:105F600001D8042070BD16785278120232430280A4
:105F70000200F13255701470E125002C00D10C356F
:105F8000023B9AB24280AA42EBD80231043005F0BB
:105F90006BFB0020E6E70420009983420AD1537886
:105FA00010781B0203430B80D37890781B020343C5
:105FB00000204B80704710B50C000A88023105F0B4
:105FC00053FB208810BD000070B501211E00042085
:105FD000049C0E400B4218D1CB40DDB28D4214D947
:105FE0000A49DBB2098899420FD32300EE331D70B2
:105FF0003300580011184978165C09023143013307
:106000002152D9B28D42F4D8002070BD9C42FF1FAE
:1060100010B50C000A88023105F026FB208810BD5F
:1060200010B50C788B7804315C43E4B20370220025
:10603000013005F019FB601C10BD10B5110002986D
:10604000032B01D8042010BD14785278043B1202AF
:1060500022430280CA788C781202224342809AB28C
:106060008280EB2AEED80431063005F0FDFA0020DC
:10607000E9E710B50C000B8803700B881B0A43700E
:106080004B8883704B881B0AC3708A8804300631A2
:1060900005F0EAFAA088043080B210BD0420012B7C
:1060A00003D100201378009A1370704710B50C00CC
:1060B0000B8803700B881B0A43704A880230043136
:1060C00005F0D2FA6088023080B210BDF0B589B018
:1060D00003931D4B029242000700D05A019102F037
:1060E00022F81325061E2CD0029B01240370019B6D
:1060F000002B04D0001903999847001984B26B460D
:106100001B7A5BB2002B0FDA1021380002F01CFB67
:106110001925002812D130003219E1B202F070FCCA
:10612000051E0BD10C34A4B2042305A938000B8042
:106130000C814E6001F0B2FD051E02D0300005F06A
:106140002BFA280009B0F0BD4464FF1F70B50500AC
:106150000C0000280CD00020814209D01022200021
:10616000044905F081FA01202B7823736B7863735F
:1061700070BDC046B4BB0011F0B506000D0017009D
:106180001C0085B002291BD00020102907D1022B4A
:1061900007D0102B03D115E00020102C08D005B03B
:1061A000F0BD69463800FFF7D1FF2A0069460BE0D1
:1061B00069463000FFF7CAFF22006946380004E054
:1061C000022BE9D12A003900300005F085F9E6E715
:1061D000031CF02800D9F023032008499AB2013AA1
:1061E0000B80D317034006499B189B100B80D30FDD
:1061F00004499B185B100B807047C046A042FF1FEC
:106200009E42FF1F9C42FF1F034B1B888B4202D301
:10621000024B4000C1527047A042FF1F4464FF1F61
:10622000014B4000185A70474464FF1F1722014B6E
:106230001A8070474464FF1F70B505000E2005F0FA
:1062400063FA041E13D0D023037000230622837048
:1062500007494570033005F007FA064B2100DA8A3A
:1062600062811B7E2373044B187805F0C5F870BD5E
:106270006064FF1F5064FF1FF042FF1F262803D8F1
:10628000024B4000C05A70470148FCE7A242FF1F82
:10629000FFFF000070B506000C00094D1C22002114
:1062A000280005F079FA074B1E70074B1C7005F0AB
:1062B0004BF90123002801D0002312202B7070BD60
:1062C0005064FF1FF042FF1F7164FF1F70B505008F
:1062D0000D4C0800E260A16010220021656005F00D
:1062E0002BF9012803D11021A06802F061FD1022D2
:1062F0000021280005F020F9012803D11021606851
:1063000002F056FD70BDC0465064FF1F70B5041EFC
:1063100005D1002903D006220D4805F0A5F90D4B43
:106320001D78012D11D1002C05D102221A7004F024
:10633000D3FF280070BD00221A70074B1B78FF2B7B
:10634000F7D02000FFF778FFF3E70025F1E7C0461C
:106350006064FF1F5064FF1FF042FF1F030010B571
:10636000002801D1002010BD00780B4A002803D17D
:106370005988D1821B7913761378022BF2D100232E
:10638000984200D103331370044B1B78FF2B01D0CC
:10639000FFF752FF0120E6E75064FF1FF042FF1FA6
:1063A000002911D000280CD04B79012803D14022BC
:1063B0005242134303E03F221340032802D001203E
:1063C0004B7170474022F4E70800FAE770B5094DB9
:1063D0000100287800280BD0074C0622200005F089
:1063E00043F921002878FFF7DBFF200005F0E4F8EF
:1063F00070BDC0467064FF1F4A64FF1F00290AD0A9
:10640000012808D13F224B799343C02B03D0403B56
:106410005A425341981C704770B5174D06002B78AF
:10642000FF2B15D00A2005F06FF9041E10D0D023E1
:106430000370C83B8370114B11491B784670C370C1
:106440000622043005F010F92100287804F0D4FF6A
:106450000C4B1B78012B0DD10B4B1B68002B03D071
:106460009B68002B00D09847084B04211878084AF5
:1064700005F052F970BDC046F042FF1F7064FF1F67
:106480004A64FF1F6C64FF1F9864FF1F9C64FF1F1A
:1064900060EA0000014B98687047C0465064FF1FD7
:1064A000014BDB68186870475064FF1F074B10B53D
:1064B000DA68136801331360054B1878FF2803D09E
:1064C0008021C90104F0D8FF10BDC0465064FF1FF1
:1064D000F042FF1FF7B50E0002F0CAF8051E1CD0EF
:1064E0000E4B06621F78002F00D10778AB79102081
:1064F000019305F009F9041E0FD0D0230380C73B98
:106500008370019BE91DC3700622043005F0ACF8CE
:1065100021003800E66004F06FFFF7BDEE42FF1F78
:10652000014B18787047C0467064FF1F054B002868
:1065300005D1054B1A78054B002A00D1014B1800F4
:106540007047C0466064FF1F7064FF1F4A64FF1FEE
:10655000014B58687047C0465064FF1F024B1868D3
:10656000431E9841C0B270477464FF1F421E03006F
:106570000120152A03D9FF3B5A425341D8B2704734
:10658000F0B51C0000230E0085B0039002920B7042
:10659000029A934201D3002019E0E55C5A1CD2B262
:1065A000002DF8D0029851198142F4DC0233DFB299
:1065B000A35C18000193FFF7D9FF002807D0013D25
:1065C000019A0399EBB233708A4202D1E01905B007
:1065D000F0BDDB19DBB2DBE710B50C0002F0A0F870
:1065E00003001220002B03D02100588804F0DCFFA8
:1065F00010BD000070B50E4D84006359002B15D0FE
:10660000186A002801D004F0E7FF2B59586A0028C7
:1066100001D004F0E1FF2B59986A002801D004F062
:10662000DBFF285904F0D8FF00232B5170BDC04672
:106630008064FF1F1C4B70B504000E0015009942CA
:106640000AD11A4B1B68002B01D1122070BD1B68A8
:10665000002BFAD09847F9E7154B994215D1134B07
:106660001B68002B0AD01B68002B07D09847002816
:1066700004D1104B1C70104B1D70E7E7290020005F
:10668000FFF7AAFF0028E1D1F3E7080001F0F0FFCF
:106690000028DAD003780320A342D7D129003000A4
:1066A00004F082FFD2E7C046FEFF00007C64FF1FBB
:1066B000FFFF00007964FF1F7864FF1FF7B5040037
:1066C000808801F0D5FF0025A84203D00578A08876
:1066D00002F00AF81C4E3378002B1FD0AB421DD1BC
:1066E0001A4B28001978FFF777FF002818D00023ED
:1066F0003370A3790820A778A688019305F004F8E1
:10670000011E0DD0D0230370CA3B8370019B4770DC
:1067100086808371280004F06FFE01E0002DE8D12F
:10672000A0880B4B8200D358002B01D0FFF762FFEB
:106730001721A088FFF768FDA08801F02BFDA08835
:1067400001F002FEF7BDC0467964FF1F7864FF1FA9
:106750008064FF1FF0B587B01D000CAB1B880700DD
:1067600001930DAB1B88142002930EAB1B881600FF
:1067700003930FAB1B880091049310AB1B88059308
:1067800004F0C2FF041E1AD0D0230370CB3B477025
:106790008370C670062229000430002D11D004F049
:1067A00063FF019B21006381029B0098A381039BEF
:1067B000E381049B2382059BA37404F01DFE07B0B4
:1067C000F0BD04F0E9FFECE7F7B5009308AB1B88D8
:1067D00007000C200D001600019304F095FF041E25
:1067E00013D0280001F044FF00280FD00078D023F8
:1067F0002370C93BA370009B21002381019B67701C
:10680000A580E680638104F0F7FDF7BD014B1878A1
:10681000EDE7C046F042FF1F13B504006489038909
:10682000C2888188C0780094FFF7CEFF13BD0000B6
:1068300010B5044C2068002803D004F0CDFE0023DE
:10684000236010BD8464FF1FA122F0B581889200EF
:106850004A43384B384F1B6889B09B189D229200E1
:106860009B18827904001A603B68002B5FD01D786A
:10687000324B1B68002B04D05B68002B01D000203A
:106880009847260008363100E079FFF7B7FD237DF1
:10689000E0710200E0780493638A29000393238A5D
:1068A0000293E3890193A38800933300FFF752FF1B
:1068B000E378002B0BD1E289A379A188029201969B
:1068C000E27928000092012201F0DCFEE0703B68D2
:1068D000002B20D0FFF7ACFF194D287800281AD0E4
:1068E000184B1978FFF778FE002814D02B78082071
:1068F000A788E678079304F007FF011E09D0D0238C
:106900000370CA3B4670837087808671079804F0D5
:1069100073FD00232B701721A088FFF775FCA0885A
:1069200001F038FCA08801F00FFD09B0F0BD064B66
:106930009DE7C0463409FF1F8464FF1F9864FF1F52
:106940007964FF1F7864FF1FF042FF1FF8B507004E
:1069500008000E0001F08CFE041E18D02620FFF760
:106960008DFC051E00D12578062004F0CDFE041E06
:106970000DD00021062204F00FFFD0232370C23B6C
:1069800021006770A370A680E8B204F035FDF8BD61
:10699000F0B585B001930AAB1B78070002930BABEF
:1069A0001B7808000D000092039301F061FE061EA3
:1069B00022D0102004F0A8FE041E1DD010220021B9
:1069C00004F0EAFE2620FFF759FC002800D13078B9
:1069D000D0232370C13BA370009B21002372019B35
:1069E00067706372029BA580A372039BC0B2E372BF
:1069F0000C9BE36004F000FD05B0F0BDF7B50D00A1
:106A0000019001F035FE071E1FD00E2004F07CFE21
:106A1000041E1AD02620FFF731FC061E00D13E7856
:106A2000D0232380C53BA370F91D0622E01C04F08F
:106A30001BFE019B2100638101232B40AD07ED0F5D
:106A400023736573F0B204F0D7FCF7BDF0B585B0E1
:106A5000029010000D0017000A9E039301F008FE3B
:106A6000041E31D0029B002B2ED1039B02795B07C1
:106A700024D5122313430422002E08D10B99002998
:106A800005D10C99002902D10D9900291AD01A4379
:106A90000D9B2271002B00D0C9E0002E00D1CFE069
:106AA000002D00D0CCE0606A002801D004F094FDF5
:106AB0001C21300004F0F8FC606205E002239A43D8
:106AC0000E33D7E793432371654BBA00D458002C9B
:106AD00000D1AAE0002E10D0236A002B03D11C2085
:106AE00004F02AFE20625E4BBA00D358186A0028D0
:106AF00003D01C22310004F0B7FD0C9B002B12D0F8
:106B0000574CBB001D596B6A002B03D1162004F0B3
:106B100013FE6862BB00E358586A002803D01622AF
:106B20000C9904F0A1FD0D9B002B11D04C4DBC0025
:106B30006659B36A002B03D1142004F0FDFDB06246
:106B40002B59986A002803D014220D9904F08CFD6B
:106B5000380001F08DFD051E67D0414BBA00D358B7
:106B6000002B62D01A6A3420002A00D11C389A6A9D
:106B7000002A01D0143080B20B9A002A01D01C30B8
:106B800080B25B6A002B01D0163080B204F0BCFDED
:106B9000041E4AD01822002104F0FEFD2620FFF733
:106BA0006DFB0190002801D12B780193D023237035
:106BB000029B200063700A23294EA370039BBD0033
:106BC000A371AB59A780196A1830002905D01C227F
:106BD000A06004F049FD200034307359996A0029FF
:106BE00007D0030014221433E060029304F03CFD4C
:106BF00002980B9B002B08D003001C221C330B991E
:106C00002061029304F030FD02987359596A0029FB
:106C100003D01622606104F027FD6B46210018792D
:106C200004F0EAFB3800FFF7E5FC05B0F0BD1022E8
:106C30000D9B0D991B69A018236204F015FD2CE72C
:106C40000B9B002B00D13FE7012D00D03CE7606A91
:106C5000002801D004F0C0FC1C210B982AE7C04694
:106C60008064FF1F10B5044C2068002803D004F096
:106C7000B3FC0023236010BD7464FF1F0B4B07B5EA
:106C80001A68002A01D100200EBD6946531C01205C
:106C900012780731FFF774FC0028F4D00278012342
:106CA000100018401A42EED0EEE7C0469064FF1F75
:106CB000F0B51F4F01203B6887B0002B25D09B7893
:106CC000059300F0B3FB002821D00A20FFF7D6FA85
:106CD00004000B20FFF7D2FA164B05001E78731E36
:106CE0009E413B68F6B2191DD878FFF759FB3B6807
:106CF0002900DA7A043303929A7901930292009080
:106D000033002000059A04F03FFC07B0F0BDFFF708
:106D1000B5FF002805D00620FFF7B0FA04000720D1
:106D2000D8E70820FFF7AAFA04000920D2E7C046F6
:106D30007464FF1F7064FF1F70B50A4E040033783F
:106D40000D00FF2B0DD0042004F0DEFC011E08D046
:106D5000D0230370CE3B45708370C470307804F04C
:106D60004BFB70BD0043FF1F70B5040006200D00F3
:106D700004F0CAFC011E0AD0D0230370CD3B8370FF
:106D8000054B44701B688580187804F035FB002C97
:106D900001D0FFF767FF70BD7464FF1FF8B5264F81
:106DA00006003B680D001124002B05D10522234B62
:106DB0001B78134202D112242000F8BD204A10246F
:106DC0001268002AF8D01278002AF5D0DB0719D50E
:106DD0002B789A1E012A1AD80C2004F0ADFC13243B
:106DE00038600028E8D000230A224370290006708A
:106DF000023004F039FCFFF75BFF041E0AD0FFF7F6
:106E000031FFD9E700F012FB0028E1D1E4E7002BC5
:106E1000E2D0D0E70B4B1B78032BCDD11D20FFF721
:106E20002DFA094B18800028C6D0084B0421187889
:106E3000074A04F071FCBFE77464FF1F7164FF1F11
:106E40009064FF1F7064FF1F6E64FF1F9C64FF1F30
:106E500060EA0000F7B50193194B14001A78052376
:106E600006000F0012201A4221D0012920D1154B13
:106E70001D68002D1BD002201F2C18D8002C02D01A
:106E8000019B002B13D0104B1F221E706E1C002183
:106E9000300004F081FC01992200300004F0E4FB92
:106EA000310020002C70002F06D004F07DFAFEBDCA
:106EB000064B12201D68DCE704F00EFCF7E7C04625
:106EC0007164FF1F9064FF1F0043FF1F8C64FF1F4E
:106ED000F8B50F4E12243368002B17D01B780F3CE7
:106EE000834213D100250B4F0221387804F094FA25
:106EF000094B042138781D8004F08EFA074B2800D6
:106F00001D8033685C7004F0C7FC04002000F8BDED
:106F10007464FF1F9C64FF1F8864FF1F6E64FF1F63
:106F200070B5012823D11B4C2388002B03D01A4AAB
:106F30001578002D07D0194B1B68002B02D018784C
:106F4000FFF7C6FF70BD3B2B02D93C3B2380F9E71E
:106F5000134E0221307804F05FFAFA22238892005F
:106F600002215A43307804F05FFB2580EAE70B4B9F
:106F70001B68002BE6D00B4B1B785B07E2D5084B58
:106F80000221187804F048FA0022024B1A80FFF719
:106F900069FED7E78864FF1F6C64FF1F7464FF1FDE
:106FA0009C64FF1F7164FF1FF8B51E4D2868002800
:106FB00003D004F011FB00232B601B4E3068002827
:106FC00003D004F009FB00233360184F05243B78FD
:106FD00018002040234221D0154800F02BFA3B78BE
:106FE000234213D0202004F0A7FB2860002813D0F0
:106FF0002022002104F0D0FB202004F09DFB041E81
:10700000306005D02022002104F0C6FB002004E0FF
:10701000286804F0E1FA2C601320F8BD00F00AFAA9
:10702000F4E7C0469064FF1F8C64FF1F7164FF1F6C
:10703000F442FF1F10B50A4C23681A1E0ED0002818
:1070400008D10130587004F027FC002805D02368CF
:10705000002B02D00021FFF787FE0122100010BD97
:107060007464FF1FF7B5274E050033680191181EA1
:1070700021D05C78244F012C30D1FFF7FFFD002890
:1070800025D02000FFF7FAF80400412814D91F4B3F
:10709000022118781E4A04F03FFB1E4B3C3C1C802A
:1070A000022233685A703B78002B14D128000199D2
:1070B000FFF75AFE0120FEBDFA2292004243002A49
:1070C000EED0124B0221187804F0AEFAE8E7FFF791
:1070D000D5F80200F3E700233B70EBE73B78002B89
:1070E000E8D1032004F010FB011E08D0D023037068
:1070F000CC3B457083703368187804F07DF9FFF756
:10710000B1FDD7E77464FF1F6C64FF1F9C64FF1F11
:1071100060EA00008864FF1F10B5174983880200E9
:107120008B4220D011D815498B4217D0144900202A
:107130005B1899B2012907D8926811785A425341D5
:10714000D8B2FFF7F9FD012010BD0E4A00209B18B0
:1071500007229BB29A424041C0B2F5E78368187893
:10716000FFF768FFF0E7836899785A780902187882
:107170001143FFF777FFE7E70A2000000620000031
:10718000F8DFFFFFAFDFFFFF014B18707047C0460D
:107190000143FF1F10B5064C207001F045FA20781E
:1071A00004F0A2FB0521207800F068FD10BDC04668
:1071B0009C64FF1F0BB273B50D00002B00DBC4E015
:1071C000884B187804F098F8041E0ED00378912BA1
:1071D0000FD0A22B00D1A1E0834B1878FF2852D00A
:1071E000210004F009F900284DD1802000026840F8
:1071F00076BD43780F2B76D013D8052B70D00E2B8D
:10720000EAD18088794B98422BD8794B98421BD889
:10721000784B9842E0D1A3681878591CFFF776F8AC
:1072200038E03E2BD8D18378032B74D06CD8012B57
:107230006ED0022BD0D1704B1B68002B23D05B6823
:10724000002B20D098471EE06C4BC0180C28C3D8E8
:1072500004F042FB1DC2C2150BC20B0B0B3223C242
:107260003C00674BC0180728B6D8664B1B68002B3C
:1072700009D01B68002B06D0200098470AE0A368BD
:107280001878FFF7C9F8200004F0DEF8ADE7A06831
:10729000FFF764F800289FD0F5E7A3681B78002B60
:1072A000F1D0554B1B68002BEDD01B68002BEAD0AA
:1072B000210055489847EDE74F4B1B68002BE2D063
:1072C0001B68002BDFD021005048F3E7504B1B68B0
:1072D000002BD8D05B68002BD5D021004348E9E7CC
:1072E000FFF7ECF9CFE780884A4B984203D04A4B2E
:1072F000984200D070E7464B1B68002BC3D05B68F8
:10730000002BC0D02100D5E7153B012BBBD963E78B
:10731000FFF79AFAB7E7FFF77FFAB4E73F4B1B781E
:10732000042B07D100236A4613800179408800F0BE
:10733000CBFCA8E7364B1B68002BA4D05B68002B66
:10734000A1D00100364898479DE7012421420AD088
:10735000294B1B68002B04D05B68002B01D0002058
:107360009847012043E78B070AD5264B1B68002B63
:1073700004D05B68002B01D020009847022036E73C
:107380000421280008400D4200D131E7254E338802
:10739000002B21D0013B9BB23380002B1AD1FFF789
:1073A000DDF800280AD0204B1C70164B1B68002B00
:1073B00004D05B68002B01D020009847FFF7C8F885
:1073C000694601F00CFD6846FFF700F81D20FEF746
:1073D00055FF308004200AE7024B187804F01CF8AF
:1073E000F8E7C0469C64FF1F0143FF1F0E2000000A
:1073F00001200000091000009464FF1FFEDFFFFF62
:10740000AFDFFFFF9864FF1F0C2000000B2000007F
:107410007C64FF1F0D200000132000007164FF1F1B
:10742000FFFF00006E64FF1F6C64FF1F10B501F0CA
:107430009FF910BD014B18607047C0469864FF1F4C
:107440000B880020162B01D817230420014A138033
:107450007047C0464664FF1F00207047074A03007C
:107460001188814207D091880020994202D10130D1
:107470008000101870470020FAE7C046A464FF1F80
:10748000F0B58F7806000D00C5B01E2F15D1FFF79F
:10749000E5FF051E03D10024200045B0F0BD002209
:1074A0003B003100C078009200F0B8FB0400A81C3B
:1074B00000F0D8FBFF23EB70EEE7264B0624039386
:1074C0001B78FF2BE8D0182FE6D87B08224A013B17
:1074D000DB0002929A589446002ADDD0029AD31813
:1074E0005B68002BD8D00878002802D14B78012B9C
:1074F00002D10624122FCFD107AFAB88697800974D
:107500006446AA68A047041EC6D1AB78029A5B08FD
:10751000013BDB00D318390030005B689847041E3C
:107520000BD1AB78042BB6D0039A3100107822002F
:10753000009700F073FB0400AEE76A78002AABD135
:10754000AA7805A93B88087130000A704B80FEF7C5
:107550004BFBA0E70443FF1FC4BB00111D4B37B515
:10756000050098420BD000290AD1FFF777FF0028C9
:1075700005D11948FFF772FF002800D0058037BDFC
:1075800001291AD1FFF76AFF041EF8D001235B42DC
:107590000380A378FF2BF2D0FE2B07D00023E078E6
:1075A0001422009329001E3300F038FBA01C00F0C9
:1075B00059FB01235B426380E1E70229DFD10139F6
:1075C00001F0C2F80028DAD12800FFF747FF041EB7
:1075D000DFD1D4E7FEFF0000FFFF0000022210B55C
:1075E000074B52421A80074801325A809A80DA804B
:1075F00000F084FA044801F029F8002010BDC046CC
:10760000A464FF1F817400115D7500110388F7B534
:107610000400002B02D102252800FEBD4268022191
:10762000137825485268FEF7A7FD00282ED0234F77
:1076300001253A88002AEFD0802321885B020125AA
:107640009B1A9942E8DC0C2004F076F8061E31D033
:107650003B8822889C4600231800019561469DB214
:10766000491989B2AA421BD8002801D062443A8045
:1076700000233000082208C0210003F0F5FF104A63
:107680001368002B13D100251660C5E7626802213C
:1076900013780C485268FEF76FFD0028C7D1BAE78F
:1076A00060681D014019418101330198D6E71A0035
:1076B0001B68E6E71325AFE732BC00110243FF1F4A
:1076C000A064FF1F30BC0011014B18707047C0460A
:1076D0000443FF1F14230A0010B51A40194204D0B6
:1076E0000122102101F04CF810BD4B06F9D4C8431B
:1076F000022340001840F7E710B514008B0604D5AC
:107700000122102101F03CF810BD08230A001A40A4
:10771000194202D14BB2002B0FDA102101F030F8E0
:10772000002808D02300F2331B78002BECD0F13472
:107730002378012BE8D10020E6E703208907FAD45B
:10774000E2E70000F0B51F00184B85B01C680190FF
:1077500002910392002C27D1200005B0F0BDA5684E
:107760003301ED186B89019A934211D3029A934227
:107770000ED8002F04D10A9B002B10D12C00EBE770
:107780003B002978039A6868FEF7F6FC0028F2D1DE
:107790000136B6B2A388B342E1D82468DAE7A36819
:1077A0000A9A5B891380E9E70026F3E7A064FF1FCC
:1077B00037B50C000A8849880123914217D3002A63
:1077C00015D0651D23792A0002210A48FEF7D4FC52
:1077D000102300280BD023796188208800242A00F8
:1077E0000094FFF7AFFF0A23A04200D02300180047
:1077F0003EBDC04632BC001113B50A000888498856
:10780000012388420BD8002809D0002413790532BF
:107810000094FFF797FF0A23A04200D0230018002E
:1078200016BD13B50A0008884988012388420BD881
:10783000002809D00024137905320094FFF782FF55
:107840000A23A04200D02300180016BDF0B58BB06B
:1078500003904A8808880E000123824213D300282F
:1078600011D00023012704AC23700022718813007B
:107870000092FFF767FF05002078002D06D12278DF
:107880000A23002A41D118000BB0F0BD002835D1E1
:107890002B78022B18D167706A8983000130E318B6
:1078A00080005A8069680222201803F0DDFE2378E8
:1078B0000133DBB22370042B19D93B0068890130F6
:1078C00080B2002BD1D0DAE7022363701223584331
:1078D0006A89231804305A8069681022201803F03E
:1078E000C3FE23780133DBB22370002BE5D10A4AB3
:1078F0006B899B185A425341DBB2DFE76378012B57
:10790000E4D12B78022BC7D0B9E721000398FEF70A
:1079100095F90023B7E7C0460100FFFF0F4BF0B514
:1079200004001868002816D083685D89A54207D82E
:107930008288AE18B44203DA12019A18934201D138
:107940000068EFE71E005F891036A74204D10029C6
:1079500000D00D801800F0BD3300EFE7A064FF1FDA
:1079600070B505000C0008880021FFF7D7FF030061
:107970000120002B04D022002800197AFFF7BCFE5A
:1079800070BDF7B50C00002501902300EE331B7885
:10799000AB4201D800200AE06B00E65A002130001B
:1079A000E718FFF7BBFF002802D126800130FEBD9B
:1079B000017A0198FFF78EFE002802D03B882380D1
:1079C000F5E70135EDB2E0E710B5040008880021C5
:1079D000FFF7A4FF03000120002B03D02000197A39
:1079E000FFF778FE10BD0000054B1B68002B01D18E
:1079F000180004E09A6852898242F6D1988870474C
:107A0000A064FF1FF0B50E27002687B0039302ABDA
:107A1000FF183E8005001F4B40891400984207D094
:107A20002B78013000976A6880B2FFF78BFE060062
:107A300002212B7818486A68FEF79EFB00280FD0B9
:107A40006C892000FFF7D0FF002802D0013C041908
:107A5000A4B2039B002B00D01C80300007B0F0BD07
:107A600002212B780D486A68FEF786FB0028E7D1D3
:107A700002212B780A486A68FEF77EFB002807D0AF
:107A8000002EDED03B88A342DBD17489013CDFE7C6
:107A90006C89DEE7FFFF000032BC001130BC001132
:107AA0002EBC001110B50C00FFF7D8FC030002201B
:107AB000002B0AD0002C00D023609B781720FE2BCF
:107AC00003D00138FF2B00D1002010BD73B50D008D
:107AD00001A904001600FFF7E5FF172805D0002EC6
:107AE00004D129002000FEF725F976BD01221021DE
:107AF000200000F045FE0028F3D0F6E7014B1860A7
:107B00007047C046B064FF1F37B56B469D1D01002E
:107B100004000222280003F0C7FE2B88B02B0ED1F0
:107B20002379122B09D12300FA331B78012B06D1BC
:107B30000121608800F0E0F801E01B2BF8D037BD90
:107B400010B5054B0421187000F098F8FFF746FDBA
:107B5000FEF76CFB10BDC046B464FF1F0020F0B5FB
:107B60000BB20F0087B0834234DA274B187803F04A
:107B7000C3FB051E2BD00378A02B25D103AE31000B
:107B8000FEF7E2F8041E0BD1B378DB0724D51F4BB8
:107B900006341B68002B03D0310068889847040026
:107BA000A868002801D003F0F7FC002C08D1184A7F
:107BB000039B1340174A934206D0B3781B2B03D084
:107BC0000121688800F098F8280003F03DFC80202F
:107BD0000002784007B0F0BD0F4B1B68002B10D09F
:107BE000310068889847041EDAD07378002BD7D10B
:107BF000B27801A90A704B800C716888FDF7F4FF18
:107C0000CEE70624F1E7C046B464FF1FAC64FF1F53
:107C100000FFFF0000011200B064FF1FF7B50190E4
:107C2000FC200D0017001E0003F06EFD0400132061
:107C3000002C12D0B02320002370089BF422677020
:107C4000658026710830002B08D0190003F00CFD68
:107C50002100019803F0D0FB0020FEBD089903F03D
:107C60009BFDF5E710B5041E06D00078FD2803D86B
:107C700003F05AFCFF23237010BD00000A1F93B2CB
:107C800010B504000220032B05D882400020024BCF
:107C9000D1529B189C7010BDD464FF1F0B8870B527
:107CA000043B04000D000220032B0BD8012120000F
:107CB00000F04AFD03001420002B03D0290020000F
:107CC00000F0DEFB70BD000007B51300034A009210
:107CD0000A00012100F02CFC0EBDC046057F0011FA
:107CE00007B5019203220092024B0A00122100F014
:107CF00047FC0EBD837F001107B56B4601AA1180BA
:107D00000449D88008780633012802D1190003F00D
:107D1000ABFD07BDB564FF1F0C4B10B518700023F9
:107D2000FF210B4A1380138193819380094A53806A
:107D30001370517293819372D174D38213755177FA
:107D400003F07AFD00F0FCF910BDC046E464FF1FAB
:107D5000D464FF1FB664FF1FF0B58DB06B460020E2
:107D600003910C229B5E834200DBB1E05D4B1878EF
:107D700003F0C2FA051E00D1A5E00378902B00D0D5
:107D80009EE006AF01004688380000F013FA7968DB
:107D90000400002900D19DE03B88052B6FD13B8971
:107DA000032B1CD905AC200000F0A2F86288172A2A
:107DB00060D83989131D994231D17968237804310B
:107DC0000291D90738D5607800F08EF9071E06D0E9
:107DD000002303712378012B08D0132B23D0A8682C
:107DE000002800D179E003F0D7FB76E062880299A1
:107DF00009A800F0A6F80290380000F08BF909AA53
:107E00002378387A0192002231000092029A00F021
:107E100012F9380000F064F9029B002BDFD030002B
:107E200000F080F9DBE70378032BD8D16288029950
:107E300009A800F0D6F8DEE709AF122B12D13800FE
:107E4000029900F0B4F8021EE9D127498B88002B73
:107E5000C5D088792378019761780091310000F0CE
:107E6000EAF8BCE700233A003B8061783000FFF776
:107E70002BFFB4E71D4B09AA09936178F6E7042BA1
:107E800002D09A1F012AAAD8174A043B9B00995A8C
:107E90000029A4D0D218907831003A0000F0ADF853
:107EA00000289CD13B88042B03D001213000FFF730
:107EB00023FF012C04D1A868002801D003F06CFB3B
:107EC000280003F0C1FA8020039B00024340180001
:107ED0000DB0F0BD012800D181E701213000FFF78E
:107EE0000BFFEDE7E464FF1FD464FF1F01001700E0
:107EF0000B7803704B784370CB788A781B0213435E
:107F0000438070470A88030002700A88120A427090
:107F10000A88012A06D14A8882704A88120AC270E9
:107F20000420704702208242FBD14A8804309A70B4
:107F30004A88120ADA708A881A718A88120A5A7173
:107F4000EFE710B50400012082420CD94B780A7883
:107F50001B0213432380834206D1CB788A781B020D
:107F600013436380002010BD022BFBD1CB788A78AD
:107F70001B02134363804B790A791B021343A380CE
:107F8000F0E70B8803700B881B0A43704B888370E3
:107F90004B881B0AC3708B8803718B881B0A437143
:107FA000CB888371CB881B0AC371082070470300FC
:107FB0000120082A14D14A780878120202431A8054
:107FC000CA788878120202435A804A7908791202E4
:107FD00002439A80CA798879120202430020DA802B
:107FE000704710B504000120022A05D100204B780B
:107FF0000A781B021343238010BDF8B50600102039
:108000000F00150003F080FB04000120002C0ED0AF
:10801000A0230C22290023806780201D002D07D07B
:1080200003F022FB2100300003F0E6F90020F8BD48
:1080300003F0B2FBF6E7F7B51E00009008AB142082
:1080400017001D78019103F05FFB041E12D0A223DC
:108050000370019B47704380099B057146710C2298
:108060000830002B07D0190003F0FEFA2100009819
:1080700003F0C2F9F7BD099903F08EFBF6E737B5B7
:10808000041E0FD04388002B0CD00025C188132379
:10809000007A172201950095FFF7CDFFFF23658039
:1080A0006372257037BD000010B50C4904004A8882
:1080B000002A09D08B89002B05D00020CB8A022210
:1080C000834201D010BD012213000A204343002047
:1080D0004032C854C81842800472F3E7B664FF1FE8
:1080E0000023438003707047094B00211A0010B52C
:1080F0005C88002C06D01C79844203D10A234B43B0
:10810000D01810BD01310A330329F1D10020F8E75E
:10811000B664FF1F10B50400407A03F005FAFF2390
:10812000637210BD7047043010B580B203F014FACA
:10813000002803D00421494203F03EF910BD00009D
:1081400070B50025104CA0682580A581A580A842A7
:1081500002D003F021FAA56000250C4C0C4B606D99
:108160001D80230058331D70A84202D003F014FA7A
:10817000656500256068002801D003F00DFA01351F
:1081800008340A2DF6D170BD7C65FF1F2065FF1FE6
:108190007065FF1F70B5041E09D1054D2880A881A8
:1081A000A880A868002802D003F0F6F9AC6070BD82
:1081B0007C65FF1FF0B54B8885B0019300234360B9
:1081C0000A7905000F00022A00D07BE0CA88032A42
:1081D00017D98B685E7819783602DC78D8790E4327
:1081E00099781B7A24021B020C43034353495BBA60
:1081F0000B80331D93421ED1042C04D0631F022B2D
:108200000ED9012015E0019A4D4B1201D35A002BD3
:1082100006D00198FFF7BEFF4A4A13690133136184
:108220000421B8682E812C80494203F0C5F86860AB
:10823000002005B0F0BD434D042C06D0631F022B77
:108240000FD9EB680133EB60DBE7019A3C4B12017D
:10825000D35A002B05D00198FFF79CFF2B690133FF
:108260002B61374B30000293019B029A1B01019353
:10827000002301998C468B52130063449C80039326
:108280009E81FFF750FF039B041E986016D00421C7
:10829000B868494203F090F8FA880100043A2000D7
:1082A00003F0E2F90199029AFB888A5A043B9B1871
:1082B000029A8B522B6801332B60A2E7AB69013322
:1082C000AB619EE71E4B0293019B1E01029BF35A7A
:1082D000002B2DD002998C19A068002828D0012AE3
:1082E00026D1FA889B189BB27352A189994217D361
:1082F0009B1AC018B96803F0B7F9029BA289F35A18
:10830000934200D07DE700222B81A3882B80A368B5
:108310006B60029BF2520B4A53680133536070E763
:10832000084A9368013393600198FFF733FF68E7C9
:10833000044A536901335361F6E7C046E664FF1F00
:108340007C65FF1FEC64FF1F70B5051E15D10B4C3B
:108350000B4B1880230058331870606D002802D032
:1083600003F01AF96565250050356068002801D0D2
:1083700003F012F90834AC42F7D170BD2065FF1F3D
:108380007065FF1FF0B51700A12285B09200019320
:108390004243394B06001B680C009B18D933FF334E
:1083A0001D78FDF73DFF0430854204DD3000FDF708
:1083B00037FF0430C5B2BD4207D33A000021300078
:1083C000019B03F0B1F905B0F0BD2900380003F0BE
:1083D0000BF92300C6B250331E700393019B290092
:1083E0006365380002F090FFCBB20293002B02D0FD
:1083F000039B01361E7000262300503303931B7825
:10840000B34204D8606D002831D10020DBE7029A26
:108410002800002A04D0013B1000B34200D02800FD
:10842000F700E719387002F0CFFF786000280ED00F
:108430003A78019903F018F9019A3B780136D3187C
:108440000E4A0193D369F6B20133D361D4E7039B9B
:1084500018706065A74205D1084A1320D36A01331A
:10846000D362B0E7606803F097F80834F2E703F0EE
:1084700093F800236365C8E73409FF1FEC64FF1F0E
:10848000F7B50D0007000421686802F095FF2B89FD
:10849000040003702B891B0A43702B8883702B8880
:1084A0001B0AC3702E8902250436F6B2F42E15D8A5
:1084B0001B4B9F4214D10C2003F026F91135011EED
:1084C0000CD0902303708E3B0371043B4380154B0B
:1084D0008460C680187802F08FFF00252800FEBD5A
:1084E0005C237B43104AD3180093583301931B78C5
:1084F000002B0FD10300320038000099FFF742FF34
:10850000019B05001B78002BE8D13800009903F08F
:10851000BBF8E3E7054A0725536A01335362DDE7F9
:10852000FEFF0000E464FF1F2065FF1FEC64FF1FD7
:10853000F0B587B0009017200F0016000193FFF7E9
:10854000F2FD1325041E18D00C98031E02D00199C9
:10855000201D9847030AE370052303A9A070043087
:1085600008812770009866700B804C60FFF788FFC9
:10857000051E02D0200003F00FF8280007B0F0BD60
:10858000F0B587B01F000CAB1B7803910593012158
:108590000DAB06001C78049200F0D6F814250028D4
:1085A00021D02000FFF780FD0135041E1BD01149AA
:1085B000059B0A7803700132D2B2131EC68001D126
:1085C00001231A000B7022713000049B039900975D
:1085D000FFF7AEFF051E09D1230021000648074A18
:1085E000093302F051FF280007B0F0BD002363807B
:1085F0002370F8E7E864FF1F7F80001130750000EA
:10860000F8B505000E00064C064F2368002B02D07B
:108610003100280098470434BC42F6D1F8BDC0466A
:108620008C65FF1FA065FF1F0123064A5B42538034
:10863000002313715362044A136053609360D36044
:1086400013617047A065FF1F8C65FF1F02000023A8
:1086500010B506499C000859002801D1625010BD90
:108660000133052BF6D11320F9E7C0468C65FF1FB7
:10867000034A5388181A43425841404210407047F9
:10868000A065FF1FF0B585B002930AAB1F780CAB55
:108690001B88009008000E0001920393FFF7E8FF8B
:1086A00005001120002D1BD10E48FFF7E1FF04004B
:1086B0001520002C14D006220B99A771E01D02F0A2
:1086C000D3FF019B30002371029B29006371009B43
:1086D00066802370039B6562E381FFF791FF2800AA
:1086E00005B0F0BDFFFF000010B5FFF7C1FF0400AB
:1086F0000220002C12D060880121FFF781FF606A00
:10870000002801D002F068FF28220021200003F099
:1087100043F8012300205B426380207110BD0000FC
:1087200030B5074A074C5588010013780020A54250
:1087300004D05B1A59424B415842104030BDC046EC
:10874000A065FF1FFFFF0000084A10B501230C00C1
:10875000904208D0FFF78CFF031E04D0037923401A
:108760005A1E9341DBB2180010BDC046FEFF000048
:10877000024B1879431E9841C0B27047A065FF1F95
:1087800070B504000D001600FFF772FF002804D139
:108790000F4B9C4200D0143070BD10230279416A07
:1087A000134000290AD10520002BF5D0897E0C202A
:1087B000A9428941494249420840EDE70F20002B78
:1087C000EAD09207F2D40A38002EEFD0E4E7C04690
:1087D000FEFF0000030010B5002800D110BD0348C3
:1087E000034A41889142F9D09847F7E7A065FF1FF7
:1087F000FFFF0000002330B5C45CCD5C6C40D45456
:108800000133102BF8D130BD0F23002210B5C45C0A
:1088100064002243CA54C25CD209013BF7D210BDA6
:108820000200010010B52032103102F025FF10BD0A
:10883000F0B58DB00590102007931700069102F057
:108840007BFF0190102002F077FF019B1324029020
:10885000002B05D000280CD11324019802F0BCFE97
:10886000029B002B02D0180002F0B6FE20000DB0D3
:10887000F0BD102002F060FF0600102002F05CFF47
:1088800013240500002E00D1B3E0002819D01022D7
:10889000002102F081FF32002900059802F0ECFE71
:1088A000041E0ED133787F2B56D830000199FFF784
:1088B000ABFF019B1B787F2B58D802990198FFF7DB
:1088C000A3FF300002F088FE002D02D0280002F045
:1088D00083FE002CC1D1102002F02EFF06001020D4
:1088E00002F02AFF0390002E00D180E000287CD007
:1088F0003A0001210F3223001211049106D013B265
:1089000004930F233B405A4253411BB2049A013A4D
:108910001201002B34D0069BD2B298180199039A09
:10892000FFF768FF10220021300002F035FF049DA0
:10893000069F013DADB22D017D19AF4242D0002C02
:1089400033D0300002F048FE039B002B00D184E7B7
:10895000180002F041FE80E729003000FFF754FFC5
:1089600028002649019AFFF745FFA2E72900019850
:10897000FFF74AFF28002149029AFFF73BFFA0E7D3
:108980000F2506993D408A1808A8D9B28D4207D90B
:10899000D15C19540133102BF7D1039A0299BFE728
:1089A000691A4F427941C901F3E73900300008AA3A
:1089B000FFF720FF3200059808A902F05DFE10378E
:1089C0000400BAE7002CBCD13000039908AAFFF7D5
:1089D00011FF320008A9059802F04EFE082204009B
:1089E0003100079802F040FEABE71324A9E71324F7
:1089F000AAE7002800D069E72EE7C04638BC00117E
:108A0000F0B58BB00F0016000225009000283FD073
:108A1000002A3DD00B1DDBB21800029302F08CFE41
:108A20001135041E34D0FDF73BFD05003A000099D6
:108A3000201D02F0E1FEEBB20393E3702B0CDBB2DE
:108A40002F0A00936370FFB22B0E2370A77001935F
:108A5000FDF720FD1022010006A802F0CDFE210046
:108A6000029A04AB06A8FFF7E3FE051E0DD1039B97
:108A700008223370009B04A9B370019B7770F370D8
:108A8000301D02F0B9FEFDF711FD200002F0A4FD3B
:108A900028000BB0F0BDF0B58FB00D00149E039010
:108AA00004920593002A03D1022420000FB0F0BDE8
:108AB000002EF9D00398FFF7DBFD1424071EF4D035
:108AC0007278337812021A43B3781B041343F27896
:108AD00012061A43036A0192934201D30133E3D190
