:020000041100E9
:103000007FB50023284C294D03932800217C284AB2
:1030100001F0C3F9002812D103232800217C03AA60
:1030200001F062F900280AD1224B039A9A4206D194
:10303000214B2248E360224B636104B070BD02263D
:10304000217CFE2228001F4B009601F01FF900286A
:1030500001D00020F1E71C4BA2899A42F9D1217CD2
:10306000FF222800194B009601F010F90028F0D13A
:10307000E389174A934203D1164B17486361DCE793
:10308000164A9342E5D1164B164A1B68934206D95D
:10309000C02304222800217C9B0001F060F9124B20
:1030A00012486361C9E7C0468C61FF1FEC41FF1FF6
:1030B00081370000595953005959832054C10011D8
:1030C000ED4000119861FF1F595900009A61FF1FE0
:1030D00083050000A540001134C1001182150000D5
:1030E000B061FF1F871300004141001144C100116E
:1030F00070B5134D2B7C002B0DD0124C200001F02D
:1031000073F8297C382907D1BA22200001F016F97A
:10311000200001F0A7F870BDEB890B4A934206D15D
:103120009023022220001B0201F019F9F0E7074A60
:103130009342EDD12000064A01F02FF9E8E7C0469E
:103140008C61FF1FEC41FF1F8305000083200000FE
:10315000A23000000022024B1A825A617047C0461A
:103160008C61FF1FF7B5164B0192C318021D00209A
:10317000009388235B05D3181B685C1C1AD09CB293
:10318000402C18D88D781E0CAC466746CD782D02A1
:103190003D43AE4206D1019800280ED110000C70BC
:1031A000240A4C7003249BB20733A343D218009B1C
:1031B0009A42DED3FEBD4432F9E71000FAE7C0467A
:1031C000FC0F0000802213B503000324019189B293
:1031D000520107319B18A14304305A1A88235B051A
:1031E000C3181B68591C03D190429241104016BD70
:1031F00099B2402907D80B000733A343C018904267
:10320000ECD30020F3E74430F9E7134B134A1B6873
:10321000126810B5FA24934201D81A00F824104B12
:10322000E4021B689A4210D813000E4A12689A42B0
:103230000ED3013307D1F823DB029C4203D10A49A4
:10324000054808F045FE200010BDFC24E402ECE730
:10325000FE24E402F7E7C04600C0071100D00711C2
:1032600000E0071100F00711FFFFFF7FF0B59BB0F2
:10327000150003900491402A5CD806AC618022803E
:10328000FFF7C3FF002221000600FFF76BFF0528B0
:103290000FD92388AB420CD1002D07D0504B2A0008
:1032A0000399C01808F054FC002802D101201BB07B
:1032B000F0BD258030000699FFF784FF041E79D108
:1032C000069B0793FFF7A1FF80235B01C6188023AD
:1032D00007001B039E4201D1F826F60288235B05F6
:1032E000F31801931B68013302D0019808F080FEA7
:1032F0003C49019808F0ECFD3B1D0293331D0593FA
:103300008822029B52059B181B6808935A1C13D1F4
:1033100088235B05FF1839680198013908F0D8FD4A
:10332000380008F065FE30000799FFF74BFF0400F6
:10333000002C41D10020BAE744219AB20091402AE2
:1033400004D80320D11D814389B2009104991B0C3C
:103350008B4224D0402A22D80122300008A9FFF74E
:1033600001FF021E1BD1380008A9FFF7FBFE040075
:103370000428DDD9009A059B9B1880225201B218BF
:1033800093422AD288235B05C118009A09A808F045
:103390000FFC134B009A09A9F01808F029FB009ABA
:1033A000029B9446634402930F4B029AFB189A4285
:1033B000A6D3ADE70428BDD088235B05E0180699A5
:1033C00008F086FD0323EA1C9A4300D16EE7044B04
:1033D0000399E01808F00CFB68E70424ECE7C0460A
:1033E00004000011FFFFFF7FF80F000073B5040019
:1033F0001600402A1ED801AD6980FFF706FF0022A3
:1034000029002A80FFF7AEFE042810D92D88002E4F
:103410000BD0002C09D0321CAE4200D92A1C074B1D
:1034200092B2C118200008F0C3FB28B276BDC04399
:1034300000B2FBE703204042F8E7C0460400001159
:1034400037B5042204000D0001A81649FFF7CEFF8E
:10345000020004280BD1019BA34208D3AB4204D045
:10346000104901A80195FFF701FF01203EBD0E4C58
:1034700023682000019308F0BBFD01992000013969
:10348000019108F025FD80235B01E418074B9C4265
:10349000EED10422034901A80195FFF7E7FE0020C1
:1034A000E4E7C0465555000000C0071100000811B0
:1034B000802270B5984C994BD200002120001C60EE
:1034C00008F05EFB2300964A88331A60954B1A7801
:1034D0006A23002A00D01133E3620A232365924B4A
:1034E00037221B780821A363904B6018E3611023F7
:1034F00023628F4B3B256361C823DB00A36123005C
:103500008C331A602823013AE26321646364C26742
:10351000043A201DC2672000BC3005602000C03086
:1035200001602000C430036020000635CC30056007
:103530002000083DC83005602000D0300260220025
:10354000D43211602200D832136022000226E03209
:10355000200016604222DC30026020001B3DE43077
:1035600005602000E83001602000EC30036023009B
:103570000520F43318602300F0331A60230018325A
:1035800090331A6023009433196023001E3A983355
:103590001A60AF23DB002360664BFA252363A63B4A
:1035A0009C46A360644B6548E36063462361644BBB
:1035B000AD00A3642300FC331D60A0627320E065AE
:1035C0006D386065A06596205E4A8000E2646562A1
:1035D00059606666A06600260920A667E0665A4E16
:1035E0005A48616721002067E267326015269C31E6
:1035F00066600E001A2131602100A0310E002121E9
:1036000031602100A8310E004D4931602100F831B0
:103610000D6021006426A4310E6021005F3EAC31B4
:103620000E602100033EB0310E602600B436350036
:10363000C8262E602600B836350000262E603825B4
:103640009D60434D96215D64424D5A66DD61424D59
:103650009A645D62F53DFF3D9D621E259A67364A7C
:103660008900DD661E675E671962D8651866DA67CD
:10367000BE233A4A5B00E250394BD83963500431DB
:103680006250C4225200A350C6236246E4205B006D
:10369000E2500433E2503349334A344BD160344969
:1036A000800019503349E938FF3819503249043045
:1036B000195032493248D16132491163324951635C
:1036C0001900F4310860CE203049400011603049C3
:1036D000195019002F48F83108602F49D16582210F
:1036E0002E4A89005A501A002D490832D1671A0013
:1036F0002C49B432116088212B4A89005A501A0093
:103700002A49883211602A4ADA6408F011FB012044
:1037100008F07EFB70BDC0460004FF1F9C64FF1FC5
:10372000B06FFF1F1844FF1F4A0AFF1F3A0700002F
:1037300080C3C9019A020000DC0500006A1800007D
:1037400050C3000088130000F009FF1F204E000046
:103750006509FF1F68100000C409000040420F0007
:1037600010270000CD1BFF1FFC00FF1F0000FF1FE4
:103770005D2CFF1FE52FFF1F7D2EFF1F951FFF1FD5
:10378000B126FF1FB11FFF1F6521FF1F211FFF1F54
:10379000DD28FF1FC529FF1F9919FF1FE927FF1FFC
:1037A000F924FF1F0525FF1F211EFF1FD91EFF1F24
:1037B000991DFF1F064B074A1B68591C06D01900AC
:1037C0003231642902D85BB2137070470023FBE7E3
:1037D000081E0011680AFF1F1F20074B074A1968BF
:1037E000814204D8136883430B4313607047116808
:1037F00009238143F8E7C0460C1E0011BCF00040CD
:1038000070477047704700000223F0B5012400277D
:103810004C4E4D4D8FB033704C4B2C7019684C4A48
:1038200091701F6008F08CF9FFF742FE08F058FA1B
:103830001F22484B1A70484B1C70484B1F70FFF7F3
:10384000CBFF602346490A689A43403B13430B6011
:1038500008F0D6F908F0DCF808F01AFAC120FF21C8
:10386000404B80001A588A431A50C522920098583B
:103870008843BF390143995098583B4908408021FB
:10388000C9010143802099509958C0050902090ACD
:103890000143995080213548490108F011FB032369
:1038A0002200334901940093324808F0A1F92C22F8
:1038B000314903A808F07CF903AC6178207806F060
:1038C0000DFD02340EABA342F7D12C4C2C4B2268D9
:1038D00003201A40A023DB021343236080232268C5
:1038E0009B04134323602268264B1A4080239B03CA
:1038F00013432360244A254B934200D8012008F04B
:1039000027FB08F0CDF980232268DB0413432360F2
:10391000307808F065FB2878C0B208F029F908F083
:103920007FFB1B49042008F05BF906F0EFFE00F076
:1039300031F800F04BFD00F0E7FD00F0E5F9002064
:103940000FB0F0BD4A0AFF1F1844FF1F34F00040BB
:10395000BC61FF1F480AFF1F490AFF1F680AFF1FBB
:10396000BCF0004000E100E0FF00FFFF1C44FF1F2F
:10397000A056FF1F1C54FF1F50C0001114F0004040
:10398000FF7FF8FFFFFF9FFF0080FF1FB06FFF1F4B
:103990003B000108002210B51100112008F0A8F921
:1039A00010BD0000F8B500230926374F374C3B62A5
:1039B000E3681120B343E36008F0D2F8112008F067
:1039C000EFFA112008F074F9402322688025134390
:1039D000236080236268DB0213436360A3682C4A80
:1039E0002B43A360A36802211340A3608023A26835
:1039F0009B0113431022A360236C0720934323648D
:103A0000236C0F3A1343236480235B003B62226BD9
:103A1000204B1A402263626B1A406263A26B1A4009
:103A2000A263E26B1340E363E3681B4A1340E36065
:103A300006F054FC0121072006F064FD174B11200D
:103A40005A6C15435D6408F053FAFD21144B154A76
:103A500089005A508023C720626B5B031343636362
:103A6000E36880003343E3600F4B104A195811405C
:103A7000802212020A431A50802292051A600822FC
:103A80000B4B5A63F8BDC04600F000403CF00040CC
:103A9000FFFFDFFFEFFFEFFFFFFF7FFF003800407A
:103AA0000000FF1F5D18FF1F00E100E0FF00FFFFA7
:103AB0000000054010B5FFF71BFBE120C00408F033
:103AC0005FFA10BD70B51A4CE388002B2AD0FA2299
:103AD000D200934201D2FFF7EDFF2368E088A68869
:103AE000C0188023711C89B2124D2060A1809B00F8
:103AF000994218D3420A93B2C21AEB802260A68080
:103B00000D4A642093420AD8FA220020D200934240
:103B100005D90A21180008F07BF8C838C0B2002384
:103B20002872E38070BD08F033F983B2EB80E7E7D9
:103B30001861FF1FA461FF1FB70B000030B503A879
:103B400004880B20002C0ED14968074D087849786D
:103B5000090201430A20A94205D101212000198050
:103B6000024B1B7A137030BD192A0000A461FF1F9D
:103B7000F7B5150008AA16884A680F4F14785278CE
:103B8000120222430A24BA4214D10122DBB201926A
:103B900000962A0007F034FE041E0BD1074B1B6869
:103BA000002B07D068782A78000210434242504127
:103BB000013098472000FEBD022900002861FF1F48
:103BC00030B5012503790400BFB02B4211D00A495A
:103BD000408807F085F928420BD0084B01A95B8D7E
:103BE0004D800B80064B00221B7A60880B7104F01D
:103BF00039F93FB030BDC0462061FF1F6040FF1F54
:103C0000A461FF1F10B50549054807F01FF90421FD
:103C1000044A054807F0DCF810BDC0462061FF1FCC
:103C2000FFFF00007CC000116040FF1F10B502487C
:103C300004F09CFF10BDC046C13B0011012303707E
:103C40000B4B1A7A4270022282709A78C270DA782C
:103C50000271032242711A7982715A79C2710C225F
:103C600002729A794272DB7983720B207047C046E8
:103C7000A461FF1F022310B50370013B437005339D
:103C8000837010330371443B43712A33837144338F
:103C9000C37100230372054B04001B8843720A3072
:103CA000FFF7CCFF11231520E37010BDA461FF1FA7
:103CB00010B5142008F02CF8124B142200211860C3
:103CC00007F05EFF002008F0F3F8012008F040F84C
:103CD000022008F045F8032004F0EAF9042006F079
:103CE00003FA052003F0D4FB062004F0F5F80720C2
:103CF00001F08AFC082007F04BF8092001F020F9B8
:103D000010BDC0462C61FF1F08F08AF8012007F0A3
:103D100087FE08F0B5F80000094B10B50400984282
:103D200005D0012904D12000064907F08FF810BD05
:103D30000229FCD1013904F0D3FE0028F3D0F6E7C4
:103D4000FEFF00005261FF1F70B50D7A100004AA3B
:103D50002C00168810221440154220D1002E20D1AC
:103D60000A78022A18D14A68517815780E4A090251
:103D70002943914205D00D4A914209D01C800A2462
:103D800004E014220A491A8007F012FF200070BDD7
:103D90000C2208491A80F7E71C800124F6E7082462
:103DA000F4E70B24F2E7C046F3FF0000F4FF000045
:103DB000A842FF1F70C1001110B504000749084850
:103DC00007F044F8074804F00DFE0020E40704D58E
:103DD0000721054A054806F0FBFF10BD5261FF1F91
:103DE000FFFF0000193D0011C0C00011A440FF1FDB
:103DF00010B50B4BBEB01A780A4902A800F038FD86
:103E000001AC80B26080002808D0074B00221B88DC
:103E100021002380054B188804F024F83EB010BD23
:103E20003061FF1F3161FF1FFE40FF1F0842FF1F6F
:103E300010B50B4BBEB01A780A4902A801F032FE49
:103E400001AC80B26080002808D0074B00225B8D57
:103E500021002380054B188804F004F83EB010BD03
:103E60005A61FF1F5B61FF1FA440FF1F0842FF1F35
:103E7000F7B50E00377A1C0008AB11003D001A8818
:103E800020231D401F423CD13378022B3BD1736865
:103E90001F785B781B023B431E4FBB4208D01E4F6E
:103EA000BB4214D01D4DAB4221D00A252800FEBDD7
:103EB000002A2AD1142C2AD82200F06807F078FEB4
:103EC000174B1C70012CF1D9FFF7B2FFEEE7002A67
:103ED0001BD1202C1BD82200F06807F069FE114B83
:103EE00004211C70104B187807F06AFEDEE7E3B27D
:103EF0000124009201940A00310007F081FC0500C2
:103F0000D4E70825D2E70125D0E70B25CEE70D251C
:103F1000CCE7C046F3FF0000F4FF000002290000D8
:103F20005A61FF1F3061FF1F5162FF1F332310B51D
:103F3000040003700A220749013007F039FE064BDE
:103F40000F201B681A0AE37222731A0C1B0E62738D
:103F5000A37310BDA461FF1FCC61FF1F30B5012505
:103F600003790400BFB02B4213D00B49408806F000
:103F7000B7FF28420DD0094B01AD1B8802A82B804A
:103F8000FFF7D4FF0F236B8000222900608803F025
:103F900069FF3FB030BDC0465261FF1FFE40FF1FAA
:103FA00010B5024804F0E2FD10BDC0465D3F0011AF
:103FB00070B5160004AA148805AA15784A685078C6
:103FC000117800022A4A0843801805284BD807F0C8
:103FD000FFFF03131E29343F07221000062C0AD8C6
:103FE000121BAA4200D92A0022491A80300009195E
:103FF00007F0DEFD002070BD0720112CFBD8122237
:10400000121BAA4200D92A001B491A80EEE707209A
:104010000E2CF0D80F22121BAA4200D92A001749F1
:104020001A80E3E70720032CE5D80422121BAA42DA
:1040300000D92A0012491A80D8E707221000062C5E
:10404000D9D8121BAA4200D92A000E491A80CDE7FE
:1040500007221000062CCED8121BAA4200D92A0033
:1040600009491A80C2E700220A201A80C3E7C04625
:10407000DCD5FFFF11C100117861FF1F01C10011E4
:10408000FCC00011F4C00011ECC0001110B50D21EE
:10409000024A034806F09CFE10BDC046E0C0001175
:1040A0001441FF1F37B50F4C01AD04232A00217CBA
:1040B00000F01AF9002813D12988236849BA89B277
:1040C0004B4321891B0C5B18074A6988538049BA06
:1040D000636889B24B4361891B0C5B1893803EBDBA
:1040E0000120FCE78C61FF1FA461FF1F37B5124C54
:1040F00006236A46217C6D4600F0F6F8002818D1A8
:104100002988236849BA89B24B4321890B4A1B0C81
:104110005B1853806B4603335B78E9781B020B43D3
:104120005BBA61689BB24B4361891B0C5B1893803F
:104130003EBD0120FCE7C0468C61FF1FA461FF1F4C
:10414000F0B5022785B0154C03AD217C2B00002271
:104150000097060000F09AF8002802D0012005B070
:10416000F0BD0E23217C0122300000976B4400F04B
:104170008DF80028F2D129882368C9BA4B432189D8
:104180001B145B18064A6988538049BA636889B270
:104190004B4361891B0C5B189380E0E78C61FF1F28
:1041A000A461FF1F10B500F0F1FA034A0020138844
:1041B0000133138010BDC046A461FF1F10B500F08D
:1041C000CFFA10BD10B58024064AA4001168436BD5
:1041D000234205D113685B1A032BF8D9012010BDC7
:1041E0000020FCE76008FF1F70B5C17905000C00D6
:1041F000631E9C411A4BE402E41849000460C9B2F2
:10420000007906F0B5F9E979687949000131C9B258
:1042100006F0AEF9E8790930C0B207F049FD002395
:10422000E36661332360AA795B3B002A0ED02268E3
:104230009A43023B134323600A23E361073323625B
:1042400000232363A3630133E36370BD22689A43B1
:10425000022313432360462363610633A361EFE720
:104260000050004070B5002504000368DD66C07989
:104270000930C0B207F074FC2900207906F014F967
:104280002900607906F010F970BD0000F8B51E0035
:1042900006AB1D78002304681700E366616007F031
:1042A000C7FE01238022E3662B0027615200013BF9
:1042B00008D207F0D5FD08200A4A1168002D03D165
:1042C0002800F8BD2261F2E7236F034203D023697F
:1042D000013D3370013613685B1A032BEED90125BB
:1042E000EEE7C0466008FF1F70B51C00002305689C
:1042F0001600EB66696007F09BFE01238022EB66E7
:1043000023005200013B08D207F0AAFD08200A4A08
:104310001168002C03D1200070BD2A61F2E72B6FD9
:10432000034203D02B69013C3370013613685B1ADA
:10433000032BEED90124EEE76008FF1F002370B5C0
:1043400004681500E366616007F072FE0123E3660E
:10435000256107F085FD2000FFF734FF70BD70B5C3
:104360001D00002304681600E366616007F060FE2C
:104370000123E36626610F33626B1A42FCD02B0ADD
:1043800023611023626B1A42FCD0EDB2256107F065
:1043900067FD2000FFF716FF70BD002370B50468AD
:1043A0001500E366616007F043FE0123E3662B0A14
:1043B00023611023626B1A42FCD0EDB2256107F035
:1043C0004FFD2000FFF7FEFE70BD000010B5084C49
:1043D000E368002B08D18022064B52021B689B1811
:1043E0006360054B1B68236007F0BAFDA06010BD39
:1043F000CC61FF1FC8F00040CCF00040F0B5184A77
:10440000936A916A9942FBD116498A689A421FD3EE
:104410009A1A8B60144B4C68186893B2D2024343CB
:10442000D20E42431B0A08681B1912029B18002473
:10443000020001270D4D4B60561CAB420BD8002CDF
:1044400001D010000CC10A4A13600A4B1860F0BD7D
:10445000581E821ADDE7084A3C009B183200EBE741
:1044600000F00040CC61FF1F140AFF1F40420F0004
:10447000C8F00040CCF00040C0BDF0FF70B5194C52
:1044800023793F2B01D93F232371174A13701078EA
:10449000C0B207F035FD1823144A15491380154A98
:1044A0000B8013804B80A0790C3B421C534380222D
:1044B0001201934213D81A00CB80A0230E4D88809E
:1044C00028800E486371823B028023720C4A0D4B98
:1044D0001A60E379052B01D81023E37170BD130036
:1044E000EAE7C046C061FF1F480AFF1F0642FF1FE0
:1044F000C443FF1F0442FF1F0242FF1F0042FF1F71
:10450000E0930400B061FF1FF8B521210020FEF701
:1045100097FF114C011E114D09D10C22104BC1CB3C
:10452000C1C4280007F02CFBFFF7A8FFF8BD0C2240
:1045300020000C49FEF75AFF0C2802D0084B43CB51
:1045400043C40C2228000849FEF750FF0C28EBD08A
:104550000C220021E5E7C046C061FF1F8C61FF1FF0
:1045600064C10011FC0C0000F50C000010B50C2219
:1045700002480349FEF77AFE10BDC046C061FF1F26
:10458000FC0C0000F0B51D4C8022A54404008820DE
:1045900069465201400507F093FB902212016A44DC
:1045A0001300200032C832C316C816C38023144C2F
:1045B000144FA6689B033343A3603B6007F030FBB6
:1045C0008823A0685B05C01807F012FD002588232A
:1045D00029008022A0685B05C01840196944520078
:1045E00007F006FA80230135FF355B019D42EED1CD
:1045F000A6603E60044B9D44F0BDC046FCEFFFFF4B
:104600003843FF1F9808FF1F0410000003780021A3
:10461000013BF0B5012B05D82B4B2C4C2C4E027ACC
:10462000914200DBF0BD4268575C1A6901321A61A1
:1046300022783F2A06D8227894460132D2B22270DC
:104640006246B754522F05D101221F705A739A73D4
:104650000131E4E79A7B002A30D05A7B94466546C4
:104660000132D2B25A735F550C2AF1D91A7B452A0E
:1046700005D0DA8A013292B2DA820022E7E7012716
:104680009A8A013292B29A829A1CD7771A79DF7885
:1046900012023A4312B21A839A795F7912023A43AC
:1046A00012B25A835A781F7A1A779A785A775A7AB6
:1046B0009A77DA79DA775A1CD777DEE7DA8A013225
:1046C00092B2DA82C4E7C046EC61FF1F1062FF1F9E
:1046D0001162FF1FF0B51C4B89B018002422002185
:1046E0001E0007F04DFA40220021184807F048FA52
:1046F0000022174B00211A700A3202ABD01807F0C3
:104700003FFA144B04AC238096239B0105930123AD
:1047100021002372104B114A0793A1C9A1C2136053
:104720000022049800920599069A06F013F90400F5
:1047300062426241F31CDA77002802D1082007F0B8
:10474000D7FB200009B0F0BDEC61FF1F1162FF1F15
:104750001062FF1FFF0600000D460011DC61FF1F05
:1047600007B5084BDB7F002B0BD0002006F02EF99D
:104770000022054B00920FCB06F0ECF8082007F062
:10478000B7FB07BDEF61FF1FDC61FF1F10B5124BC8
:10479000124ADB7F1249002B0CD0138B4B80538BBA
:1047A0001BB28B800332D37F002B02D0082007F08E
:1047B00017F910BD938A002B0AD0938A5B429BB2F3
:1047C0004B80D38A002B05D0D38A5B429BB2E7E7AC
:1047D000044BF5E7034BE3E7EE61FF1FEC61FF1FBE
:1047E000A461FF1FFFFF0000F0B587B0051E6C46F7
:1047F00027D0684607F024FC1B4D022806D106226C
:104800006946280007F0A4F9002818D00F222100DB
:104810000023012094460600EA5C01331709103793
:10482000BE403700664632400600964032003A43AA
:104830004A610439062BEED12000FFF7A3FE07B032
:10484000F0BD18226946094807F03AFAAB00E35870
:10485000013305D01822FF21200007F091F9EBE782
:104860000135062DF2D1EAE76509FF1F00090011A5
:10487000F0B5002604000F00150085B0B24200D14B
:1048800084E08A784B1C01934B7812021A43CB7850
:1048900008781B0413430A79207012061A43009209
:1048A00003926670252800D190E033D8112813D8E0
:1048B00007F07EFB66001501150115011501A40026
:1048C000B200AB0015011501150115011501150107
:1048D00015011501EF000F01232800D1C7E0DB28E7
:1048E00000D0C3E1042D00D8ABE0052D00D18FE14D
:1048F0006E1F32000098791D07F05AF90522390021
:10490000200007F055F932000099601D07F050F9BA
:104910002E003BE0562853D00FD8332800D1A1E019
:10492000552836D02628DAD1BB4D13223100280075
:1049300007F026F9FEF70EFC57E0712800D172E06F
:10494000722800D184E0DC28C9D1022D00D878E09B
:104950004B7863708B78A3706B461E88032D05D04F
:10496000033DC81CAAB23100FEF780FC31001022C2
:10497000E01CFEF73BFDC61C002807DA60706DE006
:104980000C222000A54907F013F90C26300005B0D1
:10499000F0BD6A1EA24D0C2A10D8002A07D02800AC
:1049A000019907F005F9FFF769FDFFF7DFFD0C221C
:1049B0002900601C07F0FCF80D26E7E70C22EEE763
:1049C000974D984B2A0043CB43C2ECE76A1E924DA9
:1049D0000C2A11D8002A08D00199280007F0E8F81D
:1049E0000C2228009049FEF741FC13222900601C8C
:1049F00007F0DEF81426C9E70C22EDE706228B4902
:104A0000601C07F0D5F80626C0E712228849601C12
:104A100007F0CEF81326B9E708228649601C07F094
:104A2000C7F80926B2E7012D0ED04978F02908D839
:104A3000814D288801F090FC804B2A885200D35A7F
:104A400000E0FF23637009E07B4A7C4B1288F5E7A6
:104A50007B4B012D04D04A785A706270022695E78C
:104A60005B78EFE72000FFF761FA06008EE7042D80
:104A700005D9744D009B2B6007F072FAA860FFF710
:104A8000BDFC0422039003A9601C07F091F80526E1
:104A90007CE76D4E062D15D906223000019907F0EE
:104AA00057F800280ED006220199300007F080F850
:104AB000062266493000FEF7D9FB0123604A51788F
:104AC0000B43537031000622601C07F071F8072673
:104AD0005CE7012DB5D04878FFF786FEBEE70128D8
:104AE0001FD15B4AAB1E0092132B06D84B78002BCC
:104AF0000BD100F093F900F0C9F9564B00991E78DC
:104B0000601C721E07F054F840E7013D2A0001992D
:104B1000009807F04DF850490098AAB2FEF7A6FB9E
:104B2000E9E7032800D0DAE6012D2CD120700C2310
:104B30004A4A6370D27F4A4BA2709A1CD27F1026D9
:104B4000E2701A6922711A69120A62711A69120CEA
:104B5000A2711A69120EE2719A8A22729A8A120A54
:104B60006272DA8AA272DA8A120AE2721A8B2273EB
:104B70001A8B12B2121262735A8BA2735B8B1BB226
:104B80001B12E37302E74B782070002BCFD0012B70
:104B90001BD10B336370324B0B261A8BA2701A8B0E
:104BA00012B21212E2705A8B22715A8B013312B276
:104BB00012126271DA7EA2711A7FE2715A7F22723A
:104BC0009A7F6272DB7FA372E0E6032B00D038E7A6
:104BD000022D00D135E70C22224B89781878042663
:104BE000A07018786270E170884200D8CEE61B7819
:104BF0005B1A1E1CDBB2934200D9161C1A4BF6B28C
:104C00003200201DC918043606F0D2FFF6B2BDE608
:104C10001525102672E6C0468C61FF1F70C1001179
:104C2000C061FF1F64C10011F50C00009861FF1FF7
:104C30007861FF1F3C43FF1F0842FF1FA064FF1F56
:104C4000BC61FF1FCC61FF1F6509FF1FADAC0000F9
:104C50003164FF1F2F64FF1FAEDE0000EF61FF1FF6
:104C6000EC61FF1F1062FF1F1162FF1FDA2800D0E6
:104C7000E7E6042D00D8E4E6082D17D9BB797A7948
:104C80001B021343FA7912041A433B7A1B0613439F
:104C9000009A1360009B05221B68390020000393D3
:104CA00006F086FF0422601D03A9B8E6FE236370A8
:104CB000F0E7C04670470000020010B5094B0A3209
:104CC000094C92B2DA815A8298811882207802F0D7
:104CD0001FFA0422054B012120781A7006F070FF9C
:104CE00010BDC046C642FF1F7A64FF1F7964FF1FD4
:104CF000013870B5042809D807F06AF903092808B3
:104D00001200224B0221187806F05AFF70BD1F4B8B
:104D10000821187807F014F900221D4B1A72F5E7E4
:104D2000802200241A4B520060201A81DC7207F0A6
:104D3000DFF8FFF715FD154D08212878154A06F014
:104D4000A7FE2100287806F043FFDFE70F4B08217C
:104D5000187807F0F5F8602006F042FE0E48FEF7DE
:104D600089FF0E4B0E4A9B7993800E4A13800022D6
:104D7000074BDA720132FF321A810B4B5B78002B42
:104D8000C4D00A4A136006F0F3FFBFE75162FF1F69
:104D9000B061FF1F102700001142FF1FC061FF1FFD
:104DA000C443FF1F0242FF1FBC61FF1F34F00040DD
:104DB00010B5012907D1042805D18021024B8900B3
:104DC000187806F0FDFE10BD5162FF1F10B50029D6
:104DD00007D1042805D18021024B8900187806F0FC
:104DE000EFFE10BD5162FF1F0300F0B50A4D8E1893
:104DF000B14202D152008018F0BD0C782F6824090E
:104E00003C5D0F271C700C7801313C402F683C5DE5
:104E10005C700233ECE7C046FC41FF1F1022124BCE
:104E200010B51A700F23114C11492370093A063B33
:104E30001048637006F0BCFE2D2301220E490F4876
:104E40006372FFF7D1FF01220D49FFF7CDFF012269
:104E50000C49FFF7C9FF030000200B49020018703E
:104E6000FEF704FA10BDC0464E64FF1F2F64FF1FFB
:104E700011C100113164FF1F6709FF1F3964FF1F53
:104E80006609FF1F6509FF1FAEDE000070B5134CF9
:104E9000142220001249FEF7A9FA431E114D132BCC
:104EA00019D8AB78002B16D0431C2B7009236B70DC
:104EB00000230019037028780B4B01302900C0B281
:104EC000187006F07DFF297822000139C9B2002050
:104ED00005F09CFE70BDFFF7A1FFECE73164FF1FFA
:104EE000AEDE00002F64FF1F4E64FF1F10B5114B94
:104EF0001A781870002A0ED000280BD10E4B1A78A1
:104F0000062A07D85423D340DB0703D50B4B187868
:104F100002F0FEF810BD0028FCD0074B1B78012BD7
:104F200002D0033B022BF5D8044B0121187806F080
:104F300047FEEFE75264FF1F7964FF1F7A64FF1F8B
:104F400070B54D4E4D4A4E493070042005F0BCFB03
:104F5000FEF700F9FFF7BEFB06F02AFF03224949DE
:104F60004948FFF741FF2D24030004221C704749E4
:104F70000130FFF739FF30230470454D454C437035
:104F800083702E3B062220004349EB87FEF72EFA62
:104F9000062813D0200007F053F8022809D0032177
:104FA000200006F0E5FF8D23E3706E3B237119337B
:104FB0006371062220003849FEF758F9374B1B6809
:104FC000FC335C64FFF762FF0020FFF78FFF344C77
:104FD000344A0121344B1278207802F05BF8334ACE
:104FE000334B12780021207802F054F80122314B23
:104FF0001A70314B9B78552B36D1304B3B325A725D
:105000002F4B304AAB81EA812B826A822021307893
:1050100006F0EEFE0120404205F044FE0120404231
:1050200005F0E0FEFFF732F8FEF7ECFD00F0D2FCF1
:1050300001204042FEF7C0FE012006F069FDF0208D
:1050400001F06EF90121307806F0BAFD307802F0F7
:1050500019FA1D4806F0F4FCFEF7A4FC00226020BB
:10506000110006F045FE70BD6422184B5B79534376
:105070001A000A32C6E7C0465162FF1FCD4D00112B
:10508000B14D00113C43FF1F7861FF1F9861FF1F66
:10509000C642FF1F6509FF1FADAC00009C64FF1FE7
:1050A0007A64FF1F3042FF1F1142FF1F4E64FF1F33
:1050B0002F64FF1F2064FF1FBC61FF1FB061FF1F33
:1050C000C4090000CE0900005262FF1FC061FF1F2B
:1050D000F8B50D008B065DD5674B1B78002B42D0D1
:1050E000FFF78CF9654B664C664E99686268737A77
:1050F0008A1ADB039A4202D36160FEF753FC327ACC
:10510000217A531EDBB2994230D1FFF757F8637A08
:10511000002B25D0013BDBB26372002B20D15A4B10
:105120009B78552B01D106F023FEE37A002B12D099
:105130000023A27AE3729A4202D0A372FEF7C2FC65
:10514000524A534F1388380001331380FEF792FD03
:10515000390006F085FD642370795843FFF7ACFDF4
:10516000237A0133237220206840F8BD9142CED3C8
:1051700000272772FFF716F8A37ABB4202D0A77266
:10518000FEF7A0FC424F3800FEF774FD390006F030
:1051900067FDBCE70BB2002B0ADA3E4B187806F02D
:1051A000BFFD002801D006F093FC80200002DBE761
:1051B0000224214209D0334A314B127A0120023AAB
:1051C0001A72FFF793FE2000CEE70B0721D5FFF7F9
:1051D00015F92A4B2A492B4C98684A68637A821A37
:1051E000DB039A4202D34860FEF7DCFBFEF7DAFFEE
:1051F000FEF7E4FF274B08211878274A06F048FC01
:1052000000F002FC2368DB0701D5FEF7C9FE082089
:10521000AAE7CB0609D5FEF755FC174B1B78002BE8
:1052200001D1FEF703FD10209EE70124214205D0A5
:105230001A4800F0ADF906F033FEC4E78024A4005C
:1052400021420FD0042005F029F80028BBD00A4BDA
:105250001B78002BB7D02622094B11485A72FFF752
:105260002BFDB0E7042408002040214200D17CE758
:10527000FEF7BEFDA7E7C0465264FF1FCC61FF1FCB
:10528000B061FF1FC061FF1FBC61FF1FA461FF1F52
:105290001142FF1F5162FF1F10270000F441FF1F42
:1052A000C4090000F7B50400807807282BD806F061
:1052B0008FFE042A193B3B72A8D96378002B0DD1CD
:1052C00001217C4B19707C4B1A78002A56D07B4800
:1052D0007B4B007801F0DEFE00284FD00722754B93
:1052E0001A704BE061780029F8D1E378002B0BD0DD
:1052F000744A7248744B1278007801F0CBFE6070EB
:105300006378002BEAD1F7BD6A4B1B78022BFAD0E9
:105310006A4D0121287806F0F3FB0028F0D1012125
:10532000287806F04DFCEBE76378002BD6D1614C72
:10533000032807D12378052B02D1013323701DE008
:105340000223FBE7614B624D1A88002A0CD02B78B0
:10535000002B04D0594B0121187806F099FB2378D3
:10536000062B03D1013BE9E72A70F8E7042B10D1A3
:105370000121524B2970187806F022FC554B1B680E
:10538000002BC0D01B68002BBDD04A4A107898472C
:10539000B9E70323D2E76378464D002B28D10622D4
:1053A000211D4D4806F004FC62894C4B4C491A8083
:1053B000A2894C4B1A80E3890B80052129704A4948
:1053C0000A804A4A1380228A494B1A80494B1B782B
:1053D000012B0AD11F2001F01DF8FA22374B920051
:1053E00042430421187806F053FB0022384B77E73C
:1053F000312B00D072E70022354B1A7003232B703B
:10540000BCE706220021344806F092FB0023364A0E
:105410002A4D1380354A04211380354A2878138099
:1054200006F08EFD0821287806F08AFDA379083B56
:105430005A4253411F4A033313701F4B1B78002BF2
:1054400006D0234B28781A78002A06D001F060FE97
:105450000122224B52421A8090E70121197006F076
:10546000AFFBF5E7154F0821387806F069FD637842
:10547000002B00D047E71C4B1C4D0193E388019A99
:105480001B4E1380238904212B8063893878338055
:1054900006F036FB002800D035E7174B1B68002BC1
:1054A00000D130E701983288298800881B68984726
:1054B00029E7C0467964FF1F3042FF1F7A64FF1F4F
:1054C0001142FF1F4E64FF1F2F64FF1F5064FF1F18
:1054D0005264FF1F1464FF1F2164FF1F0842FF1F57
:1054E0002864FF1F2A64FF1F1E64FF1F1C64FF1F28
:1054F0001A64FF1F2064FF1F1064FF1FF0B51A4BD2
:105500001A4F1B883A880400194E1A4D85B09A42EA
:105510000DD832889A420AD3174B1A882B889A42A0
:1055200005D1164A164B12881B889A421AD00520BC
:1055300000F070FF3B8802A90B80338801904B80FC
:105540002B88104D8B800E4B2A781B88CB800E4BFE
:10555000188802F091FD0D4B08212878019A1C70E3
:1055600006F096FA05B0F0BD1E64FF1F0642FF1F4D
:105570000442FF1F0242FF1F1C64FF1F1A64FF1F2B
:105580000042FF1F7A64FF1F0842FF1F1864FF1FBD
:1055900013B50C4B1C78002C11D1002801D00A4BFC
:1055A00018600A4A0A4B11780A4A10780A4A01928E
:1055B0000A4A0092002205F021FA200016BD1124AB
:1055C000FBE7C0467964FF1F1464FF1F7864FF1F68
:1055D0006864FF1F7A64FF1F5464FF1F5864FF1F35
:1055E00010B5064B12201B78052B06D1044B132255
:1055F0001988044B187801F0FBF810BD7964FF1F7F
:105600000842FF1F7A64FF1F10B500240122114BCE
:1056100052421870104B1C70104B1A8001F032FF70
:1056200004220F4B21001A700E480C3206F080FA4B
:10563000102221000C4806F07BFA07220B4B1C605D
:105640000B4B1C700B4B1C700B4B1A700B4B1C70D4
:1056500010BDC0467A64FF1F7964FF1F0842FF1F18
:105660007864FF1F6864FF1F5864FF1F5464FF1FA6
:105670002E64FF1F2D64FF1F0A42FF1F2C64FF1FB3
:1056800010B5FFF70FFE10BDF8B5174C06002578D2
:1056900006A814240078052D23D1B41F134FA5B2FA
:1056A0001824BD421DD88D1FADB2BD4219D8FA25B0
:1056B0006D00AA4215D21D000D4F0A3DADB2BD428C
:1056C0000FD80C4C26800C4C21800C4900240A80F9
:1056D0000B4A1380FFF712FF0A4B0421187806F0DB
:1056E0002FFC2000F8BDC0467964FF1F790C000034
:1056F000750C00000642FF1F0442FF1F0242FF1FFD
:105700000042FF1F7A64FF1F70B50BB20D0086B018
:10571000002B49DA594E307806F002FB041E21D0E6
:105720000378A22B26D0D02B21D0912B17D14378F0
:105730000E2B14D1524B82889A4210D1514B1B78B8
:10574000052B0CD18368032018567F2807D04E4BB9
:105750001B68002B03D05B68002B00D0984720000B
:1057600006F0B6F980200002684006B070BDFFF771
:1057700099FDF4E74379132BF1D10389012B0AD169
:10578000424B1B78022B06D10821307806F0D8FB5B
:10579000FFF726FFE3E7052000F03CFE08210200AA
:1057A000307806F075F9DAE78020C0010142DBD1DC
:1057B000CB0730D5364B1B78002B1DD0314E03ACB8
:1057C0003378052B1AD1023B2370324B21001B7812
:1057D0002372314B1B786372284B187801F0F8FB69
:1057E000002809D00720284B30701B68002B03D0FD
:1057F0001B68002B00D098470120B5E70E20274BEF
:1058000006221B7826492370264B68441B78637058
:1058100006F0CEF9D9E7022308001840194209D052
:10582000184B1B78052B03D11F4B188806F0E8F89E
:10583000022099E70424214203D0FFF75FFE2000F5
:1058400092E7082308001840194200D18DE70F4B5A
:105850001C78012C03D0022C0DD0082084E7134BB8
:10586000134A144914481B88128809880088009438
:10587000FFF70AFFF1E7FFF7B3FEEEE77A64FF1FD9
:10588000051400007964FF1F1464FF1F1864FF1FD4
:105890005264FF1F0A42FF1F2C64FF1F2E64FF1F6C
:1058A0000B42FF1F2D64FF1F0842FF1F0042FF1F16
:1058B0000242FF1F0442FF1F0642FF1F10B502A84D
:1058C00004880B20002C10D1496808784978090217
:1058D00001430C48814209D1022119800A4B5988A1
:1058E0001170DB7800205BB2537010BD074C0A20AA
:1058F000A142FAD102211980034B998811705B797A
:10590000F0E7C0466E2A0000A461FF1F6F2A000066
:10591000F7B5150008AA16884A680F4F1478527810
:10592000120222430A24BA4214D10122DBB20192AC
:1059300000962A0005F064FF041E0BD1074B1B687C
:10594000002B07D068782A78000210434242504169
:10595000013098472000FEBD022900008C64FF1F23
:1059600030B5012503790400BFB02B4225D014497E
:10597000408805F0B5FA28420CD0124B01A95B8D86
:1059800060880B8002234B800F4B00225B888B804A
:1059900002F068FA0D49608805F0A2FAC0070CD53C
:1059A0000B4B01A91B8800220B8002234B80064B66
:1059B0009B888B80608802F055FA3FB030BDC046AE
:1059C0008464FF1F3442FF1FA461FF1F7C64FF1F1C
:1059D0008E42FF1F10B50749074805F037FA0749FF
:1059E000054805F033FA0721054A064805F0F0F9A5
:1059F00010BDC0468464FF1FFFFF00007C64FF1FD2
:105A000090C300113442FF1F10B5024803F0AEF8F6
:105A100010BDC046615900110200F0B501270A48C7
:105A20000A4E51188B1A002B00DCF0BD08241578A3
:105A30004308684038404000805B013C58406D0896
:105A4000002CF5D10132EDE7FFFF0000AAC30011E1
:105A5000F0B500250F269D4200DBF0BD4C5D070927
:105A600044403440A400A05801357840F3E70000DA
:105A700070B50C0088B06B460F2610340A780131DF
:105A80001500120935401D705A700233A142F5D13C
:105A900020236946024AFFF7DBFF08B070BDC0460D
:105AA000B0C30011F0B54E780B7889B036020C0007
:105AB000170001901E43012A61D9954B9E4200D8E0
:105AC00077E001339E421CD1062A17D1CA788B7821
:105AD00012021A430B791B0413434A7912061A4324
:105AE0008C4B5A6100221A705A808B4A5A608B4A3A
:105AF0009A608B4ADA60002009B0F0BD8822520516
:105B0000EEE7884B9E423CD182498B78002B00D037
:105B1000F6E00C2A31D10F22A3789343E2781202E7
:105B200013432279120413436279120613434B6024
:105B3000E279A07912020243207A00041043627ACB
:105B400012060243CA60E27AA07A12020243764841
:105B50004A81834208D804236E49142201980B70AD
:105B600006F026F81420C7E71201D21889235B0536
:105B70009A42F0D801238B70BDE7022AFAD00523A0
:105B8000EAE76A4A01239642E6D1FFF729FD052F8D
:105B90000CD9E378A2781B021343227912041A432A
:105BA00063791B061343624A0393136006F0E0F81F
:105BB000A1E7584D2B78002B9DD1AB78002B00D15D
:105BC000A0E02B8901339BB20093B34200D091E057
:105BD000132AD4D9CF7C8B7C3F02122120001F4393
:105BE000FFF71AFF874200D08EE0002E3DD1E37808
:105BF000A2781B0213432279E96812041A436379DD
:105C00001B06134303930A228B4212D1FF23A37076
:105C1000E370237163716B89002B09D1E37B227CD4
:105C20001B0212041343A27B13431B0901336B8134
:105C300000226B89002B8ED0002A67D1686837015B
:105C40003818000B6B6900030390984205D968610E
:105C500006F0CEF9EB780133EB7068681022A11CD6
:105C6000381805F0C5FE2E8145E76F89009A7B1E26
:105C70009BB293423AD1E278A37812021A43237975
:105C800005A81B04134362796C6812061A43EB687B
:105C900000920392211D0C22049305F089FF01203C
:105CA000260004A940421036FFF7E2FE013F012F13
:105CB00017D1009A0B232861824200D04CE70422BE
:105CC0001C49200005F094FE042203A9686805F031
:105CD000F7FFE968039AFF23914200D13CE7F73BC5
:105CE0003AE73100FFF7C4FE1036DFE70923B74279
:105CF000A4D831E7009BB34200D9FCE607232BE789
:105D0000022329E7032327E7062325E70A2323E7BE
:105D1000FFFE0000A842FF1F00000111FFFF00006E
:105D20005048593601FF0000FFFF001102FF00003C
:105D300034F00040B442FF1F10B5034C0B000122A9
:105D4000210000F06BFA10BDF95E00110B8870B5F0
:105D500006000D000224162B11D92B00032209493D
:105D600000F05CFA041E0AD1074B2A881B88191C14
:105D7000934200D9111C300089B200F0EDFA2000E6
:105D800070BDC046255F0011A264FF1F10B54A78A0
:105D90000400013A0B000220012A07D80A78002AE1
:105DA00004D005222000024900F038FA10BDC04698
:105DB000535F00110A7810B50B0004000220002A7E
:105DC00004D007222000024900F028FA10BDC04686
:105DD000FF5F00110A7810B50B0004000220002AB2
:105DE00004D009222000024900F018FA10BDC04674
:105DF0006560001110B5034C0B000B22210000F070
:105E00000DFA10BD9560001110B5034C0B000D226A
:105E1000210000F003FA10BD0761001110B5034C1A
:105E20000B000F22210000F0F9F910BD6161001193
:105E30000A7810B50B0004000220002A04D01122B9
:105E40002000024900F0EAF910BDC046716100115E
:105E5000002310B51322190000F0E0F910BD000076
:105E600010B5034C0B001722210000F0D7F910BD2C
:105E7000C3610011002310B51922190000F0CEF9FA
:105E800010BD000010B5034C0B001B22210000F0D8
:105E9000C5F910BDFD610011F7B584890D0006003C
:105EA0000121002C22D000238268D3561778002BC2
:105EB0001EDA0C2C1AD90C3CA4B21319408800939A
:105EC000230002F0B4FF431E984101307B06DB0F34
:105ED0006B703F23013C1F40A4B22870AF70AC80B0
:105EE000002C07D0B3680133AB6000210800FEBD71
:105EF0000020EBE7AC60F8E70B7803704B88437049
:105F00004B881B0A83700B79C370042070470420F0
:105F1000022B06D10020537811781B02009A0B4304
:105F2000138070470B8803700B881B0A4370022094
:105F300070470420009983420AD1537810781B02DD
:105F400003430B80D37890781B02034300204B80DF
:105F50007047F8B50D004B7801240021461C0370F2
:105F60002B788B4201D82000F8BD6B78B01C4F1CF9
:105F7000012B10D1890069184B88022233704B889D
:105F8000B9001B0A7370691805F0C2FF04360434A7
:105F9000A4B2F9B2E4E7122359436B185A880431CA
:105FA00032705B8810221B0A7370691805F0B0FF0D
:105FB00012361234ECE770B5049D14001E00052B58
:105FC00001D8042070BD637812781B0213432B8024
:105FD000E378A2781B02134302226B802A71211DF1
:105FE000681D063E05F094FFB2B22A81E92AE8D87E
:105FF0002800A11D0A3005F08BFF0020E2E70023F6
:1060000010B50A789A4201D8900010BD9A008A18FB
:106010005488013304705488DBB2240A4470948895
:1060200084709288120AC2700430EAE710B5110039
:10603000029C062B04D004201022142B01D010BD8A
:10604000022222714B7808781B0203432380CB780D
:1060500088781B02034363800431601D05F058FFFC
:106060000020ECE710B50C788B7804315C43E4B287
:1060700003702200013005F04BFF601C10BD0420AE
:10608000022B06D10020537811781B02009A0B4393
:106090001380704710B50C000A88023105F038FFF4
:1060A000208810BD70B504000D0004981100012B6C
:1060B00001D8042070BD1678527812023243028053
:1060C0000200F13255701470E125002C00D10C351E
:1060D000023B9AB24280AA42EBD80231043005F06A
:1060E00017FF0020E6E70420009983420AD1537885
:1060F00010781B0203430B80D37890781B02034374
:1061000000204B80704710B50C000A88023105F062
:10611000FFFE208810BD000070B501211E00042084
:10612000049C0E400B4218D1CB40DDB28D4214D9F5
:106130000A49DBB2098899420FD32300EE331D7060
:106140003300580011184978165C090231430133B5
:106150002152D9B28D42F4D8002070BDC042FF1F39
:1061600010B50C000A88023105F0D2FE208810BD5F
:1061700010B50C788B7804315C43E4B203702200D4
:10618000013005F0C5FE601C10BD10B5110002986D
:10619000032B01D8042010BD14785278043B12025E
:1061A00022430280CA788C781202224342809AB23B
:1061B0008280EB2AEED80431063005F0A9FE0020DB
:1061C000E9E710B50C000B8803700B881B0A4370BD
:1061D0004B8883704B881B0AC3708A880430063151
:1061E00005F096FEA088043080B210BD0420012B7B
:1061F00003D100201378009A1370704710B50C007B
:106200000B8803700B881B0A43704A8802300431E4
:1062100005F07EFE6088023080B210BDF0B589B016
:1062200003931D4B029242000700D05A019102F0E5
:1062300046F91325061E2CD0029B01240370019BF6
:10624000002B04D0001903999847001984B26B46BB
:106250001B7A5BB2002B0FDA1021380002F040FCF1
:106260001925002812D130003219E1B202F094FD54
:10627000051E0BD10C34A4B2042305A938000B80F1
:106280000C814E6001F0D6FE051E02D0300005F0F4
:1062900007FC280009B0F0BDA064FF1F70B5050021
:1062A0000C0000280CD00020814209D010222000D0
:1062B000044905F02DFE01202B7823736B7863735E
:1062C00070BDC046F0C30011F0B506000D00170008
:1062D0001C0085B002291BD00020102907D1022BF9
:1062E00007D0102B03D115E00020102C08D005B0EA
:1062F000F0BD69463800FFF7D1FF2A0069460BE080
:1063000069463000FFF7CAFF22006946380004E002
:10631000022BE9D12A003900300005F089FBE6E7BD
:10632000031CF02800D9F023032008499AB2013A4F
:106330000B80D317034006499B189B100B80D30F8B
:1063400004499B185B100B807047C046C442FF1F76
:10635000C242FF1FC042FF1F034B1B888B4202D368
:10636000024B4000C1527047C442FF1FA064FF1F90
:10637000014B4000185A7047A064FF1F1722014BC1
:106380001A807047A064FF1F70B5050019482900E6
:10639000FDF737FA1848FDF733FA184E18483178E8
:1063A000FDF72FFA3378FF2B23D00E2005F0A0FB4A
:1063B000010004004B1E99411248FDF722FA002CFF
:1063C00017D0D0232370002306220F49A3706570D5
:1063D000E01C05F09DFD0D4B2100DA8A30786281CA
:1063E0001B7E237305F0CCFC094B01001800FDF760
:1063F00008FA70BD8DC1001193C100111443FF1F35
:10640000A2C10011A8C10011BC64FF1FAC64FF1F32
:10641000AEC10011262803D8024B4000C05A704775
:106420000148FCE7C642FF1FFFFF000073B50600EE
:106430000C00144D00211C22280005F079FB124BA2
:1064400068461E70114B1C7005F0A2FB040010483A
:106450002100FDF7D6F9002C07D000230D482B7042
:106460001224FDF7CDF9200076BD062269460A48C0
:1064700005F04EFD03230948EC822C762B70FDF7C6
:10648000BFF9F0E7AC64FF1F1443FF1FCD64FF1F8B
:10649000B4C10011BBC10011BC64FF1FC9C1001110
:1064A00070B505000D4C0800E260A16010220021CB
:1064B000656005F025FC012803D11021A06802F0D9
:1064C00043FE10220021280005F01AFC012803D108
:1064D0001021606802F038FE70BDC046AC64FF1F3A
:1064E00070B5041E05D1002903D006220B4805F023
:1064F0000FFD0B4B1D78012D0DD1002C05D1022273
:106500001A7005F07DFD280070BD002220001A7071
:10651000FFF73AFFF7E70025F5E7C046BC64FF1F29
:10652000AC64FF1F030010B5002801D1002010BD8E
:106530000078094A002803D15988D1821B79137643
:106540001378022BF2D10023984200D10333137049
:10655000FFF71AFF0120EAE7AC64FF1F002911D002
:1065600000280CD04B79012803D14022524213431A
:1065700003E03F221340032802D001204B717047F3
:106580004022F4E70800FAE770B5094D01002878C9
:1065900000280BD0074C0622200005F0B9FC210092
:1065A0002878FFF7DBFF200005F042FC70BDC046F5
:1065B000CC64FF1FA664FF1F00290AD0012808D160
:1065C0003F224B799343C02B03D0403B5A42534167
:1065D000981C704770B5174D06002B78FF2B15D00F
:1065E0000A2005F085FA041E10D0D0230370C83BA2
:1065F0008370114B11491B784670C370062204301A
:1066000005F086FC2100287805F0BAFB0C4B1B78BE
:10661000012B0DD10B4B1B68002B03D09B68002B6B
:1066200000D09847084B04211878084A05F0B8FBB9
:1066300070BDC0461443FF1FCC64FF1FA664FF1F3C
:10664000C864FF1F4065FF1F4465FF1F60EA00002C
:10665000014B98687047C046AC64FF1F014BDB6874
:1066600018687047AC64FF1F074B10B5DA681368F1
:1066700001331360054B1878FF2803D08021C9012E
:1066800005F09EFA10BDC046AC64FF1F1443FF1F07
:10669000F7B50E0002F0B8F9051E1CD00E4B0662CD
:1066A0001F78002F00D10778AB791020019305F0F7
:1066B0001FFA041E0FD0D0230380C73B8370019BB9
:1066C000E91DC3700622043005F022FC21003800C9
:1066D000E66005F055FBF7BD1243FF1F014B18782C
:1066E0007047C046CC64FF1F054B002805D1054B01
:1066F0001A78054B002A00D1014B18007047C0469C
:10670000BC64FF1FCC64FF1FA664FF1F014B5868C9
:106710007047C046AC64FF1F024B1868431E984187
:10672000C0B27047D064FF1F421E03000120152A2B
:1067300003D9FF3B5A425341D8B27047F0B51C0011
:1067400000230E0085B0039002920B70029A9342D0
:1067500001D3002019E0E55C5A1CD2B2002DF8D01C
:10676000029851198142F4DC0233DFB2A35C1800B5
:106770000193FFF7D9FF002807D0013D019A039943
:10678000EBB233708A4202D1E01905B0F0BDDB19DB
:10679000DBB2DBE710B50C0002F08EF9030012202B
:1067A000002B03D02100588805F062FB10BD0000CB
:1067B00070B50E4D84006359002B15D0186A00285F
:1067C00001D005F005FB2B59586A002801D005F0CF
:1067D000FFFA2B59986A002801D005F0F9FA2859D8
:1067E00005F0F6FA00232B5170BDC046DC64FF1F94
:1067F0001C4B70B504000E00150099420AD11A4BCB
:106800001B68002B01D1122070BD1B68002BFAD031
:106810009847F9E7154B994215D1134B1B68002B8C
:106820000AD01B68002B07D09847002804D1104BD2
:106830001C70104B1D70E7E729002000FFF7AAFF2E
:106840000028E1D1F3E7080002F0DEF80028DAD0F2
:1068500003780320A342D7D12900300005F008FBBC
:10686000D2E7C046FEFF0000D864FF1FFFFF000014
:10687000D564FF1FD464FF1FF7B50400808802F0C1
:10688000C3F80025A84203D00578A08802F0F8F8E4
:106890001C4E3378002B1FD0AB421DD11A4B280061
:1068A0001978FFF777FF002818D000233370A379F9
:1068B0000820A778A688019305F01AF9011E0DD0CB
:1068C000D0230370CA3B8370019B4770868083711D
:1068D000280005F055FA01E0002DE8D1A0880B4B07
:1068E0008200D358002B01D0FFF762FF1721A08848
:1068F000FFF732FDA08801F019FEA08801F0F0FE3C
:10690000F7BDC046D564FF1FD464FF1FDC64FF1FC2
:10691000F0B587B01D000CAB1B88070001930DABD1
:106920001B88142002930EAB1B88160003930FAB39
:106930001B880091049310AB1B88059305F0D8F8D1
:10694000041E1AD0D0230370CB3B47708370C670EF
:10695000062229000430002D11D005F0D9FA019B40
:1069600021006381029B0098A381039BE381049B28
:106970002382059BA37405F003FA07B0F0BD05F070
:10698000D7F8ECE7F7B5009308AB1B8807000C209D
:106990000D001600019305F0ABF8041E13D028007B
:1069A00002F032F800280FD00078D0232370C93BC2
:1069B000A370009B21002381019B6770A580E68066
:1069C000638105F0DDF9F7BD014B1878EDE7C046AE
:1069D0001443FF1F13B5040064890389C2888188AA
:1069E000C0780094FFF7CEFF13BD000010B5044C33
:1069F0002068002803D005F0EBF90023236010BDC8
:106A0000E064FF1FA122F0B5818892004A43384B11
:106A1000384F1B6889B09B189D2292009B18827981
:106A200004001A603B68002B5FD01D78324B1B6856
:106A3000002B04D05B68002B01D000209847260073
:106A400008363100E079FFF7B7FD237DE0710200E1
:106A5000E0780493638A29000393238A0293E389ED
:106A60000193A38800933300FFF752FFE378002BD4
:106A70000BD1E289A379A18802920196E2792800DC
:106A80000092012201F0CAFFE0703B68002B20D089
:106A9000FFF7ACFF194D287800281AD0184B197849
:106AA000FFF778FE002814D02B780820A788E67816
:106AB000079305F01DF8011E09D0D0230370CA3BCF
:106AC0004670837087808671079805F059F9002316
:106AD0002B701721A088FFF73FFCA08801F026FD4E
:106AE000A08801F0FDFD09B0F0BD064B9DE7C04652
:106AF0003409FF1FE064FF1F4065FF1FD564FF1FBF
:106B0000D464FF1F1443FF1FF8B5070008000E00F0
:106B100001F07AFF041E18D02620FFF77BFC051E2B
:106B200000D12578062004F0E3FF041E0DD00021DB
:106B3000062204F0FDFFD0232370C23B21006770C2
:106B4000A370A680E8B205F01BF9F8BDF0B585B0DA
:106B500001930AAB1B78070002930BAB1B7808006C
:106B60000D000092039301F04FFF061E22D010206B
:106B700004F0BEFF041E1DD01022002104F0D8FF37
:106B80002620FFF747FC002800D13078D02323705F
:106B9000C13BA370009B21002372019B677063724D
:106BA000029BA580A372039BC0B2E3720C9BE360BF
:106BB00005F0E6F805B0F0BDF7B50D00019001F065
:106BC00023FF071E1FD00E2004F092FF041E1AD0D0
:106BD0002620FFF71FFC061E00D13E78D02323801D
:106BE000C53BA370F91D0622E01C05F091F9019B3D
:106BF0002100638101232B40AD07ED0F23736573E3
:106C0000F0B205F0BDF8F7BDF0B585B00290100008
:106C10000D0017000A9E039301F0F6FE041E31D00A
:106C2000029B002B2ED1039B02795B0724D51223F4
:106C300013430422002E08D10B99002905D10C9989
:106C4000002902D10D9900291AD01A430D9B2271F7
:106C5000002B00D0C9E0002E00D1CFE0002D00D0E5
:106C6000CCE0606A002801D005F0B2F81C213000A9
:106C700005F02EF8606205E002239A430E33D7E751
:106C800093432371654BBA00D458002C00D1AAE07D
:106C9000002E10D0236A002B03D11C2005F038F8F9
:106CA00020625E4BBA00D358186A002803D01C2219
:106CB000310005F02DF90C9B002B12D0574CBB0076
:106CC0001D596B6A002B03D1162005F021F868626C
:106CD000BB00E358586A002803D016220C9905F02F
:106CE00017F90D9B002B11D04C4DBC006659B36AAF
:106CF000002B03D1142005F00BF8B0622B59986AD1
:106D0000002803D014220D9905F002F9380001F093
:106D10007BFE051E67D0414BBA00D358002B62D0D2
:106D20001A6A3420002A00D11C389A6A002A01D03D
:106D3000143080B20B9A002A01D01C3080B25B6AFA
:106D4000002B01D0163080B204F0D2FE041E4AD0CF
:106D50001822002104F0ECFE2620FFF75BFB0190D7
:106D6000002801D12B780193D0232370029B2000AF
:106D700063700A23294EA370039BBD00A371AB5916
:106D8000A780196A1830002905D01C22A06005F0E0
:106D9000BFF8200034307359996A002907D00300E6
:106DA00014221433E060029305F0B2F802980B9BB2
:106DB000002B08D003001C221C330B992061029386
:106DC00005F0A6F802987359596A002903D01622D3
:106DD000606105F09DF86B462100187904F0D0FF42
:106DE0003800FFF7E5FC05B0F0BD10220D9B0D99B2
:106DF0001B69A018236205F08BF82CE70B9B002B76
:106E000000D13FE7012D00D03CE7606A002801D0A7
:106E100004F0DEFF1C210B982AE7C046DC64FF1F4C
:106E200010B5064C2068002806D0054B984201D0CA
:106E300004F0CEFF0023236010BDC046D064FF1FC6
:106E4000F064FF1F0B4B07B51A68002A01D1002020
:106E50000EBD6946531C012012780731FFF76EFC06
:106E60000028F4D002780123100018401A42EED016
:106E7000EEE7C046EC64FF1F0E4B37B51B680400FD
:106E80000D00002B14D021000B48FCF7BAFC0B4876
:106E90002900FCF7B6FC6846D0230370CD3B447054
:106EA00083708580FEF7ECFB002C01D0FFF7B8FF64
:106EB00037BDC046D064FF1FD9C10011DFC100112A
:106EC000F0B53A4E0124336887B0002B5AD09F7832
:106ED00000F078FC002858D00A20FFF79BFA040045
:106EE0000B20FFF797FA324B05001B7831485A1EEA
:106EF0009341DBB20593FCF783FC290421432E4820
:106F0000FCF77FFC33682D48D97A9B7A09061B046D
:106F10001943059B39431B021943FCF772FC316886
:106F2000062227480431FCF76DFC3368191DD87818
:106F3000FFF714FB33682900DA7A043303929A7955
:106F40000193029200903A002000059B04F078FF24
:106F500004001C482100FCF754FC002C0BD101203C
:106F60003368587004F0E4FF040017482100FCF770
:106F700048FC002C06D01548FCF742FC00212000FC
:106F8000FFF77AFF200007B0F0BDFFF75BFF002896
:106F900005D00620FFF73EFA04000720A1E70820ED
:106FA000FFF738FA040009209BE7C046D064FF1FB2
:106FB000CC64FF1FE5C10011F4C10011FAC100113A
:106FC00000C200110AC2001110C2001116C2001145
:106FD000F8B5284F06003B680D001124002B05D1A1
:106FE0000522254B1B78134202D112242000F8BD44
:106FF000224A10241268002AF8D01278002AF5D00C
:10700000DB071CD52B789A1E012A1DD81C480C22A0
:107010000021386004F08CFD386813240028E5D086
:1070200000230A22437029000670023004F070FF2A
:10703000FFF746FF041E0AD0FFF7F2FED6E700F086
:10704000C1FB0028DED1E1E7002BDFD0CDE70D4BFF
:107050001B78032BCAD11D20FFF7DCF90A4B1880DF
:107060000028C3D0094B04211878094A04F098FE7F
:10707000BCE7C046D064FF1FCD64FF1FEC64FF1F58
:10708000F064FF1FCC64FF1FCA64FF1F4465FF1F2D
:1070900060EA0000F7B50193194B14001A78052334
:1070A00006000F0012201A4221D0012920D1154BD1
:1070B0001D68002D1BD002201F2C18D8002C02D0D8
:1070C000019B002B13D0104B1F221E706E1C002141
:1070D000300004F02DFD01992200300004F018FF6B
:1070E000310020002C70002F06D004F079FEFEBD88
:1070F000064B12201D68DCE704F062FEF7E7C0468D
:10710000CD64FF1FEC64FF1F2443FF1FE864FF1FD3
:10711000F8B50F4E12243368002B17D01B780F3CA4
:10712000834213D100250B4F0221387804F008FF69
:10713000094B042138781D8004F002FF074B28001A
:107140001D8033685C7004F0F3FE04002000F8BD7D
:10715000D064FF1F4465FF1FE464FF1FCA64FF1F64
:1071600070B5012823D11B4C2388002B03D01A4A69
:107170001578002D07D0194B1B68002B02D018780A
:10718000FFF7C6FF70BD3B2B02D93C3B2380F9E7DC
:10719000134E0221307804F0D3FEFA2223889200A5
:1071A00002215A43307804F073FC2580EAE70B4B48
:1071B0001B68002BE6D00B4B1B785B07E2D5084B16
:1071C0000221187804F0BCFE0022024B1A80FFF75F
:1071D00027FED7E7E464FF1FC864FF1FD064FF1FCA
:1071E0004465FF1FCD64FF1FF8B51A4D28680028BD
:1071F00006D0194B984201D004F0EAFD00232B6021
:10720000164C2068002806D0154B984201D004F097
:10721000DFFD00232360134F05263B781800304024
:10722000334214D0104800F0D1FA3B7833420CD0EE
:1072300009480B4B202200212860236004F078FCD1
:1072400020220021206804F073FC0020F8BD00F02B
:10725000BDFAFAE7EC64FF1F1C65FF1FE864FF1F1F
:10726000FC64FF1FCD64FF1F1843FF1F70B50400AF
:1072700000200F4D2B68834219D021000D48FCF7E8
:10728000C0FA002C0BD101202B68587004F050FE7E
:10729000040009482100FCF7B4FA002C06D0074886
:1072A000FCF7AEFA00212000FFF7E6FD012070BDDB
:1072B000D064FF1F22C2001128C2001116C20011A3
:1072C000F0B5050000202E4E85B033680191834251
:1072D0002DD029002B48FCF794FA2B480199FCF794
:1072E00090FA3368294F5C78012C34D1FFF7AAFD5E
:1072F000002829D02000FFF78DF80400412818D974
:10730000234B02211878234A04F04AFD224B3C3CCF
:107310001C800222336821485A70FCF771FA3B78CE
:10732000002B15D128000199FFF7A6FD012005B01B
:10733000F0BDFA2292004243002AEAD0144B022107
:10734000187804F0A5FBE4E7FFF764F80200F3E720
:1073500000233B70EAE71248FCF752FA3B78002B17
:10736000E4D13368002B07D0D02303A80370CC3BB3
:1073700045708370FEF784F9FFF752FDD6E7C046EB
:10738000D064FF1F2EC2001134C20011C864FF1F59
:107390004465FF1F60EA0000E464FF1F3AC2001169
:1073A00048C2001113B52B4B81880400994235D097
:1073B0001BD8294B994221D0284B0020C9188BB2E9
:1073C000012B1AD8264B1B78FF2B0CD0A36801A8E1
:1073D0001B78D0224370022383704B4259410270C4
:1073E000C170FEF74DF9012007E01E4B0020C918BF
:1073F000072389B28B424041C0B216BD1A48FCF740
:1074000000FAA36819481978FCF7FBF91848FCF74B
:10741000F7F9A3681878FFF729FFEEE71548FCF79E
:10742000F0F9A36814481978FCF7EBF9A36813483E
:1074300099785A7809021143FCF7E3F91048FCF7F0
:10744000DFF9A36899785A78090218781143FFF791
:1074500037FFD2E70A20000006200000F8DFFFFF18
:107460002443FF1FAFDFFFFF54C200115AC20011B7
:1074700060C200116FC2001175C200117BC2001101
:1074800081C20011014B18707047C0462543FF1F91
:1074900010B50E4C207001F093FA207804F020FB18
:1074A00021780B48FCF7ADF90A4B0B481978FCF72B
:1074B000A8F90A4B0A481978FCF7A3F90948FCF720
:1074C0009FF90521207800F0A5FD10BD4465FF1F40
:1074D0008DC200110E09FF1F93C200110C09FF1F7E
:1074E00099C200119FC200110BB273B50D00002BA1
:1074F00000DBE8E09A4B187804F012FC041E0FD071
:107500000378912B10D0A22B00D1C5E0954B1878B1
:10751000FF2800D169E0210004F032FC002864D18A
:1075200080200002684076BD41788F48FCF769F9F9
:107530008E48FCF765F963780F2B00D18FE020D8D7
:10754000052B00D187E00E2BE0D18948A188FCF7FC
:1075500058F9A088874B984235D8874B984225D850
:10756000864B9842D2D1A36885481978FCF749F92F
:107570008448FCF745F9A3681878591CFEF7B0FF5A
:1075800042E03E2BC2D1A378032B00D180E077D814
:10759000012B79D0022BB9D17B4B1B68002B24D057
:1075A0005B68002B21D0200098471EE0774BC01865
:1075B0000C28ABD804F094FC1DAAAA150BAA0B0B3F
:1075C0000B3B2CAA4500724BC01807289ED8714B64
:1075D0001B68002B09D01B68002B06D020009847A1
:1075E00012E0A3681878FEF7F5FF200004F070FAA7
:1075F00096E7A36868481978FCF703F96748FCF731
:10760000FFF8A068FEF78EFF002800D17EE7ECE7C8
:10761000A3681B78002BE8D05B4B1B68002BE4D0E1
:107620001B68002BE1D021005D489847ECE7564BE2
:107630001B68002BD9D01B68002BD6D021005948DD
:10764000F3E7594B1B68002BCFD05B68002BCCD0E5
:1076500021004848E9E72000FFF70EF9C5E7A088B8
:10766000524B984203D0524B984200D04EE74E4BBB
:107670001B68002BB9D05B68002BB6D02100D4E783
:10768000153B012BB1D941E72000FFF7BBF9ACE76F
:107690002000FFF79FF9A8E7464B1B78042B07D182
:1076A00000236A4613800179408800F0D9FC9CE7EA
:1076B0003D4B1B68002B98D05B68002B95D00100D8
:1076C0003D48984791E7012421420AD02E4B1B6880
:1076D000002B04D05B68002B01D0002098470120CC
:1076E00020E78B070AD52B4B1B68002B04D05B6867
:1076F000002B01D020009847022013E70421280026
:1077000008400D4200D10EE72C4E3388002B21D0CB
:10771000013B9BB23380002B1AD1FEF7FDFF0028FE
:107720000AD0274B1C701B4B1B68002B04D05B68D6
:10773000002B01D020009847FEF7E8FF694601F0D2
:107740001AFD6846FEF720FF1D20FEF763FE30801D
:107750000420E7E6024B187804F0F2FBF8E7C04695
:107760004465FF1F2543FF1FACC20011B2C20011C8
:10777000BFC200110E20000001200000091000000F
:10778000D8C20011DEC200113C65FF1FFEDFFFFF03
:10779000AFDFFFFF4065FF1FC5C20011CBC2001164
:1077A0000C2000000B200000D864FF1F0D200000FB
:1077B00013200000CD64FF1FFFFF0000CA64FF1FFD
:1077C000C864FF1F10B501F09FF910BD014B186090
:1077D0007047C0464065FF1F0B880020162B01D85C
:1077E00017230420014A13807047C046A264FF1F7C
:1077F00000207047074A03001188814207D0918812
:107800000020994202D101308000101870470020FA
:10781000FAE7C0464C65FF1FF0B58F7806000D00F3
:10782000C5B01E2F15D1FFF7E5FF051E03D10024BB
:10783000200045B0F0BD00223B003100C07800922E
:1078400000F0B8FB0400A81C00F0D8FBFF23EB708D
:10785000EEE7264B062403931B78FF2BE8D0182F66
:10786000E6D87B08224A013BDB0002929A589446F4
:10787000002ADDD0029AD3185B68002BD8D0087894
:10788000002802D14B78012B02D10624122FCFD130
:1078900007AFAB88697800976446AA68A047041EC2
:1078A000C6D1AB78029A5B08013BDB00D3183900E4
:1078B00030005B689847041E0BD1AB78042BB6D020
:1078C000039A310010782200009700F073FB040047
:1078D000AEE76A78002AABD1AA7805A93B8808717F
:1078E00030000A704B80FEF727FAA0E72843FF1FFD
:1078F00000C400111D4B37B5050098420BD000297C
:107900000AD1FFF777FF002805D11948FFF772FF6A
:10791000002800D0058037BD01291AD1FFF76AFF82
:10792000041EF8D001235B420380A378FF2BF2D022
:10793000FE2B07D00023E0781422009329001E3389
:1079400000F038FBA01C00F059FB01235B42638070
:10795000E1E70229DFD1013901F0C2F80028DAD1CC
:107960002800FFF747FF041EDFD1D4E7FEFF000029
:10797000FFFF0000022210B5074B52421A80074851
:1079800001325A809A80DA8000F084FA044801F0CB
:1079900029F8002010BDC0464C65FF1F1978001162
:1079A000F57800110388F7B50400002B02D10225F9
:1079B0002800FEBD42680221137825485268FEF770
:1079C00083FC00282ED0234F01253A88002AEFD0CF
:1079D000802321885B0201259B1A9942E8DC0C2058
:1079E00004F096F9061E31D03B8822889C4600237D
:1079F0001800019561469DB2491989B2AA421BD867
:107A0000002801D062443A8000233000082208C0D8
:107A1000210004F07DFA104A1368002B13D10025D1
:107A20001660C5E76268022113780C485268FEF7B9
:107A30004BFC0028C7D1BAE760681D01401941819D
:107A400001330198D6E71A001B68E6E71325AFE774
:107A50006EC400112643FF1F4865FF1F6CC4001150
:107A6000014B18707047C0462843FF1F14230A00BB
:107A700010B51A40194204D00122102101F04CF82F
:107A800010BD4B06F9D4C843022340001840F7E765
:107A900010B514008B0604D50122102101F03CF82A
:107AA00010BD08230A001A40194202D14BB2002B24
:107AB0000FDA102101F030F8002808D02300F2334B
:107AC0001B78002BECD0F1342378012BE8D1002077
:107AD000E6E703208907FAD4E2E70000F0B51F00CB
:107AE000184B85B01C68019002910392002C27D19D
:107AF000200005B0F0BDA5683301ED186B89019A2F
:107B0000934211D3029A93420ED8002F04D10A9BBC
:107B1000002B10D12C00EBE73B002978039A686812
:107B2000FEF7D2FB0028F2D10136B6B2A388B342E9
:107B3000E1D82468DAE7A3680A9A5B891380E9E749
:107B40000026F3E74865FF1F37B50C000A8849880F
:107B50000123914217D3002A15D0651D23792A00ED
:107B600002210A48FEF7B0FB102300280BD023792E
:107B70006188208800242A000094FFF7AFFF0A23C1
:107B8000A04200D0230018003EBDC0466EC40011C4
:107B900013B50A0008884988012388420BD80028B9
:107BA00009D00024137905320094FFF797FF0A23C8
:107BB000A04200D02300180016BD13B50A000888A3
:107BC0004988012388420BD8002809D00024137962
:107BD00005320094FFF782FF0A23A04200D0230061
:107BE000180016BDF0B58BB003904A8808880E00C7
:107BF0000123824213D3002811D00023012704ACB3
:107C000023700022718813000092FFF767FF0500C0
:107C10002078002D06D122780A23002A41D11800AD
:107C20000BB0F0BD002835D12B78022B18D167702E
:107C30006A8983000130E31880005A806968022253
:107C4000201804F065F923780133DBB22370042B8C
:107C500019D93B006889013080B2002BD1D0DAE716
:107C600002236370122358436A89231804305A8010
:107C700069681022201804F04BF923780133DBB235
:107C80002370002BE5D10A4A6B899B185A42534155
:107C9000DBB2DFE76378012BE4D12B78022BC7D06E
:107CA000B9E721000398FEF771F80023B7E7C04653
:107CB0000100FFFF0F4BF0B504001868002816D034
:107CC00083685D89A54207D88288AE18B44203DA7A
:107CD00012019A18934201D10068EFE71E005F89F4
:107CE0001036A74204D1002900D00D801800F0BD45
:107CF0003300EFE74865FF1F70B505000C000888EA
:107D00000021FFF7D7FF03000120002B04D0220041
:107D10002800197AFFF7BCFE70BDF7B50C000025EE
:107D200001902300EE331B78AB4201D800200AE01B
:107D30006B00E65A00213000E718FFF7BBFF002870
:107D400002D126800130FEBD017A0198FFF78EFE38
:107D5000002802D03B882380F5E70135EDB2E0E74B
:107D600010B5040008880021FFF7A4FF03000120DC
:107D7000002B03D02000197AFFF778FE10BD000019
:107D8000054B1B68002B01D1180004E09A6852894A
:107D90008242F6D1988870474865FF1FF0B50E27DC
:107DA000002687B0039302ABFF183E8005001F4BEF
:107DB00040891400984207D02B78013000976A68F8
:107DC00080B2FFF78BFE060002212B7818486A6804
:107DD000FEF77AFA00280FD06C892000FFF7D0FF59
:107DE000002802D0013C0419A4B2039B002B00D050
:107DF0001C80300007B0F0BD02212B780D486A6866
:107E0000FEF762FA0028E7D102212B780A486A6857
:107E1000FEF75AFA002807D0002EDED03B88A34296
:107E2000DBD17489013CDFE76C89DEE7FFFF0000EE
:107E30006EC400116CC400116AC4001110B50C00AE
:107E4000FFF7D8FC03000220002B0AD0002C00D042
:107E500023609B781720FE2B03D00138FF2B00D125
:107E6000002010BD73B50D0001A904001600FFF736
:107E7000E5FF172805D0002E04D129002000FEF7C9
:107E800001F876BD01221021200000F045FE0028F7
:107E9000F3D0F6E7014B18607047C0465865FF1FE6
:107EA00037B56B469D1D010004000222280003F037
:107EB0007FFE2B88B02B0ED12379122B09D1230002
:107EC000FA331B78012B06D10121608800F0E0F81D
:107ED00001E01B2BF8D037BD10B5054B04211870FD
:107EE00000F098F8FFF746FDFEF748FA10BDC046CF
:107EF0005C65FF1F0020F0B50BB20F0087B0834216
:107F000034DA274B187803F00BFF051E2BD00378CB
:107F1000A02B25D103AE3100FDF7BEFF041E0BD10F
:107F2000B378DB0724D51F4B06341B68002B03D026
:107F30003100688898470400A868002801D003F041
:107F4000AFFD002C08D1184A039B1340174A9342F7
:107F500006D0B3781B2B03D00121688800F098F875
:107F6000280003F0B5FD80200002784007B0F0BD86
:107F70000F4B1B68002B10D0310068889847041EF7
:107F8000DAD07378002BD7D1B27801A90A704B8070
:107F90000C716888FDF7D0FECEE70624F1E7C046F5
:107FA0005C65FF1F5465FF1F00FFFF00000112000A
:107FB0005865FF1FF7B50190FC200D0017001E004B
:107FC00003F096FD04001320002C12D0B0232000F3
:107FD0002370089BF4226770658026710830002B9F
:107FE00008D0190003F094FF2100019803F0C8FEA7
:107FF0000020FEBD089903F09BFDF5E710B5041EB7
:1080000006D00078FD2803D803F01AFEFF23237062
:1080100010BD00000A1F93B210B504000220032B0C
:1080200005D882400020024BD1529B189C7010BD95
:108030007C65FF1F0B8870B5043B04000D00022017
:10804000032B0BD80121200000F04AFD030014206F
:10805000002B03D02900200000F0DEFB70BD0000E3
:1080600007B51300034A00920A00012100F02CFC1E
:108070000EBDC0469D82001107B5019203220092F9
:10808000024B0A00122100F047FC0EBD1B830011B9
:1080900007B56B4601AA11800449D88008780633D9
:1080A000012802D1190003F0F3FE07BD5D65FF1F33
:1080B0000C4B10B518700023FF210B4A138013815D
:1080C00093819380094A5380137051729381937204
:1080D000D174D3821375517703F0AAFD00F0FCF937
:1080E00010BDC0468C65FF1F7C65FF1F5E65FF1FCE
:1080F000F0B58DB06B46002003910C229B5E83424D
:1081000000DBB1E05D4B187803F00AFE051E00D1DC
:10811000A5E00378902B00D09EE006AF01004688D2
:10812000380000F013FA79680400002900D19DE0BE
:108130003B88052B6FD13B89032B1CD905AC200054
:1081400000F0A2F86288172A60D83989131D994275
:1081500031D17968237804310291D90738D5607814
:1081600000F08EF9071E06D0002303712378012B3F
:1081700008D0132B23D0A868002800D179E003F0A1
:108180008FFC76E06288029909A800F0A6F80290B8
:10819000380000F08BF909AA2378387A019200227E
:1081A00031000092029A00F012F9380000F064F9F0
:1081B000029B002BDFD0300000F080F9DBE7037872
:1081C000032BD8D16288029909A800F0D6F8DEE71F
:1081D00009AF122B12D13800029900F0B4F8021E38
:1081E000E9D127498B88002BC5D08879237801975E
:1081F00061780091310000F0EAF8BCE700233A0012
:108200003B8061783000FFF72BFFB4E71D4B09AAD4
:1082100009936178F6E7042B02D09A1F012AAAD8A5
:10822000174A043B9B00995A0029A4D0D218907891
:1082300031003A0000F0ADF800289CD13B88042BB7
:1082400003D001213000FFF723FF012C04D1A868DF
:10825000002801D003F024FC280003F039FC802022
:10826000039B0002434018000DB0F0BD012800D16F
:1082700081E701213000FFF70BFFEDE78C65FF1F61
:108280007C65FF1F010017000B7803704B7843706B
:10829000CB788A781B021343438070470A88030017
:1082A00002700A88120A42700A88012A06D14A8896
:1082B00082704A88120AC2700420704702208242EB
:1082C000FBD14A8804309A704A88120ADA708A8888
:1082D0001A718A88120A5A71EFE710B5040001205A
:1082E00082420CD94B780A781B02134323808342C5
:1082F00006D1CB788A781B0213436380002010BD1F
:10830000022BFBD1CB788A781B02134363804B7915
:108310000A791B021343A380F0E70B8803700B88D4
:108320001B0A43704B8883704B881B0AC3708B8871
:1083300003718B881B0A4371CB888371CB881B0A1E
:10834000C3710820704703000120082A14D14A781D
:108350000878120202431A80CA788878120202430F
:108360005A804A790879120202439A80CA79887938
:10837000120202430020DA80704710B50400012089
:10838000022A05D100204B780A781B021343238070
:1083900010BDF8B5060010200F00150003F0A8FB73
:1083A00004000120002C0ED0A0230C2229002380E1
:1083B0006780201D002D07D003F0AAFD21003000AA
:1083C00003F0DEFC0020F8BD03F0B2FBF6E7F7B5E2
:1083D0001E00009008AB142017001D78019103F0D7
:1083E00087FB041E12D0A2230370019B47704380B9
:1083F000099B057146710C220830002B07D019002B
:1084000003F086FD2100009803F0BAFCF7BD09993E
:1084100003F08EFBF6E737B5041E0FD04388002B20
:108420000CD00025C1881323007A172201950095EE
:10843000FFF7CDFFFF2365806372257037BD000015
:1084400010B50C4904004A88002A09D08B89002BFA
:1084500005D00020CB8A0222834201D010BD012228
:1084600013000A20434300204032C854C8184280F9
:108470000472F3E75E65FF1F0023438003707047BB
:10848000094B00211A0010B55C88002C06D01C791D
:10849000844203D10A234B43D01810BD01310A3363
:1084A0000329F1D10020F8E75E65FF1F10B5040035
:1084B000407A03F0C5FBFF23637210BD70470430A0
:1084C00010B580B203F0C4FC002803D00421494257
:1084D00003F096FC10BD000070B50025104CA0689C
:1084E0002580A581A580A84202D003F0D9FAA56015
:1084F00000250C4C0C4B606D1D80230058331D7003
:10850000A84202D003F0CCFA656500256068002817
:1085100001D003F0C5FA013508340A2DF6D170BD3B
:108520002466FF1FC865FF1F1866FF1F70B5041E75
:1085300009D1054D2880A881A880A868002802D00C
:1085400003F0AEFAAC6070BD2466FF1FF0B54B8837
:1085500085B00193002343600A7905000F00022AC9
:1085600000D07BE0CA88032A17D98B685E78197817
:108570003602DC78D8790E4399781B7A24021B02E4
:108580000C43034353495BBA0B80331D93421ED106
:10859000042C04D0631F022B0ED9012015E0019A90
:1085A0004D4B1201D35A002B06D00198FFF7BEFFA6
:1085B0004A4A1369013313610421B8682E812C8063
:1085C000494203F01DFC6860002005B0F0BD434D3A
:1085D000042C06D0631F022B0FD9EB680133EB602C
:1085E000DBE7019A3C4B1201D35A002B05D00198CE
:1085F000FFF79CFF2B6901332B61374B300002934F
:10860000019B029A1B010193002301998C468B5216
:10861000130063449C8003939E81FFF750FF039BEC
:10862000041E986016D00421B868494203F0E8FBA4
:10863000FA880100043A200003F06AFC0199029ACA
:10864000FB888A5A043B9B18029A8B522B68013391
:108650002B60A2E7AB690133AB619EE71E4B02932F
:10866000019B1E01029BF35A002B2DD002998C19FD
:10867000A068002828D0012A26D1FA889B189BB22E
:108680007352A189994217D39B1AC018B96803F095
:108690003FFC029BA289F35A934200D07DE700225F
:1086A0002B81A3882B80A3686B60029BF2520B4A3C
:1086B00053680133536070E7084A9368013393604D
:1086C0000198FFF733FF68E7044A536901335361A8
:1086D000F6E7C0468E65FF1F2466FF1F9465FF1FE7
:1086E00070B5051E15D10B4C0B4B18802300583369
:1086F0001870606D002802D003F0D2F9656525007E
:1087000050356068002801D003F0CAF90834AC4243
:10871000F7D170BDC865FF1F1866FF1FF0B51700C1
:10872000A12285B0920001934243394B06001B6899
:108730000C009B18D933FF331D78FDF719FE043068
:10874000854204DD3000FDF713FE0430C5B2BD42A2
:1087500007D33A0000213000019B03F0A9F905B0CE
:10876000F0BD2900380003F013FB2300C6B25033DC
:108770001E700393019B29006365380003F078FAAB
:10878000CBB20293002B02D0039B01361E70002651
:108790002300503303931B78B34204D8606D002844
:1087A00031D10020DBE7029A2800002A04D0013BE7
:1087B0001000B34200D02800F700E719387003F02A
:1087C000AFF9786000280ED03A78019903F0A0FB49
:1087D000019A3B780136D3180E4A0193D369F6B259
:1087E0000133D361D4E7039B18706065A74205D1BC
:1087F000084A1320D36A0133D362B0E7606803F0FC
:108800004FF90834F2E703F04BF900236365C8E73A
:108810003409FF1F9465FF1FF7B50D000700042101
:10882000686803F0EDFA2B89040003702B891B0A9A
:1088300043702B8883702B881B0AC3702E890225F6
:108840000436F6B2F42E15D81B4B9F4214D10C20DF
:1088500003F04EF91135011E0CD0902303708E3BAE
:108860000371043B4380154B8460C680187803F085
:1088700087FA00252800FEBD5C237B43104AD318ED
:108880000093583301931B78002B0FD10300320063
:1088900038000099FFF742FF019B05001B78002B71
:1088A000E8D13800009903F0DBF8E3E7054A072533
:1088B000536A01335362DDE7FEFF00008C65FF1F42
:1088C000C865FF1F9465FF1FF0B587B000901720A3
:1088D0000F0016000193FFF7F2FD1325041E18D0B8
:1088E0000C98031E02D00199201D9847030AE370DB
:1088F000052303A9A07004300881277000986670D2
:108900000B804C60FFF788FF051E02D0200003F0AB
:10891000C7F8280007B0F0BDF0B587B01F000CAB5A
:108920001B780391059301210DAB06001C7804927E
:1089300000F0D6F81425002821D02000FFF780FD94
:108940000135041E1BD01149059B0A7803700132C2
:10895000D2B2131EC68001D101231A000B702271FE
:108960003000049B03990097FFF7AEFF051E09D165
:10897000230021000648074A093303F021FB2800A1
:1089800007B0F0BD002363802370F8E79065FF1FF8
:108990001784001130750000F8B505000E00064C74
:1089A000064F2368002B02D031002800984704347A
:1089B000BC42F6D1F8BDC0463466FF1F4866FF1FB3
:1089C0000123064A5B425380002313715362044A19
:1089D000136053609360D360136170474866FF1F54
:1089E0003466FF1F0200002310B506499C00085999
:1089F000002801D1625010BD0133052BF6D11320A0
:108A0000F9E7C0463466FF1F034A5388181A4342E9
:108A100058414042104070474866FF1FF0B585B08E
:108A200002930AAB1F780CAB1B88009008000E0065
:108A300001920393FFF7E8FF05001120002D1BD1E1
:108A40000E48FFF7E1FF04001520002C14D0062289
:108A50000B99A771E01D03F05BFA019B30002371B5
:108A6000029B29006371009B66802370039B6562F3
:108A7000E381FFF791FF280005B0F0BDFFFF000084
:108A800010B5FFF7C1FF04000220002C12D060884F
:108A90000121FFF781FF606A002801D003F098F9F7
:108AA00028220021200003F043F8012300205B422C
:108AB0006380207110BD000030B5074A074C55880F
:108AC000010013780020A54204D05B1A59424B41A3
:108AD0005842104030BDC0464866FF1FFFFF0000EF
