:020000041100E9
:103000007FB50023284C294D03932800217C284AB2
:1030100001F02BFA002812D103232800217C03AAF7
:1030200001F0CAF900280AD1224B039A9A4206D12C
:10303000214B2248E360224B636104B070BD02263D
:10304000217CFE2228001F4B009601F087F9002802
:1030500001D00020F1E71C4BA2899A42F9D1217CD2
:10306000FF222800194B009601F078F90028F0D1D2
:10307000E389174A934203D1164B17486361DCE793
:10308000164A9342E5D1164B164A1B68934206D95D
:10309000C02304222800217C9B0001F0C8F9124BB8
:1030A00012486361C9E7C046E460FF1F4441FF1F47
:1030B000813700005959530059598320E0C000114D
:1030C000BD410011F060FF1F59590000F260FF1F61
:1030D0008305000075410011C0C000118215000079
:1030E0000861FF1F8713000011420011D0C00011BA
:1030F00070B5134D2B7C002B0DD0124C200001F02D
:10310000DBF8297C382907D1BA22200001F07EF9AA
:10311000200001F00FF970BDEB890B4A934206D1F4
:103120009023022220001B0201F081F9F0E7074AF8
:103130009342EDD12000064A01F097F9E8E7C04636
:10314000E460FF1F4441FF1F83050000832000004F
:10315000A23000000022024B1A825A617047C0461A
:10316000E460FF1FF7B5164B0192C318021D002043
:10317000009388235B05D3181B685C1C1AD09CB293
:10318000402C18D88D781E0CAC466746CD782D02A1
:103190003D43AE4206D1019800280ED110000C70BC
:1031A000240A4C7003249BB20733A343D218009B1C
:1031B0009A42DED3FEBD4432F9E71000FAE7C0467A
:1031C000FC0F0000802213B503000324019189B293
:1031D000520107319B18A14304305A1A88235B051A
:1031E000C3181B68591C03D190429241104016BD70
:1031F00099B2402907D80B000733A343C018904267
:10320000ECD30020F3E74430F9E7134B134A1B6873
:10321000126810B5FA24934201D81A00F824104B12
:10322000E4021B689A4210D813000E4A12689A42B0
:103230000ED3013307D1F823DB029C4203D10A49A4
:10324000054808F011FE200010BDFC24E402ECE764
:10325000FE24E402F7E7C04600C0071100D00711C2
:1032600000E0071100F00711FFFFFF7FF0B59BB0F2
:10327000150003900491402A5CD806AC618022803E
:10328000FFF7C3FF002221000600FFF76BFF0528B0
:103290000FD92388AB420CD1002D07D0504B2A0008
:1032A0000399C01808F0F0FB002802D101201BB0E0
:1032B000F0BD258030000699FFF784FF041E79D108
:1032C000069B0793FFF7A1FF80235B01C6188023AD
:1032D00007001B039E4201D1F826F60288235B05F6
:1032E000F31801931B68013302D0019808F0ACFB7E
:1032F0003C49019808F0B8FD3B1D0293331D05932E
:103300008822029B52059B181B6808935A1C13D1F4
:1033100088235B05FF1839680198013908F0A4FD7E
:10332000380008F091FB30000799FFF74BFF0400CD
:10333000002C41D10020BAE744219AB20091402AE2
:1033400004D80320D11D814389B2009104991B0C3C
:103350008B4224D0402A22D80122300008A9FFF74E
:1033600001FF021E1BD1380008A9FFF7FBFE040075
:103370000428DDD9009A059B9B1880225201B218BF
:1033800093422AD288235B05C118009A09A808F045
:1033900043FB134B009A09A9F01808F0FDFA009AB4
:1033A000029B9446634402930F4B029AFB189A4285
:1033B000A6D3ADE70428BDD088235B05E0180699A5
:1033C00008F052FD0323EA1C9A4300D16EE7044B38
:1033D0000399E01808F0E0FA68E70424ECE7C04637
:1033E00004000011FFFFFF7FF80F000073B5040019
:1033F0001600402A1ED801AD6980FFF706FF0022A3
:1034000029002A80FFF7AEFE042810D92D88002E4F
:103410000BD0002C09D0321CAE4200D92A1C074B1D
:1034200092B2C118200008F0F7FA28B276BDC04366
:1034300000B2FBE703204042F8E7C0460400001159
:1034400037B5042204000D0001A81649FFF7CEFF8E
:10345000020004280BD1019BA34208D3AB4204D045
:10346000104901A80195FFF701FF01203EBD0E4C58
:1034700023682000019308F0E7FA01992000013940
:10348000019108F0F1FC80235B01E418074B9C429A
:10349000EED10422034901A80195FFF7E7FE0020C1
:1034A000E4E7C0465555000000C0071100000811B0
:1034B000F0B589B010226946234808F025FB234B5C
:1034C000009A6C469A4211D1019B0F2B35D8069970
:1034D000029A8C4618001100002604AD013808D26B
:1034E000002E01D00A00A160013229D10023A3607F
:1034F00023E04F1CF2D161460126EFE7103610227F
:103500002900300008F000FBA368A868013300D14F
:10351000A060882329685B05C9186B6829601A03B5
:10352000120B6A60814203D03B4201D108F074FA69
:103530006368013B6360002BE0D1A06809B0F0BD77
:10354000E027014E3F03F6E70000011150485936CD
:1035500007B508F0A1FCFFF7ABFF002803D00190EE
:1035600001984168084707BD10B508F095FCFFF7C2
:103570009FFF040008F038FA200010BD13B50400C6
:1035800008F08AFC002C03D0019401984168084798
:1035900013BDC0468022F8B5964C974BD20000214F
:1035A00020001C6008F090FC2300944A88331A60C5
:1035B000934B1A786A23002A00D01133E3620A235E
:1035C0002365904B37221B780820A3638E4B21186C
:1035D000E361102323628D4B3B256361C823DB002D
:1035E000A36123008C331A602823013AE26320642C
:1035F0006364CA67043A211DCA672100BC310D60AB
:103600002100C03108602100C4310B602100063563
:10361000CC310D602100083DC8310D602100D03152
:103620000A602200D43210602200D83213602200D7
:103630000227E032210017604222DC310A602100BB
:103640001B3DE4310D602100E83108602100EC31C0
:103650000B6023000521F43319602300F0331A6056
:103660002300183290331A6023009433186023002B
:103670001E3A98331A60AF23DB002360644BFA26AE
:103680002363644B644DE360644BF031A364230017
:10369000FF31FC33B600A16021611E60A562732575
:1036A000E5656D3D6565A56596255D4AAD00E264FD
:1036B000666258606766A56600270925A767E56604
:1036C000584F594D606720002567E2673A6015271B
:1036D0009C30676007001A2038602000A030070087
:1036E000212038602000A83007004C4838602000B6
:1036F000F830066026006427A436376026005F3F56
:10370000AC3637602600033FB03637602600C63738
:10371000B436376026000027B836376038269E60FA
:10372000424E96205E64424E5A66DE61414E9A6475
:103730005E62F53EFF3E9E621E269A67354A800015
:10374000DE661F675F67DD651D661862DA67BE2388
:10375000394A5B00E250394BD838235004302250AC
:10376000C4225200A350C623E4205B00E15004337E
:10377000334AE1503349344BD16034498000195009
:103780003349E938FF381950324904301950324969
:103790003248D16132491163324951631900F43121
:1037A0000860CE203049400011603049195019009E
:1037B0002F48F83108602F49D16582212E4A8900AF
:1037C0005A501A002D490832D1671A002C49B432D8
:1037D000116088212B4A89005A501A002A498832E0
:1037E00011602A4ADA6408F0C7F9012008F034FAB7
:1037F000F8BDC0460004FF1F1864FF1FE06EFF1FE6
:103800007043FF1F4A0AFF1F3A07000080C3C90127
:103810009A020000DC0500006A18000050C3000096
:1038200088130000F009FF1F204E00006509FF1FEC
:1038300068100000C409000040420F00102700007B
:10384000FC00FF1F851BFF1F0000FF1FDD2BFF1F5C
:10385000652FFF1FFD2DFF1F451FFF1F3D26FF1F6B
:10386000611FFF1F1121FF1FD11EFF1F6128FF1FB6
:103870004929FF1F8D19FF1F6D27FF1F9924FF1F67
:10388000A524FF1FD11DFF1F891EFF1F491DFF1FFC
:103890000223F0B501250024594E91B03370594BE5
:1038A000594F1D703A680393584B29005A700420F1
:1038B000574A2300009408F00FF98023DB059D622E
:1038C000FFF752FE534BC218C0239B029A4201D20B
:1038D000FFF754FE3C6008F067FAFFF75BFE08F064
:1038E0005BFA1F2201254C4B1A704C4B1D704C4B40
:1038F0001C704C4B05AC19689143163A0A431A6088
:10390000602219689143403A0A431A6008F024F98A
:1039100008F07AFA444B9847C120FF21434B8000BE
:103920001A588A431A50C522920098588843BF39C2
:103930000143995098583E4908408021C9010143EC
:10394000802099509958C0050902090A01439950ED
:1039500080213848490108F097F903232A003649A5
:1039600000933648019508F0CFFA2C22344905A877
:1039700008F052F86178207806F018FD023410AB98
:10398000A342F7D12F4C304B226803201A40A023CA
:10399000DB0213432360802322689B0413432360CC
:1039A00022682A4B1A4080239B0313432360284A32
:1039B000284B934200D8012008F046F908F074F82B
:1039C00080232268DB0413432360307808F014F866
:1039D000039B1878C0B208F0D7F908F075F90C49C4
:1039E000042008F011F906F0D7FE00F035F800F0D9
:1039F00055FD00F0EDFD00F0EFF9002011B0F0BD35
:103A00004A0AFF1F7043FF1F34F000401461FF1F7C
:103A10003B000108000001E0480AFF1F490AFF1FA0
:103A2000680AFF1FBCF00040E1A2000000E100E0D6
:103A3000FF00FFFF7443FF1FF855FF1F7453FF1F64
:103A4000C8BF001114F00040FF7FF8FFFFFF9FFF89
:103A50000080FF1FE06EFF1F002210B51100112033
:103A600008F05AF810BD0000F8B500230926374FBA
:103A7000374C3B62E3681120B343E36008F0ACF9D4
:103A8000112008F061F8112008F016F9402322688F
:103A900080251343236080236268DB021343636045
:103AA000A3682C4A2B43A360A36802211340A360A0
:103AB0008023A2689B0113431022A360236C07207C
:103AC00093432364236C0F3A1343236480235B00E6
:103AD0003B62226B204B1A402263626B1A40626386
:103AE000A26B1A40A263E26B1340E363E3681B4AD4
:103AF0001340E36006F05AFC0121072006F06AFD3E
:103B0000174B11205A6C15435D6408F00DF9FD2127
:103B1000144B154A89005A508023C720626B5B03FF
:103B200013436363E36880003343E3600F4B104A41
:103B300019581140802212020A431A50802292051D
:103B40001A6008220B4B5A63F8BDC04600F00040D3
:103B50003CF00040FFFFDFFFEFFFEFFFFFFF7FFFC5
:103B6000003800400000FF1F5118FF1F00E100E077
:103B7000FF00FFFF0000054070B5174CE0880028EB
:103B800023D02368A688C0188023711C89B2134DE6
:103B90002060A1809B00994218D3420A93B2C21AB6
:103BA000EB802260A6800E4A642093420AD8FA2253
:103BB0000020D200934205D90A21180007F0F4FF33
:103BC000C838C0B200232872E38070BD08F084F8C2
:103BD00083B2EB80E7E7C0467060FF1FFC60FF1F09
:103BE000B70B000030B503A804880B20002C0ED1C1
:103BF0004968074D08784978090201430A20A9421B
:103C000005D1012120001980024B1B7A137030BDB1
:103C1000192A0000FC60FF1FF7B5150008AA1688D6
:103C20004A680F4F14785278120222430A24BA428B
:103C300014D10122DBB2019200962A0007F026FE81
:103C4000041E0BD1074B1B68002B07D068782A781D
:103C50000002104342425041013098472000FEBD0F
:103C6000022900008060FF1F30B5012503790400A0
:103C7000BFB02B4211D00A49408807F077F928429B
:103C80000BD0084B01A95B8D4D800B80064B0022A9
:103C90001B7A60880B7104F07FF93FB030BDC046DD
:103CA0007860FF1FB83FFF1FFC60FF1F10B505497C
:103CB000054807F011F90421044A054807F0CEF839
:103CC00010BDC0467860FF1FFFFF0000F4BF001169
:103CD000B83FFF1F10B5024804F0E2FF10BDC04618
:103CE000693C00110122144B0270197A41700221C3
:103CF00081709978C170D978017103214171197966
:103D000081715979C1710C21017299794172DB7904
:103D100083720A4B1978CBB2002904D03A2302737C
:103D2000C3720D20704703734373F2221723C272CC
:103D300083730F20F6E7C046FC60FF1FCD61FF1FB5
:103D4000022310B50370013B4370053383701033B9
:103D50000371443B43712A3383714433C37100239D
:103D60000372064B04001B8843720A30FFF7BAFF48
:103D7000831D0A30C0B2E37010BDC046FC60FF1F57
:103D800010B5142008F050F8124B142200211860CE
:103D900008F09AF8002008F0C7F8012008F06CF845
:103DA000022007F0C9FF032004F01CFA042006F0EB
:103DB00035FA052003F054FC062004F027F907200B
:103DC00001F08AFC082007F029F8092001F012FA16
:103DD00010BDC0468460FF1F07F026FF012008F0D9
:103DE0000BF807F081FE0000094B10B50400984263
:103DF00005D0012904D12000064907F06DF810BD57
:103E00000229FCD1013904F005FF0028F3D0F6E7C0
:103E1000FEFF0000AA60FF1F70B50D7A100004AA13
:103E20002C00168810221440154220D1002E20D1DB
:103E30000A78022A18D14A68517815780E4A090280
:103E40002943914205D00D4A914209D01C800A2491
:103E500004E014220A491A8007F0DEFD200070BD3C
:103E60000C2208491A80F7E71C800124F6E7082491
:103E7000F4E70B24F2E7C046F3FF0000F4FF000074
:103E80000042FF1FFCC0001110B50400074908489C
:103E900007F022F8074804F03FFE0020E40704D5AD
:103EA0000721054A054806F0D9FF10BDAA60FF1F8B
:103EB000FFFF0000E93D001138C00011FC3FFF1F6B
:103EC00010B50B4BBEB01A780A4902A800F054FE98
:103ED00001AC80B26080002808D0074B00221B880C
:103EE00021002380054B188804F056F83EB010BD21
:103EF0008860FF1F8960FF1F5640FF1F6041FF1F42
:103F000010B50B4BBEB01A780A4902A801F088FF21
:103F100001AC80B26080002808D0074B00225B8D86
:103F200021002380054B188804F036F83EB010BD00
:103F3000B260FF1FB360FF1FFC3FFF1F6041FF1F08
:103F4000F7B50E00377A1C0008AB11003D001A8847
:103F500020231D401F423CD13378022B3BD1736894
:103F60001F785B781B023B431E4FBB4208D01E4F9D
:103F7000BB4214D01D4DAB4221D00A252800FEBD06
:103F8000002A2AD1142C2AD82200F06807F044FD18
:103F9000174B1C70012CF1D9FFF7B2FFEEE7002A96
:103FA0001BD1202C1BD82200F06807F035FD114BE7
:103FB00004211C70104B187807F04EFFDEE7E3B2C7
:103FC0000124009201940A00310007F05FFC050013
:103FD000D4E70825D2E70125D0E70B25CEE70D254C
:103FE000CCE7C046F3FF0000F4FF00000229000008
:103FF000B260FF1F8860FF1FCE61FF1F332310B523
:10400000040003700A220749013007F005FD064B42
:104010000F201B681A0AE37222731A0C1B0E6273BC
:10402000A37310BDFC60FF1F2461FF1F30B5012585
:1040300003790400BFB02B4213D00B49408806F02F
:1040400095FF28420DD0094B01AD1B8802A82B809B
:10405000FFF7D4FF0F236B8000222900608803F054
:104060009BFF3FB030BDC046AA60FF1F5640FF1FF8
:1040700010B5024804F014FE10BDC0462D400011DA
:1040800070B5160004AA148805AA15784A685078F5
:10409000117800022A4A0843801805284BD807F0F7
:1040A00063FF03131E29343F07221000062C0AD891
:1040B000121BAA4200D92A0022491A80300009198D
:1040C00007F0AAFC002070BD0720112CFBD812229B
:1040D000121BAA4200D92A001B491A80EEE70720CA
:1040E000222CF0D82322121BAA4200D92A001749F9
:1040F0001A80E3E70720032CE5D80422121BAA420A
:1041000000D92A0012491A80D8E707221000062C8D
:10411000D9D8121BAA4200D92A000E491A80CDE72D
:1041200007221000062CCED8121BAA4200D92A0062
:1041300009491A80C2E700220A201A80C3E7C04654
:10414000DCD5FFFF9DC00011D060FF1F79C00011BA
:1041500074C000116CC0001164C0001110B50D21B5
:10416000024A034806F07AFE10BDC04658C000114E
:104170006C40FF1F37B50F4C01AD04232A00217C92
:1041800000F01AF9002813D12988236849BA89B2A6
:104190004B4321891B0C5B18074A6988538049BA35
:1041A000636889B24B4361891B0C5B1893803EBDE9
:1041B0000120FCE7E460FF1FFC60FF1F37B5124CD5
:1041C00006236A46217C6D4600F0F6F8002818D1D7
:1041D0002988236849BA89B24B4321890B4A1B0CB1
:1041E0005B1853806B4603335B78E9781B020B4303
:1041F0005BBA61689BB24B4361891B0C5B1893806F
:104200003EBD0120FCE7C046E460FF1FFC60FF1FCD
:10421000F0B5022785B0154C03AD217C2B000022A0
:104220000097060000F09AF8002802D0012005B09F
:10423000F0BD0E23217C0122300000976B4400F07A
:104240008DF80028F2D129882368C9BA4B43218907
:104250001B145B18064A6988538049BA636889B29F
:104260004B4361891B0C5B189380E0E7E460FF1F00
:10427000FC60FF1F10B500F071FB034A002013889B
:104280000133138010BDC046FC60FF1F10B500F065
:1042900045FB10BD10B58024064AA4001168436B8D
:1042A000234205D113685B1A032BF8D9012010BDF6
:1042B0000020FCE76008FF1F70B5C17905000C0005
:1042C000631E9C411A4BE402E41849000460C9B221
:1042D000007906F0B5F9E979687949000131C9B288
:1042E00006F0AEF9E8790930C0B207F0E5FC00232A
:1042F000E36661332360AA795B3B002A0ED0226813
:104300009A43023B134323600A23E361073323628A
:1043100000232363A3630133E36370BD22689A43E0
:10432000022313432360462363610633A361EFE74F
:104330000050004070B5002504000368DD66C079B8
:104340000930C0B207F048FD2900207906F014F9C1
:104350002900607906F010F970BD0000F8B51E0064
:1043600006AB1D78002304681700E366616007F060
:1043700093FD01238022E3662B0027615200013B5D
:1043800008D207F031FB08200A4A1168002D03D13A
:104390002800F8BD2261F2E7236F034203D02369AE
:1043A000013D3370013613685B1A032BEED90125EA
:1043B000EEE7C0466008FF1F70B51C0000230568CB
:1043C0001600EB66696007F067FD01238022EB664B
:1043D00023005200013B08D207F006FB08200A4ADE
:1043E0001168002C03D1200070BD2A61F2E72B6F09
:1043F000034203D02B69013C3370013613685B1A0A
:10440000032BEED90124EEE76008FF1F002370B5EF
:1044100004681500E366616007F03EFD0123E36672
:10442000256107F0E1FA2000FFF734FF70BD70B599
:104430001D00002304681600E366616007F02CFD90
:104440000123E36626610F33626B1A42FCD02B0A0C
:1044500023611023626B1A42FCD0EDB2256107F094
:10446000C3FA2000FFF716FF70BD002370B5046883
:104470001500E366616007F00FFD0123E3662B0A78
:1044800023611023626B1A42FCD0EDB2256107F064
:10449000ABFA2000FFF7FEFE70BD000010B5084C1F
:1044A000E368002B08D18022064B52021B689B1840
:1044B0006360054B1B68236007F07EFDA06010BDA4
:1044C0002461FF1FC8F00040CCF00040F0B5164A50
:1044D000916A936A8B42FBD1144901278A688B60E9
:1044E0009A1A134B48681C6893B263431B0A1B1843
:1044F000D002C00E6043020208689B18002402002C
:104500000C4D4B60561CAB4208D8002C01D010005B
:104510000CC1094A1360094B1860F0BD084A3C0001
:104520009B183200EEE7C04600F000402461FF1FF8
:10453000140AFF1F40420F00C8F00040CCF00040BA
:10454000C0BDF0FF70B5194C23793F2B01D93F2333
:104550002371174A13701078C0B207F015FB1823A7
:10456000144A15491380154A0B8013804B80A0799B
:104570000C3B421C534380221201934213D81A0071
:10458000CB80A0230E4D888028800E4863719F3B0E
:10459000028023720C4A0D4B1A60E379052B01D877
:1045A0001023E37170BD1300EAE7C0461861FF1FD6
:1045B000480AFF1F5E41FF1F1C43FF1F5C41FF1F96
:1045C0005A41FF1F5841FF1F102700000861FF1FBD
:1045D000F8B521210020FEF733FF114C011E114DCB
:1045E00009D10C22104BC1CBC1C4280007F06CFCD0
:1045F000FFF7A8FFF8BD0C2220000C49FEF7F6FEDD
:104600000C2802D0084B43CB43C40C222800084995
:10461000FEF7ECFE0C28EBD00C220021E5E7C046AB
:104620001861FF1FE460FF1FF0C00011FC0C0000C8
:10463000F50C000010B50C2202480349FEF716FEE7
:1046400010BDC0461861FF1FFC0C0000F0B51D4CEA
:104650008022A5440400882069465201400507F0E5
:104660008BFC902212016A441300200032C832C32E
:1046700016C816C38023144C144FA6689B033343FB
:10468000A3603B6007F048FC8823A0685B05C01866
:1046900007F0DAF90025882329008022A0685B054D
:1046A000C01840196944520007F076F9802301359B
:1046B000FF355B019D42EED1A6603E60044B9D44F8
:1046C000F0BDC046FCEFFFFF9042FF1F9808FF1FA0
:1046D00004100000F8B503780500013B0026012B0B
:1046E00002D82B7A9E4200DBF8BD6B68594C9A5D6C
:1046F000A3690133A361584B19783F2905D818786D
:10470000411CC9B21970554B1A54A37B002B0BD115
:10471000522A05D1013322706373A3730136E0E797
:10472000636901336361F9E7617B4B1CDBB263733F
:1047300062540C2BF2D9237B452B3ED109214848EA
:1047400001F028FB6289030060789A4235D100238A
:10475000A3736373A38B012201339BB2A383230052
:104760000833DA772379E2781B0213431BB2E38321
:104770006379E11C9C466746A379621D1B023B439B
:104780001BB22384C877A178231DD977637A2100CF
:10479000D377E279A31DDA77237AE21DD37722005B
:1047A0002A3108782B32002825D011788B4225D069
:1047B0001370E36A0133E36220E0238A01339BB282
:1047C00023820123E25C522A0FD1453AD01A2100FC
:1047D0000022C0B2CF5C0132D2B20F7001318242EE
:1047E000F8D10D22D31A637398E701330D2BE9D169
:1047F0000023A373F7E7012008701370194B154CC1
:104800001A78002A04D0002208201A7007F014FA3F
:10481000154A136811688B42FBD122003832117897
:104820001B021B0A00290FD07D21226B9A1A12024B
:10483000120A4A43120B6263802123630B4B490126
:10484000187807F009FB69E70121494261630231E9
:104850001170F1E74461FF1F8461FF1F8561FF1F35
:104860004561FF1F6C61FF1F28F00040CE61FF1FF4
:10487000F0B5204D89B040220021280007F024FB2C
:10488000402200211C4807F01FFB00221B4B002187
:104890001A701B4B0A326B87FA23AB8702ABD01816
:1048A00007F012FB174B04AC238096239B01059362
:1048B000012321002372144B144A0793C1C9C1C2BA
:1048C00013600022049800920599069A06F088F871
:1048D00004002B006242624129331A70002805D17E
:1048E000082007F021FA012328352B70200009B099
:1048F000F0BDC0464461FF1F8561FF1F8461FF1F3B
:1049000096280000FF060000D54600113461FF1F05
:10491000014BD86A7047C0464461FF1F37B50C4B46
:104920000C4C1B78002B11D028342378DDB2002BDF
:104930000CD1280006F090F8074B00950FCB06F03D
:104940004FF8082007F0F0F90123237037BDC04667
:104950006D61FF1F4461FF1F3461FF1F0E4A0F4B43
:10496000D27F0F49002A05D0DA8B4A801B8C1BB2FC
:104970008B8070479A8B002A0AD09A8B524292B24F
:104980004A801A8A002A05D01B8A5B429BB2EEE756
:10499000044AF5E7034BEAE74C61FF1F4461FF1F40
:1049A000FC60FF1FFFFF00008021F8B51D4CC9010E
:1049B000207807F061F91C4B20781A0000243F3260
:1049C0005E6B1470194AB118194A914226D8032710
:1049D0005D8F998F761BF2173A4092199210AD189D
:1049E0005D871D003E352A780132D2B2072A0CD8E5
:1049F0002A70998F5B8F14310122994200D25A1A82
:104A00008021890107F0E8F8F8BD2C70772902D9D8
:104A100049089987EDE73C229A87EAE71A003E3277
:104A20001470E6E7CE61FF1F4461FF1FC0E0FFFF87
:104A30008813000010B5FFF771FF094A094B12787F
:104A40001878094B012A07D95B8F9A08D218802160
:104A5000C90107F0C1F810BD9A8F0A325200F6E77B
:104A60008361FF1FCE61FF1F4461FF1F70B51C4BA8
:104A70001C4C1A78002A21D0002508201D7007F050
:104A8000DBF8230038331D70230021003E33A28F52
:104A90003F311D700B78FF2B04D00133DBB20B705C
:104AA000052B07D9104A8021104B8901187807F08F
:104AB00093F803E0012B02D0FFF7BCFF70BDFA2092
:104AC000400003005100814200D88BB21432618F44
:104AD000A387D31801228B42E5D2CA1AE3E7C04666
:104AE0006C61FF1F4461FF1FE0930400CE61FF1F54
:104AF000F0B587B0051E6C4627D0684606F06CFFFF
:104B00001B4D022806D106226946280006F0BCFF8C
:104B1000002818D00F22210000230120944606000F
:104B2000EA5C013317091037BE4037006646324051
:104B30000600964032003A434A610439062BEED112
:104B40002000FFF783FD07B0F0BD18226946094831
:104B500007F012FAAB00E358013305D01822FF2109
:104B6000200007F0B1F9EBE70135062DF2D1EAE7B5
:104B70006509FF1F00090011F0B5002604000F00B1
:104B8000150085B0B24200D187E08A784B1C0193B2
:104B90004B7812021A43CB7808781B0413430A7926
:104BA000207012061A43009203926670252800D1E5
:104BB00093E033D8112813D806F0EEFF66001801F1
:104BC000180118011801A700B500AE00180118015E
:104BD000180118011801180118011801F20012013A
:104BE000232800D1CAE0DB2800D0CBE1042D00D877
:104BF000AEE0052D00D197E16E1F32000098791DBF
:104C000006F00AFF05223900200006F005FF3200F9
:104C10000099601D06F000FF2E003EE0562856D099
:104C20000FD8332800D1A4E0552839D02628DAD16E
:104C3000BF4D13223100280007F046F9FEF78AFA2B
:104C40005AE0712800D175E0722800D187E0DC2895
:104C5000C9D1022D00D87BE04B7863708B78A370AC
:104C60006B461E88032D05D0033DC81CAAB2310037
:104C7000FEF7FCFA31001022E01CFEF7B7FBC61C61
:104C800000280ADA607070E00C260C222000A94986
:104C900006F0C2FEA64B5B7CE380300005B0F0BDA1
:104CA0006A1EA54D0C2A10D8002A07D028000199A9
:104CB00006F0B2FEFFF746FCFFF7BCFC0C22290011
:104CC000601C06F0A9FE0D26E7E70C22EEE79A4DE0
:104CD0009A4B2A0043CB43C2ECE76A1E944D0C2A40
:104CE00011D8002A08D00199280006F095FE0C2260
:104CF00028009349FEF7BAFA13222900601C06F037
:104D00008BFE1426C9E70C22EDE706228D49601CB4
:104D100006F082FE0626C0E712228B49601C06F0D0
:104D20007BFE1326B9E708228849601C06F074FE52
:104D30000926B2E7012D0ED04978F02908D8844D14
:104D4000288801F0C7FC834B2A885200D35A00E020
:104D5000FF23637009E07E4A7E4B1288F5E77E4BA5
:104D6000012D04D04A781A706270022695E71B78EC
:104D7000EFE72000FFF742F906008EE7042D05D982
:104D8000764D009B2B6007F017F9A860FFF79EFB9C
:104D90000422039003A9601C06F03EFE05267CE772
:104DA0006F4E062D15D906223000019906F06CFED3
:104DB00000280ED006220199300006F02DFE0622B2
:104DC00068493000FEF752FA0123634A11780B4319
:104DD000137031000622601C06F01EFE07265CE7F9
:104DE000012DB5D04878FFF783FEBEE701281FD11B
:104DF0005D4AAB1E0092132B06D84B78002B0BD1CB
:104E000000F066F900F09CF9584B00991E78601C80
:104E1000721E06F001FE40E7013D2A00019900984C
:104E200006F0FAFD52490098AAB2FEF71FFAE9E728
:104E3000032800D0D7E6012D2DD120700C234D4A38
:104E4000637012784C4BA2701A000832D27F102681
:104E5000E2709A6922719A69120A62719A69120C57
:104E6000A2719A69120EE2719A8B22729A8B120ABF
:104E700062721A8AA2721A8A120AE272DA8B227398
:104E8000DA8B12B2121262731A8CA2731B8C1BB2D1
:104E90001B12E37301E74B782070002BCED0012B5F
:104EA0001FD10B336370344B0B26DA8BA270DA8B75
:104EB00012B21212E2701A8C22711A8C12B21212F1
:104EC0006271DA1CD27FA2711A1DD27FE2715A1D63
:104ED000D27F22729A1DD27F07336272DB7FA37268
:104EE000DBE6032B00D033E7022D00D130E70C22A4
:104EF000224B897818780426A07018786270E170C7
:104F0000884200D8C9E61B785B1A1E1CDBB29342AC
:104F100000D9161C1A4BF6B23200201DC9180436EF
:104F200006F07AFDF6B2B8E6152510266AE6C04608
:104F3000E460FF1FFCC000111861FF1FF0C00011EA
:104F4000F50C0000F060FF1FD060FF1F9442FF1FB0
:104F50006041FF1F1C64FF1F1461FF1F2461FF1FBE
:104F60006509FF1FADAC0000AD63FF1FAB63FF1F02
:104F7000AEDE00006D61FF1F4461FF1F8461FF1FF3
:104F80008561FF1FDA2800D0E2E6042D00D8DFE6B5
:104F9000082D17D9BB797A791B021343FA791204C9
:104FA0001A433B7A1B061343009A1360009B0522A9
:104FB0001B6839002000039306F02EFD0422601DBB
:104FC00003A9B3E6FE236370F0E7C0467047000014
:104FD000013870B5042809D8254C06F0C5FF030830
:104FE000292910000221207806F036FF70BD082123
:104FF000207806F041FE00221E4B1A72F6E780224E
:1050000000251C4B520060201A81DD7206F08CFED8
:10501000194B1D70194B1D70FFF780FC082120787B
:10502000174A06F0D9FD2900207806F045FDDDE796
:105030000821207806F020FE602006F0FDFD1148D2
:10504000FEF77EFE104B114A9B799380104A138025
:105050000022084BDA720132FF321A810D4B1B78A5
:10506000002BC3D00C4A136006F0AEFCBEE7C0466E
:10507000CE61FF1F0861FF1FCD61FF1FCC61FF1FC5
:10508000102700006941FF1F1861FF1F1C43FF1F0D
:105090005A41FF1F1461FF1F34F000400300F0B5B8
:1050A0000A4D8E18B14202D152008018F0BD0C7822
:1050B0002F6824093C5D0F271C700C7801313C409F
:1050C0002F683C5D5C700233ECE7C0465441FF1F23
:1050D0001022124B10B51A700F23114C1149237076
:1050E000093A063B1048637006F096FC2D23012216
:1050F0000E490F486372FFF7D1FF01220D49FFF7F8
:10510000CDFF01220C49FFF7C9FF030000200B4926
:1051100002001870FEF7AAF810BDC046CA63FF1F50
:10512000AB63FF1F9DC00011AD63FF1F6709FF1F29
:10513000B563FF1F6609FF1F6509FF1FAEDE000094
:1051400070B5134C142220001249FEF74FF9431E8C
:10515000114D132B19D8AB78002B16D0431C2B7094
:1051600009236B7000230019037028780B4B013062
:105170002900C0B2187006F027FD297822000139F5
:10518000C9B2002005F088FD70BDFFF7A1FFECE774
:10519000AD63FF1FAEDE0000AB63FF1FCA63FF1FDE
:1051A00010B5114B1A781870002A0ED000280BD1B8
:1051B0000E4B1A78062A07D85423D340DB0703D5B1
:1051C0000B4B187802F0EAF810BD0028FCD0074B12
:1051D0001B78012B02D0033B022BF5D8044B012195
:1051E000187806F039FEEFE7CF63FF1FF563FF1F66
:1051F000F663FF1F70B54A4D2D242870FDF7AAFFF6
:10520000FFF736FB8021474AC901287806F0E4FC05
:1052100006F0F2FC032244494448FFF73FFF030035
:1052200004221C7042490130FFF738FF302304701C
:10523000404E414C437083702E3B062220003F4974
:10524000F387FEF7D3F8062813D0200006F0C4FB3E
:10525000022809D00321200006F026FE8D23E370EA
:105260006E3B237119336371062220003349FDF729
:10527000FDFF334B1B68FC335C64FFF761FF0020CC
:10528000FFF78EFF2F4C304A0121304B12782078E7
:1052900002F046F82E4A2F4B12780021207802F0B7
:1052A0003FF801222C4B1A702C4B5A783C23552A7C
:1052B00000D0163B2A4A202153722A4B2A4AF381F6
:1052C000B28132827382287806F05EFB0120404270
:1052D00005F02EFD0120404205F0CAFDFEF73EFF1D
:1052E000FEF7E4FC00F034FD01204042FEF7CCFD67
:1052F000012006F091FCF02001F0D0F9012128787E
:1053000006F0AAFD287802F0A5F9184806F00CFC72
:10531000FEF7AAFB00226020110006F0FDFB70BD25
:10532000CE61FF1F983A00009442FF1FD060FF1F1C
:10533000F060FF1F1E42FF1F6509FF1FADAC00009C
:105340001864FF1FF663FF1F8841FF1F6941FF1F9D
:10535000CA63FF1FAB63FF1F9C63FF1F1461FF1F26
:105360000861FF1FCE090000C4090000D061FF1FC3
:10537000F8B50D008B0600D495E0844B1B78002B0C
:1053800019D0FFF7A3F8FFF7C3FA814B814A1968D8
:10539000884213D0804918600B8801330B800121AB
:1053A0007E4B1970062313707D4C2000FEF7C8FC5D
:1053B000210006F019FD20206840F8BD1378002B6D
:1053C0000BD0013BDBB21370002BF4D1734A137086
:1053D000714A138801331380E6E7724B724C734EA7
:1053E00099686268737A8A1ADB039A4202D3616011
:1053F000FEF73AFB327A217A531EDBB299423ED154
:10540000FEF744FF637A002B35D0013BDBB26372B9
:10541000002B30D1664B5B78552B01D106F0D4FAC6
:10542000E37A002B12D00023A27AE3729A4202D0D0
:10543000A372FEF7A1FB584A594F13883800013375
:105440001380FEF77DFC390006F0CEFC64227379F0
:10545000584E5343584A19009381138201230A314D
:10546000D18151823370554B187801F097FF002895
:1054700001D000233370237A013323729BE79142DA
:10548000C0D300272772FEF7F5FEA37ABB4202D0F5
:10549000A772FEF771FB424F3800FEF751FC39004E
:1054A00006F0A2FCAEE70BB2002B0ADA444B1878E8
:1054B00006F032FC002801D006F0DEFA802000025F
:1054C0007AE70224214209D0384A374B127A012068
:1054D000023A1A72FFF764FE20006DE7802464012F
:1054E000214202D0FFF760FAF6E78024A4012142AE
:1054F00002D0FFF79FFAEFE78024E401214202D0B7
:10550000FFF7B4FAE8E70B0721D5FEF7DFFF254BDD
:105510002549264C98684A68637A821ADB039A42C6
:1055200002D34860FEF7A0FAFEF7A4FEFEF7AEFE37
:10553000234B08211878234A06F04EFB00F022FC8A
:105540002368DB0701D5FEF793FD082034E7CB067F
:1055500009D5FEF711FB0D4B1B78002B01D1FEF78F
:10556000B9FB102028E70124214205D0164800F09D
:1055700077F806F009FDAFE7042408002040214237
:1055800000D11AE7FEF79CFCA6E7C046CF63FF1FD9
:10559000C861FF1FCC61FF1FFC60FF1FCD61FF1FB3
:1055A0006941FF1F2461FF1F0861FF1F1861FF1F72
:1055B0001461FF1FCE63FF1F1E42FF1FF663FF1F14
:1055C000CE61FF1F102700004C41FF1FF0B51A4BA2
:1055D0001A4F1B883A880400194E1A4D85B09A421A
:1055E0000DD832889A420AD3174B1A882B889A42D0
:1055F00005D1164A164B12881B889A421AD00520EC
:1056000001F0A2F83B8802A90B80338801904B80FF
:105610002B88104D8B800E4B2A781B88CB800E4B2D
:10562000188802F0C3FD0D4B08212878019A1C70E0
:1056300006F0D2FA05B0F0BD9A63FF1F5E41FF1F6E
:105640005C41FF1F5A41FF1F9863FF1F9663FF1FB6
:105650005841FF1FF663FF1F6041FF1F9463FF1F48
:1056600013B50C4B1C78002C11D1002801D00A4B2B
:1056700018600A4A0A4B11780A4A10780A4A0192BD
:105680000A4A0092002205F0FFF9200016BD1124FD
:10569000FBE7C046F563FF1F9063FF1FF463FF1F26
:1056A000E463FF1FF663FF1FD063FF1FD463FF1F78
:1056B00010B5064B12201B78052B06D1044B132284
:1056C0001988044B187801F01BFA10BDF563FF1F11
:1056D0006041FF1FF663FF1F10B500240122114B2C
:1056E00052421870104B1C70104B1A8001F0B2FF20
:1056F00004220F4B21001A700E480C3206F0CCFA2F
:10570000102221000C4806F0C7FA07220B4B1C6040
:105710000B4B1C700B4B1C700B4B1A700B4B1C7003
:1057200010BDC046F663FF1FF563FF1F6041FF1FFA
:10573000F463FF1FE463FF1FD463FF1FD063FF1FE9
:10574000AA63FF1FA963FF1F6241FF1FA863FF1F1A
:10575000F8B5174C0600257806A814240078052D06
:1057600023D1B41F134FA5B21824BD421DD88D1FDD
:10577000ADB2BD4219D8FA256D00AA4215D21D005E
:105780000D4F0A3DADB2BD420FD80C4C26800C4CDB
:1057900021800C4900240A800B4A1380FFF716FF72
:1057A0000A4B0421187806F067FA2000F8BDC046BD
:1057B000F563FF1F790C0000750C00005E41FF1FB0
:1057C0005C41FF1F5A41FF1F5841FF1FF663FF1F37
:1057D000F0B50BB20E0089B0002B00DB9BE1B44D9D
:1057E000287806F099FA041E5ED00378A22B00D127
:1057F0004CE1D02B1AD0912B53D143780E2B50D1A2
:10580000AC4B82889A424CD1AB4B1B78052B48D1CC
:105810008368032018567F2843D0A84B1B68002BB1
:105820003FD05B68002B3CD098473AE0807807284F
:1058300037D806F0B1F90800360026004D004D00BB
:105840009000D20002016378002B0CD007229A4B03
:105850001A709A4B1B68002B23D01B68002B20D09A
:10586000954A1078E0E70121934B1970944B1A7810
:10587000002AEED0934B287801F052FD0028E5D1A4
:10588000E7E761780029E1D1E378002B11D08E4A57
:105890008E4B1278287801F043FD60706378002BFE
:1058A000D4D1200006F0E8F880200002704009B052
:1058B000F0BD814B1B78022BF3D00121287806F034
:1058C000CBF80028EAD10121287806F0C5FAE5E7EF
:1058D0006278794F002A39D1032807D13B78052B0C
:1058E00002D101333B70B4E70223FBE7784B197810
:1058F00000290BD01A703B78053B012BD1D901212F
:10590000744B2878197006F0A7FACAE7724B1A8808
:10591000704B0293002A0BD01B78002B03D001217F
:10592000287806F059F93B78062B04D1013BD9E7DA
:10593000029B1A70F7E7042B06D10121029B2878FD
:10594000197006F089FA84E70323CBE70022604B45
:105950001A700723C6E763785E4A574F0292002BFE
:1059600028D10622211D5D4806F056F862895C4B5D
:105970005C491A80A2895C4B1A80E3890B8005215F
:1059800039705A490A805A4A1380228A594B1A8020
:10599000594B1B78012B09D11F2000F0D5FEFA22AC
:1059A000920042430421287806F016F90023029A57
:1059B00013704EE72878312B05D10121029B197015
:1059C00003233B70BDE70723FA2201213B70029BB2
:1059D0009200197006F000F93BE7062200213F48CB
:1059E00006F05AF90023414A04211380404A2878DE
:1059F0001380404A138006F03FF90821287806F00A
:105A00003BF9A379083B5A4253412B4A03331370A5
:105A10002B4B1B78002B06D02E4B28781A78002AA7
:105A200006D001F0BBFC01222D4B52421A8010E738
:105A30000121197006F010FAF5E70821287806F020
:105A40001BF96378002B00D02BE7284B294F0293DA
:105A5000E388029A04211380254B28780393238935
:105A6000039A138063893B8005F0F6FF002800D07D
:105A700017E7224B1B68002B00D112E7039902980D
:105A80003A88098800881B6898470AE74379132BEE
:105A900000D006E70389012B34D1194B1B78022B68
:105AA00030D10821287806F0E7F8FFF701FEF8E684
:105AB000F663FF1F05140000F563FF1F9063FF1FCF
:105AC0008841FF1F6941FF1FCA63FF1FAB63FF1FB0
:105AD000CE63FF1FCF63FF1FCC63FF1F9D63FF1FBC
:105AE0006041FF1FA463FF1FA663FF1F9A63FF1F90
:105AF0009863FF1F9663FF1F9C63FF1F8C63FF1F4C
:105B00009463FF1F052000F01FFE08210200287883
:105B100006F062F8C5E68020C001014200D0C5E66B
:105B2000CB0738D5354B1B78002B24D0344D05AC32
:105B30002B78052B21D1023B2370324B324F1B783F
:105B400021002372314B38781B78637201F08CFB93
:105B5000002810D0FA2207230121387892002B70F8
:105B600006F03AF82A4B1B68002B04D01B68002B68
:105B700001D028789847012098E60E20254B062270
:105B80001B7825492370254B1B78637002ABC01826
:105B900005F042FFD1E7022308001840194209D05E
:105BA000174B1B78052B03D11D4B188805F08CFF74
:105BB00002207BE60424214203D0FFF707FD2000EA
:105BC00074E6082308001840194200D16FE6154B0F
:105BD0001C78012C03D0022C0DD0082066E6124B55
:105BE000124A134913481B881288098800880094B8
:105BF000FFF7AEFDF1E7FFF75BFDEEE7CF63FF1FB9
:105C0000F563FF1F6241FF1FF663FF1FA863FF1FBD
:105C10009063FF1FAA63FF1F6341FF1FA963FF1F5C
:105C20006041FF1F9463FF1F5841FF1F5A41FF1F30
:105C30005C41FF1F5E41FF1F10B502A804880B20C6
:105C4000002C10D1496808784978090201430C48B2
:105C5000814209D1022119800A4B59881170DB78E1
:105C600000205BB2537010BD074C0A20A142FAD14C
:105C700002211980034B998811705B79F0E7C046C7
:105C80006E2A0000FC60FF1F6F2A0000F7B51500A8
:105C900008AA16884A680F4F1478527812022243D5
:105CA0000A24BA4214D10122DBB2019200962A00E2
:105CB00005F0ECFD041E0BD1074B1B68002B07D031
:105CC00068782A78000210434242504101309847D8
:105CD0002000FEBD022900000864FF1F30B5012529
:105CE00003790400BFB02B4225D01449408805F049
:105CF0003DF928420CD0124B01A95B8D60880B80C6
:105D000002234B800F4B00225B888B8002F044F90A
:105D10000D49608805F02AF9C0070CD50B4B01A985
:105D20001B8800220B8002234B80064B9B888B80B4
:105D3000608802F031F93FB030BDC0460064FF1FFB
:105D40008C41FF1FFC60FF1FF863FF1FE641FF1F30
:105D500010B50749074805F0BFF80749054805F0A1
:105D6000BBF80721054A064805F078F810BDC04683
:105D70000064FF1FFFFF0000F863FF1F1CC100113C
:105D80008C41FF1F10B5024802F08AFF10BDC046CB
:105D9000DD5C00110200F0B501270A480A4E5118D7
:105DA0008B1A002B00DCF0BD0824157843086840EE
:105DB00038404000805B013C58406D08002CF5D114
:105DC0000132EDE7FFFF000036C10011F0B50025FC
:105DD0000F269D4200DBF0BD4C5D07094440344076
:105DE000A400A05801357840F3E7000070B50C001E
:105DF00088B06B460F2610340A780131150012095D
:105E000035401D705A700233A142F5D120236946F6
:105E1000024AFFF7DBFF08B070BDC0463CC100116D
:105E2000F0B54E780B7889B036020C00170001905F
:105E30001E43012A61D9954B9E4200D877E0013379
:105E40009E421CD1062A17D1CA788B7812021A43B7
:105E50000B791B0413434A7912061A438C4B5A617F
:105E600000221A705A808B4A5A608B4A9A608B4A79
:105E7000DA60002009B0F0BD88225205EEE7884BB9
:105E80009E423CD182498B78002B00D0F6E00C2A50
:105E900031D10F22A3789343E2781202134322797F
:105EA000120413436279120613434B60E279A0791E
:105EB00012020243207A00041043627A120602435F
:105EC000CA60E27AA07A1202024376484A8183428B
:105ED00008D804236E49142201980B7005F09CFD2C
:105EE0001420C7E71201D21889235B059A42F0D823
:105EF00001238B70BDE7022AFAD00523EAE76A4A3C
:105F000001239642E6D1FFF7D3FB052F0CD9E378A6
:105F1000A2781B021343227912041A4363791B06E9
:105F20001343624A0393136005F04EFDA1E7584DF9
:105F30002B78002B9DD1AB78002B00D1A0E02B89D2
:105F400001339BB20093B34200D091E0132AD4D91D
:105F5000CF7C8B7C3F02122120001F43FFF71AFFEA
:105F6000874200D08EE0002E3DD1E378A2781B025C
:105F700013432279E96812041A4363791B06134319
:105F800003930A228B4212D1FF23A370E370237183
:105F900063716B89002B09D1E37B227C1B02120405
:105FA0001343A27B13431B0901336B8100226B89CE
:105FB000002B8ED0002A67D1686837013818000B93
:105FC0006B6900030390984205D9686105F03CFDB8
:105FD000EB780133EB7068681022A11C381805F0CB
:105FE000DBFC2E8145E76F89009A7B1E9BB29342B2
:105FF0003AD1E278A37812021A43237905A81B0448
:10600000134362796C6812061A43EB68009203929C
:10601000211D0C22049305F0FFFC0120260004A999
:1060200040421036FFF7E2FE013F012F17D1009AE0
:106030000B232861824200D04CE704221C49200037
:1060400005F0AAFC042203A9686805F095FFE96839
:10605000039AFF23914200D13CE7F73B3AE7310036
:10606000FFF7C4FE1036DFE70923B742A4D831E7B3
:10607000009BB34200D9FCE607232BE7022329E764
:10608000032327E7062325E70A2323E7FFFE000073
:106090000042FF1F00000111FFFF00005048593669
:1060A00001FF0000FFFF001102FF000034F000407C
:1060B0000C42FF1F10B5034C0B000122210000F021
:1060C0006BFA10BD756200110B8870B506000D00EB
:1060D0000224162B11D92B000322094900F05CFA87
:1060E000041E0AD1074B2A881B88191C934200D929
:1060F000111C300089B200F0EDFA200070BDC046DE
:10610000A16200111E64FF1F10B54A780400013A15
:106110000B000220012A07D80A78002A04D00522A1
:106120002000024900F038FA10BDC046CF620011CD
:106130000A7810B50B0004000220002A04D00722C0
:106140002000024900F028FA10BDC0467B63001110
:106150000A7810B50B0004000220002A04D009229E
:106160002000024900F018FA10BDC046E16300119A
:1061700010B5034C0B000B22210000F00DFA10BDEE
:106180001164001110B5034C0B000D22210000F02A
:1061900003FA10BD8364001110B5034C0B000F22ED
:1061A000210000F0F9F910BDDD6400110A7810B586
:1061B0000B0004000220002A04D011222000024912
:1061C00000F0EAF910BDC046ED640011002310B5DF
:1061D0001322190000F0E0F910BD000010B5034CC7
:1061E0000B001722210000F0D7F910BD3F65001108
:1061F000002310B51922190000F0CEF910BD0000DF
:1062000010B5034C0B001B22210000F0C5F910BD96
:1062100079650011F7B584890D0006000121002C75
:1062200022D000238268D3561778002B1EDA0C2C5C
:106230001AD90C3CA4B2131940880093230002F031
:1062400090FE431E984101307B06DB0F6B703F23AD
:10625000013C1F40A4B22870AF70AC80002C07D066
:10626000B3680133AB6000210800FEBD0020EBE7FE
:10627000AC60F8E70B7803704B8843704B881B0ABF
:1062800083700B79C370042070470420022B06D161
:106290000020537811781B02009A0B43138070473B
:1062A0000B8803700B881B0A437002207047042080
:1062B000009983420AD1537810781B0203430B8064
:1062C000D37890781B02034300204B807047F8B5C9
:1062D0000D004B7801240021461C03702B788B4263
:1062E00001D82000F8BD6B78B01C4F1C012B10D1D9
:1062F000890069184B88022233704B88B9001B0A49
:106300007370691805F0F8FC04360434A4B2F9B2CD
:10631000E4E7122359436B185A88043132705B88C2
:1063200010221B0A7370691805F0E6FC123612344D
:10633000ECE770B5049D14001E00052B01D8042065
:1063400070BD637812781B0213432B80E378A27828
:106350001B02134302226B802A71211D681D063E19
:1063600005F0CAFCB2B22A81E92AE8D82800A11DAA
:106370000A3005F0C1FC0020E2E7002310B50A78DE
:106380009A4201D8900010BD9A008A1854880133AF
:1063900004705488DBB2240A447094888470928814
:1063A000120AC2700430EAE710B51100029C062BF5
:1063B00004D004201022142B01D010BD022222711F
:1063C0004B7808781B0203432380CB7888781B0224
:1063D000034363800431601D05F08EFC0020ECE770
:1063E00010B50C788B7804315C43E4B20370220062
:1063F000013005F081FC601C10BD0420022B06D189
:106400000020537811781B02009A0B4313807047C9
:1064100010B50C000A88023105F06EFC208810BD12
:1064200070B504000D0004981100012B01D8042060
:1064300070BD167852781202324302800200F132A7
:1064400055701470E125002C00D10C35023B9AB236
:106450004280AA42EBD80231043005F04DFC002006
:10646000E6E70420009983420AD1537810781B0292
:1064700003430B80D37890781B02034300204B80AA
:10648000704710B50C000A88023105F035FC2088F1
:1064900010BD000070B501211E000420049C0E40B8
:1064A0000B4218D1CB40DDB28D4214D90A49DBB280
:1064B000098899420FD32300EE331D703300580032
:1064C00011184978165C0902314301332152D9B2BF
:1064D0008D42F4D8002070BD1842FF1F10B50C008B
:1064E0000A88023105F008FC208810BD10B50C7830
:1064F0008B7804315C43E4B203702200013005F074
:10650000FBFB601C10BD10B511000298032B01D8D5
:10651000042010BD14785278043B120222430280FA
:10652000CA788C781202224342809AB28280EB2A87
:10653000EED80431063005F0DFFB0020E9E710B5A6
:106540000C000B8803700B881B0A43704B88837008
:106550004B881B0AC3708A880430063105F0CCFBD7
:10656000A088043080B210BD0420012B03D100208C
:106570001378009A1370704710B50C000B880370E5
:106580000B881B0A43704A880230043105F0B4FBC3
:106590006088023080B210BDF0B589B003931D4B06
:1065A000029242000700D05A019102F022F813250E
:1065B000061E2CD0029B01240370019B002B04D0EB
:1065C000001903999847001984B26B461B7A5BB295
:1065D000002B0FDA1021380002F01CFB19250028CF
:1065E00012D130003219E1B202F070FC051E0BD15D
:1065F0000C34A4B2042305A938000B800C814E6032
:1066000001F0B2FD051E02D0300005F015FC280097
:1066100009B0F0BD1C64FF1F70B505000C00002818
:106620000CD00020814209D010222000044905F03E
:1066300063FB01202B7823736B78637370BDC046B6
:106640007CC10011F0B506000D0017001C0085B0DC
:1066500002291BD00020102907D1022B07D0102BB4
:1066600003D115E00020102C08D005B0F0BD69461C
:106670003800FFF7D1FF2A0069460BE06946300079
:10668000FFF7CAFF22006946380004E0022BE9D177
:106690002A003900300005F057FBE6E7031CF0281C
:1066A00000D9F023032008499AB2013A0B80D3178E
:1066B000034006499B189B100B80D30F04499B187D
:1066C0005B100B807047C0461C42FF1F1A42FF1F21
:1066D0001842FF1F034B1B888B4202D3024B400022
:1066E000C15270471C42FF1F1C64FF1F014B40003A
:1066F000185A70471C64FF1F1722014B1A807047FD
:106700001C64FF1F70B505000E2005F09DFB041EE4
:1067100013D0D023037000230622837007494570ED
:10672000033005F0E9FA064B2100DA8A62811B7E0C
:106730002373044B187805F01FF970BD3864FF1FF0
:106740002864FF1F6C42FF1F262803D8024B40001D
:10675000C05A70470148FCE71E42FF1FFFFF0000C0
:1067600070B506000C00094D1C220021280005F020
:1067700093FA074B1E70074B1C7005F015F90123A7
:10678000002801D0002312202B7070BD2864FF1F49
:106790006C42FF1F4964FF1F70B505000D4C0800D7
:1067A000E260A16010220021656005F03DF901283A
:1067B00003D11021A06802F061FD10220021280001
:1067C00005F032F9012803D11021606802F056FD6E
:1067D00070BDC0462864FF1F70B5041E05D1002996
:1067E00003D006220D4805F087FA0D4B1D78012DC8
:1067F00011D1002C05D102221A7005F0ADFA280043
:1068000070BD00221A70074B1B78FF2BF7D02000B9
:10681000FFF778FFF3E70025F1E7C0463864FF1F74
:106820002864FF1F6C42FF1F030010B5002801D130
:10683000002010BD00780B4A002803D15988D1826E
:106840001B7913761378022BF2D10023984200D1E2
:1068500003331370044B1B78FF2B01D0FFF752FF5B
:106860000120E6E72864FF1F6C42FF1F002911D0BA
:1068700000280CD04B79012803D140225242134307
:1068800003E03F221340032802D001204B717047E0
:106890004022F4E70800FAE770B5094D01002878B6
:1068A00000280BD0074C0622200005F025FA210015
:1068B0002878FFF7DBFF200005F0AEFA70BDC04678
:1068C0004864FF1F2264FF1F00290AD0012808D155
:1068D0003F224B799343C02B03D0403B5A42534154
:1068E000981C704770B5174D06002B78FF2B15D0FC
:1068F0000A2005F0A9FA041E10D0D0230370C83B6B
:106900008370114B11491B784670C3700622043006
:1069100005F0F2F92100287805F02EF80C4B1B78D1
:10692000012B0DD10B4B1B68002B03D09B68002B58
:1069300000D09847084B04211878084A05F034FB2A
:1069400070BDC0466C42FF1F4864FF1F2264FF1FDA
:106950004464FF1F7064FF1F7464FF1F60EA00003F
:10696000014B98687047C0462864FF1F014BDB68E5
:10697000186870472864FF1F074B10B5DA68136862
:1069800001331360054B1878FF2803D08021C9011B
:1069900005F062FA10BDC0462864FF1F6C42FF1F5D
:1069A000F7B50E0002F0CAF8051E1CD00E4B0662A9
:1069B0001F78002F00D10778AB791020019305F0E4
:1069C00043FA041E0FD0D0230380C73B8370019B82
:1069D000E91DC3700622043005F08EF9210038004D
:1069E000E66004F0C9FFF7BD6A42FF1F014B18784B
:1069F0007047C0464864FF1F054B002805D1054B72
:106A00001A78054B002A00D1014B18007047C04688
:106A10003864FF1F4864FF1F2264FF1F014B586842
:106A20007047C0462864FF1F024B1868431E9841F8
:106A3000C0B270474C64FF1F421E03000120152A9C
:106A400003D9FF3B5A425341D8B27047F0B51C00FE
:106A500000230E0085B0039002920B70029A9342BD
:106A600001D3002019E0E55C5A1CD2B2002DF8D009
:106A7000029851198142F4DC0233DFB2A35C1800A2
:106A80000193FFF7D9FF002807D0013D019A039930
:106A9000EBB233708A4202D1E01905B0F0BDDB19C8
:106AA000DBB2DBE710B50C0002F0A0F80300122007
:106AB000002B03D02100588805F0E6F910BD000036
:106AC00070B50E4D84006359002B15D0186A00284C
:106AD00001D004F0B1FF2B59586A002801D004F00E
:106AE000ABFF2B59986A002801D004F0A5FF285964
:106AF00004F0A2FF00232B5170BDC0465864FF1F55
:106B00001C4B70B504000E00150099420AD11A4BB7
:106B10001B68002B01D1122070BD1B68002BFAD01E
:106B20009847F9E7154B994215D1134B1B68002B79
:106B30000AD01B68002B07D09847002804D1104BBF
:106B40001C70104B1D70E7E729002000FFF7AAFF1B
:106B50000028E1D1F3E7080001F0F0FF0028DAD0C7
:106B600003780320A342D7D12900300005F08CF927
:106B7000D2E7C046FEFF00005464FF1FFFFF000085
:106B80005164FF1F5064FF1FF7B50400808801F0B7
:106B9000D5FF0025A84203D00578A08802F00AF8A6
:106BA0001C4E3378002B1FD0AB421DD11A4B28004E
:106BB0001978FFF777FF002818D000233370A379E6
:106BC0000820A778A688019305F03EF9011E0DD094
:106BD000D0230370CA3B8370019B4770868083710A
:106BE000280004F0C9FE01E0002DE8D1A0880B4B7D
:106BF0008200D358002B01D0FFF762FF1721A08835
:106C0000FFF768FDA08801F02BFDA08801F002FECF
:106C1000F7BDC0465164FF1F5064FF1F5864FF1F3B
:106C2000F0B587B01D000CAB1B88070001930DABBE
:106C30001B88142002930EAB1B88160003930FAB26
:106C40001B880091049310AB1B88059305F0FCF89A
:106C5000041E1AD0D0230370CB3B47708370C670DC
:106C6000062229000430002D11D005F045F8019BC3
:106C700021006381029B0098A381039BE381049B15
:106C80002382059BA37404F077FE07B0F0BD05F0E6
:106C900003F8ECE7F7B5009308AB1B8807000C205E
:106CA0000D001600019305F0CFF8041E13D0280044
:106CB00001F044FF00280FD00078D0232370C93B97
:106CC000A370009B21002381019B6770A580E68053
:106CD000638104F051FEF7BD014B1878EDE7C04623
:106CE0006C42FF1F13B5040064890389C288818840
:106CF000C0780094FFF7CEFF13BD000010B5044C20
:106D00002068002803D004F097FE0023236010BD04
:106D10005C64FF1FA122F0B5818892004A43384B82
:106D2000384F1B6889B09B189D2292009B1882796E
:106D300004001A603B68002B5FD01D78324B1B6843
:106D4000002B04D05B68002B01D000209847260060
:106D500008363100E079FFF7B7FD237DE0710200CE
:106D6000E0780493638A29000393238A0293E389DA
:106D70000193A38800933300FFF752FFE378002BC1
:106D80000BD1E289A379A18802920196E2792800C9
:106D90000092012201F0DCFEE0703B68002B20D065
:106DA000FFF7ACFF194D287800281AD0184B197836
:106DB000FFF778FE002814D02B780820A788E67803
:106DC000079305F041F8011E09D0D0230370CA3B98
:106DD0004670837087808671079804F0CDFD00238C
:106DE0002B701721A088FFF775FCA08801F038FCF4
:106DF000A08801F00FFD09B0F0BD064B9DE7C0462D
:106E00003409FF1F5C64FF1F7064FF1F5164FF1F84
:106E10005064FF1F6C42FF1FF8B5070008000E000A
:106E200001F08CFE041E18D02620FFF78DFC051EF5
:106E300000D12578062005F007F8041E0DD00021AA
:106E4000062204F029FFD0232370C23B2100677083
:106E5000A370A680E8B204F08FFDF8BDF0B585B050
:106E600001930AAB1B78070002930BAB1B78080059
:106E70000D000092039301F061FE061E22D0102047
:106E800004F0E2FF041E1DD01022002104F004FFD4
:106E90002620FFF759FC002800D13078D02323703A
:106EA000C13BA370009B21002372019B677063723A
:106EB000029BA580A372039BC0B2E3720C9BE360AC
:106EC00004F05AFD05B0F0BDF7B50D00019001F0DA
:106ED00035FE071E1FD00E2004F0B6FF041E1AD088
:106EE0002620FFF731FC061E00D13E78D0232380F8
:106EF000C53BA370F91D0622E01C04F0FDFE019BBA
:106F00002100638101232B40AD07ED0F23736573CF
:106F1000F0B204F031FDF7BDF0B585B0029010007D
:106F20000D0017000A9E039301F008FE041E31D0E5
:106F3000029B002B2ED1039B02795B0724D51223E1
:106F400013430422002E08D10B99002905D10C9976
:106F5000002902D10D9900291AD01A430D9B2271E4
:106F6000002B00D0C9E0002E00D1CFE0002D00D0D2
:106F7000CCE0606A002801D004F05EFD1C213000E6
:106F800004F0F2FD606205E002239A430E33D7E776
:106F900093432371654BBA00D458002C00D1AAE06A
:106FA000002E10D0236A002B03D11C2004F03CFFDC
:106FB00020625E4BBA00D358186A002803D01C2206
:106FC000310004F099FE0C9B002B12D0574CBB00F3
:106FD0001D596B6A002B03D1162004F025FF68624F
:106FE000BB00E358586A002803D016220C9904F01D
:106FF00083FE0D9B002B11D04C4DBC006659B36A2B
:10700000002B03D1142004F00FFFB0622B59986AB3
:10701000002803D014220D9904F06EFE380001F010
:107020008DFD051E67D0414BBA00D358002B62D0AE
:107030001A6A3420002A00D11C389A6A002A01D02A
:10704000143080B20B9A002A01D01C3080B25B6AE7
:10705000002B01D0163080B204F0F6FE041E4AD098
:107060001822002104F018FE2620FFF76DFB019086
:10707000002801D12B780193D0232370029B20009C
:1070800063700A23294EA370039BBD00A371AB5903
:10709000A780196A1830002905D01C22A06004F0CE
:1070A0002BFE200034307359996A002907D0030061
:1070B00014221433E060029304F01EFE02980B9B2E
:1070C000002B08D003001C221C330B992061029373
:1070D00004F012FE02987359596A002903D016224F
:1070E000606104F009FE6B462100187904F044FC4D
:1070F0003800FFF7E5FC05B0F0BD10220D9B0D999F
:107100001B69A018236204F0F7FD2CE70B9B002BF2
:1071100000D13FE7012D00D03CE7606A002801D094
:1071200004F08AFC1C210B982AE7C0465864FF1F14
:1071300010B5044C2068002803D004F07DFC002327
:10714000236010BD4C64FF1F0B4B07B51A68002A63
:1071500001D100200EBD6946531C01201278073171
:10716000FFF774FC0028F4D00278012310001840C7
:107170001A42EED0EEE7C0466864FF1FF0B51F4F1D
:1071800001203B6887B0002B25D09B78059300F049
:10719000B3FB002821D00A20FFF7D6FA04000B2009
:1071A000FFF7D2FA164B05001E78731E9E413B680E
:1071B000F6B2191DD878FFF759FB3B682900DA7A37
:1071C000043303929A7901930292009033002000D5
:1071D000059A04F0F1FD07B0F0BDFFF7B5FF0028F8
:1071E00005D00620FFF7B0FA04000720D8E70820F2
:1071F000FFF7AAFA04000920D2E7C0464C64FF1F3B
:107200004864FF1F70B50A4E040033780D00FF2B51
:107210000DD0042004F018FE011E08D0D023037006
:10722000CE3B45708370C470307804F0A5FB70BD10
:107230007C42FF1F70B5040006200D0004F004FE20
:10724000011E0AD0D0230370CD3B8370054B4470E0
:107250001B688580187804F08FFB002C01D0FFF7A5
:1072600067FF70BD4C64FF1FF8B5264F06003B68F2
:107270000D001124002B05D10522234B1B7813424E
:1072800002D112242000F8BD204A10241268002ADE
:10729000F8D01278002AF5D0DB0719D52B789A1E82
:1072A000012A1AD80C2004F0BFFD132438600028EE
:1072B000E8D000230A22437029000670023004F04F
:1072C0001BFDFFF75BFF041E0AD0FFF731FFD9E774
:1072D00000F012FB0028E1D1E4E7002BE2D0D0E778
:1072E0000B4B1B78032BCDD11D20FFF72DFA094B3B
:1072F00018800028C6D0084B04211878074A04F0EB
:1073000053FEBFE74C64FF1F4964FF1F6864FF1F03
:107310004864FF1F4664FF1F7464FF1F60EA00009B
:10732000F7B50193194B14001A78052306000F00D6
:1073300012201A4221D0012920D1154B1D68002DA1
:107340001BD002201F2C18D8002C02D0019B002B30
:1073500013D0104B1F221E706E1C0021300004F051
:107360009BFC01992200300004F0C6FC3100200093
:107370002C70002F06D004F097FCFEBD064B1220A7
:107380001D68DCE704F020FCF7E7C0464964FF1FF6
:107390006864FF1F7C42FF1F6464FF1FF8B50F4E37
:1073A00012243368002B17D01B780F3C834213D173
:1073B00000250B4F0221387804F05EFC094B0421B4
:1073C00038781D8004F058FC074B28001D80336876
:1073D0005C7004F061FB04002000F8BD4C64FF1FEA
:1073E0007464FF1F6064FF1F4664FF1F70B50128AF
:1073F00023D11B4C2388002B03D01A4A1578002D6B
:1074000007D0194B1B68002B02D01878FFF7C6FF76
:1074100070BD3B2B02D93C3B2380F9E7134E022180
:10742000307804F029FCFA222388920002215A4382
:10743000307804F0D1FB2580EAE70B4B1B68002B6A
:10744000E6D00B4B1B785B07E2D5084B022118787E
:1074500004F012FC0022024B1A80FFF769FED7E706
:107460006064FF1F4464FF1F4C64FF1F7464FF1FB0
:107470004964FF1FF8B51E4D2868002803D004F0AA
:10748000DBFA00232B601B4E3068002803D004F089
:10749000D3FA00233360184F05243B7818002040AE
:1074A000234221D0154800F02BFA3B78234213D019
:1074B000202004F0B9FC2860002813D020220021ED
:1074C00004F0EAFB202004F0AFFC041E306005D07D
:1074D0002022002104F0E0FB002004E0286804F0F2
:1074E000ABFA2C601320F8BD00F00AFAF4E7C046AE
:1074F0006864FF1F6464FF1F4964FF1F7042FF1F21
:1075000010B50A4C23681A1E0ED0002808D101308D
:10751000587004F0C1FA002805D02368002B02D06F
:107520000021FFF787FE0122100010BD4C64FF1FF1
:10753000F7B5274E050033680191181E21D05C78FD
:10754000244F012C30D1FFF7FFFD002825D020006B
:10755000FFF7FAF80400412814D91F4B02211878CC
:107560001E4A04F021FD1E4B3C3C1C800222336865
:107570005A703B78002B14D128000199FFF75AFE6E
:107580000120FEBDFA2292004243002AEED0124BA7
:107590000221187804F020FBE8E7FFF7D5F8020095
:1075A000F3E700233B70EBE73B78002BE8D10320A7
:1075B00004F04AFC011E08D0D0230370CC3B457078
:1075C00083703368187804F0D7F9FFF7B1FDD7E777
:1075D0004C64FF1F4464FF1F7464FF1F60EA0000D7
:1075E0006064FF1F10B51749838802008B4220D0CA
:1075F00011D815498B4217D0144900205B1899B255
:10760000012907D8926811785A425341D8B2FFF73E
:10761000F9FD012010BD0E4A00209B1807229BB2E5
:107620009A424041C0B2F5E783681878FFF768FFD7
:10763000F0E7836899785A78090218781143FFF7C0
:1076400077FFE7E70A20000006200000F8DFFFFFD1
:10765000AFDFFFFF014B18707047C0467D42FF1F30
:1076600010B5064C207001F045FA207804F044FC77
:107670000521207800F068FD10BDC0467464FF1F2E
:107680000BB273B50D00002B00DBC4E0884B1878FB
:1076900004F042FB041E0ED00378912B0FD0A22BD6
:1076A00000D1A1E0834B1878FF2852D0210004F0CC
:1076B00063F900284DD180200002684076BD4378F0
:1076C0000F2B76D013D8052B70D00E2BEAD18088E3
:1076D000794B98422BD8794B98421BD8784B9842DB
:1076E000E0D1A3681878591CFFF776F838E03E2BF4
:1076F000D8D18378032B74D06CD8012B6ED0022B99
:10770000D0D1704B1B68002B23D05B68002B20D09E
:1077100098471EE06C4BC0180C28C3D804F00CFC32
:107720001DC2C2150BC20B0B0B3223C23C00674BB0
:10773000C0180728B6D8664B1B68002B09D01B68F9
:10774000002B06D0200098470AE0A3681878FFF7BE
:10775000C9F8200004F090F9ADE7A068FFF764F8DD
:1077600000289FD0F5E7A3681B78002BF1D0554B7C
:107770001B68002BEDD01B68002BEAD02100554878
:107780009847EDE74F4B1B68002BE2D01B68002B9E
:10779000DFD021005048F3E7504B1B68002BD8D0B6
:1077A0005B68002BD5D021004348E9E7FFF7ECF9EF
:1077B000CFE780884A4B984203D04A4B984200D08A
:1077C00070E7464B1B68002BC3D05B68002BC0D012
:1077D0002100D5E7153B012BBBD963E7FFF79AFAE8
:1077E000B7E7FFF77FFAB4E73F4B1B78042B07D1CD
:1077F00000236A4613800179408800F0CBFCA8E79B
:10780000364B1B68002BA4D05B68002BA1D0010075
:10781000364898479DE7012421420AD0294B1B682E
:10782000002B04D05B68002B01D00020984701207A
:1078300043E78B070AD5264B1B68002B04D05B68F7
:10784000002B01D020009847022036E704212800B1
:1078500008400D4200D131E7254E3388002B21D05E
:10786000013B9BB23380002B1AD1FFF7DDF80028D3
:107870000AD0204B1C70164B1B68002B04D05B6891
:10788000002B01D020009847FFF7C8F8694601F0A7
:107890000CFD6846FFF700F81D20FEF755FF30800D
:1078A00004200AE7024B187804F0E6F9F8E7C0462E
:1078B0007464FF1F7D42FF1F0E20000001200000A6
:1078C000091000006C64FF1FFEDFFFFFAFDFFFFF4A
:1078D0007064FF1F0C2000000B2000005464FF1F89
:1078E0000D200000132000004964FF1FFFFF00006F
:1078F0004664FF1F4464FF1F10B501F09FF910BDDF
:10790000014B18607047C0467064FF1F0B88002051
:10791000162B01D817230420014A13807047C04654
:107920001E64FF1F00207047074A03001188814230
:1079300007D091880020994202D1013080001018B0
:1079400070470020FAE7C0467C64FF1FF0B58F78CF
:1079500006000D00C5B01E2F15D1FFF7E5FF051E6F
:1079600003D10024200045B0F0BD00223B003100CF
:10797000C078009200F0B8FB0400A81C00F0D8FB0F
:10798000FF23EB70EEE7264B062403931B78FF2BB7
:10799000E8D0182FE6D87B08224A013BDB00029290
:1079A0009A589446002ADDD0029AD3185B68002BBF
:1079B000D8D00878002802D14B78012B02D10624B8
:1079C000122FCFD107AFAB88697800976446AA68B9
:1079D000A047041EC6D1AB78029A5B08013BDB00CE
:1079E000D318390030005B689847041E0BD1AB7880
:1079F000042BB6D0039A310010782200009700F0D3
:107A000073FB0400AEE76A78002AABD1AA7805A917
:107A10003B88087130000A704B80FEF74BFBA0E7F3
:107A20008042FF1F8CC100111D4B37B505009842E5
:107A30000BD000290AD1FFF777FF002805D119489C
:107A4000FFF772FF002800D0058037BD01291AD149
:107A5000FFF76AFF041EF8D001235B420380A3787E
:107A6000FF2BF2D0FE2B07D00023E07814220093E6
:107A700029001E3300F038FBA01C00F059FB012345
:107A80005B426380E1E70229DFD1013901F0C2F8EE
:107A90000028DAD12800FFF747FF041EDFD1D4E722
:107AA000FEFF0000FFFF0000022210B5074B52420C
:107AB0001A80074801325A809A80DA8000F084FAEE
:107AC000044801F029F8002010BDC0467C64FF1F67
:107AD0004D790011297A00110388F7B50400002BB5
:107AE00002D102252800FEBD4268022113782548F4
:107AF0005268FEF7A7FD00282ED0234F01253A88B3
:107B0000002AEFD0802321885B0201259B1A99422D
:107B1000E8DC0C2004F088F9061E31D03B8822886E
:107B20009C4600231800019561469DB2491989B20F
:107B3000AA421BD8002801D062443A8000233000BA
:107B4000082208C0210004F0D7F8104A1368002B5F
:107B500013D100251660C5E76268022113780C482E
:107B60005268FEF76FFD0028C7D1BAE760681D01B3
:107B70004019418101330198D6E71A001B68E6E7F6
:107B80001325AFE7FAC100117E42FF1F7864FF1F83
:107B9000F8C10011014B18707047C0468042FF1FAA
:107BA00014230A0010B51A40194204D001221021F2
:107BB00001F04CF810BD4B06F9D4C8430223400035
:107BC0001840F7E710B514008B0604D501221021E8
:107BD00001F03CF810BD08230A001A40194202D1F6
:107BE0004BB2002B0FDA102101F030F8002808D03A
:107BF0002300F2331B78002BECD0F1342378012BD7
:107C0000E8D10020E6E703208907FAD4E2E7000084
:107C1000F0B51F00184B85B01C68019002910392CB
:107C2000002C27D1200005B0F0BDA5683301ED1868
:107C30006B89019A934211D3029A93420ED8002F76
:107C400004D10A9B002B10D12C00EBE73B002978D4
:107C5000039A6868FEF7F6FC0028F2D10136B6B246
:107C6000A388B342E1D82468DAE7A3680A9A5B895B
:107C70001380E9E70026F3E77864FF1F37B50C00AF
:107C80000A8849880123914217D3002A15D0651D1F
:107C900023792A0002210A48FEF7D4FC1023002889
:107CA0000BD023796188208800242A000094FFF7F4
:107CB000AFFF0A23A04200D0230018003EBDC046FB
:107CC000FAC1001113B50A000888498801238842C7
:107CD0000BD8002809D00024137905320094FFF74F
:107CE00097FF0A23A04200D02300180016BD13B549
:107CF0000A0008884988012388420BD8002809D047
:107D00000024137905320094FFF782FF0A23A04272
:107D100000D02300180016BDF0B58BB003904A8840
:107D200008880E000123824213D3002811D00023BB
:107D3000012704AC23700022718813000092FFF722
:107D400067FF05002078002D06D122780A23002A3B
:107D500041D118000BB0F0BD002835D12B78022B93
:107D600018D167706A8983000130E31880005A8057
:107D700069680222201803F0BFFF23780133DBB2C9
:107D80002370042B19D93B006889013080B2002B85
:107D9000D1D0DAE702236370122358436A8923188B
:107DA00004305A8069681022201803F0A5FF237858
:107DB0000133DBB22370002BE5D10A4A6B899B1893
:107DC0005A425341DBB2DFE76378012BE4D12B78D1
:107DD000022BC7D0B9E721000398FEF795F90023DD
:107DE000B7E7C0460100FFFF0F4BF0B5040018686D
:107DF000002816D083685D89A54207D88288AE180E
:107E0000B44203DA12019A18934201D10068EFE7F5
:107E10001E005F891036A74204D1002900D00D80D2
:107E20001800F0BD3300EFE77864FF1F70B5050060
:107E30000C0008880021FFF7D7FF03000120002B6A
:107E400004D022002800197AFFF7BCFE70BDF7B5F8
:107E50000C00002501902300EE331B78AB4201D8C3
:107E600000200AE06B00E65A00213000E718FFF717
:107E7000BBFF002802D126800130FEBD017A0198A7
:107E8000FFF78EFE002802D03B882380F5E70135FE
:107E9000EDB2E0E710B5040008880021FFF7A4FF69
:107EA00003000120002B03D02000197AFFF778FE91
:107EB00010BD0000054B1B68002B01D1180004E029
:107EC0009A6852898242F6D1988870477864FF1F79
:107ED000F0B50E27002687B0039302ABFF183E8053
:107EE00005001F4B40891400984207D02B780130C1
:107EF00000976A6880B2FFF78BFE060002212B789C
:107F000018486A68FEF79EFB00280FD06C89200095
:107F1000FFF7D0FF002802D0013C0419A4B2039B54
:107F2000002B00D01C80300007B0F0BD02212B7860
:107F30000D486A68FEF786FB0028E7D102212B78FE
:107F40000A486A68FEF77EFB002807D0002EDED0C4
:107F50003B88A342DBD17489013CDFE76C89DEE713
:107F6000FFFF0000FAC10011F8C10011F6C10011B5
:107F700010B50C00FFF7D8FC03000220002B0AD03C
:107F8000002C00D023609B781720FE2B03D00138F3
:107F9000FF2B00D1002010BD73B50D0001A9040016
:107FA0001600FFF7E5FF172805D0002E04D12900A1
:107FB0002000FEF725F976BD01221021200000F0F7
:107FC00045FE0028F3D0F6E7014B18607047C04625
:107FD0008864FF1F37B56B469D1D01000400022217
:107FE000280003F019FD2B88B02B0ED12379122B1A
:107FF00009D12300FA331B78012B06D101216088B7
:1080000000F0E0F801E01B2BF8D037BD10B5054BB0
:108010000421187000F098F8FFF746FDFEF76CFB9E
:1080200010BDC0468C64FF1F0020F0B50BB20F00DE
:1080300087B0834234DA274B187803F06DFE051EB3
:108040002BD00378A02B25D103AE3100FEF7E2F848
:10805000041E0BD1B378DB0724D51F4B06341B68F5
:10806000002B03D03100688898470400A8680028D6
:1080700001D003F0E1FE002C08D1184A039B134005
:10808000174A934206D0B3781B2B03D0012168888E
:1080900000F098F8280003F0EFFC80200002784000
:1080A00007B0F0BD0F4B1B68002B10D03100688863
:1080B0009847041EDAD07378002BD7D1B27801A983
:1080C0000A704B800C716888FDF7F4FFCEE7062438
:1080D000F1E7C0468C64FF1F8464FF1F00FFFF00B0
:1080E000000112008864FF1FF7B50190FC200D000D
:1080F00017001E0003F0A8FE04001320002C12D06D
:10810000B02320002370089BF422677065802671DD
:108110000830002B08D0190003F0EEFD2100019873
:1081200003F02AFC0020FEBD089903F0B5FDF5E739
:1081300010B5041E06D00078FD2803D803F094FC87
:10814000FF23237010BD00000A1F93B210B5040076
:108150000220032B05D882400020024BD1529B18ED
:108160009C7010BDAC64FF1F0B8870B5043B04000D
:108170000D000220032B0BD80121200000F04AFD46
:1081800003001420002B03D02900200000F0DEFBA8
:1081900070BD000007B51300034A00920A000121D8
:1081A00000F02CFC0EBDC046D183001107B5019232
:1081B00003220092024B0A00122100F047FC0EBD80
:1081C0004F84001107B56B4601AA11800449D8807D
:1081D00008780633012802D1190003F0EDFB07BD32
:1081E0008D64FF1F0C4B10B518700023FF210B4A44
:1081F0001380138193819380094A538013705172C5
:1082000093819372D174D3821375517703F0FCFB81
:1082100000F0FCF910BDC046BC64FF1FAC64FF1F3A
:108220008E64FF1FF0B58DB06B46002003910C22C9
:108230009B5E834200DBB1E05D4B187803F06CFD80
:10824000051E00D1A5E00378902B00D09EE006AF7C
:1082500001004688380000F013FA7968040000290C
:1082600000D19DE03B88052B6FD13B89032B1CD9A6
:1082700005AC200000F0A2F86288172A60D839897E
:10828000131D994231D17968237804310291D907BD
:1082900038D5607800F08EF9071E06D000230371F0
:1082A0002378012B08D0132B23D0A868002800D1F5
:1082B00079E003F0C1FD76E06288029909A800F038
:1082C000A6F80290380000F08BF909AA2378387AD2
:1082D0000192002231000092029A00F012F9380057
:1082E00000F064F9029B002BDFD0300000F080F931
:1082F000DBE70378032BD8D16288029909A800F044
:10830000D6F8DEE709AF122B12D13800029900F03F
:10831000B4F8021EE9D127498B88002BC5D0887993
:108320002378019761780091310000F0EAF8BCE70A
:1083300000233A003B8061783000FFF72BFFB4E761
:108340001D4B09AA09936178F6E7042B02D09A1F06
:10835000012AAAD8174A043B9B00995A0029A4D0A5
:10836000D218907831003A0000F0ADF800289CD186
:108370003B88042B03D001213000FFF723FF012CA1
:1083800004D1A868002801D003F056FD280003F0AE
:1083900073FB8020039B0002434018000DB0F0BD2A
:1083A000012800D181E701213000FFF70BFFEDE745
:1083B000BC64FF1FAC64FF1F010017000B78037043
:1083C0004B784370CB788A781B0213434380704705
:1083D0000A88030002700A88120A42700A88012A79
:1083E00006D14A8882704A88120AC27004207047F7
:1083F00002208242FBD14A8804309A704A88120ACD
:10840000DA708A881A718A88120A5A71EFE710B5F1
:108410000400012082420CD94B780A781B021343D6
:108420002380834206D1CB788A781B021343638072
:10843000002010BD022BFBD1CB788A781B0213439E
:1084400063804B790A791B021343A380F0E70B8802
:1084500003700B881B0A43704B8883704B881B0A80
:10846000C3708B8803718B881B0A4371CB8883711F
:10847000CB881B0AC3710820704703000120082A1B
:1084800014D14A780878120202431A80CA78887890
:10849000120202435A804A790879120202439A80F2
:1084A000CA798879120202430020DA80704710B539
:1084B00004000120022A05D100204B780A781B0213
:1084C0001343238010BDF8B5060010200F001500DF
:1084D00003F0BAFC04000120002C0ED0A0230C22D3
:1084E000290023806780201D002D07D003F004FCA5
:1084F0002100300003F040FA0020F8BD03F0CCFB6F
:10850000F6E7F7B51E00009008AB142017001D78A1
:10851000019103F099FC041E12D0A2230370019B69
:1085200047704380099B057146710C220830002B6F
:1085300007D0190003F0E0FB2100009803F01CFABB
:10854000F7BD099903F0A8FBF6E737B5041E0FD075
:108550004388002B0CD00025C1881323007A1722F2
:1085600001950095FFF7CDFFFF23658063722570AD
:1085700037BD000010B50C4904004A88002A09D014
:108580008B89002B05D00020CB8A0222834201D0A8
:1085900010BD012213000A20434300204032C8547A
:1085A000C81842800472F3E78E64FF1F00234380E3
:1085B00003707047094B00211A0010B55C88002C2D
:1085C00006D01C79844203D10A234B43D01810BD36
:1085D00001310A330329F1D10020F8E78E64FF1F2F
:1085E00010B50400407A03F03FFAFF23637210BD18
:1085F0007047043010B580B203F0CEFC002803D0E1
:108600000421494203F068FC10BD000070B500254C
:10861000104CA0682580A581A580A84202D003F057
:108620000BFCA56000250C4C0C4B606D1D802300DD
:1086300058331D70A84202D003F0FEFB656500258B
:108640006068002801D003F0F7FB013508340A2DDB
:10865000F6D170BD5465FF1FF864FF1F4865FF1F0A
:1086600070B5041E09D1054D2880A881A880A8688E
:10867000002802D003F0E0FBAC6070BD5465FF1F22
:10868000F0B54B8885B00193002343600A7905005B
:108690000F00022A00D07BE0CA88032A17D98B6812
:1086A0005E7819783602DC78D8790E4399781B7A8F
:1086B00024021B020C43034353495BBA0B80331D56
:1086C00093421ED1042C04D0631F022B0ED901202B
:1086D00015E0019A4D4B1201D35A002B06D0019898
:1086E000FFF7BEFF4A4A1369013313610421B868DA
:1086F0002E812C80494203F0EFFB6860002005B01A
:10870000F0BD434D042C06D0631F022B0FD9EB683C
:108710000133EB60DBE7019A3C4B1201D35A002B8B
:1087200005D00198FFF79CFF2B6901332B61374B74
:1087300030000293019B029A1B01019300230199CF
:108740008C468B52130063449C8003939E81FFF7F9
:1087500050FF039B041E986016D00421B86849425C
:1087600003F0BAFBFA880100043A200003F0C4FACF
:108770000199029AFB888A5A043B9B18029A8B52F1
:108780002B6801332B60A2E7AB690133AB619EE735
:108790001E4B0293019B1E01029BF35A002B2DD00E
:1087A00002998C19A068002828D0012A26D1FA88BD
:1087B0009B189BB27352A189994217D39B1AC01878
:1087C000B96803F099FA029BA289F35A934200D048
:1087D0007DE700222B81A3882B80A3686B60029B1E
:1087E000F2520B4A53680133536070E7084A9368AA
:1087F000013393600198FFF733FF68E7044A536938
:1088000001335361F6E7C046BE64FF1F5465FF1F86
:10881000C464FF1F70B5051E15D10B4C0B4B18809F
:10882000230058331870606D002802D003F004FB59
:108830006565250050356068002801D003F0FCFA1A
:108840000834AC42F7D170BDF864FF1F4865FF1FC4
:10885000F0B51700A12285B0920001934243394B35
:1088600006001B680C009B18D933FF331D78FDF7F9
:108870003DFF0430854204DD3000FDF737FF043052
:10888000C5B2BD4207D33A0000213000019B03F07E
:108890005BFB05B0F0BD2900380003F01DFA230092
:1088A000C6B250331E700393019B290063653800E4
:1088B00003F02AFACBB20293002B02D0039B0136BD
:1088C0001E7000262300503303931B78B34204D854
:1088D000606D002831D10020DBE7029A2800002AD1
:1088E00004D0013B1000B34200D02800F700E71984
:1088F000387003F041FA786000280ED03A78019978
:1089000003F0FAF9019A3B780136D3180E4A019325
:10891000D369F6B20133D361D4E7039B1870606565
:10892000A74205D1084A1320D36A0133D362B0E7C6
:10893000606803F081FA0834F2E703F07DFA00235F
:108940006365C8E73409FF1FC464FF1FF7B50D0056
:1089500007000421686803F0BFFA2B890400037044
:108960002B891B0A43702B8883702B881B0AC370CA
:108970002E8902250436F6B2F42E15D81B4B9F42E1
:1089800014D10C2003F060FA1135011E0CD0902395
:1089900003708E3B0371043B4380154B8460C6809B
:1089A000187802F0E9FF00252800FEBD5C237B4318
:1089B000104AD3180093583301931B78002B0FD122
:1089C0000300320038000099FFF742FF019B0500C9
:1089D0001B78002BE8D13800009903F0C5F9E3E7D4
:1089E000054A0725536A01335362DDE7FEFF0000A5
:1089F000BC64FF1FF864FF1FC464FF1FF0B587B09D
:108A0000009017200F0016000193FFF7F2FD1325C9
:108A1000041E18D00C98031E02D00199201D9847FF
:108A2000030AE370052303A9A070043008812770AE
:108A3000009866700B804C60FFF788FF051E02D01F
:108A4000200003F0F9F9280007B0F0BDF0B587B0B9
:108A50001F000CAB1B780391059301210DAB0600A1
:108A60001C78049200F0D6F81425002821D02000AC
:108A7000FFF780FD0135041E1BD01149059B0A78C4
:108A800003700132D2B2131EC68001D101231A0035
:108A90000B7022713000049B03990097FFF7AEFF23
:108AA000051E09D1230021000648074A093303F0B7
:108AB0009BF8280007B0F0BD002363802370F8E71F
:108AC000C064FF1F4B85001130750000F8B505002C
:108AD0000E00064C064F2368002B02D03100280000
