:020000041100E9
:103000007FB50023284C294D03932800217C284AB2
:1030100001F03BFA002812D103232800217C03AAE7
:1030200001F0DAF900280AD1224B039A9A4206D11C
:10303000214B2248E360224B636104B070BD02263D
:10304000217CFE2228001F4B009601F097F90028F2
:1030500001D00020F1E71C4BA2899A42F9D1217CD2
:10306000FF222800194B009601F088F90028F0D1C2
:10307000E389174A934203D1164B17486361DCE793
:10308000164A9342E5D1164B164A1B68934206D95D
:10309000C02304222800217C9B0001F0D8F9124BA8
:1030A00012486361C9E7C046A861FF1F0442FF1FC1
:1030B00081370000595953005959832000C9001124
:1030C000DD410011B461FF1F59590000B661FF1FB7
:1030D0008305000095410011E0C800118215000031
:1030E000CC61FF1F8713000031420011F0C80011AE
:1030F00070B5134D2B7C002B0DD0124C200001F02D
:10310000EBF8297C382907D1BA22200001F08EF98A
:10311000200001F01FF970BDEB890B4A934206D1E4
:103120009023022220001B0201F091F9F0E7074AE8
:103130009342EDD12000064A01F0A7F9E8E7C04626
:10314000A861FF1F0442FF1F8305000083200000C9
:10315000A23000000022024B1A825A617047C0461A
:10316000A861FF1FF7B5164B0192C318021D00207E
:10317000009388235B05D3181B685C1C1AD09CB293
:10318000402C18D88D781E0CAC466746CD782D02A1
:103190003D43AE4206D1019800280ED110000C70BC
:1031A000240A4C7003249BB20733A343D218009B1C
:1031B0009A42DED3FEBD4432F9E71000FAE7C0467A
:1031C000FC0F0000802213B503000324019189B293
:1031D000520107319B18A14304305A1A88235B051A
:1031E000C3181B68591C03D190429241104016BD70
:1031F00099B2402907D80B000733A343C018904267
:10320000ECD30020F3E74430F9E7134B134A1B6873
:10321000126810B5FA24934201D81A00F824104B12
:10322000E4021B689A4210D813000E4A12689A42B0
:103230000ED3013307D1F823DB029C4203D10A49A4
:10324000054809F0A1FA200010BDFC24E402ECE7D7
:10325000FE24E402F7E7C04600C0071100D00711C2
:1032600000E0071100F00711FFFFFF7FF0B59BB0F2
:10327000150003900491402A5CD806AC618022803E
:10328000FFF7C3FF002221000600FFF76BFF0528B0
:103290000FD92388AB420CD1002D07D0504B2A0008
:1032A0000399C01809F000F9002802D101201BB0D1
:1032B000F0BD258030000699FFF784FF041E79D108
:1032C000069B0793FFF7A1FF80235B01C6188023AD
:1032D00007001B039E4201D1F826F60288235B05F6
:1032E000F31801931B68013302D0019809F0D4F858
:1032F0003C49019809F048FA3B1D0293331D0593A0
:103300008822029B52059B181B6808935A1C13D1F4
:1033100088235B05FF1839680198013909F034FAF0
:10332000380009F0B9F830000799FFF74BFF0400A7
:10333000002C41D10020BAE744219AB20091402AE2
:1033400004D80320D11D814389B2009104991B0C3C
:103350008B4224D0402A22D80122300008A9FFF74E
:1033600001FF021E1BD1380008A9FFF7FBFE040075
:103370000428DDD9009A059B9B1880225201B218BF
:1033800093422AD288235B05C118009A09A809F044
:10339000B3F8134B009A09A9F01809F035F9009A0F
:1033A000029B9446634402930F4B029AFB189A4285
:1033B000A6D3ADE70428BDD088235B05E0180699A5
:1033C00009F0E2F90323EA1C9A4300D16EE7044BAB
:1033D0000399E01809F018F968E70424ECE7C046FF
:1033E00004000011FFFFFF7FF80F000073B5040019
:1033F0001600402A1ED801AD6980FFF706FF0022A3
:1034000029002A80FFF7AEFE042810D92D88002E4F
:103410000BD0002C09D0321CAE4200D92A1C074B1D
:1034200092B2C118200009F067F828B276BDC043F7
:1034300000B2FBE703204042F8E7C0460400001159
:1034400037B5042204000D0001A81649FFF7CEFF8E
:10345000020004280BD1019BA34208D3AB4204D045
:10346000104901A80195FFF701FF01203EBD0E4C58
:1034700023682000019309F00FF801992000013919
:10348000019109F081F980235B01E418074B9C420C
:10349000EED10422034901A80195FFF7E7FE0020C1
:1034A000E4E7C0465555000000C0071100000811B0
:1034B000F0B589B010226946234808F025FF234B58
:1034C000009A6C469A4211D1019B0F2B35D8069970
:1034D000029A8C4618001100002604AD013808D26B
:1034E000002E01D00A00A160013229D10023A3607F
:1034F00023E04F1CF2D161460126EFE7103610227F
:103500002900300008F000FFA368A868013300D14B
:10351000A060882329685B05C9186B6829601A03B5
:10352000120B6A60814203D03B4201D108F0E4FFF4
:103530006368013B6360002BE0D1A06809B0F0BD77
:10354000E027014E3F03F6E70000011150485936CD
:1035500007B508F059FEFFF7ABFF002803D0019034
:1035600001984168084707BD10B508F04DFEFFF708
:103570009FFF040008F038FE200010BD13B50400C2
:1035800008F042FE002C03D00194019841680847DE
:1035900013BDC0468022F8B5964C974BD20000214F
:1035A00020001C6009F078F82300944A88331A60E0
:1035B000934B1A786A23002A00D01133E3620A235E
:1035C0002365904B37221B780820A3638E4B21186C
:1035D000E361102323628D4B3B256361C823DB002D
:1035E000A36123008C331A602823013AE26320642C
:1035F0006364CA67043A211DCA672100BC310D60AB
:103600002100C03108602100C4310B602100063563
:10361000CC310D602100083DC8310D602100D03152
:103620000A602200D43210602200D83213602200D7
:103630000227E032210017604222DC310A602100BB
:103640001B3DE4310D602100E83108602100EC31C0
:103650000B6023000521F43319602300F0331A6056
:103660002300183290331A6023009433186023002B
:103670001E3A98331A60AF23DB002360644BFA26AE
:103680002363644B644DE360644BF031A364230017
:10369000FF31FC33B600A16021611E60A562732575
:1036A000E5656D3D6565A56596255D4AAD00E264FD
:1036B000666258606766A56600270925A767E56604
:1036C000584F594D606720002567E2673A6015271B
:1036D0009C30676007001A2038602000A030070087
:1036E000212038602000A83007004C4838602000B6
:1036F000F830066026006427A436376026005F3F56
:10370000AC3637602600033FB03637602600C63738
:10371000B436376026000027B836376038269E60FA
:10372000424E96205E64424E5A66DE61414E9A6475
:103730005E62F53EFF3E9E621E269A67354A800015
:10374000DE661F675F67DD651D661862DA67BE2388
:10375000394A5B00E250394BD838235004302250AC
:10376000C4225200A350C623E4205B00E15004337E
:10377000334AE1503349344BD16034498000195009
:103780003349E938FF381950324904301950324969
:103790003248D16132491163324951631900F43121
:1037A0000860CE203049400011603049195019009E
:1037B0002F48F83108602F49D16582212E4A8900AF
:1037C0005A501A002D490832D1671A002C49B432D8
:1037D000116088212B4A89005A501A002A498832E0
:1037E00011602A4ADA6408F0B7FE012008F09CFF55
:1037F000F8BDC0460004FF1F3065FF1F0070FF1FAB
:103800003444FF1F4A0AFF1F3A07000080C3C90162
:103810009A020000DC0500006A18000050C3000096
:1038200088130000F009FF1F204E00006509FF1FEC
:1038300068100000C409000040420F00102700007B
:10384000FC00FF1F6D1CFF1F0000FF1FC52CFF1F8A
:103850004D30FF1FE52EFF1F2D20FF1F2527FF1FC7
:103860004920FF1FF921FF1FB91FFF1F4929FF1F13
:10387000312AFF1F8D19FF1F5528FF1F8125FF1FAC
:103880008D25FF1FB91EFF1F711FFF1F311EFF1F58
:103890000223F0B5012500245B4E91B033705B4BE1
:1038A0005B4F1D703A6803935A4B29005A700420ED
:1038B000594A2300009408F0DFFD8023DB059D6258
:1038C000FFF752FE554BC218C0239B029A4201D209
:1038D000FFF754FE3C60052007F0CAFC08F074FCBA
:1038E000FFF758FE08F028FF1F2201254C4B1A70E5
:1038F0004C4B1D704C4B1C704C4B05AC19689143E4
:10390000163A0A431A60602219689143403A0A4302
:103910001A6008F041FF08F0FFFE454B9847C120B0
:10392000FF21444B80001A588A431A50C522920046
:1039300098588843BF390143995098583E490840E8
:103940008021C9010143802099509958C00509027E
:10395000090A0143995080213848490108F0ECFDDB
:1039600003232A00364900933648019508F08CFC61
:103970002C22354905A808F0BFFD6178207807F0B2
:10398000F7F8023410ABA342F7D1304C304B226829
:1039900003201A40A023DB02134323608023226804
:1039A0009B041343236022682A4B1A4080239B0305
:1039B00013432360284A294B934200D8012008F082
:1039C0004BFC08F0D1FC80232268DB041343236006
:1039D000307808F0D1FC039B1878C0B208F08CFE58
:1039E00008F02AFE0C49042008F08EFE07F0D8FAF1
:1039F00000F036F800F062FD00F0FAFD00F0F6F994
:103A0000002011B0F0BDC0464A0AFF1F3444FF1F1A
:103A100034F00040D861FF1F3B000108000001E0C6
:103A2000480AFF1F490AFF1F680AFF1FBCF0004039
:103A3000E1A2000000E100E0FF00FFFF3844FF1FAB
:103A4000BC56FF1F3854FF1FE8C7001114F0004098
:103A5000FF7FF8FFFFFF9FFF0080FF1F0070FF1F29
:103A6000002210B51100112008F0E6FC10BD000086
:103A7000F8B500230926374F374C3B62E368112025
:103A8000B343E36008F0D0FB112008F075FB112070
:103A900008F0A2FC40232268802513432360802382
:103AA0006268DB0213436360A3682C4A2B43A36064
:103AB000A36802211340A3608023A2689B011343E3
:103AC0001022A360236C072093432364236C0F3AD6
:103AD0001343236480235B003B62226B204B1A401C
:103AE0002263626B1A406263A26B1A40A263E26BAC
:103AF0001340E363E3681B4A1340E36007F038F8C0
:103B00000121072007F048F9174B11205A6C154383
:103B10005D6408F0C1FBFD21144B154A89005A5021
:103B20008023C720626B5B0313436363E3688000F9
:103B30003343E3600F4B104A1958114080221202A0
:103B40000A431A50802292051A6008220B4B5A63CE
:103B5000F8BDC04600F000403CF00040FFFFDFFF32
:103B6000EFFFEFFFFFFF7FFF003800400000FF1F67
:103B70005118FF1F00E100E0FF00FFFF00000540BB
:103B800070B5174CE088002823D02368A688C01899
:103B90008023711C89B2134D2060A1809B00994243
:103BA00018D3420A93B2C21AEB802260A6800E4A52
:103BB000642093420AD8FA220020D200934205D909
:103BC0000A21180008F0D8FDC838C0B200232872B6
:103BD000E38070BD08F0A0FB83B2EB80E7E7C0464E
:103BE0003461FF1FC061FF1FB70B000030B503A891
:103BF00004880B20002C0ED14968074D08784978BD
:103C0000090201430A20A94205D10121200019809F
:103C1000024B1B7A137030BD192A0000C061FF1FD0
:103C2000F7B5150008AA16884A680F4F147852781D
:103C3000120222430A24BA4214D10122DBB20192B9
:103C400000962A0008F02CFA041E0BD1074B1B68C3
:103C5000002B07D068782A78000210434242504176
:103C6000013098472000FEBD022900004461FF1F7B
:103C700030B5012503790400BFB02B4211D00A49A9
:103C8000408807F07DFD28420BD0084B01A95B8DD1
:103C90004D800B80064B00221B7A60880B7104F06C
:103CA0002BFD3FB030BDC0463C61FF1F7840FF1F79
:103CB000C061FF1F10B50549054807F017FD042135
:103CC000044A054807F0D4FC10BDC0463C61FF1F04
:103CD000FFFF000014C800117840FF1F10B5024814
:103CE00005F08EFB10BDC046713C00110122164B41
:103CF0000270197A4170022181709978C170D97867
:103D0000017103214171197981715979C1710921B9
:103D100001720E49097841720C2181729979C17240
:103D2000DB7903730A4B1978CBB2002904D03A230C
:103D3000827343730F2070478373C373F2221B2374
:103D4000427303741120F6E7C061FF1F2462FF1F56
:103D5000E562FF1F022310B50370013B437005337A
:103D6000837010330371443B43712A3383714433AE
:103D7000C37100230372064B04001B8843720A3090
:103D8000FFF7B4FF831D0A30C0B2E37010BDC04618
:103D9000C061FF1F10B5142008F016FC124B14224E
:103DA0000021186008F078FC002008F0C5FA012016
:103DB00008F022FB022008F037FC032004F0C2FDCB
:103DC000042006F0DBFD052003F0FAFF062004F0D6
:103DD000CDFC072002F030F8082007F029FC09206C
:103DE00001F0AAFD10BDC0464861FF1F08F04CFC61
:103DF000012008F071FB08F05FFB0000094B10B5D3
:103E00000400984205D0012904D12000064907F09A
:103E10006DFC10BD0229FCD1013905F0ABFA002878
:103E2000F3D0F6E7FEFF00006E61FF1F70B50D7A5C
:103E3000100004AA2C00168810221440154220D12C
:103E4000002E20D10A78022A18D14A6851781578B4
:103E50000E4A09022943914205D00D4A914209D0E8
:103E60001C800A2404E014220A491A8008F044FB4A
:103E7000200070BD0C2208491A80F7E71C8001243D
:103E8000F6E70824F4E70B24F2E7C046F3FF00004E
:103E9000F4FF0000C042FF1F2CC9001110B5040040
:103EA0000749084807F022FC074805F0E5F900201B
:103EB000E40704D50721054A054807F0D9FB10BDE2
:103EC0006E61FF1FFFFF0000FD3D001158C800118B
:103ED000BC40FF1F10B50B4BBEB01A780A4902A8B0
:103EE00001F0F6F801AC80B26080002808D0074BE2
:103EF00000221B8821002380054B188804F0FCFB5E
:103F00003EB010BD4C61FF1F4D61FF1F1641FF1FEA
:103F10002042FF1F10B50B4BBEB01A780A4902A809
:103F200002F02EFB01AC80B26080002808D0074B65
:103F300000225B8D21002380054B188804F0DCFBF8
:103F40003EB010BD7661FF1F7761FF1FBC40FF1FB1
:103F50002042FF1FF0B585B0039002920A7A1C0040
:103F60000AAB15001F8820230E001D401A4241D1C4
:103F700007F078F93378022B3ED173681A785B78B2
:103F80001B0213431F4A934211D01F4A934220D071
:103F90001E4A0A25934219D1012231000192039849
:103FA000029AE3B2009708F07BF805000EE0002FBC
:103FB00024D1142C24D82200F068029908F09CFA2D
:103FC000134B1C70012C01D9FFF7A4FF280005B08A
:103FD000F0BD002F12D1202C12D802992200F068D7
:103FE00008F08AFA0B4B04211C700B4B187808F070
:103FF00003FBEBE70825E9E70125E7E70B25E5E704
:104000000D25E3E7F3FF0000F4FF000002290000A4
:104010007661FF1F4C61FF1FE662FF1F332310B55F
:10402000040003700A220749013008F065FA064BC4
:104030000F201B681A0AE37222731A0C1B0E62739C
:10404000A37310BDC061FF1FE861FF1F30B50125DC
:1040500003790400BFB02B4213D00B49408807F00E
:104060008FFB28420DD0094B01AD1B8802A82B8085
:10407000FFF7D4FF0F236B8000222900608804F033
:104080003BFB3FB030BDC0466E61FF1F1641FF1FB6
:1040900010B5024805F0B4F910BDC0464D400011FE
:1040A00070B5160004AA148805AA15784A685078D5
:1040B000117800022A4A0843801805284BD808F0D6
:1040C00053F803131E29343F07221000062C0AD888
:1040D000121BAA4200D92A0022491A80300009196D
:1040E00008F00AFA002070BD0720112CFBD812221C
:1040F000121BAA4200D92A001B491A80EEE70720AA
:10410000222CF0D82322121BAA4200D92A001749D8
:104110001A80E3E70720032CE5D80422121BAA42E9
:1041200000D92A0012491A80D8E707221000062C6D
:10413000D9D8121BAA4200D92A000E491A80CDE70D
:1041400007221000062CCED8121BAA4200D92A0042
:1041500009491A80C2E700220A201A80C3E7C04634
:10416000DCD5FFFFBDC800119461FF1F99C8001185
:1041700094C800118CC8001184C8001110B50D211D
:10418000024A034807F074FA10BDC04678C800110F
:104190002C41FF1F37B50F4C01AD04232A00217CB1
:1041A00000F01AF9002813D12988236849BA89B286
:1041B0004B4321891B0C5B18074A6988538049BA15
:1041C000636889B24B4361891B0C5B1893803EBDC9
:1041D0000120FCE7A861FF1FC061FF1F37B5124C2B
:1041E00006236A46217C6D4600F0F6F8002818D1B7
:1041F0002988236849BA89B24B4321890B4A1B0C91
:104200005B1853806B4603335B78E9781B020B43E2
:104210005BBA61689BB24B4361891B0C5B1893804E
:104220003EBD0120FCE7C046A861FF1FC061FF1F23
:10423000F0B5022785B0154C03AD217C2B00002280
:104240000097060000F09AF8002802D0012005B07F
:10425000F0BD0E23217C0122300000976B4400F05A
:104260008DF80028F2D129882368C9BA4B432189E7
:104270001B145B18064A6988538049BA636889B27F
:104280004B4361891B0C5B189380E0E7A861FF1F1B
:10429000C061FF1F10B500F0B1FE034A0020138873
:1042A0000133138010BDC046C061FF1F10B500F080
:1042B000A3FE10BD10B58024064AA4001168436B0C
:1042C000234205D113685B1A032BF8D9012010BDD6
:1042D0000020FCE76008FF1F70B5C17905000C00E5
:1042E000631E9C411A4BE402E41849000460C9B201
:1042F000007906F087FDE979687949000131C9B292
:1043000006F080FDE8790930C0B208F065F80023B6
:10431000E36661332360AA795B3B002A0ED02268F2
:104320009A43023B134323600A23E361073323626A
:1043300000232363A3630133E36370BD22689A43C0
:10434000022313432360462363610633A361EFE72F
:104350000050004070B5002504000368DD66C07998
:104360000930C0B207F060FF2900207906F0E6FCB2
:104370002900607906F0E2FC70BD0000F8B51E006F
:1043800006AB1D78002304681700E366616007F040
:104390003BFF01238022E3662B0027615200013B93
:1043A00008D207F021FF08200A4A1168002D03D126
:1043B0002800F8BD2261F2E7236F034203D023698E
:1043C000013D3370013613685B1A032BEED90125CA
:1043D000EEE7C0466008FF1F70B51C0000230568AB
:1043E0001600EB66696007F00FFF01238022EB6681
:1043F00023005200013B08D207F0F6FE08200A4ACB
:104400001168002C03D1200070BD2A61F2E72B6FE8
:10441000034203D02B69013C3370013613685B1AE9
:10442000032BEED90124EEE76008FF1F002370B5CF
:1044300004681500E366616007F0E6FE0123E366A9
:10444000256107F0D1FE2000FFF734FF70BD70B585
:104450001D00002304681600E366616007F0D4FEC7
:104460000123E36626610F33626B1A42FCD02B0AEC
:1044700023611023626B1A42FCD0EDB2256107F074
:10448000B3FE2000FFF716FF70BD002370B504686F
:104490001500E366616007F0B7FE0123E3662B0AAF
:1044A00023611023626B1A42FCD0EDB2256107F044
:1044B0009BFE2000FFF7FEFE70BD000010B5084C0B
:1044C000E368002B08D18022064B52021B689B1820
:1044D0006360054B1B68236007F086FFA06010BD7A
:1044E000E861FF1FC8F00040CCF00040F0B5164A6C
:1044F000916A936A8B42FBD1144901278A688B60C9
:104500009A1A134B48681C6893B263431B0A1B1822
:10451000D002C00E6043020208689B18002402000B
:104520000C4D4B60561CAB4208D8002C01D010003B
:104530000CC1094A1360094B1860F0BD084A3C00E1
:104540009B183200EEE7C04600F00040E861FF1F14
:10455000140AFF1F40420F00C8F00040CCF000409A
:10456000C0BDF0FF70B5194C23793F2B01D93F2313
:104570002371174A13701078C0B207F04DFF18234B
:10458000144A15491380154A0B8013804B80A0797B
:104590000C3B421C534380221201934213D81A0051
:1045A000CB80A0230E4D888028800E4863719F3BEE
:1045B000028023720C4A0D4B1A60E379052B01D857
:1045C0001023E37170BD1300EAE7C046DC61FF1FF2
:1045D000480AFF1F1E42FF1FE043FF1F1C42FF1F30
:1045E0001A42FF1F1842FF1F10270000CC61FF1F57
:1045F000F8B521210020FEF723FF114C011E114DBB
:1046000009D10C22104BC1CBC1C4280008F044F8DA
:10461000FFF7A8FFF8BD0C2220000C49FEF7E6FECC
:104620000C2802D0084B43CB43C40C222800084975
:10463000FEF7DCFE0C28EBD00C220021E5E7C0469B
:10464000DC61FF1FA861FF1F10C90011FC0C0000F6
:10465000F50C000010B50C2202480349FEF706FED7
:1046600010BDC046DC61FF1FFC0C0000044A43057E
:104670005B0D5343C00A5043DB0A18187047C0460D
:10468000710200000388034A934201D00133038082
:104690007047C046FFFF0000034B1A68186890423D
:1046A000FBD10002000A704728F0004070B5FFF708
:1046B000F3FF2A4B0500DE6A294B361A3602DB7FF0
:1046C000360A284C093E002B05D08021264B890054
:1046D000187807F091FF254B9E4226D8238B244E55
:1046E000B34203D0238B01339BB22383214B1B683E
:1046F0001B021B0A2361204B1B78002B15D1231DA5
:10470000DB7F002B11D1032006F012FA00280DD117
:10471000A368ED1A2D022D0AA32D07D8A38BB3424F
:1047200003D0A38B01339BB2A38370BD2369621DA9
:10473000236002231B1ADBB2D3770122231DDA7711
:10474000002801D023696360082007F0A5FD064B0F
:104750008021187807F050FFE7E7C04600F00040DE
:10476000FF61FF1FF861FF1FE662FF1FF6FF7F007A
:10477000FFFF0000100AFF1F2862FF1F0C4B10B53F
:104780001B78012B08D10B490B4ACB7FFF2B09D19A
:10479000D31D0122DA7704E0082007F0F5FE002897
:1047A000F1D110BDCB7F0133DBB2CB77F0E7C04650
:1047B0002862FF1F0062FF1FF861FF1FF0B51D4C4C
:1047C0008022A5440400882069465201400507F074
:1047D000CBFE902212016A441300200032C832C37B
:1047E00016C816C38023144C144FA6689B0333438A
:1047F000A3603B6007F070FD8823A0685B05C018CC
:1048000007F04AFE0025882329008022A0685B0566
:10481000C01840196944520007F0F6FE80230135A4
:10482000FF355B019D42EED1A6603E60044B9D4486
:10483000F0BDC046FCEFFFFF5043FF1F9808FF1F6D
:104840000410000010B5FFF727FF0E4C0E4BA060C0
:10485000628B9A4203D0638B01339BB2638363689C
:10486000002B0DD0A0686368C01A0002000AFFF791
:10487000FDFE80235B02984200D3034880B2E083B0
:1048800010BDC046F861FF1FFFFF000010B5FFF725
:1048900003FF0C4B58601A1DD17FCCB2002910D1F8
:1048A00018600533DC770123D377074B1B78022B85
:1048B00002D0082007F0F0FC044B8021187807F0A4
:1048C0009BFE10BDF861FF1F2862FF1FE662FF1FFD
:1048D00070B505002D48FFF7D5FE2B7B002B02D1CC
:1048E0002B48FFF7CFFE2B4C6378A678002B47D0E0
:1048F000002E45D06368A068C01A0002000AFFF7C6
:10490000B5FE254B984238D80A2800D20A2002006A
:10491000A18E0A3A93B263868A4200D2A386E18EC0
:104920008A4200D9E38600231C495E008E5BB242B6
:1049300002D30133072BF8D1E3183A331978FF2952
:1049400001D0013119701649FE238A4204D80A2188
:1049500007F0E2FC0138C3B2220042321370A368B0
:10496000A868C01A0002000AFFF780FE80235B02DD
:10497000984200D30B48208707E00B48FFF782FEE0
:104980000A48FFF77FFE002EE9D170BD4062FF1F8D
:104990004262FF1F2862FF1F881300001CC900111C
:1049A000F5090000FFFF00005662FF1F4462FF1F71
:1049B000F0B589B004AF1E00050002910392387073
:1049C000FFF76AFE029B784CBB60039B00903B7331
:1049D000237878607E730193062D0ED17348FFF71C
:1049E00051FE019A0023022A03D1A37063701A2595
:1049F00096E0009AE260238010E0019B042D0FD125
:104A0000022B03D16A48FFF73DFE5FE06948FFF7DC
:104A100039FE009BE360022323800023A370E6E7B6
:104A2000052D05D16448022BECD1FFF72BFE6DE07C
:104A3000012B3CD0022B7FD0002B47D1002D1ED163
:104A4000022E0ED15D48FFF71DFE65700023A37096
:104A500001232370009B0820E360052507F01CFC60
:104A600076E05748FFF70EFE012E02D15548FFF7BA
:104A700009FE01236370029BE6706360E6E7012D87
:104A80000BD15148FFF7FEFD5048FFF7FBFD029B9D
:104A9000A570A360019B6370DAE7022DB2D13800E4
:104AA000FFF716FF1035082007F096FD50E0022DA5
:104AB00026D0032D3ED0012D0AD14348FFF7E2FD59
:104AC000A378002B02D1029BA570A36000253FE0D4
:104AD0003A48022E97D03A48FFF7D4FD012E02D172
:104AE0003848FFF7CFFDA3783948002B8BD1637886
:104AF000002B87D101336370029BE6706360E5E7AA
:104B00003800FFF7E5FE039B002B03D0009BE3601A
:104B1000002370E70C252F48FFF7B4FD039BA3701B
:104B200080212D4BC901187807F00EFE0C2D0FD0F7
:104B30001A25B8E7294878E7022D2AD12848FFF737
:104B4000A1FD039B002B02D12648FFF79BFD1025FA
:104B50006B0706D58021204BFA221878C90107F08F
:104B6000E3FC10231D420ED007F04EFB00231E4A2B
:104B7000D3771E4AD3772278012A02D01C4A937336
:104B8000537307F031FB423422781A4B1A7009B084
:104B9000F0BD002D03D10A48022ED8D0D5E7012D53
:104BA00000D02FE708482EE72862FF1F4E62FF1F44
:104BB0004862FF1F4A62FF1F4C62FF1F5262FF1FC5
:104BC0003862FF1F3A62FF1F3C62FF1F3E62FF1FF9
:104BD0005462FF1F5862FF1FE662FF1F4662FF1FFD
:104BE0004062FF1F4262FF1FFB61FF1FFC61FF1F4E
:104BF0006C62FF1F2462FF1F0022F0B5037885B0AE
:104C0000013B012602900192012B00D883E005B000
:104C1000F0BD636901336361B9E0627B531CDBB2B1
:104C20006373A7540C2B00D8B1E0237B452B3AD1FA
:104C300009215C4801F05EFC63896778834232D1C8
:104C40000023A3736373A38BE27801339BB2A38326
:104C500023000833DE77237960791B0213431BB2EC
:104C6000E383A379E11C1B0203431BB22384CF77A8
:104C7000A178231DD977637A621DD377E279A31DCA
:104C80002100DA77237AE21DD37722002A310878CF
:104C90002B32002825D011788B4224D01370E36A80
:104CA0000133E3621FE0238A01339BB22382012395
:104CB000E25C522A0FD120000021453AD21AD2B22A
:104CC000C75C0131C9B2077001309142F8D10D22A1
:104CD000D31A63735BE001330D2BE9D10023A37377
:104CE000F7E70E701370304B1A78002A04D00022B8
:104CF00008201A7007F070FCFFF7CEFC2B4B5861B0
:104D00000633DE7780212A4B4901187807F074FCBE
:104D1000019B01330193029B019A1B7A9A4200DBAB
:104D200075E7029B019A5B68224C9F5CA369013383
:104D3000A361214B1A783F2A05D819784A1CD2B2B0
:104D40001A701E4B5F54238A184D9BB203931C4B61
:104D5000DA7F002A10D1DE77FFF79EFC194BE8605E
:104D60001B78022B02D0082007F096FA8021104B06
:104D70008901187807F040FCA37B002B00D04CE79A
:104D8000522F00D045E7013327706373A373238A42
:104D9000039A9A42BCD0FFF77FFC00236861063576
:104DA000EB77AFE76D62FF1F9462FF1FF861FF1F93
:104DB000E662FF1F6C62FF1F9C62FF1F9D62FF1F68
:104DC000FB61FF1F2862FF1FF8B507F01DFA0E4EAA
:104DD000731D3768DD7F3469EDB207F005FA002DE9
:104DE0000BD1002C09D0381B084B0002000A984256
:104DF00003D8FFF73BFC80B2308400222B0039003F
:104E00001000FFF7D5FDF8BDF861FF1FCC0C0000C6
:104E100010B507F0F9F9054BDC6807F0E5F9002358
:104E200021001A000120FFF7C3FD10BDF861FF1F2C
:104E300070B507F0E9F9074B5D690633DC7F07F0D1
:104E4000D3F9E4B22900002322000220FFF7B0FDCD
:104E500070BDC046F861FF1F002310B51A0019008D
:104E60000320FFF7A5FD10BD002110B5034B0A007C
:104E7000D97706200B00FFF79BFD10BDFF61FF1FD8
:104E8000002310B51A0019000420FFF791FD10BD92
:104E9000002310B51A0019000520FFF789FD10BD89
:104EA000034B1878023843425841C0B27047C0469D
:104EB0002862FF1F10B5FFF7EFFB0C4B1A78012A91
:104EC00013D1DB68FA22C01A7D230002000A434393
:104ED000D2001B0B934208D90548FFF7D3FB0023F0
:104EE00006201A001900FFF763FD10BD2862FF1F9E
:104EF0005062FF1FF0B5304C89B0302200212000F5
:104F0000002707F0C9FB402200212C4807F0C4FB12
:104F10000A222B4B39001F7002ABD01807F0BCFBE4
:104F2000284B04AD2B80012396212B72264B89013F
:104F3000069A009704980591079306F057F9060022
:104F400073427341214D39002C22293428002370EB
:104F500007F0A2FB1E4C39004422200007F09CFB06
:104F600001235B42A386423423701A4BFF37612032
:104F7000194A1A491F7007F05FFA002802D02B0067
:104F80000833DF770321080005F0F2FD0320144AFF
:104F9000144905F0E3FF00280BD02A0001238021EB
:104FA000283207351370EB770F4B8900187807F01C
:104FB00023FB300009B0F0BD6C62FF1F9D62FF1F34
:104FC0009C62FF1FFF060000F94B0011F861FF1FF4
:104FD0002862FF1F2462FF1FAD4600117D470011AC
:104FE000454800118D480011E662FF1F014BD86A49
:104FF0007047C0466C62FF1F704700000E4A0F4B9F
:10500000D27F0F49002A05D0DA8B4A801B8C1BB255
:105010008B8070479A8B002A0AD09A8B524292B2A8
:105020004A801A8A002A05D01B8A5B429BB2EEE7AF
:10503000044AF5E7034BEAE77462FF1F6C62FF1F47
:10504000C061FF1FFFFF0000F0B587B0051E6C4672
:1050500027D0684607F0A0F81B4D022806D106228B
:105060006946280007F020FA002818D00F222100F6
:105070000023012094460600EA5C0133170910372B
:10508000BE403700664632400600964032003A4342
:105090004A610439062BEED12000FFF78FFB07B0E1
:1050A000F0BD18226946094807F05EFAAB00E358E4
:1050B000013305D01822FF21200007F0EDFAEBE7BD
:1050C0000135062DF2D1EAE76509FF1F000900113D
:1050D000F0B5002604000F00150085B0B24200D1E3
:1050E00087E08A784B1C01934B7812021A43CB78E5
:1050F00008781B0413430A79207012061A430092A1
:1051000003926670252800D193E033D8112813D874
:1051100007F032FA66001801180118011801A700FB
:10512000B500AE0018011801180118011801180186
:1051300018011801F1001101232800D1C9E0DB2872
:1051400000D09EE2042D00D896E2052D00D195E214
:105150006E1F32000098791D07F0CEF90522390044
:10516000200007F0C9F932000099601D07F0C4F96A
:105170002E003EE0562856D00FD8332800D1A3E0A9
:10518000552839D02628DAD1C14D13223100280004
:1051900007F082FAFDF7DEFF5AE0712800D175E0D2
:1051A000722800D186E0DC28C9D1022D00D863E244
:1051B0004B7863708B78A3706B461E88032D05D0E7
:1051C000033DC81CAAB23100FEF750F8310010228E
:1051D000E01CFEF70BF9C61C00280ADA60706FE0CD
:1051E0000C260C222000AB4907F086F9A84B5B7C0B
:1051F000E380300005B0F0BD6A1EA74D0C2A10D820
:10520000002A07D02800019907F076F9FFF7AAF9DC
:10521000FFF720FA0C222900601C07F06DF90D261B
:10522000E7E70C22EEE79C4D9C4B2A0043CB43C2A0
:10523000ECE76A1E964D0C2A11D8002A08D0019975
:10524000280007F059F90C2228009549FEF70EF8BE
:1052500013222900601C07F04FF91426C9E70C221D
:10526000EDE706228F49601C07F046F90626C0E7E5
:1052700012228D49601C07F03FF91326B9E7082276
:105280008A49601C07F038F90926B2E7012D0DD0D4
:105290004978F02900D9EFE1854D288801F0CAFD51
:1052A000844B2A885200D35A637009E0804A814BAC
:1052B0001288F7E7804B012D04D04A781A7062708B
:1052C000022696E71B78EFE72000FEF7A7FE060010
:1052D0008FE7042D05D9794D009B2B6007F084F8EA
:1052E000A860FFF703F90422039003A9601C07F0EC
:1052F00003F905267DE7724E062D15D906223000EA
:10530000019907F0D1F800280ED00622019930004B
:1053100007F0F2F806226B493000FDF7A7FF0123E2
:10532000654A11780B43137031000622601C07F0A8
:10533000E3F807265DE7012D00D19DE14878FFF7EE
:1053400083FEBDE701281FD15F4AAB1E0092132BDD
:1053500006D84B78002B0BD100F05CFA00F092FAE3
:105360005A4B00991E78601C721E07F0C5F840E782
:10537000013D2A000199009807F0BEF854490098B1
:10538000AAB2FDF773FFE9E7032800D0D7E6012DA5
:105390002DD120700C234F4A637012784E4BA270AF
:1053A0001A000832D27F1026E2709A6922719A6937
:1053B000120A62719A69120CA2719A69120EE27154
:1053C0009A8B22729A8B120A62721A8AA2721A8AB3
:1053D000120AE272DA8B2273DA8B12B21212627341
:1053E0001A8CA2731B8C1BB21B12E37301E74B7860
:1053F0002070002BCED0012B1FD10B336370364BA6
:105400000B26DA8BA270DA8B12B21212E2701A8CAF
:1054100022711A8C12B212126271DA1CD27FA2713E
:105420001A1DD27FE2715A1DD27F22729A1DD27F3D
:1054300007336272DB7FA372DBE6032B1FD1022DE1
:1054400000D119E10C22254B897818780426A07028
:1054500018786270E170884200D8CAE61B785B1A3F
:105460001E1CDBB2934200D9161C1D4BF6B2320053
:10547000201DC918043607F03FF8F6B2B9E6093B1B
:105480001800032B00D9F7E006F06EFE2C5498CAE2
:10549000A861FF1F2CC90011DC61FF1F10C900119A
:1054A000F50C0000B461FF1F9461FF1F5443FF1F00
:1054B0002042FF1F3465FF1FD861FF1FE861FF1FF7
:1054C0006509FF1FADAC0000C564FF1FC364FF1F6B
:1054D000AEDE00009562FF1F6C62FF1F9C62FF1F23
:1054E0009D62FF1F5E236370764B1A78A270DA7894
:1054F000E2701A8A2271120A62715A8AA271120A21
:10550000E2719A8A2272120A6272DA8AA272120A0C
:10551000E2721A8B2273120A62735A8BA273120AF6
:10552000E2739A8B2274120A6274DB8BA3741B0AD7
:10553000E37492E606F068FE634BDF8B1E8C1D8BD6
:105540005B8BBFB29BB2009306F04EFE5F2363708D
:105550005C4BB6B25A8EADB2A270120AE2709A8E4D
:105560002271120A6271DA8E2772A271A672120A71
:105570003F0A360AE2716772E6721A8FA5732273C8
:10558000120A6273009A2D0A2274120A62741A00B7
:10559000E57342321278A2749A8DD98D1B8C521801
:1055A00092B20F2B07D81B015BB2111C0F2A00D936
:1055B0000F210B43BCE710235B42F6E760236370C7
:1055C00000234248A21CC15CD1540133082BFAD1FC
:1055D0003C4A518C0B1CFF2900D9FF23A372918CEC
:1055E0000B1CFF2900D9FF23E372D38C23731B0A02
:1055F0006373138DA3731B0AE373538D344A2374AF
:105600001B0A6374D27F304BA274DA1D2833D27F19
:1056100019784B1E9941130049005A1E9341C8E75F
:1056200006F0F2FD284EB58B06F0DEFD6123ADB22B
:105630006370A570234B2D0AE5701A8E2271120A31
:1056400062719A8DA271120AE271DA8D2272120AC7
:1056500062721A8CA272120AE2725B8D23731B0AA9
:10566000637373681A0AA373E2731A0C1B0E6374D4
:1056700000232274A3745BE7FF2315E6152510268B
:105680006CE5DA28F8D1042DF6D9082D17D9BB79A5
:105690007A791B021343FA7912041A433B7A1B06E8
:1056A0001343009A1360009B05221B6839002000F9
:1056B000039306F021FF0422601D03A9E2E5FE2307
:1056C0006370F0E72862FF1FF861FF1F6262FF1F2F
:1056D0000062FF1F7047000002000A4B0A3292B2BC
:1056E00010B598811882DA815A820123064C237002
:1056F000064B187802F002FA002801D0002323702C
:1057000010BDC046DE42FF1FE664FF1F0E65FF1F8F
:10571000013870B5042809D8264C06F025FD030889
:10572000292910000221207806F066FF70BD0821AB
:10573000207807F009F800221F4B1A72F6E7802242
:1057400000251D4B520060201A81DD7206F0A4FD79
:105750001A4B1D701A4B1D70FFF792FB0821207821
:10576000184A06F0E1FE2900207806F07DFEDDE70C
:105770000821207806F0E8FFFFF78AFB602006F09A
:105780002BFF1148FEF7E6FA104B114A9B799380E4
:10579000104A13800022084BDA720132FF321A815C
:1057A0000D4B1B78002BC1D00C4A136006F004FF90
:1057B000BCE7C046E662FF1FCC61FF1FE562FF1F2A
:1057C000E462FF1F102700002942FF1FDC61FF1F5A
:1057D000E043FF1F1A42FF1FD861FF1F34F0004053
:1057E0000300F0B50A4D8E18B14202D15200801864
:1057F000F0BD0C782F6824093C5D0F271C700C78D5
:1058000001313C402F683C5D5C700233ECE7C046E0
:105810001442FF1F1022124B10B51A700F23114CA7
:1058200011492370093A063B1048637006F064FE84
:105830002D2301220E490F486372FFF7D1FF012289
:105840000D49FFF7CDFF01220C49FFF7C9FF030007
:1058500000200B4902001870FDF708FD10BDC0467E
:10586000E264FF1FC364FF1FBDC80011C564FF1FB2
:105870006709FF1FCD64FF1F6609FF1F6509FF1F32
:10588000AEDE000070B5134C142220001249FDF763
:10589000ADFD431E114D132B19D8AB78002B16D03C
:1058A000431C2B7009236B700023001903702878A8
:1058B0000B4B01302900C0B2187006F06DFD29783D
:1058C00022000139C9B2002005F0F0FD70BDFFF7DC
:1058D000A1FFECE7C564FF1FAEDE0000C364FF1F3D
:1058E000E264FF1F10B5114B1A781870002A0ED011
:1058F00000280BD10E4B1A78062A07D85423D34020
:10590000DB0703D50B4B187802F0F8F810BD002820
:10591000FCD0074B1B78012B02D0033B022BF5D8A0
:10592000044B0121187806F067FEEFE7E764FF1FDC
:105930000D65FF1F0E65FF1F70B5474E2D2430709B
:10594000FDF708FCFFF7D6FA06F096FE032243495E
:105950004348FFF745FF030004221C704149013012
:10596000FFF73EFF302304703F4D404C437083707F
:105970002E3B062220003E49EB87FDF737FD062827
:1059800013D0200006F008FC022809D003212000D3
:1059900006F022FF8D23E3706E3B23711933637190
:1059A000062220003249FDF761FC324B1B68FC33B4
:1059B0005C64FFF767FF0020FFF794FF2E4C2F4A2F
:1059C00001212F4B1278207802F05AF82D4A2E4BE5
:1059D00012780021207802F053F801222B4B1A7024
:1059E0002B4B5A783C23552A00D0163B294A2021BC
:1059F0005372294B294AEB81AA812A826B82307823
:105A000006F0D2FD0120404205F09CFD01204042FD
:105A100005F038FEFEF7B2FBFEF74CF900F048FD4A
:105A200001204042FEF73AFA012006F015FEF02070
:105A300001F0E4F90121307806F0DEFD307802F063
:105A4000B9F9174806F030FCFEF712F80022602082
:105A5000110006F0F1FC70BDE662FF1F5443FF1F0A
:105A60009461FF1FB461FF1FDE42FF1F6509FF1F26
:105A7000ADAC00003065FF1F0E65FF1F4842FF1FE1
:105A80002942FF1FE264FF1FC364FF1FB464FF1FAE
:105A9000D861FF1FCC61FF1FCE090000C4090000C0
:105AA000E862FF1FF8B50D008B0600D49CE005F0FE
:105AB000D9FB8F4B1B78002B24D0FEF717FDFFF787
:105AC000F9F9FFF793FA8B4B8B4A196888421CD07F
:105AD0008A4918600B888A4C01330B800121894B5D
:105AE00020001970062313700022874B1A70874B11
:105AF00026325A72FEF72EF9210006F02DFE844858
:105B0000FFF7EAFD20246C40D2E01378002B12D07E
:105B1000013BDBB21370002BF4D17A4A784C13703E
:105B2000764A2000138801331380FEF713F9210011
:105B300006F012FEE6E7774B744C774E9968626880
:105B4000737A8A1ADB039A4202D36160FDF790FFF1
:105B5000327A217A531EDBB2994231D1FEF7A6FB8D
:105B6000637A002B28D0013BDBB26372002B23D178
:105B70006A4B5B78552B01D106F01EFDE37A002BB2
:105B800012D00023A27AE3729A4202D0A372FDF7E8
:105B9000F7FF5A4A5A4F1388380001331380FEF733
:105BA000D9F8390006F0D8FD0322574B1A70642348
:105BB00070795843FFF790FD237A01332372A1E7F0
:105BC0009142CDD300272772FEF764FBA37ABB4234
:105BD00002D0A772FDF7D4FF494F3800FEF7BAF89C
:105BE000390006F0B9FDBBE70BB2002B0ADA4C4BCB
:105BF000187806F0D9FD002801D006F0A5FB802416
:105C0000240280E70224214208D0434A3F4B127A03
:105C10000120023A1A72FFF765FE74E78024A4009F
:105C2000214202D0FFF720F96DE78024214202D003
:105C3000FFF7CAF867E78024A401214202D0FFF7EA
:105C4000E7F860E780246401214202D0FFF7F0F812
:105C500059E78024E401214202D0FFF7FDF852E722
:105C60000824214226D0FFF71BF96C4000281FD0E2
:105C7000FEF73CFC274B2549274D98684A686B7A0C
:105C8000821ADB039A4202D34860FDF7F1FEFEF769
:105C900001FBFEF70BFB224B08211878214A06F086
:105CA00043FC00F01FFC2B68DB0701D5FEF7F0F981
:105CB0002000F8BDCB0609D5FDF762FF0C4B1B7821
:105CC000002B01D1FEF70AF810241CE70124214221
:105CD00005D0154800F074F806F06EFB13E70426B3
:105CE0000C0034403142E3D0FEF7F4F834000AE708
:105CF000E764FF1FE062FF1FE462FF1FC061FF1F38
:105D00002942FF1FE562FF1FC264FF1FCC61FF1F16
:105D1000C4090000E861FF1FDC61FF1FD861FF1F9D
:105D2000E662FF1F102700000C42FF1FF0B51A4B60
:105D30001A4F1B883A880400194E1A4D85B09A42B2
:105D40000DD832889A420AD3174B1A882B889A4268
:105D500005D1164A164B12881B889A421AD0052084
:105D600001F0A2F83B8802A90B80338801904B8098
:105D70002B88104D8B800E4B2A781B88CB800E4BC6
:105D8000188802F0C3FD0D4B08212878019A1C7079
:105D900006F0CAFB05B0F0BDB264FF1F1E42FF1F34
:105DA0001C42FF1F1A42FF1FB064FF1FAE64FF1F9B
:105DB0001842FF1F0E65FF1F2042FF1FAC64FF1F2C
:105DC00013B50C4B1C78002C11D1002801D00A4BC4
:105DD00018600A4A0A4B11780A4A10780A4A019256
:105DE0000A4A0092002205F059FA200016BD11243B
:105DF000FBE7C0460D65FF1FA864FF1F0C65FF1F72
:105E0000FC64FF1F0E65FF1FE864FF1FEC64FF1FAB
:105E100010B5064B12201B78052B06D1044B13221C
:105E20001988044B187801F01BFA10BD0D65FF1F8F
:105E30002042FF1F0E65FF1F10B500240122114BE9
:105E400052421870104B1C70104B1A8001F0B2FFB8
:105E500004220F4B21001A700E480C3206F034FB5E
:105E6000102221000C4806F02FFB07220B4B1C6070
:105E70000B4B1C700B4B1C700B4B1A700B4B1C709C
:105E800010BDC0460E65FF1F0D65FF1F2042FF1F9E
:105E90000C65FF1FFC64FF1FEC64FF1FE864FF1F1D
:105EA000C264FF1FC164FF1F2242FF1FC064FF1FA7
:105EB000F8B5174C0600257806A814240078052D9F
:105EC00023D1B41F134FA5B21824BD421DD88D1F76
:105ED000ADB2BD4219D8FA256D00AA4215D21D00F7
:105EE0000D4F0A3DADB2BD420FD80C4C26800C4C74
:105EF00021800C4900240A800B4A1380FFF716FF0B
:105F00000A4B0421187806F01FFC2000F8BDC0469B
:105F10000D65FF1F790C0000750C00001E42FF1F6D
:105F20001C42FF1F1A42FF1F1842FF1F0E65FF1F72
:105F3000F0B50BB20E0089B0002B00DB9BE1B44D35
:105F4000287806F031FC041E5ED00378A22B00D125
:105F50004CE1D02B1AD0912B53D143780E2B50D13A
:105F6000AC4B82889A424CD1AB4B1B78052B48D165
:105F70008368032018567F2843D0A84B1B68002B4A
:105F80003FD05B68002B3CD098473AE080780728E8
:105F900037D806F0F1FA0800360026004D004D0013
:105FA0009000D20002016378002B0CD007229A4B9C
:105FB0001A709A4B1B68002B23D01B68002B20D033
:105FC000954A1078E0E70121934B1970944B1A78A9
:105FD000002AEED0934B287801F052FD0028E5D13D
:105FE000E7E761780029E1D1E378002B11D08E4AF0
:105FF0008E4B1278287801F043FD60706378002B97
:10600000D4D1200006F0A0F980200002704009B031
:10601000F0BD814B1B78022BF3D00121287806F0CC
:106020007BFA0028EAD10121287806F0E5FAE5E7B5
:106030006278794F002A39D1032807D13B78052BA4
:1060400002D101333B70B4E70223FBE7784B1978A8
:1060500000290BD01A703B78053B012BD1D90121C7
:10606000744B2878197006F0C7FACAE7724B1A8881
:10607000704B0293002A0BD01B78002B03D0012118
:10608000287806F051FA3B78062B04D1013BD9E77A
:10609000029B1A70F7E7042B06D10121029B287896
:1060A000197006F0A9FA84E70323CBE70022604BBE
:1060B0001A700723C6E763785E4A574F0292002B97
:1060C00028D10622211D5D4806F016FA62895C4B34
:1060D0005C491A80A2895C4B1A80E3890B800521F8
:1060E00039705A490A805A4A1380228A594B1A80B9
:1060F000594B1B78012B09D11F2000F0D5FEFA2245
:10610000920042430421287806F00EFA0023029AF6
:1061100013704EE72878312B05D10121029B1970AD
:1061200003233B70BDE70723FA2201213B70029B4A
:106130009200197006F0F8F93BE7062200213F486B
:1061400006F0C2F90023414A04211380404A28780E
:106150001380404A138006F0F7FA0821287806F0E9
:10616000F3FAA379083B5A4253412B4A0333137085
:106170002B4B1B78002B06D02E4B28781A78002A40
:1061800006D001F0BBFC01222D4B52421A8010E7D1
:106190000121197006F030FAF5E70821287806F099
:1061A000D3FA6378002B00D02BE7284B294F0293BA
:1061B000E388029A04211380254B287803932389CE
:1061C000039A138063893B8006F0A6F9002800D06B
:1061D00017E7224B1B68002B00D112E703990298A6
:1061E0003A88098800881B6898470AE74379132B87
:1061F00000D006E70389012B34D1194B1B78022B01
:1062000030D10821287806F09FFAFFF701FEF8E662
:106210000E65FF1F051400000D65FF1FA864FF1F1A
:106220004842FF1F2942FF1FE264FF1FC364FF1F94
:10623000E664FF1FE764FF1FE464FF1FB564FF1FF0
:106240002042FF1FBC64FF1FBE64FF1FB264FF1F1C
:10625000B064FF1FAE64FF1FB464FF1FA464FF1F80
:10626000AC64FF1F052000F01FFE08210200287803
:1062700006F05AF9C5E68020C001014200D0C5E60B
:10628000CB0738D5354B1B78002B24D0344D05ACCB
:106290002B78052B21D1023B2370324B324F1B78D8
:1062A00021002372314B38781B78637201F08CFB2C
:1062B000002810D0FA2207230121387892002B7091
:1062C00006F032F92A4B1B68002B04D01B68002B08
:1062D00001D028789847012098E60E20254B062209
:1062E0001B7825492370254B1B78637002ABC018BF
:1062F00006F002F9D1E7022308001840194209D03C
:10630000174B1B78052B03D11D4B188806F0FCF8A2
:1063100002207BE60424214203D0FFF707FD200082
:1063200074E6082308001840194200D16FE6154BA7
:106330001C78012C03D0022C0DD0082066E6124BED
:10634000124A134913481B88128809880088009450
:10635000FFF7AEFDF1E7FFF75BFDEEE7E764FF1F38
:106360000D65FF1F2242FF1F0E65FF1FC064FF1F48
:10637000A864FF1FC264FF1F2342FF1FC164FF1FE9
:106380002042FF1FAC64FF1F1842FF1F1A42FF1F6D
:106390001C42FF1F1E42FF1F10B502A804880B20DD
:1063A000002C10D1496808784978090201430C484B
:1063B000814209D1022119800A4B59881170DB787A
:1063C00000205BB2537010BD074C0A20A142FAD1E5
:1063D00002211980034B998811705B79F0E7C04660
:1063E0006E2A0000C061FF1F6F2A0000F7B515007C
:1063F00008AA16884A680F4F14785278120222436E
:106400000A24BA4214D10122DBB2019200962A007A
:1064100005F046FE041E0BD1074B1B68002B07D06E
:1064200068782A7800021043424250410130984770
:106430002000FEBD022900002065FF1F30B50125A8
:1064400003790400BFB02B4225D01449408805F0E1
:1064500097F928420CD0124B01A95B8D60880B8004
:1064600002234B800F4B00225B888B8002F044F9A3
:106470000D49608805F084F9C0070CD50B4B01A9C4
:106480001B8800220B8002234B80064B9B888B804D
:10649000608802F031F93FB030BDC0461865FF1F7B
:1064A0004C42FF1FC061FF1F1065FF1FA642FF1F68
:1064B00010B50749074805F019F90749054805F0DF
:1064C00015F90721054A064805F0D2F810BDC04667
:1064D0001865FF1FFFFF00001065FF1F4CC900116A
:1064E0004C42FF1F10B5024802F08AFF10BDC046A3
:1064F0003D6400110200F0B501270A480A4E511808
:106500008B1A002B00DCF0BD082415784308684086
:1065100038404000805B013C58406D08002CF5D1AC
:106520000132EDE7FFFF000066C90011F0B500255C
:106530000F269D4200DBF0BD4C5D0709444034400E
:10654000A400A05801357840F3E7000070B50C00B6
:1065500088B06B460F2610340A78013115001209F5
:1065600035401D705A700233A142F5D1202369468F
:10657000024AFFF7DBFF08B070BDC0466CC90011CE
:10658000F0B54E780B7889B036020C0017000190F8
:106590001E43012A61D9954B9E4200D877E0013312
:1065A0009E421CD1062A17D1CA788B7812021A4350
:1065B0000B791B0413434A7912061A438C4B5A6118
:1065C00000221A705A808B4A5A608B4A9A608B4A12
:1065D000DA60002009B0F0BD88225205EEE7884B52
:1065E0009E423CD182498B78002B00D0F6E00C2AE9
:1065F00031D10F22A3789343E27812021343227918
:10660000120413436279120613434B60E279A079B6
:1066100012020243207A00041043627A12060243F7
:10662000CA60E27AA07A1202024376484A81834223
:1066300008D804236E49142201980B7005F05CFF02
:106640001420C7E71201D21889235B059A42F0D8BB
:1066500001238B70BDE7022AFAD00523EAE76A4AD4
:1066600001239642E6D1FFF7D3FB052F0CD9E3783F
:10667000A2781B021343227912041A4363791B0682
:106680001343624A0393136005F096FFA1E7584D48
:106690002B78002B9DD1AB78002B00D1A0E02B896B
:1066A00001339BB20093B34200D091E0132AD4D9B6
:1066B000CF7C8B7C3F02122120001F43FFF71AFF83
:1066C000874200D08EE0002E3DD1E378A2781B02F5
:1066D00013432279E96812041A4363791B061343B2
:1066E00003930A228B4212D1FF23A370E37023711C
:1066F00063716B89002B09D1E37B227C1B0212049E
:106700001343A27B13431B0901336B8100226B8966
:10671000002B8ED0002A67D1686837013818000B2B
:106720006B6900030390984205D9686105F0B4FED7
:10673000EB780133EB7068681022A11C381805F063
:1067400063FF2E8145E76F89009A7B1E9BB29342BF
:106750003AD1E278A37812021A43237905A81B04E0
:10676000134362796C6812061A43EB680092039235
:10677000211D0C22049305F0BFFE0120260004A970
:1067800040421036FFF7E2FE013F012F17D1009A79
:106790000B232861824200D04CE704221C492000D0
:1067A00005F032FF042203A9686805F0DDFEE96800
:1067B000039AFF23914200D13CE7F73B3AE73100CF
:1067C000FFF7C4FE1036DFE70923B742A4D831E74C
:1067D000009BB34200D9FCE607232BE7022329E7FD
:1067E000032327E7062325E70A2323E7FFFE00000C
:1067F000C042FF1F00000111FFFF00005048593642
:1068000001FF0000FFFF001102FF000034F0004014
:10681000CC42FF1F10B5034C0B000122210000F0F9
:106820006BFA10BDD56900110B8870B506000D001C
:106830000224162B11D92B000322094900F05CFA1F
:10684000041E0AD1074B2A881B88191C934200D9C1
:10685000111C300089B200F0EDFA200070BDC04676
:10686000016A00113665FF1F10B54A780400013A2D
:106870000B000220012A07D80A78002A04D005223A
:106880002000024900F038FA10BDC0462F6A0011FE
:106890000A7810B50B0004000220002A04D0072259
:1068A0002000024900F028FA10BDC046DB6A001142
:1068B0000A7810B50B0004000220002A04D0092237
:1068C0002000024900F018FA10BDC046416B0011CB
:1068D00010B5034C0B000B22210000F00DFA10BD87
:1068E000716B001110B5034C0B000D22210000F05C
:1068F00003FA10BDE36B001110B5034C0B000F221F
:10690000210000F0F9F910BD3D6C00110A7810B5B6
:106910000B0004000220002A04D0112220000249AA
:1069200000F0EAF910BDC0464D6C0011002310B50F
:106930001322190000F0E0F910BD000010B5034C5F
:106940000B001722210000F0D7F910BD9F6C001139
:10695000002310B51922190000F0CEF910BD000077
:1069600010B5034C0B001B22210000F0C5F910BD2F
:10697000D96C0011F7B584890D0006000121002CA7
:1069800022D000238268D3561778002B1EDA0C2CF5
:106990001AD90C3CA4B2131940880093230002F0CA
:1069A00090FE431E984101307B06DB0F6B703F2346
:1069B000013C1F40A4B22870AF70AC80002C07D0FF
:1069C000B3680133AB6000210800FEBD0020EBE797
:1069D000AC60F8E70B7803704B8843704B881B0A58
:1069E00083700B79C370042070470420022B06D1FA
:1069F0000020537811781B02009A0B4313807047D4
:106A00000B8803700B881B0A437002207047042018
:106A1000009983420AD1537810781B0203430B80FC
:106A2000D37890781B02034300204B807047F8B561
:106A30000D004B7801240021461C03702B788B42FB
:106A400001D82000F8BD6B78B01C4F1C012B10D171
:106A5000890069184B88022233704B88B9001B0AE1
:106A60007370691805F078FC04360434A4B2F9B2E6
:106A7000E4E7122359436B185A88043132705B885B
:106A800010221B0A7370691805F066FC1236123466
:106A9000ECE770B5049D14001E00052B01D80420FE
:106AA00070BD637812781B0213432B80E378A278C1
:106AB0001B02134302226B802A71211D681D063EB2
:106AC00005F04AFCB2B22A81E92AE8D82800A11DC3
:106AD0000A3005F041FC0020E2E7002310B50A78F7
:106AE0009A4201D8900010BD9A008A185488013348
:106AF00004705488DBB2240A4470948884709288AD
:106B0000120AC2700430EAE710B51100029C062B8D
:106B100004D004201022142B01D010BD02222271B7
:106B20004B7808781B0203432380CB7888781B02BC
:106B3000034363800431601D05F00EFC0020ECE788
:106B400010B50C788B7804315C43E4B203702200FA
:106B5000013005F001FC601C10BD0420022B06D1A1
:106B60000020537811781B02009A0B431380704762
:106B700010B50C000A88023105F0EEFB208810BD2C
:106B800070B504000D0004981100012B01D80420F9
:106B900070BD167852781202324302800200F13240
:106BA00055701470E125002C00D10C35023B9AB2CF
:106BB0004280AA42EBD80231043005F0CDFB002020
:106BC000E6E70420009983420AD1537810781B022B
:106BD00003430B80D37890781B02034300204B8043
:106BE000704710B50C000A88023105F0B5FB20880B
:106BF00010BD000070B501211E000420049C0E4051
:106C00000B4218D1CB40DDB28D4214D90A49DBB218
:106C1000098899420FD32300EE331D7033005800CA
:106C200011184978165C0902314301332152D9B257
:106C30008D42F4D8002070BDD842FF1F10B50C0063
:106C40000A88023105F088FB208810BD10B50C7849
:106C50008B7804315C43E4B203702200013005F00C
:106C60007BFB601C10BD10B511000298032B01D8EE
:106C7000042010BD14785278043B12022243028093
:106C8000CA788C781202224342809AB28280EB2A20
:106C9000EED80431063005F05FFB0020E9E710B5BF
:106CA0000C000B8803700B881B0A43704B888370A1
:106CB0004B881B0AC3708A880430063105F04CFBF0
:106CC000A088043080B210BD0420012B03D1002025
:106CD0001378009A1370704710B50C000B8803707E
:106CE0000B881B0A43704A880230043105F034FBDC
:106CF0006088023080B210BDF0B589B003931D4B9F
:106D0000029242000700D05A019102F022F81325A6
:106D1000061E2CD0029B01240370019B002B04D083
:106D2000001903999847001984B26B461B7A5BB22D
:106D3000002B0FDA1021380002F01CFB1925002867
:106D400012D130003219E1B202F070FC051E0BD1F5
:106D50000C34A4B2042305A938000B800C814E60CA
:106D600001F0B2FD051E02D0300005F00DFA28003A
:106D700009B0F0BD3465FF1F70B505000C00002898
:106D80000CD00020814209D010222000044905F0D7
:106D9000E3FA01202B7823736B78637370BDC046D0
:106DA000ACC90011F0B506000D0017001C0085B03D
:106DB00002291BD00020102907D1022B07D0102B4D
:106DC00003D115E00020102C08D005B0F0BD6946B5
:106DD0003800FFF7D1FF2A0069460BE06946300012
:106DE000FFF7CAFF22006946380004E0022BE9D110
:106DF0002A003900300005F077FCE6E7031CF02894
:106E000000D9F023032008499AB2013A0B80D31726
:106E1000034006499B189B100B80D30F04499B1815
:106E20005B100B807047C046DC42FF1FDA42FF1F39
:106E3000D842FF1F034B1B888B4202D3024B4000FA
:106E4000C1527047DC42FF1F3465FF1F014B4000F9
:106E5000185A70473465FF1F1722014B1A8070477C
:106E60003465FF1F70B505000E2005F0EDFA041E15
:106E700013D0D02303700023062283700749457086
:106E8000033005F069FA064B2100DA8A62811B7E25
:106E90002373044B187805F087FA70BD5065FF1F07
:106EA0004065FF1F2C43FF1F262803D8024B4000DC
:106EB000C05A70470148FCE7DE42FF1FFFFF000099
:106EC00070B506000C00094D1C220021280005F0B9
:106ED000FBFA074B1E70074B1C7005F08DF9012360
:106EE000002801D0002312202B7070BD4065FF1FC9
:106EF0002C43FF1F6165FF1F70B505000D4C080096
:106F0000E260A16010220021656005F0F5F901281A
:106F100003D11021A06802F061FD10220021280099
:106F200005F0EAF9012803D11021606802F056FD4E
:106F300070BDC0464065FF1F70B5041E05D1002915
:106F400003D006220D4805F007FA0D4B1D78012DE0
:106F500011D1002C05D102221A7005F02DFC280059
:106F600070BD00221A70074B1B78FF2BF7D0200052
:106F7000FFF778FFF3E70025F1E7C0465065FF1FF4
:106F80004065FF1F2C43FF1F030010B5002801D1EF
:106F9000002010BD00780B4A002803D15988D18207
:106FA0001B7913761378022BF2D10023984200D17B
:106FB00003331370044B1B78FF2B01D0FFF752FFF4
:106FC0000120E6E74065FF1F2C43FF1F002911D079
:106FD00000280CD04B79012803D1402252421343A0
:106FE00003E03F221340032802D001204B71704779
:106FF0004022F4E70800FAE770B5094D010028784F
:1070000000280BD0074C0622200005F0A5F921002E
:107010002878FFF7DBFF200005F02EF970BDC04691
:107020006065FF1F3A65FF1F00290AD0012808D1BB
:107030003F224B799343C02B03D0403B5A425341EC
:10704000981C704770B5174D06002B78FF2B15D094
:107050000A2005F0F9F9041E10D0D0230370C83BB4
:107060008370114B11491B784670C370062204309F
:1070700005F072F92100287805F096F90C4B1B7881
:10708000012B0DD10B4B1B68002B03D09B68002BF1
:1070900000D09847084B04211878084A05F0B4F945
:1070A00070BDC0462C43FF1F6065FF1F3A65FF1F80
:1070B0005C65FF1F8865FF1F8C65FF1F60EA00008D
:1070C000014B98687047C0464065FF1F014BDB6865
:1070D000186870474065FF1F074B10B5DA681368E2
:1070E00001331360054B1878FF2803D08021C901B4
:1070F00005F082FA10BDC0464065FF1F2C43FF1FFC
:10710000F7B50E0002F0CAF8051E1CD00E4B066241
:107110001F78002F00D10778AB791020019305F07C
:1071200093F9041E0FD0D0230380C73B8370019BCB
:10713000E91DC3700622043005F00EF92100380065
:10714000E66005F031F9F7BD2A43FF1F014B1878BF
:107150007047C0466065FF1F054B002805D1054BF1
:107160001A78054B002A00D1014B18007047C04621
:107170005065FF1F6065FF1F3A65FF1F014B586890
:107180007047C0464065FF1F024B1868431E984178
:10719000C0B270476465FF1F421E03000120152A1C
:1071A00003D9FF3B5A425341D8B27047F0B51C0097
:1071B00000230E0085B0039002920B70029A934256
:1071C00001D3002019E0E55C5A1CD2B2002DF8D0A2
:1071D000029851198142F4DC0233DFB2A35C18003B
:1071E0000193FFF7D9FF002807D0013D019A0399C9
:1071F000EBB233708A4202D1E01905B0F0BDDB1961
:10720000DBB2DBE710B50C0002F0A0F8030012209F
:10721000002B03D02100588804F0CEFF10BD0000E1
:1072200070B50E4D84006359002B15D0186A0028E4
:1072300001D004F0F1FF2B59586A002801D004F066
:10724000EBFF2B59986A002801D004F0E5FF28597C
:1072500004F0E2FF00232B5170BDC0467065FF1F94
:107260001C4B70B504000E00150099420AD11A4B50
:107270001B68002B01D1122070BD1B68002BFAD0B7
:107280009847F9E7154B994215D1134B1B68002B12
:107290000AD01B68002B07D09847002804D1104B58
:1072A0001C70104B1D70E7E729002000FFF7AAFFB4
:1072B0000028E1D1F3E7080001F0F0FF0028DAD060
:1072C00003780320A342D7D12900300004F074FFD3
:1072D000D2E7C046FEFF00006C65FF1FFFFF000005
:1072E0006965FF1F6865FF1FF7B50400808801F01E
:1072F000D5FF0025A84203D00578A08802F00AF83F
:107300001C4E3378002B1FD0AB421DD11A4B2800E6
:107310001978FFF777FF002818D000233370A3797E
:107320000820A778A688019305F08EF8011E0DD0DD
:10733000D0230370CA3B8370019B477086808371A2
:10734000280005F031F801E0002DE8D1A0880B4BB2
:107350008200D358002B01D0FFF762FF1721A088CD
:10736000FFF768FDA08801F02BFDA08801F002FE68
:10737000F7BDC0466965FF1F6865FF1F7065FF1F89
:10738000F0B587B01D000CAB1B88070001930DAB57
:107390001B88142002930EAB1B88160003930FABBF
:1073A0001B880091049310AB1B88059305F04CF8E3
:1073B000041E1AD0D0230370CB3B47708370C67075
:1073C000062229000430002D11D004F0C5FF019BD6
:1073D00021006381029B0098A381039BE381049BAE
:1073E0002382059BA37404F0DFFF07B0F0BD05F016
:1073F0006BF8ECE7F7B5009308AB1B8807000C208F
:107400000D001600019305F01FF8041E13D028008C
:1074100001F044FF00280FD00078D0232370C93B2F
:10742000A370009B21002381019B6770A580E680EB
:10743000638104F0B9FFF7BD014B1878EDE7C04652
:107440002C43FF1F13B5040064890389C288818817
:10745000C0780094FFF7CEFF13BD000010B5044CB8
:107460002068002803D004F0D7FE0023236010BD5D
:107470007465FF1FA122F0B5818892004A43384B02
:10748000384F1B6889B09B189D2292009B18827907
:1074900004001A603B68002B5FD01D78324B1B68DC
:1074A000002B04D05B68002B01D0002098472600F9
:1074B00008363100E079FFF7B7FD237DE071020067
:1074C000E0780493638A29000393238A0293E38973
:1074D0000193A38800933300FFF752FFE378002B5A
:1074E0000BD1E289A379A18802920196E279280062
:1074F0000092012201F0DCFEE0703B68002B20D0FE
:10750000FFF7ACFF194D287800281AD0184B1978CE
:10751000FFF778FE002814D02B780820A788E6789B
:10752000079304F091FF011E09D0D0230370CA3BDA
:107530004670837087808671079804F035FF0023BA
:107540002B701721A088FFF775FCA08801F038FC8C
:10755000A08801F00FFD09B0F0BD064B9DE7C046C5
:107560003409FF1F7465FF1F8865FF1F6965FF1FD2
:107570006865FF1F2C43FF1FF8B5070008000E00C9
:1075800001F08CFE041E18D02620FFF78DFC051E8E
:1075900000D12578062004F057FF041E0DD00021ED
:1075A000062204F091FFD0232370C23B21006770B4
:1075B000A370A680E8B204F0F7FEF8BDF0B585B080
:1075C00001930AAB1B78070002930BAB1B780800F2
:1075D0000D000092039301F061FE061E22D01020E0
:1075E00004F032FF041E1DD01022002104F06CFFB5
:1075F0002620FFF759FC002800D13078D0232370D3
:10760000C13BA370009B21002372019B67706372D2
:10761000029BA580A372039BC0B2E3720C9BE36044
:1076200004F0C2FE05B0F0BDF7B50D00019001F009
:1076300035FE071E1FD00E2004F006FF041E1AD0D0
:107640002620FFF731FC061E00D13E78D023238090
:10765000C53BA370F91D0622E01C04F07DFE019BD2
:107660002100638101232B40AD07ED0F2373657368
:10767000F0B204F099FEF7BDF0B585B002901000AD
:107680000D0017000A9E039301F008FE041E31D07E
:10769000029B002B2ED1039B02795B0724D512237A
:1076A00013430422002E08D10B99002905D10C990F
:1076B000002902D10D9900291AD01A430D9B22717D
:1076C000002B00D0C9E0002E00D1CFE0002D00D06B
:1076D000CCE0606A002801D004F09EFD1C2130003F
:1076E00004F0FAFF606205E002239A430E33D7E705
:1076F00093432371654BBA00D458002C00D1AAE003
:10770000002E10D0236A002B03D11C2004F05CFF54
:1077100020625E4BBA00D358186A002803D01C229E
:10772000310004F019FE0C9B002B12D0574CBB000B
:107730001D596B6A002B03D1162004F045FF6862C7
:10774000BB00E358586A002803D016220C9904F0B5
:1077500003FE0D9B002B11D04C4DBC006659B36A43
:10776000002B03D1142004F02FFFB0622B59986A2C
:10777000002803D014220D9904F0EEFD380001F02A
:107780008DFD051E67D0414BBA00D358002B62D047
:107790001A6A3420002A00D11C389A6A002A01D0C3
:1077A000143080B20B9A002A01D01C3080B25B6A80
:1077B000002B01D0163080B204F046FE041E4AD0E1
:1077C0001822002104F080FE2620FFF76DFB0190B7
:1077D000002801D12B780193D0232370029B200035
:1077E00063700A23294EA370039BBD00A371AB599C
:1077F000A780196A1830002905D01C22A06004F067
:10780000ABFD200034307359996A002907D003007A
:1078100014221433E060029304F09EFD02980B9B47
:10782000002B08D003001C221C330B99206102930B
:1078300004F092FD02987359596A002903D0162268
:10784000606104F089FD6B462100187904F0ACFDFD
:107850003800FFF7E5FC05B0F0BD10220D9B0D9937
:107860001B69A018236204F077FD2CE70B9B002B0B
:1078700000D13FE7012D00D03CE7606A002801D02D
:1078800004F0CAFC1C210B982AE7C0467065FF1F54
:1078900010B5044C2068002803D004F0BDFC002380
:1078A000236010BD6465FF1F0B4B07B51A68002AE3
:1078B00001D100200EBD6946531C0120127807310A
:1078C000FFF774FC0028F4D0027801231000184060
:1078D0001A42EED0EEE7C0468065FF1FF0B51F4F9D
:1078E00001203B6887B0002B25D09B78059300F0E2
:1078F000B3FB002821D00A20FFF7D6FA04000B20A2
:10790000FFF7D2FA164B05001E78731E9E413B68A6
:10791000F6B2191DD878FFF759FB3B682900DA7ACF
:10792000043303929A79019302920090330020006D
:10793000059A04F0A9FD07B0F0BDFFF7B5FF0028D8
:1079400005D00620FFF7B0FA04000720D8E708208A
:10795000FFF7AAFA04000920D2E7C0466465FF1FBA
:107960006065FF1F70B50A4E040033780D00FF2BD1
:107970000DD0042004F068FD011E08D0D023037050
:10798000CE3B45708370C470307804F00DFD70BD3F
:107990003C43FF1F70B5040006200D0004F054FDA9
:1079A000011E0AD0D0230370CD3B8370054B447079
:1079B0001B688580187804F0F7FC002C01D0FFF7D5
:1079C00067FF70BD6465FF1FF8B5264F06003B6872
:1079D0000D001124002B05D10522234B1B781342E7
:1079E00002D112242000F8BD204A10241268002A77
:1079F000F8D01278002AF5D0DB0719D52B789A1E1B
:107A0000012A1AD80C2004F0DFFD13243860002866
:107A1000E8D000230A22437029000670023004F0E7
:107A20009BFCFFF75BFF041E0AD0FFF731FFD9E78D
:107A300000F012FB0028E1D1E4E7002BE2D0D0E710
:107A40000B4B1B78032BCDD11D20FFF72DFA094BD3
:107A500018800028C6D0084B04211878074A04F083
:107A6000D3FCBFE76465FF1F6165FF1F8065FF1FD3
:107A70006065FF1F5E65FF1F8C65FF1F60EA0000E9
:107A8000F7B50193194B14001A78052306000F006F
:107A900012201A4221D0012920D1154B1D68002D3A
:107AA0001BD002201F2C18D8002C02D0019B002BC9
:107AB00013D0104B1F221E706E1C0021300004F0EA
:107AC00003FD01992200300004F046FC3100200043
:107AD0002C70002F06D004F077FCFEBD064B122060
:107AE0001D68DCE704F058FCF7E7C0466165FF1F3E
:107AF0008065FF1F3C43FF1F7C65FF1FF8B50F4EDD
:107B000012243368002B17D01B780F3C834213D10B
:107B100000250B4F0221387804F016FE094B042192
:107B200038781D8004F010FE074B28001D80336854
:107B30005C7004F0C1FD04002000F8BD6465FF1F07
:107B40008C65FF1F7865FF1F5E65FF1F70B50128FC
:107B500023D11B4C2388002B03D01A4A1578002D03
:107B600007D0194B1B68002B02D01878FFF7C6FF0F
:107B700070BD3B2B02D93C3B2380F9E7134E022119
:107B8000307804F0E1FDFA222388920002215A4362
:107B9000307804F0C9FC2580EAE70B4B1B68002B0A
:107BA000E6D00B4B1B785B07E2D5084B0221187817
:107BB00004F0CAFD0022024B1A80FFF769FED7E7E6
:107BC0007865FF1F5C65FF1F6465FF1F8C65FF1FE5
:107BD0006165FF1FF8B51E4D2868002803D004F02A
:107BE0001BFB00232B601B4E3068002803D004F0E1
:107BF00013FB00233360184F05243B781800204006
:107C0000234221D0154800F02BFA3B78234213D0B1
:107C1000202004F0D9FC2860002813D02022002165
:107C200004F052FC202004F0CFFC041E306005D08C
:107C30002022002104F048FC002004E0286804F021
:107C4000EBFA2C601320F8BD00F00AFAF4E7C04606
:107C50008065FF1F7C65FF1F6165FF1F3043FF1FAD
:107C600010B50A4C23681A1E0ED0002808D1013026
:107C7000587004F021FD002805D02368002B02D0A5
:107C80000021FFF787FE0122100010BD6465FF1F71
:107C9000F7B5274E050033680191181E21D05C7896
:107CA000244F012C30D1FFF7FFFD002825D0200004
:107CB000FFF7FAF80400412814D91F4B0221187865
:107CC0001E4A04F0A1FB1E4B3C3C1C800222336880
:107CD0005A703B78002B14D128000199FFF75AFE07
:107CE0000120FEBDFA2292004243002AEED0124B40
:107CF0000221187804F018FCE8E7FFF7D5F8020035
:107D0000F3E700233B70EBE73B78002BE8D103203F
:107D100004F09AFB011E08D0D0230370CC3B4570C1
:107D200083703368187804F03FFBFFF7B1FDD7E7A5
:107D30006465FF1F5C65FF1F8C65FF1F60EA000024
:107D40007865FF1F10B51749838802008B4220D049
:107D500011D815498B4217D0144900205B1899B2ED
:107D6000012907D8926811785A425341D8B2FFF7D7
:107D7000F9FD012010BD0E4A00209B1807229BB27E
:107D80009A424041C0B2F5E783681878FFF768FF70
:107D9000F0E7836899785A78090218781143FFF759
:107DA00077FFE7E70A20000006200000F8DFFFFF6A
:107DB000AFDFFFFF014B18707047C0463D43FF1F08
:107DC00010B5064C207001F045FA207804F08CFACA
:107DD0000521207800F068FD10BDC0468C65FF1FAE
:107DE0000BB273B50D00002B00DBC4E0884B187894
:107DF00004F0DAFC041E0ED00378912B0FD0A22BD6
:107E000000D1A1E0834B1878FF2852D0210004F064
:107E1000CBFA00284DD180200002684076BD43781F
:107E20000F2B76D013D8052B70D00E2BEAD180887B
:107E3000794B98422BD8794B98421BD8784B984273
:107E4000E0D1A3681878591CFFF776F838E03E2B8C
:107E5000D8D18378032B74D06CD8012B6ED0022B31
:107E6000D0D1704B1B68002B23D05B68002B20D037
:107E700098471EE06C4BC0180C28C3D804F024FAB5
:107E80001DC2C2150BC20B0B0B3223C23C00674B49
:107E9000C0180728B6D8664B1B68002B09D01B6892
:107EA000002B06D0200098470AE0A3681878FFF757
:107EB000C9F8200004F048FAADE7A068FFF764F8BD
:107EC00000289FD0F5E7A3681B78002BF1D0554B15
:107ED0001B68002BEDD01B68002BEAD02100554811
:107EE0009847EDE74F4B1B68002BE2D01B68002B37
:107EF000DFD021005048F3E7504B1B68002BD8D04F
:107F00005B68002BD5D021004348E9E7FFF7ECF987
:107F1000CFE780884A4B984203D04A4B984200D022
:107F200070E7464B1B68002BC3D05B68002BC0D0AA
:107F30002100D5E7153B012BBBD963E7FFF79AFA80
:107F4000B7E7FFF77FFAB4E73F4B1B78042B07D165
:107F500000236A4613800179408800F0CBFCA8E733
:107F6000364B1B68002BA4D05B68002BA1D001000E
:107F7000364898479DE7012421420AD0294B1B68C7
:107F8000002B04D05B68002B01D000209847012013
:107F900043E78B070AD5264B1B68002B04D05B6890
:107FA000002B01D020009847022036E7042128004A
:107FB00008400D4200D131E7254E3388002B21D0F7
:107FC000013B9BB23380002B1AD1FFF7DDF800286C
:107FD0000AD0204B1C70164B1B68002B04D05B682A
:107FE000002B01D020009847FFF7C8F8694601F040
:107FF0000CFD6846FFF700F81D20FEF755FF3080A6
:1080000004200AE7024B187804F09EFBF8E7C0460C
:108010008C65FF1F3D43FF1F0E2000000120000064
:10802000091000008465FF1FFEDFFFFFAFDFFFFFC9
:108030008865FF1F0C2000000B2000006C65FF1FEF
:108040000D200000132000006165FF1FFFFF0000EE
:108050005E65FF1F5C65FF1F10B501F09FF910BD45
:10806000014B18607047C0468865FF1F0B880020D1
:10807000162B01D817230420014A13807047C046ED
:108080003665FF1F00207047074A030011888142B0
:1080900007D091880020994202D101308000101849
:1080A00070470020FAE7C0469465FF1FF0B58F784F
:1080B00006000D00C5B01E2F15D1FFF7E5FF051E08
:1080C00003D10024200045B0F0BD00223B00310068
:1080D000C078009200F0B8FB0400A81C00F0D8FBA8
:1080E000FF23EB70EEE7264B062403931B78FF2B50
:1080F000E8D0182FE6D87B08224A013BDB00029229
:108100009A589446002ADDD0029AD3185B68002B57
:10811000D8D00878002802D14B78012B02D1062450
:10812000122FCFD107AFAB88697800976446AA6851
:10813000A047041EC6D1AB78029A5B08013BDB0066
:10814000D318390030005B689847041E0BD1AB7818
:10815000042BB6D0039A310010782200009700F06B
:1081600073FB0400AEE76A78002AABD1AA7805A9B0
:108170003B88087130000A704B80FEF74BFBA0E78C
:108180004043FF1FBCC900111D4B37B50500984285
:108190000BD000290AD1FFF777FF002805D1194835
:1081A000FFF772FF002800D0058037BD01291AD1E2
:1081B000FFF76AFF041EF8D001235B420380A37817
:1081C000FF2BF2D0FE2B07D00023E078142200937F
:1081D00029001E3300F038FBA01C00F059FB0123DE
:1081E0005B426380E1E70229DFD1013901F0C2F887
:1081F0000028DAD12800FFF747FF041EDFD1D4E7BB
:10820000FEFF0000FFFF0000022210B5074B5242A4
:108210001A80074801325A809A80DA8000F084FA86
:10822000044801F029F8002010BDC0469465FF1FE6
:10823000AD800011898100110388F7B50400002B7F
:1082400002D102252800FEBD42680221137825488C
:108250005268FEF7A7FD00282ED0234F01253A884B
:10826000002AEFD0802321885B0201259B1A9942C6
:10827000E8DC0C2004F0A8F9061E31D03B882288E7
:108280009C4600231800019561469DB2491989B2A8
:10829000AA421BD8002801D062443A800023300053
:1082A000082208C0210004F057F8104A1368002B78
:1082B00013D100251660C5E76268022113780C48C7
:1082C0005268FEF76FFD0028C7D1BAE760681D014C
:1082D0004019418101330198D6E71A001B68E6E78F
:1082E0001325AFE72ACA00113E43FF1F9065FF1F09
:1082F00028CA0011014B18707047C0464043FF1F49
:1083000014230A0010B51A40194204D0012210218A
:1083100001F04CF810BD4B06F9D4C84302234000CD
:108320001840F7E710B514008B0604D50122102180
:1083300001F03CF810BD08230A001A40194202D18E
:108340004BB2002B0FDA102101F030F8002808D0D2
:108350002300F2331B78002BECD0F1342378012B6F
:10836000E8D10020E6E703208907FAD4E2E700001D
:10837000F0B51F00184B85B01C6801900291039264
:10838000002C27D1200005B0F0BDA5683301ED1801
:108390006B89019A934211D3029A93420ED8002F0F
:1083A00004D10A9B002B10D12C00EBE73B0029786D
:1083B000039A6868FEF7F6FC0028F2D10136B6B2DF
:1083C000A388B342E1D82468DAE7A3680A9A5B89F4
:1083D0001380E9E70026F3E79065FF1F37B50C002F
:1083E0000A8849880123914217D3002A15D0651DB8
:1083F00023792A0002210A48FEF7D4FC1023002822
:108400000BD023796188208800242A000094FFF78C
:10841000AFFF0A23A04200D0230018003EBDC04693
:108420002ACA001113B50A00088849880123884226
:108430000BD8002809D00024137905320094FFF7E7
:1084400097FF0A23A04200D02300180016BD13B5E1
:108450000A0008884988012388420BD8002809D0DF
:108460000024137905320094FFF782FF0A23A0420B
:1084700000D02300180016BDF0B58BB003904A88D9
:1084800008880E000123824213D3002811D0002354
:10849000012704AC23700022718813000092FFF7BB
:1084A00067FF05002078002D06D122780A23002AD4
:1084B00041D118000BB0F0BD002835D12B78022B2C
:1084C00018D167706A8983000130E31880005A80F0
:1084D00069680222201803F03FFF23780133DBB2E2
:1084E0002370042B19D93B006889013080B2002B1E
:1084F000D1D0DAE702236370122358436A89231824
:1085000004305A8069681022201803F025FF237870
:108510000133DBB22370002BE5D10A4A6B899B182B
:108520005A425341DBB2DFE76378012BE4D12B7869
:10853000022BC7D0B9E721000398FEF795F9002375
:10854000B7E7C0460100FFFF0F4BF0B50400186805
:10855000002816D083685D89A54207D88288AE18A6
:10856000B44203DA12019A18934201D10068EFE78E
:108570001E005F891036A74204D1002900D00D806B
:108580001800F0BD3300EFE79065FF1F70B50500E0
:108590000C0008880021FFF7D7FF03000120002B03
:1085A00004D022002800197AFFF7BCFE70BDF7B591
:1085B0000C00002501902300EE331B78AB4201D85C
:1085C00000200AE06B00E65A00213000E718FFF7B0
:1085D000BBFF002802D126800130FEBD017A019840
:1085E000FFF78EFE002802D03B882380F5E7013597
:1085F000EDB2E0E710B5040008880021FFF7A4FF02
:1086000003000120002B03D02000197AFFF778FE29
:1086100010BD0000054B1B68002B01D1180004E0C1
:108620009A6852898242F6D1988870479065FF1FF8
:10863000F0B50E27002687B0039302ABFF183E80EB
:1086400005001F4B40891400984207D02B78013059
:1086500000976A6880B2FFF78BFE060002212B7834
:1086600018486A68FEF79EFB00280FD06C8920002E
:10867000FFF7D0FF002802D0013C0419A4B2039BED
:10868000002B00D01C80300007B0F0BD02212B78F9
:108690000D486A68FEF786FB0028E7D102212B7897
:1086A0000A486A68FEF77EFB002807D0002EDED05D
:1086B0003B88A342DBD17489013CDFE76C89DEE7AC
:1086C000FFFF00002ACA001128CA001126CA0011A3
:1086D00010B50C00FFF7D8FC03000220002B0AD0D5
:1086E000002C00D023609B781720FE2B03D001388C
:1086F000FF2B00D1002010BD73B50D0001A90400AF
:108700001600FFF7E5FF172805D0002E04D1290039
:108710002000FEF725F976BD01221021200000F08F
:1087200045FE0028F3D0F6E7014B18607047C046BD
:10873000A065FF1F37B56B469D1D01000400022296
:10874000280003F0D9FE2B88B02B0ED12379122BF1
:1087500009D12300FA331B78012B06D1012160884F
:1087600000F0E0F801E01B2BF8D037BD10B5054B49
:108770000421187000F098F8FFF746FDFEF76CFB37
:1087800010BDC046A465FF1F0020F0B50BB20F005E
:1087900087B0834234DA274B187804F005F8051EB9
:1087A0002BD00378A02B25D103AE3100FEF7E2F8E1
:1087B000041E0BD1B378DB0724D51F4B06341B688E
:1087C000002B03D03100688898470400A86800286F
:1087D00001D003F0D9FC002C08D1184A039B1340A8
:1087E000174A934206D0B3781B2B03D00121688827
:1087F00000F098F8280003F0A7FD802000027840E0
:1088000007B0F0BD0F4B1B68002B10D031006888FB
:108810009847041EDAD07378002BD7D1B27801A91B
:108820000A704B800C716888FDF7F4FFCEE70624D0
:10883000F1E7C046A465FF1F9C65FF1F00FFFF0016
:1088400000011200A065FF1FF7B50190FC200D008C
:1088500017001E0003F0F8FD04001320002C12D0B6
:10886000B02320002370089BF42267706580267176
:108870000830002B08D0190003F06EFD210001988C
:1088800003F092FD0020FEBD089903F01DFEF5E700
:1088900010B5041E06D00078FD2803D803F0E4FECE
:1088A000FF23237010BD00000A1F93B210B504000F
:1088B0000220032B05D882400020024BD1529B1886
:1088C0009C7010BDC465FF1F0B8870B5043B04008D
:1088D0000D000220032B0BD80121200000F04AFDDF
:1088E00003001420002B03D02900200000F0DEFB41
:1088F00070BD000007B51300034A00920A00012171
:1089000000F02CFC0EBDC046318B001107B5019262
:1089100003220092024B0A00122100F047FC0EBD18
:10892000AF8B001107B56B4601AA11800449D880AE
:1089300008780633012802D1190003F07DFC07BD39
:10894000A565FF1F0C4B10B518700023FF210B4AC3
:108950001380138193819380094A5380137051725D
:1089600093819372D174D3821375517703F034FCE1
:1089700000F0FCF910BDC046D465FF1FC465FF1FA1
:10898000A665FF1FF0B58DB06B46002003910C2249
:108990009B5E834200DBB1E05D4B187803F004FF7F
:1089A000051E00D1A5E00378902B00D09EE006AF15
:1089B00001004688380000F013FA796804000029A5
:1089C00000D19DE03B88052B6FD13B89032B1CD93F
:1089D00005AC200000F0A2F86288172A60D8398917
:1089E000131D994231D17968237804310291D90756
:1089F00038D5607800F08EF9071E06D00023037189
:108A00002378012B08D0132B23D0A868002800D18D
:108A100079E003F0B9FB76E06288029909A800F0DA
:108A2000A6F80290380000F08BF909AA2378387A6A
:108A30000192002231000092029A00F012F93800EF
:108A400000F064F9029B002BDFD0300000F080F9C9
:108A5000DBE70378032BD8D16288029909A800F0DC
:108A6000D6F8DEE709AF122B12D13800029900F0D8
:108A7000B4F8021EE9D127498B88002BC5D088792C
:108A80002378019761780091310000F0EAF8BCE7A3
:108A900000233A003B8061783000FFF72BFFB4E7FA
:108AA0001D4B09AA09936178F6E7042B02D09A1F9F
:108AB000012AAAD8174A043B9B00995A0029A4D03E
:108AC000D218907831003A0000F0ADF800289CD11F
:108AD0003B88042B03D001213000FFF723FF012C3A
