:020000041100E9
:103000007FB50023284C294D03932800217C284AB2
:1030100001F025FA002812D103232800217C03AAFD
:1030200001F0C4F900280AD1224B039A9A4206D132
:10303000214B2248E360224B636104B070BD02263D
:10304000217CFE2228001F4B009601F081F9002808
:1030500001D00020F1E71C4BA2899A42F9D1217CD2
:10306000FF222800194B009601F072F90028F0D1D8
:10307000E389174A934203D1164B17486361DCE793
:10308000164A9342E5D1164B164A1B68934206D95D
:10309000C02304222800217C9B0001F0C2F9124BBE
:1030A00012486361C9E7C0464461FF1FA441FF1F86
:1030B000813700005959530059598320DCBE001153
:1030C000B14100115061FF1F595900005261FF1FAB
:1030D0008305000069410011BCBE0011821500008B
:1030E0006861FF1F8713000005420011CCBE00116C
:1030F00070B5134D2B7C002B0DD0124C200001F02D
:10310000D5F8297C382907D1BA22200001F078F9B6
:10311000200001F009F970BDEB890B4A934206D1FA
:103120009023022220001B0201F07BF9F0E7074AFE
:103130009342EDD12000064A01F091F9E8E7C0463C
:103140004461FF1FA441FF1F83050000832000008E
:10315000A23000000022024B1A825A617047C0461A
:103160004461FF1FF7B5164B0192C318021D0020E2
:10317000009388235B05D3181B685C1C1AD09CB293
:10318000402C18D88D781E0CAC466746CD782D02A1
:103190003D43AE4206D1019800280ED110000C70BC
:1031A000240A4C7003249BB20733A343D218009B1C
:1031B0009A42DED3FEBD4432F9E71000FAE7C0467A
:1031C000FC0F0000802213B503000324019189B293
:1031D000520107319B18A14304305A1A88235B051A
:1031E000C3181B68591C03D190429241104016BD70
:1031F00099B2402907D80B000733A343C018904267
:10320000ECD30020F3E74430F9E7134B134A1B6873
:10321000126810B5FA24934201D81A00F824104B12
:10322000E4021B689A4210D813000E4A12689A42B0
:103230000ED3013307D1F823DB029C4203D10A49A4
:10324000054808F0F1FB200010BDFC24E402ECE787
:10325000FE24E402F7E7C04600C0071100D00711C2
:1032600000E0071100F00711FFFFFF7FF0B59BB0F2
:10327000150003900491402A5CD806AC618022803E
:10328000FFF7C3FF002221000600FFF76BFF0528B0
:103290000FD92388AB420CD1002D07D0504B2A0008
:1032A0000399C01808F0F0FC002802D101201BB0DF
:1032B000F0BD258030000699FFF784FF041E79D108
:1032C000069B0793FFF7A1FF80235B01C6188023AD
:1032D00007001B039E4201D1F826F60288235B05F6
:1032E000F31801931B68013302D0019808F04CFADF
:1032F0003C49019808F098FB3B1D0293331D059350
:103300008822029B52059B181B6808935A1C13D1F4
:1033100088235B05FF1839680198013908F084FBA0
:10332000380008F031FA30000799FFF74BFF04002E
:10333000002C41D10020BAE744219AB20091402AE2
:1033400004D80320D11D814389B2009104991B0C3C
:103350008B4224D0402A22D80122300008A9FFF74E
:1033600001FF021E1BD1380008A9FFF7FBFE040075
:103370000428DDD9009A059B9B1880225201B218BF
:1033800093422AD288235B05C118009A09A808F045
:103390002BFA134B009A09A9F01808F03DFC009A8B
:1033A000029B9446634402930F4B029AFB189A4285
:1033B000A6D3ADE70428BDD088235B05E0180699A5
:1033C00008F032FB0323EA1C9A4300D16EE7044B5A
:1033D0000399E01808F020FC68E70424ECE7C046F5
:1033E00004000011FFFFFF7FF80F000073B5040019
:1033F0001600402A1ED801AD6980FFF706FF0022A3
:1034000029002A80FFF7AEFE042810D92D88002E4F
:103410000BD0002C09D0321CAE4200D92A1C074B1D
:1034200092B2C118200008F0DFF928B276BDC0437F
:1034300000B2FBE703204042F8E7C0460400001159
:1034400037B5042204000D0001A81649FFF7CEFF8E
:10345000020004280BD1019BA34208D3AB4204D045
:10346000104901A80195FFF701FF01203EBD0E4C58
:1034700023682000019308F087F9019920000139A1
:10348000019108F0D1FA80235B01E418074B9C42BC
:10349000EED10422034901A80195FFF7E7FE0020C1
:1034A000E4E7C0465555000000C0071100000811B0
:1034B000F0B589B010226946234808F015FB234B6C
:1034C000009A6C469A4211D1019B0F2B35D8069970
:1034D000029A8C4618001100002604AD013808D26B
:1034E000002E01D00A00A160013229D10023A3607F
:1034F00023E04F1CF2D161460126EFE7103610227F
:103500002900300008F0F0FAA368A868013300D160
:10351000A060882329685B05C9186B6829601A03B5
:10352000120B6A60814203D03B4201D108F05CF982
:103530006368013B6360002BE0D1A06809B0F0BD77
:10354000E027014E3F03F6E70000011150485936CD
:1035500007B508F0F1FBFFF7ABFF002803D001909F
:1035600001984168084707BD10B508F0E5FBFFF773
:103570009FFF040008F0F8FA200010BD13B5040006
:1035800008F0DAFB002C03D0019401984168084749
:1035900013BDC0468022F8B5964C974BD20000214F
:1035A00020001C6008F0A8FB2300944A88331A60AE
:1035B000934B1A786A23002A00D01133E3620A235E
:1035C0002365904B37221B780820A3638E4B21186C
:1035D000E361102323628D4B3B256361C823DB002D
:1035E000A36123008C331A602823013AE26320642C
:1035F0006364CA67043A211DCA672100BC310D60AB
:103600002100C03108602100C4310B602100063563
:10361000CC310D602100083DC8310D602100D03152
:103620000A602200D43210602200D83213602200D7
:103630000227E032210017604222DC310A602100BB
:103640001B3DE4310D602100E83108602100EC31C0
:103650000B6023000521F43319602300F0331A6056
:103660002300183290331A6023009433186023002B
:103670001E3A98331A60AF23DB002360644BFA26AE
:103680002363644B644DE360644BF031A364230017
:10369000FF31FC33B600A16021611E60A562732575
:1036A000E5656D3D6565A56596255D4AAD00E264FD
:1036B000666258606766A56600270925A767E56604
:1036C000584F594D606720002567E2673A6015271B
:1036D0009C30676007001A2038602000A030070087
:1036E000212038602000A83007004C4838602000B6
:1036F000F830066026006427A436376026005F3F56
:10370000AC3637602600033FB03637602600C63738
:10371000B436376026000027B836376038269E60FA
:10372000424E96205E64424E5A66DE61414E9A6475
:103730005E62F53EFF3E9E621E269A67354A800015
:10374000DE661F675F67DD651D661862DA67BE2388
:10375000394A5B00E250394BD838235004302250AC
:10376000C4225200A350C623E4205B00E15004337E
:10377000334AE1503349344BD16034498000195009
:103780003349E938FF381950324904301950324969
:103790003248D16132491163324951631900F43121
:1037A0000860CE203049400011603049195019009E
:1037B0002F48F83108602F49D16582212E4A8900AF
:1037C0005A501A002D490832D1671A002C49B432D8
:1037D000116088212B4A89005A501A002A498832E0
:1037E00011602A4ADA6408F0BFF8012008F09CFA58
:1037F000F8BDC0460004FF1F5464FF1F206FFF1F69
:10380000D043FF1F4A0AFF1F3A07000080C3C901C7
:103810009A020000DC0500006A18000050C3000096
:1038200088130000F009FF1F204E00006509FF1FEC
:1038300068100000C409000040420F00102700007B
:10384000FC00FF1FC11BFF1F0000FF1F192CFF1FE3
:10385000A12FFF1F392EFF1F811FFF1F7926FF1F7A
:103860009D1FFF1F4D21FF1F0D1FFF1F9D28FF1FC5
:103870008529FF1F8D19FF1FA927FF1FD524FF1FB3
:10388000E124FF1F0D1EFF1FC51EFF1F851DFF1F0B
:103890000223F0B501250024594E91B03370594BE5
:1038A000594F1D703A680393584B29009A700420B1
:1038B000574A2300009408F037F98023DB059D6206
:1038C000FFF752FE534BC218C0239B029A4201D20B
:1038D000FFF754FE3C6008F087F9FFF75BFE08F045
:1038E00063F81F2201254C4B1A704C4B1D704C4B3A
:1038F0001C704C4B05AC19689143163A0A431A6088
:10390000602219689143403A0A431A6008F064F84B
:1039100008F062F9444B9847C120FF21434B8000D7
:103920001A588A431A50C522920098588843BF39C2
:103930000143995098583E4908408021C9010143EC
:10394000802099509958C0050902090A01439950ED
:1039500080213848490107F067FF03232A003649D0
:1039600000933648019508F067F82C22344905A8E1
:1039700007F03AFF6178207806F0F8FB023410ABCC
:10398000A342F7D12F4C304B226803201A40A023CA
:10399000DB0213432360802322689B0413432360CC
:1039A00022682A4B1A4080239B0313432360284A32
:1039B000284B934200D8012008F04EF908F08CF80B
:1039C00080232268DB0413432360307807F0DCFF98
:1039D000039B1878C0B207F06FFF08F025F90C4977
:1039E000042007F039FF06F0D9FD00F035F800F0AB
:1039F0004FFD00F0EBFD00F0E9F9002011B0F0BD43
:103A00004A0AFF1FD043FF1F34F000407461FF1FBC
:103A10003B000108000001E0480AFF1F490AFF1FA0
:103A2000680AFF1FBCF00040E1A2000000E100E0D6
:103A3000FF00FFFFD443FF1F5856FF1FD453FF1F43
:103A4000D8BD001114F00040FF7FF8FFFFFF9FFF7B
:103A50000080FF1F206FFF1F002210B511001120F2
:103A600007F09AFF10BD0000F8B500230926374F74
:103A7000374C3B62E3681120B343E36008F09CF8E5
:103A8000112008F081F9112008F00EF84023226877
:103A900080251343236080236268DB021343636045
:103AA000A3682C4A2B43A360A36802211340A360A0
:103AB0008023A2689B0113431022A360236C07207C
:103AC00093432364236C0F3A1343236480235B00E6
:103AD0003B62226B204B1A402263626B1A40626386
:103AE000A26B1A40A263E26B1340E363E3681B4AD4
:103AF0001340E36006F03AFB0121072006F04AFC80
:103B0000174B11205A6C15435D6408F0FDF8FD2138
:103B1000144B154A89005A508023C720626B5B03FF
:103B200013436363E36880003343E3600F4B104A41
:103B300019581140802212020A431A50802292051D
:103B40001A6008220B4B5A63F8BDC04600F00040D3
:103B50003CF00040FFFFDFFFEFFFEFFFFFFF7FFFC5
:103B6000003800400000FF1F5118FF1F00E100E077
:103B7000FF00FFFF0000054010B5FFF7B9FAE12094
:103B8000C00407F029FE10BD70B51A4CE388002B65
:103B90002AD0FA22D200934201D2FFF7EDFF236828
:103BA000E088A688C0188023711C89B2124D20605D
:103BB000A1809B00994218D3420A93B2C21AEB80AB
:103BC0002260A6800D4A642093420AD8FA2200207F
:103BD000D200934205D90A21180007F015FEC83813
:103BE000C0B200232872E38070BD07F0DDFF83B20E
:103BF000EB80E7E7D060FF1F5C61FF1FB70B0000A1
:103C000030B503A804880B20002C0ED14968074D5D
:103C100008784978090201430A20A94205D1012107
:103C200020001980024B1B7A137030BD192A000046
:103C30005C61FF1FF7B5150008AA16884A680F4F88
:103C400014785278120222430A24BA4214D1012273
:103C5000DBB2019200962A0007F01AFD041E0BD178
:103C6000074B1B68002B07D068782A7800021043A6
:103C700042425041013098472000FEBD0229000019
:103C8000E060FF1F30B5012503790400BFB02B426F
:103C900011D00A49408807F06BF828420BD0084B36
:103CA00001A95B8D4D800B80064B00221B7A60883A
:103CB0000B7104F01FF83FB030BDC046D860FF1F45
:103CC0001840FF1F5C61FF1F10B50549054807F04C
:103CD00005F80421044A054806F0C2FF10BDC0469D
:103CE000D860FF1FFFFF000004BE00111840FF1F37
:103CF00010B5024804F082FE10BDC046853C00119C
:103D0000012303700B4B1A7A4270022282709A7858
:103D1000C270DA780271032242711A7982715A797B
:103D2000C2710C2202729A794272DB7983720B2083
:103D30007047C0465C61FF1F022310B50370013B52
:103D400043700533837010330371443B43712A334E
:103D500083714433C37100230372054B04001B8835
:103D600043720A30FFF7CCFF11231520E37010BD1A
:103D70005C61FF1F10B5142007F0F6FF124B1422F0
:103D80000021186007F0B8FF002007F015FD0120A2
:103D900007F002FD022007F097FD032004F0D0F8A1
:103DA000042006F0E9F8052003F008FB062003F0E4
:103DB000DBFF072001F070FB082006F031FF09202F
:103DC00001F032F910BDC046E460FF1F07F0B4FEF9
:103DD000012007F0F9FD07F02FFF0000094B10B597
:103DE0000400984205D0012904D12000064906F0BC
:103DF00075FF10BD0229FCD1013904F0B9FD00287E
:103E0000F3D0F6E7FEFF00000A61FF1F70B50D7AE0
:103E1000100004AA2C00168810221440154220D14C
:103E2000002E20D10A78022A18D14A6851781578D4
:103E30000E4A09022943914205D00D4A914209D008
:103E40001C800A2404E014220A491A8007F0CCFCE2
:103E5000200070BD0C2208491A80F7E71C8001245D
:103E6000F6E70824F4E70B24F2E7C046F3FF00006E
:103E7000F4FF00006042FF1FF8BE001110B50400FF
:103E80000749084806F02AFF074804F0F3FC002021
:103E9000E40704D50721054A054806F0E1FE10BDF8
:103EA0000A61FF1FFFFF0000DD3D001148BE001149
:103EB0005C40FF1F10B50B4BBEB01A780A4902A830
:103EC00000F04AFD01AC80B26080002808D0074BAA
:103ED00000221B8821002380054B188803F00AFF6D
:103EE0003EB010BDE860FF1FE960FF1FB640FF1F36
:103EF000C041FF1F10B50B4BBEB01A780A4902A88B
:103F000001F03CFE01AC80B26080002808D0074B75
:103F100000225B8D21002380054B188803F0EAFE08
:103F20003EB010BD1261FF1F1361FF1F5C40FF1FF9
:103F3000C041FF1FF7B50E00377A1C0008AB110017
:103F40003D001A8820231D401F423CD13378022BAC
:103F50003BD173681F785B781B023B431E4FBB420B
:103F600008D01E4FBB4214D01D4DAB4221D00A25B4
:103F70002800FEBD002A2AD1142C2AD82200F0687D
:103F800007F032FC174B1C70012CF1D9FFF7B2FF80
:103F9000EEE7002A1BD1202C1BD82200F06807F086
:103FA00023FC114B04211C70104B187807F094FE71
:103FB000DEE7E3B20124009201940A00310007F029
:103FC00067FB0500D4E70825D2E70125D0E70B25DC
:103FD000CEE70D25CCE7C046F3FF0000F4FF00005C
:103FE000022900001261FF1FE860FF1F0962FF1F26
:103FF000332310B5040003700A220749013007F08B
:10400000F3FB064B0F201B681A0AE37222731A0C8B
:104010001B0E6273A37310BD5C61FF1F8461FF1FE1
:1040200030B5012503790400BFB02B4213D00B49F2
:10403000408806F09DFE28420DD0094B01AD1B883B
:1040400002A82B80FFF7D4FF0F236B8000222900EA
:10405000608803F04FFE3FB030BDC0460A61FF1FCD
:10406000B640FF1F10B5024804F0C8FC10BDC046A2
:104070002140001170B5160004AA148805AA15780D
:104080004A685078117800022A4A084380180528A7
:104090004BD807F0D9FC03131E29343F0722100028
:1040A000062C0AD8121BAA4200D92A0022491A80DB
:1040B0003000091907F098FB002070BD0720112C73
:1040C000FBD81222121BAA4200D92A001B491A80CF
:1040D000EEE707200E2CF0D80F22121BAA4200D9BF
:1040E0002A0017491A80E3E70720032CE5D80422A9
:1040F000121BAA4200D92A0012491A80D8E70722C7
:104100001000062CD9D8121BAA4200D92A000E4949
:104110001A80CDE707221000062CCED8121BAA4227
:1041200000D92A0009491A80C2E700220A201A8011
:10413000C3E7C046DCD5FFFF99BE00113061FF1F09
:1041400089BE001184BE00117CBE001174BE001136
:1041500010B50D21024A034806F082FD10BDC0468D
:1041600068BE0011CC40FF1F37B50F4C01AD0423D2
:104170002A00217C00F01AF9002813D1298823682D
:1041800049BA89B24B4321891B0C5B18074A6988DD
:10419000538049BA636889B24B4361891B0C5B1831
:1041A00093803EBD0120FCE74461FF1F5C61FF1F5F
:1041B00037B5124C06236A46217C6D4600F0F6F8AE
:1041C000002818D12988236849BA89B24B4321892C
:1041D0000B4A1B0C5B1853806B4603335B78E97802
:1041E0001B020B435BBA61689BB24B4361891B0C9A
:1041F0005B1893803EBD0120FCE7C0464461FF1F71
:104200005C61FF1FF0B5022785B0154C03AD217C22
:104210002B0000220097060000F09AF8002802D038
:10422000012005B0F0BD0E23217C01223000009753
:104230006B4400F08DF80028F2D129882368C9BAB0
:104240004B4321891B145B18064A6988538049BA7D
:10425000636889B24B4361891B0C5B189380E0E76C
:104260004461FF1F5C61FF1F10B500F0FFFA034AB5
:10427000002013880133138010BDC0465C61FF1F0E
:1042800010B500F0D7FA10BD10B58024064AA4007E
:104290001168436B234205D113685B1A032BF8D9CD
:1042A000012010BD0020FCE76008FF1F70B5C17938
:1042B00005000C00631E9C411A4BE402E4184900FF
:1042C0000460C9B2007906F09BF8E9796879490081
:1042D0000131C9B206F094F8E8790930C0B207F0AC
:1042E000E3FB0023E36661332360AA795B3B002A8A
:1042F0000ED022689A43023B134323600A23E361F2
:104300000733236200232363A3630133E36370BD98
:1043100022689A43022313432360462363610633D2
:10432000A361EFE70050004070B50025040003686A
:10433000DD66C0790930C0B207F03EFC2900207963
:1043400005F0FAFF2900607905F0F6FF70BD000066
:10435000F8B51E0006AB1D78002304681700E3665D
:10436000616007F0E9FC01238022E3662B002761EE
:104370005200013B08D207F0F7FB08200A4A1168F7
:10438000002D03D12800F8BD2261F2E7236F03421C
:1043900003D02369013D3370013613685B1A032B88
:1043A000EED90125EEE7C0466008FF1F70B51C007E
:1043B000002305681600EB66696007F0BDFC012369
:1043C0008022EB6623005200013B08D207F0CCFBB1
:1043D00008200A4A1168002C03D1200070BD2A6110
:1043E000F2E72B6F034203D02B69013C3370013697
:1043F00013685B1A032BEED90124EEE76008FF1F58
:10440000002370B504681500E366616007F094FC52
:104410000123E366256107F0A7FB2000FFF734FFC7
:1044200070BD70B51D00002304681600E36661606E
:1044300007F082FC0123E36626610F33626B1A42A8
:10444000FCD02B0A23611023626B1A42FCD0EDB220
:10445000256107F089FB2000FFF716FF70BD0023E0
:1044600070B504681500E366616007F065FC012320
:10447000E3662B0A23611023626B1A42FCD0EDB273
:10448000256107F071FB2000FFF7FEFE70BD000004
:1044900010B5084CE368002B08D18022064B52026D
:1044A0001B689B186360054B1B68236007F04CFB7F
:1044B000A06010BD8461FF1FC8F00040CCF0004038
:1044C000F0B5184A936A916A9942FBD116498A68F5
:1044D0009A421FD39A1A8B60144B4C68186893B297
:1044E000D2024343D20E42431B0A08681B19120230
:1044F0009B180024020001270D4D4B60561CAB4257
:104500000BD8002C01D010000CC10A4A13600A4BD2
:104510001860F0BD581E821ADDE7084A3C009B185F
:104520003200EBE700F000408461FF1F140AFF1F18
:1045300040420F00C8F00040CCF00040C0BDF0FF8A
:1045400070B5194C23793F2B01D93F232371174AAA
:1045500013701078C0B207F04FF91823144A1549A8
:104560001380154A0B8013804B80A0790C3B421CB2
:10457000534380221201934213D81A00CB80A02308
:104580000E4D888028800E486371823B0280237222
:104590000C4A0D4B1A60E379052B01D81023E37107
:1045A00070BD1300EAE7C0467861FF1F480AFF1F8D
:1045B000BE41FF1F7C43FF1FBC41FF1FBA41FF1FCD
:1045C000B841FF1FE09304006861FF1FF8B5212187
:1045D0000020FEF735FF114C011E114D09D10C22B0
:1045E000104BC1CBC1C4280007F086FBFFF7A8FF22
:1045F000F8BD0C2220000C49FEF7F8FE0C2802D072
:10460000084B43CB43C40C2228000849FEF7EEFEBA
:104610000C28EBD00C220021E5E7C0467861FF1F93
:104620004461FF1FECBE0011FC0C0000F50C000003
:1046300010B50C2202480349FEF718FE10BDC04613
:104640007861FF1FFC0C0000F0B51D4C8022A544D2
:104650000400882069465201400507F00DFA9022B7
:1046600012016A441300200032C832C316C816C3B0
:104670008023144C144FA6689B033343A3603B6014
:1046800007F082FA8823A0685B05C01807F07CF861
:104690000025882329008022A0685B05C0184019E6
:1046A0006944520007F0B8FA80230135FF355B01F9
:1046B0009D42EED1A6603E60044B9D44F0BDC046D5
:1046C000FCEFFFFFF042FF1F9808FF1F04100000DF
:1046D000F8B5012703780500013B0026BB4216D937
:1046E000F8BD6B682C4C9A5D2369013323612B4B19
:1046F00019783F2905D81878411CC9B21970284B80
:104700001A54522A07D122706773A77301362B7A85
:104710009E42E6DBE4E7A37B002B38D0617B4B1C99
:10472000DBB2637362540C2BF0D9237B452B06D08C
:10473000E38A01339BB2E3820023A373E6E70122FD
:10474000A38AE17801339BB2A382A31CDA77237991
:10475000E21C1B020B431BB22383A37961791B026A
:104760000B431BB263836378217A2377A378637743
:10477000637AA377E379E377631CD977D37F002B40
:10478000DAD000230820D37707F076F8D4E7E38A5D
:1047900001339BB2E382B9E7A461FF1FC861FF1F29
:1047A000C961FF1FF0B51D4F89B0242200213800D8
:1047B00007F0A2FA40220021194807F09DFA0022D2
:1047C000184B00211A700A3202ABD01807F094FA85
:1047D000154B04AC238096239B01059301232100F4
:1047E0002372124B124A079361C961C213600022FF
:1047F000049800920599069A05F0F4FF04006242BD
:1048000062413B1DDA77002805D1082007F07CFAC9
:104810000122FB1CDA77200009B0F0BDA461FF1F64
:10482000C961FF1FC861FF1FFF060000D1460011CC
:104830009461FF1F13B50A4B0A4CDB7F002B0ED08F
:10484000002006F00BF80022074B00920FCB05F07A
:10485000C9FF082007F058FA01230334E37713BD9A
:10486000A861FF1FA461FF1F9461FF1F10B5144BC7
:10487000144ADB7F1449002B0FD0138B4B80538BD2
:104880001BB28B80131DDB7F002B05D0002303326E
:104890000820D37706F0F0FF10BD938A002B0AD0D2
:1048A000938A5B429BB24B80D38A002B05D0D38A7C
:1048B0005B429BB2E4E7054BF5E7044BE0E7C046FB
:1048C000A661FF1FA461FF1F5C61FF1FFFFF0000C7
:1048D000F0B587B0051E6C4627D0684606F04CFF41
:1048E0001B4D022806D106226946280007F0CCF9A4
:1048F000002818D00F222100002301209446060032
:10490000EA5C013317091037BE4037006646324073
:104910000600964032003A434A610439062BEED134
:104920002000FFF791FE07B0F0BD18226946094844
:1049300007F0A2F8AB00E358013305D01822FF219D
:10494000200007F0D9F9EBE70135062DF2D1EAE7AF
:104950006509FF1F00090011F0B5002604000F00D3
:10496000150085B0B24200D184E08A784B1C0193D7
:104970004B7812021A43CB7808781B0413430A7948
:10498000207012061A43009203926670252800D107
:1049900090E033D8112813D807F0BEF8660015014F
:1049A000150115011501A400B200AB001501150198
:1049B000150115011501150115011501EF000F0174
:1049C000232800D1C7E0DB2800D0C3E1042D00D8A4
:1049D000ABE0052D00D18FE16E1F32000098791DEC
:1049E00006F002FF05223900200006F0FDFE32002D
:1049F0000099601D06F0F8FE2E003BE0562853D0CB
:104A00000FD8332800D1A1E0552836D02628DAD196
:104A1000BB4D13223100280007F06EF9FEF79AFB18
:104A200057E0712800D172E0722800D184E0DC28C0
:104A3000C9D1022D00D878E04B7863708B78A370D1
:104A40006B461E88032D05D0033DC81CAAB2310059
:104A5000FEF70CFC31001022E01CFEF7C7FCC61C60
:104A6000002807DA60706DE00C222000A54906F0EE
:104A7000BBFE0C26300005B0F0BD6A1EA24D0C2A0C
:104A800010D8002A07D02800019906F0ADFEFFF7E4
:104A900057FDFFF7CDFD0C222900601C06F0A4FE97
:104AA0000D26E7E70C22EEE7974D984B2A0043CB03
:104AB00043C2ECE76A1E924D0C2A11D8002A08D096
:104AC0000199280006F090FE0C2228009049FEF77C
:104AD000CDFB13222900601C06F086FE1426C9E7D0
:104AE0000C22EDE706228B49601C06F07DFE0626AF
:104AF000C0E712228849601C06F076FE1326B9E74B
:104B000008228649601C06F06FFE0926B2E7012DD7
:104B10000ED04978F02908D8814D288801F088FC0A
:104B2000804B2A885200D35A00E0FF23637009E0CB
:104B30007B4A7C4B1288F5E77B4B012D04D04A78E9
:104B40005A706270022695E75B78EFE72000FFF766
:104B50004FFA06008EE7042D05D9744D009B2B609B
:104B600006F0F2FFA860FFF7ABFC0422039003A954
:104B7000601C06F039FE05267CE76D4E062D15D922
:104B800006223000019907F07FF800280ED0062297
:104B90000199300006F028FE062266493000FEF733
:104BA00065FB0123604A51780B43537031000622A4
:104BB000601C06F019FE07265CE7012DB5D0487889
:104BC000FFF786FEBEE701281FD15B4AAB1E0092AD
:104BD000132B06D84B78002B0BD100F093F900F083
:104BE000C9F9564B00991E78601C721E06F0FCFD38
:104BF00040E7013D2A000199009806F0F5FD504973
:104C00000098AAB2FEF732FBE9E7032800D0DAE603
:104C1000012D2CD120700C234A4A6370D27F4A4B5D
:104C2000A2709A1CD27F1026E2701A6922711A694A
:104C3000120A62711A69120CA2711A69120EE271DB
:104C40009A8A22729A8A120A6272DA8AA272DA8ABC
:104C5000120AE2721A8B22731A8B12B21212627348
:104C60005A8BA2735B8B1BB21B12E37302E74B7868
:104C70002070002BCFD0012B1BD10B336370324B34
:104C80000B261A8BA2701A8B12B21212E2705A8B78
:104C900022715A8B013312B212126271DA7EA27142
:104CA0001A7FE2715A7F22729A7F6272DB7FA3724F
:104CB000E0E6032B00D038E7022D00D135E70C22C7
:104CC000224B897818780426A07018786270E170F9
:104CD000884200D8CEE61B785B1A1E1CDBB29342DA
:104CE00000D9161C1A4BF6B23200201DC918043622
:104CF00006F07AFDF6B2BDE61525102672E6C0462E
:104D00004461FF1FF8BE00117861FF1FECBE001167
:104D1000F50C00005061FF1F3061FF1FF442FF1FC0
:104D2000C041FF1F5864FF1F7461FF1F8461FF1F94
:104D30006509FF1FADAC0000E963FF1FE763FF1FBC
:104D4000AEDE0000A861FF1FA461FF1FC861FF1F46
:104D5000C961FF1FDA2800D0E7E6042D00D8E4E699
:104D6000082D17D9BB797A791B021343FA791204FB
:104D70001A433B7A1B061343009A1360009B0522DB
:104D80001B6839002000039306F02EFD0422601DED
:104D900003A9B8E6FE236370F0E7C0467047000041
:104DA000020010B5094B0A32094C92B2DA815A82DC
:104DB00098811882207802F09FF90422054B012186
:104DC00020781A7006F088FF10BDC0467E42FF1F93
:104DD0003264FF1F3164FF1F013870B5042809D801
:104DE00006F032FE030928081200224B022118782F
:104DF00006F072FF70BD1F4B0821187806F0E4FF23
:104E000000221D4B1A72F5E7802200241A4B520033
:104E100060201A81DC7206F077FFFFF70BFD154D5D
:104E200008212878154A06F0A7FE2100287806F008
:104E300003FDDFE70F4B0821187806F0C5FF60205F
:104E400006F01AFD0E48FEF777FF0E4B0E4A9B79CF
:104E500093800E4A13800022074BDA720132FF3230
:104E60001A810B4B5B78002BC4D00A4A136006F002
:104E7000ABFEBFE70962FF1F6861FF1F102700003C
:104E8000C941FF1F7861FF1F7C43FF1FBA41FF1F0D
:104E90007461FF1F34F0004010B5012907D10428C8
:104EA00005D18021024B8900187806F015FF10BD4E
:104EB0000962FF1F10B5002907D1042805D1802100
:104EC000024B8900187806F007FF10BD0962FF1F2A
:104ED0000300F0B50A4D8E18B14202D1520080187D
:104EE000F0BD0C782F6824093C5D0F271C700C78EE
:104EF00001313C402F683C5D5C700233ECE7C046FA
:104F0000B441FF1F1022124B10B51A700F23114C21
:104F100011492370093A063B1048637006F064FC9F
:104F20002D2301220E490F486372FFF7D1FF0122A2
:104F30000D49FFF7CDFF01220C49FFF7C9FF030020
:104F400000200B4902001870FEF790F910BDC04612
:104F50000664FF1FE763FF1F99BE0011E963FF1F8F
:104F60006709FF1FF163FF1F6609FF1F6509FF1F28
:104F7000AEDE000070B5134C142220001249FEF77B
:104F800035FA431E114D132B19D8AB78002B16D0D0
:104F9000431C2B7009236B700023001903702878C1
:104FA0000B4B01302900C0B2187006F0D5FB2978F0
:104FB00022000139C9B2002005F070FD70BDFFF775
:104FC000A1FFECE7E963FF1FAEDE0000E763FF1F10
:104FD0000664FF1F10B5114B1A781870002A0ED006
:104FE00000280BD10E4B1A78062A07D85423D34039
:104FF000DB0703D50B4B187802F07EF810BD0028B4
:10500000FCD0074B1B78012B02D0033B022BF5D8B9
:10501000044B0121187806F05FFEEFE70A64FF1FDA
:105020003164FF1F3264FF1F70B54D4E4D4A4E492B
:105030003070042005F090FAFEF78CF8FFF7B2FB11
:1050400006F022FC032249494948FFF741FF2D247D
:10505000030004221C7047490130FFF739FF302359
:105060000470454D454C437083702E3B0622200052
:105070004349EB87FEF7BAF9062813D0200006F063
:105080007BFB022809D00321200006F01DFE8D23A2
:10509000E3706E3B23711933637106222000384997
:1050A000FEF7E4F8374B1B68FC335C64FFF762FFE4
:1050B0000020FFF78FFF344C344A0121344B127823
:1050C000207801F0DBFF334A334B1278002120783F
:1050D00001F0D4FF0122314B1A70314B9B78552BD4
:1050E00036D1304B3B325A722F4B304AAB81EA817A
:1050F0002B826A822021307806F03EFC012040425B
:1051000005F018FD0120404205F0B4FDFFF720F83E
:10511000FEF7DAFD00F0CAFC01204042FEF7AEFEC9
:10512000012006F071FDF02001F066F901213078D0
:1051300006F0D2FD307802F03BF91D4806F0ECFB9A
:10514000FEF792FC00226020110006F025FC70BDE5
:105150006422184B5B7953431A000A32C6E7C046F3
:105160000962FF1FB54E0011994E0011F442FF1F56
:105170003061FF1F5061FF1F7E42FF1F6509FF1F47
:10518000ADAC00005464FF1F3264FF1FE841FF1FF5
:10519000C941FF1F0664FF1FE763FF1FD863FF1F9E
:1051A0007461FF1F6861FF1FC4090000CE09000081
:1051B0000A62FF1F7861FF1FF8B50D008B065DD5F1
:1051C000674B1B78002B42D0FFF77AF9654B664C92
:1051D000664E99686268737A8A1ADB039A4202D330
:1051E0006160FEF741FC327A217A531EDBB29942AC
:1051F00030D1FFF745F8637A002B25D0013BDBB2B5
:105200006372002B20D15A4B9B78552B01D106F0AD
:10521000DBFCE37A002B12D00023A27AE3729A42DD
:1052200002D0A372FEF7B0FC524A534F13883800E5
:1052300001331380FEF780FD390006F0B5FA6423D0
:1052400070795843FFF7ACFD237A01332372202095
:105250006840F8BD9142CED300272772FFF704F8CB
:10526000A37ABB4202D0A772FEF78EFC424F3800F1
:10527000FEF762FD390006F097FABCE70BB2002B8F
:105280000ADA3E4B187806F0C7FA002801D006F07B
:1052900033FC80200002DBE70224214209D0334A9C
:1052A000314B127A0120023A1A72FFF793FE200066
:1052B000CEE70B0721D5FFF703F92A4B2A492B4CE0
:1052C00098684A68637A821ADB039A4202D348607C
:1052D000FEF7CAFBFEF7C8FFFEF7D2FF274B0821F7
:1052E0001878274A06F048FC00F0FAFB2368DB0731
:1052F00001D5FEF7B7FE0820AAE7CB0609D5FEF7D1
:1053000043FC174B1B78002B01D1FEF7F1FC10205A
:105310009EE70124214205D01A4800F081F806F0EA
:105320001BFCC4E78024A40021420FD0042004F019
:10533000FDFE0028BBD00A4B1B78002BB7D02622DD
:10534000094B11485A72FFF72BFDB0E704240800FF
:105350002040214200D17CE7FEF7ACFDA7E7C04624
:105360000A64FF1F8461FF1F6861FF1F7861FF1FD0
:105370007461FF1F5C61FF1FC941FF1F0962FF1FAE
:1053800010270000AC41FF1FC4090000F0B51A4B04
:105390001A4F1B883A880400194E1A4D85B09A425C
:1053A0000DD832889A420AD3174B1A882B889A4212
:1053B00005D1164A164B12881B889A421AD005202E
:1053C00001F070F83B8802A90B80338801904B8074
:1053D0002B88104D8B800E4B2A781B88CB800E4B70
:1053E000188802F091FD0D4B08212878019A1C7055
:1053F00006F0C2FB05B0F0BDD663FF1FBE41FF1F24
:10540000BC41FF1FBA41FF1FD463FF1FD263FF1FC0
:10541000B841FF1F3264FF1FC041FF1FD063FF1F51
:1054200013B50C4B1C78002C11D1002801D00A4B6D
:1054300018600A4A0A4B11780A4A10780A4A0192FF
:105440000A4A0092002205F021FA200016BD11241C
:10545000FBE7C0463164FF1FCC63FF1F3064FF1FB2
:105460002064FF1F3264FF1F0C64FF1F1064FF1FC6
:1054700010B5064B12201B78052B06D1044B1322C6
:105480001988044B187801F0E9F910BD3164FF1F49
:10549000C041FF1F3264FF1F10B500240122114BD1
:1054A00052421870104B1C70104B1A8001F080FF94
:1054B00004220F4B21001A700E480C3206F0D4FB68
:1054C000102221000C4806F0CFFB07220B4B1C607A
:1054D0000B4B1C700B4B1C700B4B1A700B4B1C7046
:1054E00010BDC0463264FF1F3164FF1FC041FF1F63
:1054F0003064FF1F2064FF1F1064FF1F0C64FF1F38
:10550000E663FF1FE563FF1FC241FF1FE463FF1F48
:10551000F8B5174C0600257806A814240078052D48
:1055200023D1B41F134FA5B21824BD421DD88D1F1F
:10553000ADB2BD4219D8FA256D00AA4215D21D00A0
:105540000D4F0A3DADB2BD420FD80C4C26800C4C1D
:1055500021800C4900240A800B4A1380FFF716FFB4
:105560000A4B0421187806F02FFC2000F8BDC04635
:105570003164FF1F790C0000750C0000BE41FF1F55
:10558000BC41FF1FBA41FF1FB841FF1F3264FF1F1C
:10559000F0B50BB20D0089B0002B00DB70E1A44E1A
:1055A000307806F039F9041E50D00378A22B00D1D0
:1055B00022E1D02B1AD0912B45D143780E2B42D12A
:1055C0009C4B82889A423ED19B4B1B78052B3AD14B
:1055D0008368032018567F2835D0984B1B68002B12
:1055E00031D05B68002B2ED098472CE080780728BC
:1055F00029D806F029FA0428183F3F74A8D8637800
:10560000002B0CD101218C4B19708D4B1A78002A7C
:105610005BD08C4B307801F031FD002855D007224B
:10562000854B1A7051E061780029F8D1E378002B9E
:1056300011D0854A854B1278307801F01FFD6070DB
:105640006378002BEBD1200006F056FA8020000290
:10565000684009B0F0BD784B1B78022BF3D00121D4
:10566000307806F0F1FA0028EAD10121307806F00E
:1056700033FBE5E76378002BD1D16F4F032807D1C7
:105680003B78052B02D101333B701EE00223FBE780
:105690006F4B1A886F4B0293002A0BD01B78002B9C
:1056A00003D00121307806F067FA3B78062B04D14D
:1056B000013BE9E7029B1A70F7E7042B41D1012176
:1056C000029B3078197006F007FB5C4B1B68002BBF
:1056D000B9D01B68002BB6D0574A107884E763789E
:1056E000554F002B27D10622211D5B4806F07CF880
:1056F00062895A4B5A491A80A2895A4B1A80E38907
:105700000B800521397058490A80584A1380228A33
:10571000574B1A80574B1B78012B09D11F2000F0E3
:10572000C1FEFA22920042430421307806F024FAA6
:105730000022484B75E7312B00D070E70022454B23
:105740001A700323A0E706220021434806F08CFAD2
:105750000023454A04211380444A30781380444A88
:10576000138006F031FB0821307806F02DFBA37979
:10577000083B5A425341304A03331370304B1B7875
:10578000002B06D0334B30781A78002A06D001F06F
:10579000B3FC0122314B52421A8096E70121197065
:1057A00006F09AFAF5E70821307806F00DFB6378E9
:1057B000002B00D047E72C4B2D4F0293E388029A31
:1057C00004211380294B307803932389039A138093
:1057D00063893B8006F038FA002800D033E7264B77
:1057E0001B68002B00D12EE7039902983A8809889C
:1057F00000881B68984726E74379132B00D022E7DF
:105800000389012B0AD11D4B1B78022B06D10821DD
:10581000307806F0D9FAFFF72BFE14E7052000F0E8
:1058200041FE08210200307806F0A6F90BE7C046D9
:105830003264FF1F051400003164FF1FCC63FF1F9B
:10584000E841FF1FC941FF1F0664FF1FE763FF1FF9
:105850000864FF1F0A64FF1FD963FF1FC041FF1FB9
:10586000E063FF1FE263FF1FD663FF1FD463FF1FC8
:10587000D263FF1FD863FF1FC863FF1FD063FF1FE2
:105880008020C001014200D0E2E6CB0731D5324B87
:105890001B78002B1DD0314E05AC3378052B1AD167
:1058A000023B23702E4B21001B7823722D4B1B785B
:1058B00063722D4B187801F085FB002809D0072072
:1058C0002A4B30701B68002B03D01B68002B00D0C4
:1058D00098470120BCE60E20254B06221B7825495F
:1058E0002370254B1B78637002ABC01805F07CFF5A
:1058F000D8E7022308001840194209D0174B1B783B
:10590000052B03D11D4B188806F056F802209FE6A0
:105910000424214203D0FFF739FD200098E6082334
:1059200008001840194200D193E6154B1C78012C51
:1059300003D0022C0DD008208AE6124B124A1349DC
:1059400013481B881288098800880094FFF7E0FD3F
:10595000F1E7FFF78DFDEEE70A64FF1F3164FF1FDB
:10596000C241FF1FE463FF1F3264FF1FCC63FF1FB0
:10597000E663FF1FC341FF1FE563FF1FC041FF1F19
:10598000D063FF1FB841FF1FBA41FF1FBC41FF1F7B
:10599000BE41FF1F10B502A804880B20002C10D1B7
:1059A000496808784978090201430C48814209D1C5
:1059B000022119800A4B59881170DB7800205BB2F4
:1059C000537010BD074C0A20A142FAD10221198060
:1059D000034B998811705B79F0E7C0466E2A00008E
:1059E0005C61FF1F6F2A0000F7B5150008AA168832
:1059F0004A680F4F14785278120222430A24BA429E
:105A000014D10122DBB2019200962A0005F040FE7B
:105A1000041E0BD1074B1B68002B07D068782A782F
:105A20000002104342425041013098472000FEBD21
:105A3000022900004464FF1F30B5012503790400EA
:105A4000BFB02B4225D01449408805F091F9284277
:105A50000CD0124B01A95B8D60880B8002234B8018
:105A60000F4B00225B888B8002F044F90D4960885F
:105A700005F07EF9C0070CD50B4B01A91B8800224D
:105A80000B8002234B80064B9B888B80608802F042
:105A900031F93FB030BDC0463C64FF1FEC41FF1FF1
:105AA0005C61FF1F3464FF1F4642FF1F10B50749AA
:105AB000074805F013F90749054805F00FF90721D4
:105AC000054A064805F0CCF810BDC0463C64FF1FEF
:105AD000FFFF00003464FF1F18BF0011EC41FF1FDF
:105AE00010B5024802F08AFF10BDC046395A0011B5
:105AF0000200F0B501270A480A4E51188B1A002BF4
:105B000000DCF0BD082415784308684038404000A8
:105B1000805B013C58406D08002CF5D10132EDE767
:105B2000FFFF000032BF0011F0B500250F269D4297
:105B300000DBF0BD4C5D070944403440A400A05890
:105B400001357840F3E7000070B50C0088B06B4673
:105B50000F2610340A7801311500120935401D70E6
:105B60005A700233A142F5D120236946024AFFF759
:105B7000DBFF08B070BDC04638BF0011F0B54E78ED
:105B80000B7889B036020C00170001901E43012AE1
:105B900061D9954B9E4200D877E001339E421CD1DB
:105BA000062A17D1CA788B7812021A430B791B0484
:105BB00013434A7912061A438C4B5A6100221A7019
:105BC0005A808B4A5A608B4A9A608B4ADA6000206E
:105BD00009B0F0BD88225205EEE7884B9E423CD1C9
:105BE00082498B78002B00D0F6E00C2A31D10F22AD
:105BF000A3789343E27812021343227912041343E9
:105C00006279120613434B60E279A07912020243D3
:105C1000207A00041043627A12060243CA60E27AD4
:105C2000A07A1202024376484A81834208D80423AC
:105C30006E49142201980B7005F0D6FD1420C7E7B9
:105C40001201D21889235B059A42F0D801238B7088
:105C5000BDE7022AFAD00523EAE76A4A0123964201
:105C6000E6D1FFF705FC052F0CD9E378A2781B02DB
:105C70001343227912041A4363791B061343624AC1
:105C80000393136005F0A0FFA1E7584D2B78002B7C
:105C90009DD1AB78002B00D1A0E02B8901339BB2C2
:105CA0000093B34200D091E0132AD4D9CF7C8B7CEF
:105CB0003F02122120001F43FFF71AFF874200D046
:105CC0008EE0002E3DD1E378A2781B0213432279A7
:105CD000E96812041A4363791B06134303930A22EB
:105CE0008B4212D1FF23A370E370237163716B8920
:105CF000002B09D1E37B227C1B0212041343A27BFD
:105D000013431B0901336B8100226B89002B8ED05A
:105D1000002A67D1686837013818000B6B690003E7
:105D20000390984205D9686105F02EFDEB780133A8
:105D3000EB7068681022A11C381805F06DFF2E81E9
:105D400045E76F89009A7B1E9BB293423AD1E27875
:105D5000A37812021A43237905A81B04134362791E
:105D60006C6812061A43EB6800920392211D0C2204
:105D7000049305F039FD0120260004A940421036A5
:105D8000FFF7E2FE013F012F17D1009A0B23286194
:105D9000824200D04CE704221C49200005F03CFF61
:105DA000042203A9686805F067FEE968039AFF23E7
:105DB000914200D13CE7F73B3AE73100FFF7C4FEE0
:105DC0001036DFE70923B742A4D831E7009BB3427E
:105DD00000D9FCE607232BE7022329E7032327E763
:105DE000062325E70A2323E7FFFE00006042FF1F8A
:105DF00000000111FFFF00005048593601FF00006C
:105E0000FFFF001102FF000034F000406C42FF1F52
:105E100010B5034C0B000122210000F06BFA10BDFD
:105E2000D15F00110B8870B506000D000224162BFF
:105E300011D92B000322094900F05CFA041E0AD193
:105E4000074B2A881B88191C934200D9111C30006B
:105E500089B200F0EDFA200070BDC046FD5F001170
:105E60005A64FF1F10B54A780400013A0B00022063
:105E7000012A07D80A78002A04D005222000024906
:105E800000F038FA10BDC0462B6000110A7810B53A
:105E90000B0004000220002A04D00722200002493F
:105EA00000F028FA10BDC046D76000110A7810B57E
:105EB0000B0004000220002A04D00922200002491D
:105EC00000F018FA10BDC0463D61001110B5034C3A
:105ED0000B000B22210000F00DFA10BD6D610011C6
:105EE00010B5034C0B000D22210000F003FA10BD89
:105EF000DF61001110B5034C0B000F22210000F0F0
:105F0000F9F910BD396200110A7810B50B000400D0
:105F10000220002A04D011222000024900F0EAF9F0
:105F200010BDC04649620011002310B513221900AC
:105F300000F0E0F910BD000010B5034C0B00172273
:105F4000210000F0D7F910BD9B620011002310B5AD
:105F50001922190000F0CEF910BD000010B5034C55
:105F60000B001B22210000F0C5F910BDD562001105
:105F7000F7B584890D0006000121002C22D00023F2
:105F80008268D3561778002B1EDA0C2C1AD90C3CD9
:105F9000A4B2131940880093230002F090FE431E20
:105FA000984101307B06DB0F6B703F23013C1F40A3
:105FB000A4B22870AF70AC80002C07D0B368013356
:105FC000AB6000210800FEBD0020EBE7AC60F8E705
:105FD0000B7803704B8843704B881B0A83700B79D6
:105FE000C370042070470420022B06D10020537890
:105FF00011781B02009A0B43138070470B880370C3
:106000000B881B0A437002207047042000998342CA
:106010000AD1537810781B0203430B80D378907811
:106020001B02034300204B807047F8B50D004B78EE
:1060300001240021461C03702B788B4201D82000DC
:10604000F8BD6B78B01C4F1C012B10D1890069186A
:106050004B88022233704B88B9001B0A7370691891
:1060600005F06AFC04360434A4B2F9B2E4E7122362
:1060700059436B185A88043132705B8810221B0A0E
:106080007370691805F058FC12361234ECE770B5DD
:10609000049D14001E00052B01D8042070BD6378F8
:1060A00012781B0213432B80E378A2781B02134360
:1060B00002226B802A71211D681D063E05F03CFC02
:1060C000B2B22A81E92AE8D82800A11D0A3005F0D9
:1060D00033FC0020E2E7002310B50A789A4201D889
:1060E000900010BD9A008A185488013304705488B7
:1060F000DBB2240A4470948884709288120AC270B9
:106100000430EAE710B51100029C062B04D00420ED
:106110001022142B01D010BD022222714B78087876
:106120001B0203432380CB7888781B0203436380E0
:106130000431601D05F000FC0020ECE710B50C7880
:106140008B7804315C43E4B203702200013005F027
:10615000F3FB601C10BD0420022B06D100205378F5
:1061600011781B02009A0B431380704710B50C0086
:106170000A88023105F0E0FB208810BD70B50400EC
:106180000D0004981100012B01D8042070BD167871
:1061900052781202324302800200F13255701470BC
:1061A000E125002C00D10C35023B9AB24280AA4274
:1061B000EBD80231043005F0BFFB0020E6E70420F5
:1061C000009983420AD1537810781B0203430B8055
:1061D000D37890781B02034300204B80704710B5A2
:1061E0000C000A88023105F0A7FB208810BD0000D2
:1061F00070B501211E000420049C0E400B4218D1F2
:10620000CB40DDB28D4214D90A49DBB209889942EC
:106210000FD32300EE331D70330058001118497856
:10622000165C0902314301332152D9B28D42F4D8B0
:10623000002070BD7842FF1F10B50C000A880231A3
:1062400005F07AFB208810BD10B50C788B780431EE
:106250005C43E4B203702200013005F06DFB601C6A
:1062600010BD10B511000298032B01D8042010BDF9
:1062700014785278043B120222430280CA788C7848
:106280001202224342809AB28280EB2AEED8043175
:10629000063005F051FB0020E9E710B50C000B8833
:1062A00003700B881B0A43704B8883704B881B0A52
:1062B000C3708A880430063105F03EFBA0880430A4
:1062C00080B210BD0420012B03D100201378009A66
:1062D0001370704710B50C000B8803700B881B0AF5
:1062E00043704A880230043105F026FB6088023092
:1062F00080B210BDF0B589B003931D4B02924200ED
:106300000700D05A019102F022F81325061E2CD066
:10631000029B01240370019B002B04D000190399F8
:106320009847001984B26B461B7A5BB2002B0FDAD8
:106330001021380002F01CFB1925002812D1300072
:106340003219E1B202F070FC051E0BD10C34A4B27C
:10635000042305A938000B800C814E6001F0B2FDCA
:10636000051E02D0300005F07FFA280009B0F0BD0C
:106370005864FF1F70B505000C0000280CD00020E9
:10638000814209D010222000044905F0D5FA0120ED
:106390002B7823736B78637370BDC04678BF001190
:1063A000F0B506000D0017001C0085B002291BD0B7
:1063B0000020102907D1022B07D0102B03D115E0A4
:1063C0000020102C08D005B0F0BD69463800FFF75A
:1063D000D1FF2A0069460BE069463000FFF7CAFF8B
:1063E00022006946380004E0022BE9D12A00390076
:1063F000300005F051FBE6E7031CF02800D9F0233C
:10640000032008499AB2013A0B80D317034006498A
:106410009B189B100B80D30F04499B185B100B80BB
:106420007047C0467C42FF1F7A42FF1F7842FF1F21
:10643000034B1B888B4202D3024B4000C152704772
:106440007C42FF1F5864FF1F014B4000185A7047E1
:106450005864FF1F1722014B1A8070475864FF1FB2
:1064600070B505000E2005F03FFA041E13D0D023AE
:10647000037000230622837007494570033005F03E
:106480005BFA064B2100DA8A62811B7E2373044B80
:10649000187805F011FB70BD7464FF1F6464FF1F62
:1064A000CC42FF1F262803D8024B4000C05A704739
:1064B0000148FCE77E42FF1FFFFF000070B50600A9
:1064C0000C00094D1C220021280005F0CDFB074BD4
:1064D0001E70074B1C7005F03FFA0123002801D005
:1064E000002312202B7070BD6464FF1FCC42FF1F7D
:1064F0008564FF1F70B505000D4C0800E260A160C7
:1065000010220021656005F087FA012803D11021CF
:10651000A06802F061FD10220021280005F07CFA3D
:10652000012803D11021606802F056FD70BDC046FD
:106530006464FF1F70B5041E05D1002903D0062234
:106540000D4805F0F9F90D4B1D78012D11D1002CE6
:1065500005D102221A7005F01FFB280070BD002231
:106560001A70074B1B78FF2BF7D02000FFF778FF3E
:10657000F3E70025F1E7C0467464FF1F6464FF1F62
:10658000CC42FF1F030010B5002801D1002010BD30
:1065900000780B4A002803D15988D1821B791376E1
:1065A0001378022BF2D10023984200D103331370E9
:1065B000044B1B78FF2B01D0FFF752FF0120E6E7C9
:1065C0006464FF1FCC42FF1F002911D000280CD0AB
:1065D0004B79012803D140225242134303E03F226A
:1065E0001340032802D001204B7170474022F4E78A
:1065F0000800FAE770B5094D0100287800280BD093
:10660000074C0622200005F097F921002878FFF7B3
:10661000DBFF200005F0C0FB70BDC0468464FF1F97
:106620005E64FF1F00290AD0012808D13F224B7960
:106630009343C02B03D0403B5A425341981C7047B0
:1066400070B5174D06002B78FF2B15D00A2005F0EA
:106650004BF9041E10D0D0230370C83B8370114B3C
:1066600011491B784670C3700622043005F064F9A6
:106670002100287805F020FA0C4B1B78012B0DD156
:106680000B4B1B68002B03D09B68002B00D0984756
:10669000084B04211878084A05F066F870BDC0461A
:1066A000CC42FF1F8464FF1F5E64FF1F8064FF1FD6
:1066B000AC64FF1FB064FF1F60EA0000014B9868E4
:1066C0007047C0466464FF1F014BDB681868704761
:1066D0006464FF1F074B10B5DA6813680133136059
:1066E000054B1878FF2803D08021C90105F0F4FA82
:1066F00010BDC0466464FF1FCC42FF1FF7B50E00FB
:1067000002F0CAF8051E1CD00E4B06621F78002F3F
:1067100000D10778AB791020019305F0E5F8041E4D
:106720000FD0D0230380C73B8370019BE91DC3704A
:106730000622043005F000F921003800E66005F07B
:10674000BBF9F7BDCA42FF1F014B18787047C0461E
:106750008464FF1F054B002805D1054B1A78054BB3
:10676000002A00D1014B18007047C0467464FF1F17
:106770008464FF1F5E64FF1F014B58687047C0466A
:106780006464FF1F024B1868431E9841C0B27047F3
:106790008864FF1F421E03000120152A03D9FF3B16
:1067A0005A425341D8B27047F0B51C0000230E0086
:1067B00085B0039002920B70029A934201D300209D
:1067C00019E0E55C5A1CD2B2002DF8D0029851199C
:1067D0008142F4DC0233DFB2A35C18000193FFF7BF
:1067E000D9FF002807D0013D019A0399EBB233701D
:1067F0008A4202D1E01905B0F0BDDB19DBB2DBE75C
:1068000010B50C0002F0A0F803001220002B03D0FA
:106810002100588805F028F910BD000070B50E4D14
:1068200084006359002B15D0186A002801D005F0A8
:106830005BFA2B59586A002801D005F055FA2B59FC
:10684000986A002801D005F04FFA285905F04CFA53
:1068500000232B5170BDC0469464FF1F1C4B70B5C4
:1068600004000E00150099420AD11A4B1B68002B38
:1068700001D1122070BD1B68002BFAD09847F9E7B0
:10688000154B994215D1134B1B68002B0AD01B687E
:10689000002B07D09847002804D1104B1C70104BD8
:1068A0001D70E7E729002000FFF7AAFF0028E1D1CB
:1068B000F3E7080001F0F0FF0028DAD003780320A6
:1068C000A342D7D12900300005F0CEF8D2E7C04668
:1068D000FEFF00009064FF1FFFFF00008D64FF1F9C
:1068E0008C64FF1FF7B50400808801F0D5FF0025F8
:1068F000A84203D00578A08802F00AF81C4E33782D
:10690000002B1FD0AB421DD11A4B28001978FFF77E
:1069100077FF002818D000233370A3790820A778C8
:10692000A688019304F0E0FF011E0DD0D023037070
:10693000CA3B8370019B477086808371280005F0F5
:10694000BBF801E0002DE8D1A0880B4B8200D358A2
:10695000002B01D0FFF762FF1721A088FFF768FD29
:10696000A08801F02BFDA08801F002FEF7BDC04613
:106970008D64FF1F8C64FF1F9464FF1FF0B587B008
:106980001D000CAB1B88070001930DAB1B88142066
:1069900002930EAB1B88160003930FAB1B8800916C
:1069A000049310AB1B88059304F09EFF041E1AD0BD
:1069B000D0230370CB3B47708370C670062229003A
:1069C0000430002D11D004F0B7FF019B210063813A
:1069D000029B0098A381039BE381049B2382059B78
:1069E000A37405F069F807B0F0BD05F03DF9ECE7D8
:1069F000F7B5009308AB1B8807000C200D001600AC
:106A0000019304F071FF041E13D0280001F044FF2D
:106A100000280FD00078D0232370C93BA370009BBF
:106A200021002381019B6770A580E680638105F0CA
:106A300043F8F7BD014B1878EDE7C046CC42FF1F85
:106A400013B5040064890389C2888188C0780094E2
:106A5000FFF7CEFF13BD000010B5044C20680028DE
:106A600003D005F041F90023236010BD9864FF1F97
:106A7000A122F0B5818892004A43384B384F1B68F9
:106A800089B09B189D2292009B18827904001A609D
:106A90003B68002B5FD01D78324B1B68002B04D065
:106AA0005B68002B01D00020984726000836310093
:106AB000E079FFF7B7FD237DE0710200E0780493F1
:106AC000638A29000393238A0293E3890193A388AD
:106AD00000933300FFF752FFE378002B0BD1E289DC
:106AE000A379A18802920196E279280000920122FE
:106AF00001F0DCFEE0703B68002B20D0FFF7ACFF1C
:106B0000194D287800281AD0184B1978FFF778FE0D
:106B1000002814D02B780820A788E678079304F083
:106B2000E3FE011E09D0D0230370CA3B4670837078
:106B300087808671079804F0BFFF00232B70172110
:106B4000A088FFF775FCA08801F038FCA08801F050
:106B50000FFD09B0F0BD064B9DE7C0463409FF1F8D
:106B60009864FF1FAC64FF1F8D64FF1F8C64FF1FC0
:106B7000CC42FF1FF8B5070008000E0001F08CFEA4
:106B8000041E18D02620FFF78DFC051E00D12578A5
:106B9000062004F0A9FE041E0DD00021062205F0F7
:106BA00063F8D0232370C23B21006770A370A680D6
:106BB000E8B204F081FFF8BDF0B585B001930AABEF
:106BC0001B78070002930BAB1B7808000D000092A6
:106BD000039301F061FE061E22D0102004F084FE13
:106BE000041E1DD01022002105F03EF82620FFF7DC
:106BF00059FC002800D13078D0232370C13BA3700A
:106C0000009B21002372019B67706372029BA58029
:106C1000A372039BC0B2E3720C9BE36004F04CFFD1
:106C200005B0F0BDF7B50D00019001F035FE071E6F
:106C30001FD00E2004F058FE041E1AD02620FFF7A5
:106C400031FC061E00D13E78D0232380C53BA370C3
:106C5000F91D0622E01C04F06FFE019B21006381F8
:106C600001232B40AD07ED0F23736573F0B204F0E1
:106C700023FFF7BDF0B585B0029010000D0017009E
:106C80000A9E039301F008FE041E31D0029B002BE4
:106C90002ED1039B02795B0724D5122313430422D0
:106CA000002E08D10B99002905D10C99002902D199
:106CB0000D9900291AD01A430D9B2271002B00D088
:106CC000C9E0002E00D1CFE0002D00D0CCE0606AFA
:106CD000002801D005F008F81C21300005F03CF830
:106CE000606205E002239A430E33D7E79343237192
:106CF000654BBA00D458002C00D1AAE0002E10D069
:106D0000236A002B03D11C2005F02EF820625E4B75
:106D1000BA00D358186A002803D01C22310004F0AE
:106D20000BFE0C9B002B12D0574CBB001D596B6AFD
:106D3000002B03D1162005F017F86862BB00E3585A
:106D4000586A002803D016220C9904F0F5FD0D9B1B
:106D5000002B11D04C4DBC006659B36A002B03D1F7
:106D6000142005F001F8B0622B59986A002803D06E
:106D700014220D9904F0E0FD380001F08DFD051E90
:106D800067D0414BBA00D358002B62D01A6A342026
:106D9000002A00D11C389A6A002A01D0143080B22F
:106DA0000B9A002A01D01C3080B25B6A002B01D004
:106DB000163080B204F098FD041E4AD0182200213B
:106DC00004F052FF2620FFF76DFB0190002801D14F
:106DD0002B780193D0232370029B200063700A2339
:106DE000294EA370039BBD00A371AB59A780196AFC
:106DF0001830002905D01C22A06004F09DFD200061
:106E000034307359996A002907D0030014221433CF
:106E1000E060029304F090FD02980B9B002B08D0D9
:106E200003001C221C330B992061029304F084FDA3
:106E300002987359596A002903D01622606104F040
:106E40007BFD6B462100187904F036FE3800FFF711
:106E5000E5FC05B0F0BD10220D9B0D991B69A01833
:106E6000236204F069FD2CE70B9B002B00D13FE768
:106E7000012D00D03CE7606A002801D004F034FF07
:106E80001C210B982AE7C0469464FF1F10B5044CE0
:106E90002068002803D004F027FF0023236010BDE2
:106EA0008864FF1F0B4B07B51A68002A01D1002028
:106EB0000EBD6946531C012012780731FFF774FCA0
:106EC0000028F4D002780123100018401A42EED0B6
:106ED000EEE7C046A464FF1FF0B51F4F01203B68DA
:106EE00087B0002B25D09B78059300F0B3FB0028DA
:106EF00021D00A20FFF7D6FA04000B20FFF7D2FAC0
:106F0000164B05001E78731E9E413B68F6B2191D94
:106F1000D878FFF759FB3B682900DA7A04330392EB
:106F20009A7901930292009033002000059A04F0B0
:106F3000B3FC07B0F0BDFFF7B5FF002805D0062071
:106F4000FFF7B0FA04000720D8E70820FFF7AAFAF5
:106F500004000920D2E7C0468864FF1F8464FF1F35
:106F600070B50A4E040033780D00FF2B0DD00420BD
:106F700004F0BAFC011E08D0D0230370CE3B45704C
:106F80008370C470307804F097FD70BDDC42FF1F41
:106F900070B5040006200D0004F0A6FC011E0AD006
:106FA000D0230370CD3B8370054B44701B688580F4
:106FB000187804F081FD002C01D0FFF767FF70BD49
:106FC0008864FF1FF8B5264F06003B680D001124AA
:106FD000002B05D10522234B1B78134202D112242A
:106FE0002000F8BD204A10241268002AF8D0127838
:106FF000002AF5D0DB0719D52B789A1E012A1AD85A
:107000000C2004F0B1FE132438600028E8D00023DF
:107010000A22437029000670023004F08DFCFFF74D
:107020005BFF041E0AD0FFF731FFD9E700F012FB27
:107030000028E1D1E4E7002BE2D0D0E70B4B1B782E
:10704000032BCDD11D20FFF72DFA094B1880002806
:10705000C6D0084B04211878074A04F085FBBFE727
:107060008864FF1F8564FF1FA464FF1F8464FF1FE3
:107070008264FF1FB064FF1F60EA0000F7B5019350
:10708000194B14001A78052306000F0012201A422B
:1070900021D0012920D1154B1D68002D1BD00220C5
:1070A0001F2C18D8002C02D0019B002B13D0104BA2
:1070B0001F221E706E1C0021300004F0D5FD0199C6
:1070C0002200300004F038FC310020002C70002F2A
:1070D00006D004F0F9FCFEBD064B12201D68DCE76B
:1070E00004F03AFBF7E7C0468564FF1FA464FF1F66
:1070F000DC42FF1FA064FF1FF8B50F4E1224336857
:10710000002B17D01B780F3C834213D100250B4F67
:107110000221387804F058FE094B042138781D808C
:1071200004F052FE074B28001D8033685C7004F0A9
:10713000B3FD04002000F8BD8864FF1FB064FF1F8A
:107140009C64FF1F8264FF1F70B5012823D11B4C74
:107150002388002B03D01A4A1578002D07D0194B2D
:107160001B68002B02D01878FFF7C6FF70BD3B2BC1
:1071700002D93C3B2380F9E7134E0221307804F01A
:1071800023FEFA222388920002215A43307804F029
:10719000F3FC2580EAE70B4B1B68002BE6D00B4B7A
:1071A0001B785B07E2D5084B0221187804F00CFE2F
:1071B0000022024B1A80FFF769FED7E79C64FF1F8D
:1071C0008064FF1F8864FF1FB064FF1F8564FF1F7A
:1071D000F8B51E4D2868002803D004F085FD002373
:1071E0002B601B4E3068002803D004F07DFD002387
:1071F0003360184F05243B7818002040234221D0EB
:10720000154800F02BFA3B78234213D0202004F0DD
:10721000ABFD2860002813D02022002104F024FDBB
:10722000202004F0A1FD041E306005D020220021A2
:1072300004F01AFD002004E0286804F055FD2C60DD
:107240001320F8BD00F00AFAF4E7C046A464FF1F5B
:10725000A064FF1F8564FF1FD042FF1F10B50A4CBA
:1072600023681A1E0ED0002808D10130587004F08F
:1072700013FD002805D02368002B02D00021FFF762
:1072800087FE0122100010BD8864FF1FF7B5274E4E
:10729000050033680191181E21D05C78244F012C21
:1072A00030D1FFF7FFFD002825D02000FFF7FAF8C6
:1072B0000400412814D91F4B022118781E4A04F0FB
:1072C00053FA1E4B3C3C1C80022233685A703B78B8
:1072D000002B14D128000199FFF75AFE0120FEBDB2
:1072E000FA2292004243002AEED0124B0221187873
:1072F00004F042FCE8E7FFF7D5F80200F3E70023CB
:107300003B70EBE73B78002BE8D1032004F0ECFA6C
:10731000011E08D0D0230370CC3B457083703368C6
:10732000187804F0C9FBFFF7B1FDD7E78864FF1FA9
:107330008064FF1FB064FF1F60EA00009C64FF1FB1
:1073400010B51749838802008B4220D011D8154907
:107350008B4217D0144900205B1899B2012907D835
:10736000926811785A425341D8B2FFF7F9FD0120D3
:1073700010BD0E4A00209B1807229BB29A42404142
:10738000C0B2F5E783681878FFF768FFF0E7836815
:1073900099785A78090218781143FFF777FFE7E7E1
:1073A0000A20000006200000F8DFFFFFAFDFFFFF2C
:1073B000014B18707047C046DD42FF1F10B5064CE8
:1073C000207001F045FA207804F0D6FC05212078E1
:1073D00000F068FD10BDC046B064FF1F0BB273B56E
:1073E0000D00002B00DBC4E0884B187804F014FA81
:1073F000041E0ED00378912B0FD0A22B00D1A1E058
:10740000834B1878FF2852D0210004F055FB002848
:107410004DD180200002684076BD43780F2B76D096
:1074200013D8052B70D00E2BEAD18088794B984267
:107430002BD8794B98421BD8784B9842E0D1A3685F
:107440001878591CFFF776F838E03E2BD8D18378AE
:10745000032B74D06CD8012B6ED0022BD0D1704B83
:107460001B68002B23D05B68002B20D098471EE0C0
:107470006C4BC0180C28C3D804F0BEFA1DC2C2154C
:107480000BC20B0B0B3223C23C00674BC018072802
:10749000B6D8664B1B68002B09D01B68002B06D0A2
:1074A000200098470AE0A3681878FFF7C9F8200081
:1074B00004F022FBADE7A068FFF764F800289FD036
:1074C000F5E7A3681B78002BF1D0554B1B68002B08
:1074D000EDD01B68002BEAD0210055489847EDE716
:1074E0004F4B1B68002BE2D01B68002BDFD0210024
:1074F0005048F3E7504B1B68002BD8D05B68002B3B
:10750000D5D021004348E9E7FFF7ECF9CFE78088C1
:107510004A4B984203D04A4B984200D070E7464B02
:107520001B68002BC3D05B68002BC0D02100D5E7BF
:10753000153B012BBBD963E7FFF79AFAB7E7FFF7D3
:107540007FFAB4E73F4B1B78042B07D100236A4630
:1075500013800179408800F0CBFCA8E7364B1B680C
:10756000002BA4D05B68002BA1D0010036489847BF
:107570009DE7012421420AD0294B1B68002B04D02F
:107580005B68002B01D000209847012043E78B0760
:107590000AD5264B1B68002B04D05B68002B01D05A
:1075A00020009847022036E70421280008400D42B9
:1075B00000D131E7254E3388002B21D0013B9BB20F
:1075C0003380002B1AD1FFF7DDF800280AD0204BBA
:1075D0001C70164B1B68002B04D05B68002B01D07D
:1075E00020009847FFF7C8F8694601F00CFD68468F
:1075F000FFF700F81D20FEF755FF308004200AE752
:10760000024B187804F0E0FBF8E7C046B064FF1FB7
:10761000DD42FF1F0E2000000120000009100000C5
:10762000A864FF1FFEDFFFFFAFDFFFFFAC64FF1F9B
:107630000C2000000B2000009064FF1F0D200000B4
:10764000132000008564FF1FFFFF00008264FF1FFE
:107650008064FF1F10B501F09FF910BD014B186049
:107660007047C046AC64FF1F0B880020162B01D862
:1076700017230420014A13807047C0465A64FF1F35
:1076800000207047074A03001188814207D0918883
:107690000020994202D1013080001018704700206C
:1076A000FAE7C046B864FF1FF0B58F7806000D00FA
:1076B000C5B01E2F15D1FFF7E5FF051E03D100242D
:1076C000200045B0F0BD00223B003100C0780092A0
:1076D00000F0B8FB0400A81C00F0D8FBFF23EB70FF
:1076E000EEE7264B062403931B78FF2BE8D0182FD8
:1076F000E6D87B08224A013BDB0002929A58944666
:10770000002ADDD0029AD3185B68002BD8D0087805
:10771000002802D14B78012B02D10624122FCFD1A1
:1077200007AFAB88697800976446AA68A047041E33
:10773000C6D1AB78029A5B08013BDB00D318390055
:1077400030005B689847041E0BD1AB78042BB6D091
:10775000039A310010782200009700F073FB0400B8
:10776000AEE76A78002AABD1AA7805A93B880871F0
:1077700030000A704B80FEF74BFBA0E7E042FF1F92
:1077800088BF00111D4B37B5050098420BD000296A
:107790000AD1FFF777FF002805D11948FFF772FFDC
:1077A000002800D0058037BD01291AD1FFF76AFFF4
:1077B000041EF8D001235B420380A378FF2BF2D094
:1077C000FE2B07D00023E0781422009329001E33FB
:1077D00000F038FBA01C00F059FB01235B426380E2
:1077E000E1E70229DFD1013901F0C2F80028DAD13E
:1077F0002800FFF747FF041EDFD1D4E7FEFF00009B
:10780000FFFF0000022210B5074B52421A800748C2
:1078100001325A809A80DA8000F084FA044801F03C
:1078200029F8002010BDC046B864FF1FA9760011DA
:10783000857700110388F7B50400002B02D10225DB
:107840002800FEBD42680221137825485268FEF7E1
:10785000A7FD00282ED0234F01253A88002AEFD01B
:10786000802321885B0201259B1A9942E8DC0C20C9
:1078700004F07AFA061E31D03B8822889C46002309
:107880001800019561469DB2491989B2AA421BD8D8
:10789000002801D062443A8000233000082208C04A
:1078A000210004F049F8104A1368002B13D1002579
:1078B0001660C5E76268022113780C485268FEF72B
:1078C0006FFD0028C7D1BAE760681D0140194181EA
:1078D00001330198D6E71A001B68E6E71325AFE7E6
:1078E000F6BF0011DE42FF1FB464FF1FF4BF00119A
:1078F000014B18707047C046E042FF1F14230A0076
:1079000010B51A40194204D00122102101F04CF8A0
:1079100010BD4B06F9D4C843022340001840F7E7D6
:1079200010B514008B0604D50122102101F03CF89B
:1079300010BD08230A001A40194202D14BB2002B95
:107940000FDA102101F030F8002808D02300F233BC
:107950001B78002BECD0F1342378012BE8D10020E8
:10796000E6E703208907FAD4E2E70000F0B51F003C
:10797000184B85B01C68019002910392002C27D10E
:10798000200005B0F0BDA5683301ED186B89019AA0
:10799000934211D3029A93420ED8002F04D10A9B2E
:1079A000002B10D12C00EBE73B002978039A686884
:1079B000FEF7F6FC0028F2D10136B6B2A388B34236
:1079C000E1D82468DAE7A3680A9A5B891380E9E7BB
:1079D0000026F3E7B464FF1F37B50C000A88498816
:1079E0000123914217D3002A15D0651D23792A005F
:1079F00002210A48FEF7D4FC102300280BD023797B
:107A00006188208800242A000094FFF7AFFF0A2332
:107A1000A04200D0230018003EBDC046F6BF0011B2
:107A200013B50A0008884988012388420BD800282A
:107A300009D00024137905320094FFF797FF0A2339
:107A4000A04200D02300180016BD13B50A00088814
:107A50004988012388420BD8002809D000241379D3
:107A600005320094FFF782FF0A23A04200D02300D2
:107A7000180016BDF0B58BB003904A8808880E0038
:107A80000123824213D3002811D00023012704AC24
:107A900023700022718813000092FFF767FF050032
:107AA0002078002D06D122780A23002A41D118001F
:107AB0000BB0F0BD002835D12B78022B18D16770A0
:107AC0006A8983000130E31880005A8069680222C5
:107AD000201803F031FF23780133DBB22370042B2D
:107AE00019D93B006889013080B2002BD1D0DAE788
:107AF00002236370122358436A89231804305A8082
:107B000069681022201803F017FF23780133DBB2D5
:107B10002370002BE5D10A4A6B899B185A425341C6
:107B2000DBB2DFE76378012BE4D12B78022BC7D0DF
:107B3000B9E721000398FEF795F90023B7E7C0469F
:107B40000100FFFF0F4BF0B504001868002816D0A5
:107B500083685D89A54207D88288AE18B44203DAEB
:107B600012019A18934201D10068EFE71E005F8965
:107B70001036A74204D1002900D00D801800F0BDB6
:107B80003300EFE7B464FF1F70B505000C000888F0
:107B90000021FFF7D7FF03000120002B04D02200B3
:107BA0002800197AFFF7BCFE70BDF7B50C00002560
:107BB00001902300EE331B78AB4201D800200AE08D
:107BC0006B00E65A00213000E718FFF7BBFF0028E2
:107BD00002D126800130FEBD017A0198FFF78EFEAA
:107BE000002802D03B882380F5E70135EDB2E0E7BD
:107BF00010B5040008880021FFF7A4FF030001204E
:107C0000002B03D02000197AFFF778FE10BD00008A
:107C1000054B1B68002B01D1180004E09A685289BB
:107C20008242F6D198887047B464FF1FF0B50E27E2
:107C3000002687B0039302ABFF183E8005001F4B60
:107C400040891400984207D02B78013000976A6869
:107C500080B2FFF78BFE060002212B7818486A6875
:107C6000FEF79EFB00280FD06C892000FFF7D0FFA5
:107C7000002802D0013C0419A4B2039B002B00D0C1
:107C80001C80300007B0F0BD02212B780D486A68D7
:107C9000FEF786FB0028E7D102212B780A486A68A4
:107CA000FEF77EFB002807D0002EDED03B88A342E3
:107CB000DBD17489013CDFE76C89DEE7FFFF000060
:107CC000F6BF0011F4BF0011F2BF001110B50C0097
:107CD000FFF7D8FC03000220002B0AD0002C00D0B4
:107CE00023609B781720FE2B03D00138FF2B00D197
:107CF000002010BD73B50D0001A904001600FFF7A8
:107D0000E5FF172805D0002E04D129002000FEF73A
:107D100025F976BD01221021200000F045FE002843
:107D2000F3D0F6E7014B18607047C046C464FF1FEC
:107D300037B56B469D1D010004000222280003F0A8
:107D400053FD2B88B02B0ED12379122B09D12300A0
:107D5000FA331B78012B06D10121608800F0E0F88E
:107D600001E01B2BF8D037BD10B5054B042118706E
:107D700000F098F8FFF746FDFEF76CFB10BDC0461B
:107D8000C864FF1F0020F0B50BB20F0087B083421C
:107D900034DA274B187803F03FFD051E2BD003780B
:107DA000A02B25D103AE3100FEF7E2F8041E0BD163
:107DB000B378DB0724D51F4B06341B68002B03D098
:107DC0003100688898470400A868002801D003F0B3
:107DD0004BFD002C08D1184A039B1340174A9342CD
:107DE00006D0B3781B2B03D00121688800F098F8E7
:107DF000280003F081FE80200002784007B0F0BD2B
:107E00000F4B1B68002B10D0310068889847041E68
:107E1000DAD07378002BD7D1B27801A90A704B80E1
:107E20000C716888FDF7F4FFCEE70624F1E7C04641
:107E3000C864FF1FC064FF1F00FFFF0000011200A5
:107E4000C464FF1FF7B50190FC200D0017001E0051
:107E500003F04AFD04001320002C12D0B0232000B0
:107E60002370089BF4226770658026710830002B10
:107E700008D0190003F060FD2100019803F01CFEFA
:107E80000020FEBD089903F0EFFEF5E710B5041ED3
:107E900006D00078FD2803D803F0EEFEFF23237000
:107EA00010BD00000A1F93B210B504000220032B7E
:107EB00005D882400020024BD1529B189C7010BD07
:107EC000E864FF1F0B8870B5043B04000D0002201E
:107ED000032B0BD80121200000F04AFD03001420E1
:107EE000002B03D02900200000F0DEFB70BD000055
:107EF00007B51300034A00920A00012100F02CFC90
:107F00000EBDC0462D81001107B5019203220092DB
:107F1000024B0A00122100F047FC0EBDAB8100119C
:107F200007B56B4601AA11800449D880087806334A
:107F3000012802D1190003F007FF07BDC964FF1F24
:107F40000C4B10B518700023FF210B4A13801381CE
:107F500093819380094A5380137051729381937275
:107F6000D174D3821375517703F03EFD00F0FCF914
:107F700010BDC046F864FF1FE864FF1FCA64FF1FFE
:107F8000F0B58DB06B46002003910C229B5E8342BE
:107F900000DBB1E05D4B187803F03EFC051E00D11C
:107FA000A5E00378902B00D09EE006AF0100468844
:107FB000380000F013FA79680400002900D19DE030
:107FC0003B88052B6FD13B89032B1CD905AC2000C6
:107FD00000F0A2F86288172A60D83989131D9942E7
:107FE00031D17968237804310291D90738D5607886
:107FF00000F08EF9071E06D0002303712378012BB1
:1080000008D0132B23D0A868002800D179E003F012
:108010002BFC76E06288029909A800F0A6F802908D
:10802000380000F08BF909AA2378387A01920022EF
:1080300031000092029A00F012F9380000F064F961
:10804000029B002BDFD0300000F080F9DBE70378E3
:10805000032BD8D16288029909A800F0D6F8DEE790
:1080600009AF122B12D13800029900F0B4F8021EA9
:10807000E9D127498B88002BC5D0887923780197CF
:1080800061780091310000F0EAF8BCE700233A0083
:108090003B8061783000FFF72BFFB4E71D4B09AA46
:1080A00009936178F6E7042B02D09A1F012AAAD817
:1080B000174A043B9B00995A0029A4D0D218907803
:1080C00031003A0000F0ADF800289CD13B88042B29
:1080D00003D001213000FFF723FF012C04D1A86851
:1080E000002801D003F0C0FB280003F005FD80202C
:1080F000039B0002434018000DB0F0BD012800D1E1
:1081000081E701213000FFF70BFFEDE7F864FF1F67
:10811000E864FF1F010017000B7803704B78437071
:10812000CB788A781B021343438070470A88030088
:1081300002700A88120A42700A88012A06D14A8807
:1081400082704A88120AC27004207047022082425C
:10815000FBD14A8804309A704A88120ADA708A88F9
:108160001A718A88120A5A71EFE710B504000120CB
:1081700082420CD94B780A781B0213432380834236
:1081800006D1CB788A781B0213436380002010BD90
:10819000022BFBD1CB788A781B02134363804B7987
:1081A0000A791B021343A380F0E70B8803700B8846
:1081B0001B0A43704B8883704B881B0AC3708B88E3
:1081C00003718B881B0A4371CB888371CB881B0A90
:1081D000C3710820704703000120082A14D14A788F
:1081E0000878120202431A80CA7888781202024381
:1081F0005A804A790879120202439A80CA798879AA
:10820000120202430020DA80704710B504000120FA
:10821000022A05D100204B780A781B0213432380E1
:1082200010BDF8B5060010200F00150003F05CFB30
:1082300004000120002C0ED0A0230C222900238052
:108240006780201D002D07D003F076FB2100300051
:1082500003F032FC0020F8BD03F006FDF6E7F7B5A9
:108260001E00009008AB142017001D78019103F048
:108270003BFB041E12D0A2230370019B4770438076
:10828000099B057146710C220830002B07D019009C
:1082900003F052FB2100009803F00EFCF7BD099992
:1082A00003F0E2FCF6E737B5041E0FD04388002B3D
:1082B0000CD00025C1881323007A17220195009560
:1082C000FFF7CDFFFF2365806372257037BD000087
:1082D00010B50C4904004A88002A09D08B89002B6C
:1082E00005D00020CB8A0222834201D010BD01229A
:1082F00013000A20434300204032C854C81842806B
:108300000472F3E7CA64FF1F0023438003707047C1
:10831000094B00211A0010B55C88002C06D01C798E
:10832000844203D10A234B43D01810BD01310A33D4
:108330000329F1D10020F8E7CA64FF1F10B504003B
:10834000407A03F099FCFF23637210BD704704303C
:1083500010B580B203F030FD002803D0042149425B
:1083600003F0A2FC10BD000070B50025104CA06801
:108370002580A581A580A84202D003F075FAA560EA
:1083800000250C4C0C4B606D1D80230058331D7074
:10839000A84202D003F068FA6565002560680028ED
:1083A00001D003F061FA013508340A2DF6D170BD11
:1083B0009065FF1F3465FF1F8465FF1F70B5041EA5
:1083C00009D1054D2880A881A880A868002802D07E
:1083D00003F04AFAAC6070BD9065FF1FF0B54B88A2
:1083E00085B00193002343600A7905000F00022A3B
:1083F00000D07BE0CA88032A17D98B685E78197889
:108400003602DC78D8790E4399781B7A24021B0255
:108410000C43034353495BBA0B80331D93421ED177
:10842000042C04D0631F022B0ED9012015E0019A01
:108430004D4B1201D35A002B06D00198FFF7BEFF17
:108440004A4A1369013313610421B8682E812C80D4
:10845000494203F029FC6860002005B0F0BD434D9F
:10846000042C06D0631F022B0FD9EB680133EB609D
:10847000DBE7019A3C4B1201D35A002B05D001983F
:10848000FFF79CFF2B6901332B61374B30000293C0
:10849000019B029A1B010193002301998C468B5288
:1084A000130063449C8003939E81FFF750FF039B5E
:1084B000041E986016D00421B868494203F0F4FB0A
:1084C000FA880100043A200003F036FA0199029A72
:1084D000FB888A5A043B9B18029A8B522B68013303
:1084E0002B60A2E7AB690133AB619EE71E4B0293A1
:1084F000019B1E01029BF35A002B2DD002998C196F
:10850000A068002828D0012A26D1FA889B189BB29F
:108510007352A189994217D39B1AC018B96803F006
:108520000BFA029BA289F35A934200D07DE7002206
:108530002B81A3882B80A3686B60029BF2520B4AAD
:1085400053680133536070E7084A936801339360BE
:108550000198FFF733FF68E7044A53690133536119
:10856000F6E7C046FA64FF1F9065FF1F0065FF1F16
:1085700070B5051E15D10B4C0B4B188023005833DA
:108580001870606D002802D003F06EF96565250053
:1085900050356068002801D003F066F90834AC4219
:1085A000F7D170BD3465FF1F8465FF1FF0B517005C
:1085B000A12285B0920001934243394B06001B680B
:1085C0000C009B18D933FF331D78FDF73DFF0430B5
:1085D000854204DD3000FDF737FF0430C5B2BD42EF
:1085E00007D33A0000213000019B03F08DF905B05C
:1085F000F0BD2900380003F0D7FA2300C6B250338B
:108600001E700393019B29006365380003F024FA70
:10861000CBB20293002B02D0039B01361E700026C2
:108620002300503303931B78B34204D8606D0028B5
:1086300031D10020DBE7029A2800002A04D0013B58
:108640001000B34200D02800F700E719387003F09B
:10865000D3FA786000280ED03A78019903F06CF9CB
:10866000019A3B780136D3180E4A0193D369F6B2CA
:108670000133D361D4E7039B18706065A74205D12D
:10868000084A1320D36A0133D362B0E7606803F06D
:10869000EBF80834F2E703F0E7F800236365C8E776
:1086A0003409FF1F0065FF1FF7B50D000700042107
:1086B000686803F0F9FA2B89040003702B891B0A00
:1086C00043702B8883702B881B0AC3702E89022568
:1086D0000436F6B2F42E15D81B4B9F4214D10C2051
:1086E00003F002F91135011E0CD0902303708E3B6C
:1086F0000371043B4380154B8460C680187803F0F7
:10870000DBF900252800FEBD5C237B43104AD3180B
:108710000093583301931B78002B0FD103003200D4
:1087200038000099FFF742FF019B05001B78002BE2
:10873000E8D13800009903F0CFF8E3E7054A0725B0
:10874000536A01335362DDE7FEFF0000F864FF1F48
:108750003465FF1F0065FF1FF0B587B0009017203C
:108760000F0016000193FFF7F2FD1325041E18D029
:108770000C98031E02D00199201D9847030AE3704C
:10878000052303A9A0700430088127700098667043
:108790000B804C60FFF788FF051E02D0200003F01D
:1087A00063F8280007B0F0BDF0B587B01F000CAB30
:1087B0001B780391059301210DAB06001C780492F0
:1087C00000F0D6F81425002821D02000FFF780FD06
:1087D0000135041E1BD01149059B0A780370013234
:1087E000D2B2131EC68001D101231A000B70227170
:1087F0003000049B03990097FFF7AEFF051E09D1D7
:10880000230021000648074A093303F055FA2800DF
:1088100007B0F0BD002363802370F8E7FC64FF1FFE
:10882000A782001130750000F8B505000E00064C57
:10883000064F2368002B02D03100280098470434EB
:10884000BC42F6D1F8BDC046A065FF1FB465FF1F4E
:108850000123064A5B425380002313715362044A8A
:10886000136053609360D36013617047B465FF1F5A
:10887000A065FF1F0200002310B506499C0008599F
:10888000002801D1625010BD0133052BF6D1132011
:10889000F9E7C046A065FF1F034A5388181A4342F0
:1088A0005841404210407047B465FF1FF0B585B095
:1088B00002930AAB1F780CAB1B88009008000E00D7
:1088C00001920393FFF7E8FF05001120002D1BD153
:1088D0000E48FFF7E1FF04001520002C14D00622FB
:1088E0000B99A771E01D03F027F8019B300023715D
:1088F000029B29006371009B66802370039B656265
:10890000E381FFF791FF280005B0F0BDFFFF0000F5
:1089100010B5FFF7C1FF04000220002C12D06088C0
:108920000121FFF781FF606A002801D003F0DCF924
:1089300028220021200003F097F9012300205B4248
:108940006380207110BD000030B5074A074C558880
:10895000010013780020A54204D05B1A59424B4114
:108960005842104030BDC046B465FF1FFFFF0000F5
:10897000084A10B501230C00904208D0FFF78CFF85
:10898000031E04D0037923405A1E9341DBB2180022
:1089900010BDC046FEFF0000024B1879431E9841EF
:1089A000C0B27047B465FF1F70B504000D0016001B
:1089B000FFF772FF002804D10F4B9C4200D0143007
:1089C00070BD10230279416A134000290AD10520A5
:1089D000002BF5D0897E0C20A942894149424942A9
:1089E0000840EDE70F20002BEAD09207F2D40A38B6
:1089F000002EEFD0E4E7C046FEFF0000030010B5F4
:108A0000002800D110BD0348034A41889142F9D0A3
:108A10009847F7E7B465FF1FFFFF0000002330B55C
:108A2000C45CCD5C6C40D4540133102BF8D130BD04
:108A30000F23002210B5C45C64002243CA54C25CF8
:108A4000D209013BF7D210BD0200010010B520325F
:108A5000103102F0F9FE10BDF0B58DB00590102078
:108A600007931700069103F07FF90190102003F09F
:108A70007BF9019B13240290002B05D000280CD118
:108A80001324019803F030F9029B002B02D0180048
:108A900003F02AF920000DB0F0BD102003F064F9B6
:108AA0000600102003F060F913240500002E00D109
:108AB000B3E0002819D01022002103F0D5F83200CD
:108AC0002900059802F0C0FE041E0ED133787F2BDA
:108AD00056D830000199FFF7ABFF019B1B787F2B25
